{
  "contractName": "OneVote",
  "abi": [
    {
      "inputs": [],
      "stateMutability": "nonpayable",
      "type": "constructor"
    },
    {
      "anonymous": false,
      "inputs": [
        {
          "indexed": false,
          "internalType": "address",
          "name": "from",
          "type": "address"
        },
        {
          "indexed": false,
          "internalType": "address",
          "name": "to",
          "type": "address"
        },
        {
          "indexed": false,
          "internalType": "uint256",
          "name": "tokenId",
          "type": "uint256"
        }
      ],
      "name": "Assigned",
      "type": "event"
    },
    {
      "anonymous": false,
      "inputs": [
        {
          "indexed": false,
          "internalType": "string",
          "name": "_name",
          "type": "string"
        },
        {
          "indexed": false,
          "internalType": "string",
          "name": "_officeTitle",
          "type": "string"
        },
        {
          "indexed": false,
          "internalType": "uint64",
          "name": "_electionStart",
          "type": "uint64"
        }
      ],
      "name": "CandidateAdded",
      "type": "event"
    },
    {
      "anonymous": false,
      "inputs": [
        {
          "indexed": false,
          "internalType": "address",
          "name": "owner",
          "type": "address"
        },
        {
          "indexed": false,
          "internalType": "uint256",
          "name": "citizenId",
          "type": "uint256"
        },
        {
          "indexed": false,
          "internalType": "uint256",
          "name": "stateId",
          "type": "uint256"
        },
        {
          "indexed": false,
          "internalType": "uint256",
          "name": "zipCode",
          "type": "uint256"
        }
      ],
      "name": "CitizenAdded",
      "type": "event"
    },
    {
      "anonymous": false,
      "inputs": [
        {
          "indexed": false,
          "internalType": "string",
          "name": "_officeTitle",
          "type": "string"
        },
        {
          "indexed": false,
          "internalType": "uint256",
          "name": "_zipCode",
          "type": "uint256"
        },
        {
          "indexed": false,
          "internalType": "uint64",
          "name": "_electionStart",
          "type": "uint64"
        },
        {
          "indexed": false,
          "internalType": "uint64",
          "name": "_electionEnd",
          "type": "uint64"
        },
        {
          "indexed": false,
          "internalType": "uint256",
          "name": "_electionId",
          "type": "uint256"
        }
      ],
      "name": "ElectionAdded",
      "type": "event"
    },
    {
      "anonymous": false,
      "inputs": [
        {
          "indexed": false,
          "internalType": "uint256",
          "name": "citizenId",
          "type": "uint256"
        },
        {
          "indexed": false,
          "internalType": "address",
          "name": "citzenAddress",
          "type": "address"
        },
        {
          "indexed": false,
          "internalType": "string",
          "name": "reasonForLoseOfCitizenship",
          "type": "string"
        }
      ],
      "name": "NoLongerACitizen",
      "type": "event"
    },
    {
      "anonymous": false,
      "inputs": [
        {
          "indexed": false,
          "internalType": "string",
          "name": "_officeTitle",
          "type": "string"
        },
        {
          "indexed": false,
          "internalType": "uint256",
          "name": "_zipCode",
          "type": "uint256"
        },
        {
          "indexed": false,
          "internalType": "uint256",
          "name": "_officeId",
          "type": "uint256"
        }
      ],
      "name": "OfficeAdded",
      "type": "event"
    },
    {
      "anonymous": false,
      "inputs": [
        {
          "indexed": true,
          "internalType": "bytes32",
          "name": "role",
          "type": "bytes32"
        },
        {
          "indexed": true,
          "internalType": "bytes32",
          "name": "previousAdminRole",
          "type": "bytes32"
        },
        {
          "indexed": true,
          "internalType": "bytes32",
          "name": "newAdminRole",
          "type": "bytes32"
        }
      ],
      "name": "RoleAdminChanged",
      "type": "event"
    },
    {
      "anonymous": false,
      "inputs": [
        {
          "indexed": true,
          "internalType": "bytes32",
          "name": "role",
          "type": "bytes32"
        },
        {
          "indexed": true,
          "internalType": "address",
          "name": "account",
          "type": "address"
        },
        {
          "indexed": true,
          "internalType": "address",
          "name": "sender",
          "type": "address"
        }
      ],
      "name": "RoleGranted",
      "type": "event"
    },
    {
      "anonymous": false,
      "inputs": [
        {
          "indexed": true,
          "internalType": "bytes32",
          "name": "role",
          "type": "bytes32"
        },
        {
          "indexed": true,
          "internalType": "address",
          "name": "account",
          "type": "address"
        },
        {
          "indexed": true,
          "internalType": "address",
          "name": "sender",
          "type": "address"
        }
      ],
      "name": "RoleRevoked",
      "type": "event"
    },
    {
      "anonymous": false,
      "inputs": [
        {
          "indexed": false,
          "internalType": "uint256",
          "name": "_candidateId",
          "type": "uint256"
        },
        {
          "indexed": false,
          "internalType": "uint256",
          "name": "_electionId",
          "type": "uint256"
        },
        {
          "indexed": false,
          "internalType": "uint64",
          "name": "timeVoteCast",
          "type": "uint64"
        }
      ],
      "name": "VoteCast",
      "type": "event"
    },
    {
      "anonymous": false,
      "inputs": [
        {
          "indexed": false,
          "internalType": "uint256",
          "name": "_candidateId",
          "type": "uint256"
        },
        {
          "indexed": false,
          "internalType": "uint256",
          "name": "_officeId",
          "type": "uint256"
        },
        {
          "indexed": false,
          "internalType": "uint64",
          "name": "_voteCount",
          "type": "uint64"
        },
        {
          "indexed": false,
          "internalType": "uint64",
          "name": "timestamp",
          "type": "uint64"
        },
        {
          "indexed": false,
          "internalType": "address",
          "name": "confirmedBy",
          "type": "address"
        }
      ],
      "name": "Winner",
      "type": "event"
    },
    {
      "inputs": [],
      "name": "DEFAULT_ADMIN_ROLE",
      "outputs": [
        {
          "internalType": "bytes32",
          "name": "",
          "type": "bytes32"
        }
      ],
      "stateMutability": "view",
      "type": "function",
      "constant": true
    },
    {
      "inputs": [],
      "name": "LOCAL_ADMIN_ROLE",
      "outputs": [
        {
          "internalType": "bytes32",
          "name": "",
          "type": "bytes32"
        }
      ],
      "stateMutability": "view",
      "type": "function",
      "constant": true
    },
    {
      "inputs": [
        {
          "internalType": "uint256",
          "name": "",
          "type": "uint256"
        }
      ],
      "name": "candidateIsApprovedToRun",
      "outputs": [
        {
          "internalType": "bool",
          "name": "",
          "type": "bool"
        }
      ],
      "stateMutability": "view",
      "type": "function",
      "constant": true
    },
    {
      "inputs": [
        {
          "internalType": "address",
          "name": "",
          "type": "address"
        }
      ],
      "name": "citizenIdOfAddress",
      "outputs": [
        {
          "internalType": "uint256",
          "name": "",
          "type": "uint256"
        }
      ],
      "stateMutability": "view",
      "type": "function",
      "constant": true
    },
    {
      "inputs": [
        {
          "internalType": "uint256",
          "name": "",
          "type": "uint256"
        }
      ],
      "name": "citizenIdToCitizen",
      "outputs": [
        {
          "internalType": "uint256",
          "name": "stateId",
          "type": "uint256"
        },
        {
          "internalType": "string",
          "name": "name",
          "type": "string"
        },
        {
          "internalType": "int64",
          "name": "dateOfBirth",
          "type": "int64"
        },
        {
          "internalType": "uint256",
          "name": "zipCode",
          "type": "uint256"
        },
        {
          "internalType": "uint64",
          "name": "dateApproved",
          "type": "uint64"
        },
        {
          "internalType": "bool",
          "name": "citizenship",
          "type": "bool"
        },
        {
          "internalType": "uint256",
          "name": "citizenId",
          "type": "uint256"
        }
      ],
      "stateMutability": "view",
      "type": "function",
      "constant": true
    },
    {
      "inputs": [
        {
          "internalType": "uint256",
          "name": "",
          "type": "uint256"
        }
      ],
      "name": "citizenIndexToOwner",
      "outputs": [
        {
          "internalType": "address",
          "name": "",
          "type": "address"
        }
      ],
      "stateMutability": "view",
      "type": "function",
      "constant": true
    },
    {
      "inputs": [
        {
          "internalType": "bytes32",
          "name": "role",
          "type": "bytes32"
        }
      ],
      "name": "getRoleAdmin",
      "outputs": [
        {
          "internalType": "bytes32",
          "name": "",
          "type": "bytes32"
        }
      ],
      "stateMutability": "view",
      "type": "function",
      "constant": true
    },
    {
      "inputs": [
        {
          "internalType": "bytes32",
          "name": "role",
          "type": "bytes32"
        },
        {
          "internalType": "uint256",
          "name": "index",
          "type": "uint256"
        }
      ],
      "name": "getRoleMember",
      "outputs": [
        {
          "internalType": "address",
          "name": "",
          "type": "address"
        }
      ],
      "stateMutability": "view",
      "type": "function",
      "constant": true
    },
    {
      "inputs": [
        {
          "internalType": "bytes32",
          "name": "role",
          "type": "bytes32"
        }
      ],
      "name": "getRoleMemberCount",
      "outputs": [
        {
          "internalType": "uint256",
          "name": "",
          "type": "uint256"
        }
      ],
      "stateMutability": "view",
      "type": "function",
      "constant": true
    },
    {
      "inputs": [
        {
          "internalType": "bytes32",
          "name": "role",
          "type": "bytes32"
        },
        {
          "internalType": "address",
          "name": "account",
          "type": "address"
        }
      ],
      "name": "grantRole",
      "outputs": [],
      "stateMutability": "nonpayable",
      "type": "function"
    },
    {
      "inputs": [
        {
          "internalType": "bytes32",
          "name": "role",
          "type": "bytes32"
        },
        {
          "internalType": "address",
          "name": "account",
          "type": "address"
        }
      ],
      "name": "hasRole",
      "outputs": [
        {
          "internalType": "bool",
          "name": "",
          "type": "bool"
        }
      ],
      "stateMutability": "view",
      "type": "function",
      "constant": true
    },
    {
      "inputs": [
        {
          "internalType": "uint256",
          "name": "",
          "type": "uint256"
        }
      ],
      "name": "officeIsUpForElection",
      "outputs": [
        {
          "internalType": "bool",
          "name": "",
          "type": "bool"
        }
      ],
      "stateMutability": "view",
      "type": "function",
      "constant": true
    },
    {
      "inputs": [
        {
          "internalType": "bytes32",
          "name": "role",
          "type": "bytes32"
        },
        {
          "internalType": "address",
          "name": "account",
          "type": "address"
        }
      ],
      "name": "renounceRole",
      "outputs": [],
      "stateMutability": "nonpayable",
      "type": "function"
    },
    {
      "inputs": [
        {
          "internalType": "bytes32",
          "name": "role",
          "type": "bytes32"
        },
        {
          "internalType": "address",
          "name": "account",
          "type": "address"
        }
      ],
      "name": "revokeRole",
      "outputs": [],
      "stateMutability": "nonpayable",
      "type": "function"
    },
    {
      "inputs": [
        {
          "internalType": "address",
          "name": "owner",
          "type": "address"
        }
      ],
      "name": "getCitizenId",
      "outputs": [
        {
          "internalType": "uint256",
          "name": "",
          "type": "uint256"
        }
      ],
      "stateMutability": "view",
      "type": "function",
      "constant": true
    },
    {
      "inputs": [
        {
          "internalType": "uint256",
          "name": "_citizenId",
          "type": "uint256"
        },
        {
          "internalType": "uint256",
          "name": "_stateId",
          "type": "uint256"
        },
        {
          "internalType": "uint256",
          "name": "_officeId",
          "type": "uint256"
        },
        {
          "internalType": "uint256",
          "name": "_electionId",
          "type": "uint256"
        }
      ],
      "name": "createCandidate",
      "outputs": [
        {
          "internalType": "uint256",
          "name": "",
          "type": "uint256"
        }
      ],
      "stateMutability": "nonpayable",
      "type": "function"
    },
    {
      "inputs": [
        {
          "internalType": "uint256",
          "name": "_candidateId",
          "type": "uint256"
        }
      ],
      "name": "getCandidate",
      "outputs": [
        {
          "internalType": "string",
          "name": "name",
          "type": "string"
        },
        {
          "internalType": "string",
          "name": "officeTitle",
          "type": "string"
        },
        {
          "internalType": "uint256",
          "name": "zipCode",
          "type": "uint256"
        }
      ],
      "stateMutability": "view",
      "type": "function",
      "constant": true
    },
    {
      "inputs": [
        {
          "internalType": "string",
          "name": "_officeTitle",
          "type": "string"
        },
        {
          "internalType": "uint256",
          "name": "_zipCode",
          "type": "uint256"
        },
        {
          "internalType": "int64",
          "name": "_requiredAge",
          "type": "int64"
        }
      ],
      "name": "createOffice",
      "outputs": [
        {
          "internalType": "uint256",
          "name": "",
          "type": "uint256"
        }
      ],
      "stateMutability": "nonpayable",
      "type": "function"
    },
    {
      "inputs": [
        {
          "internalType": "uint256",
          "name": "_officeId",
          "type": "uint256"
        }
      ],
      "name": "getOffice",
      "outputs": [
        {
          "internalType": "string",
          "name": "officeTitle",
          "type": "string"
        },
        {
          "internalType": "uint256",
          "name": "zipCode",
          "type": "uint256"
        },
        {
          "internalType": "int64",
          "name": "requiredAge",
          "type": "int64"
        },
        {
          "internalType": "bool",
          "name": "isOpenForElection",
          "type": "bool"
        }
      ],
      "stateMutability": "view",
      "type": "function",
      "constant": true
    },
    {
      "inputs": [
        {
          "internalType": "uint256",
          "name": "_officeId",
          "type": "uint256"
        },
        {
          "internalType": "uint64",
          "name": "_start",
          "type": "uint64"
        },
        {
          "internalType": "uint64",
          "name": "_end",
          "type": "uint64"
        }
      ],
      "name": "createAnElection",
      "outputs": [
        {
          "internalType": "uint256",
          "name": "",
          "type": "uint256"
        }
      ],
      "stateMutability": "nonpayable",
      "type": "function"
    },
    {
      "inputs": [
        {
          "internalType": "uint256",
          "name": "_electionId",
          "type": "uint256"
        }
      ],
      "name": "getElection",
      "outputs": [
        {
          "internalType": "string",
          "name": "officeTitle",
          "type": "string"
        },
        {
          "internalType": "uint256",
          "name": "zipCode",
          "type": "uint256"
        },
        {
          "internalType": "uint64",
          "name": "electionStart",
          "type": "uint64"
        },
        {
          "internalType": "uint64",
          "name": "electionEnd",
          "type": "uint64"
        },
        {
          "internalType": "uint256[]",
          "name": "candidateIds",
          "type": "uint256[]"
        }
      ],
      "stateMutability": "view",
      "type": "function",
      "constant": true
    },
    {
      "inputs": [
        {
          "internalType": "uint256",
          "name": "_citizenId",
          "type": "uint256"
        },
        {
          "internalType": "uint256",
          "name": "voteForCandidateId",
          "type": "uint256"
        },
        {
          "internalType": "uint256",
          "name": "_electionId",
          "type": "uint256"
        }
      ],
      "name": "vote",
      "outputs": [],
      "stateMutability": "nonpayable",
      "type": "function"
    },
    {
      "inputs": [
        {
          "internalType": "uint256",
          "name": "_candidateId",
          "type": "uint256"
        }
      ],
      "name": "getResultsOfCandidate",
      "outputs": [
        {
          "internalType": "string",
          "name": "_officeTitle",
          "type": "string"
        },
        {
          "internalType": "uint256",
          "name": "_zipCode",
          "type": "uint256"
        },
        {
          "internalType": "string",
          "name": "_candidateName",
          "type": "string"
        },
        {
          "internalType": "uint64",
          "name": "_voteCount",
          "type": "uint64"
        }
      ],
      "stateMutability": "view",
      "type": "function",
      "constant": true
    },
    {
      "inputs": [
        {
          "internalType": "uint256",
          "name": "_electionId",
          "type": "uint256"
        }
      ],
      "name": "getHighestVoteTotal",
      "outputs": [
        {
          "internalType": "uint64",
          "name": "",
          "type": "uint64"
        }
      ],
      "stateMutability": "view",
      "type": "function",
      "constant": true
    },
    {
      "inputs": [
        {
          "internalType": "uint256",
          "name": "_candidateId",
          "type": "uint256"
        }
      ],
      "name": "declareWinnerOfElection",
      "outputs": [],
      "stateMutability": "nonpayable",
      "type": "function"
    }
  ],
  "bytecode": "0x60806040523480156200001157600080fd5b50620000276000801b33620000a460201b60201c565b60046001816001815401808255809150500390600052602060002090505060018081600181540180825580915050039060005260206000209050506003600181600181540180825580915050039060005260206000209050506002600181600181540180825580915050039060005260206000209050506200023a565b620000b68282620000ba60201b60201c565b5050565b620000e8816000808581526020019081526020016000206000016200015d60201b620037e81790919060201c565b156200015957620000fe6200019560201b60201c565b73ffffffffffffffffffffffffffffffffffffffff168173ffffffffffffffffffffffffffffffffffffffff16837f2f8788117e7eff1d82e926ec794901d17c78024a50270940304540a733656f0d60405160405180910390a45b5050565b60006200018d836000018373ffffffffffffffffffffffffffffffffffffffff1660001b6200019d60201b60201c565b905092915050565b600033905090565b6000620001b183836200021760201b60201c565b6200020c57826000018290806001815401808255809150506001900390600052602060002001600090919091909150558260000180549050836001016000848152602001908152602001600020819055506001905062000211565b600090505b92915050565b600080836001016000848152602001908152602001600020541415905092915050565b614417806200024a6000396000f3fe608060405234801561001057600080fd5b50600436106101735760003560e01c80638a6655d6116100de578063ca15c87311610097578063d547741f11610071578063d547741f14610b38578063da12095b14610b86578063e2481dbd14610c6c578063eee6f9bd14610c8a57610173565b8063ca15c87314610a84578063ce1b6c2914610ac6578063d0fb300a14610af457610173565b80638a6655d6146107ee5780639010d07c1461083057806391d14854146108925780639d710777146108f6578063a217fddf14610a0e578063b06b2df114610a2c57610173565b806336568abe1161013057806336568abe146104b057806351477075146104fe57806360a21d4b1461054a57806367bb9753146105aa5780637ce74d13146106025780637f5880a11461072d57610173565b806321f0736414610178578063248a9ca3146101bc5780632c051df5146101fe5780632f2ff15d146102de578063320db3761461032c57806335b8e82014610396575b600080fd5b6101a46004803603602081101561018e57600080fd5b8101908080359060200190929190505050610ce2565b60405180821515815260200191505060405180910390f35b6101e8600480360360208110156101d257600080fd5b8101908080359060200190929190505050610d02565b6040518082815260200191505060405180910390f35b61022a6004803603602081101561021457600080fd5b8101908080359060200190929190505050610d21565b60405180888152602001806020018760070b81526020018681526020018567ffffffffffffffff1681526020018415158152602001838152602001828103825288818151815260200191508051906020019080838360005b8381101561029d578082015181840152602081019050610282565b50505050905090810190601f1680156102ca5780820380516001836020036101000a031916815260200191505b509850505050505050505060405180910390f35b61032a600480360360408110156102f457600080fd5b8101908080359060200190929190803573ffffffffffffffffffffffffffffffffffffffff169060200190929190505050610e29565b005b6103806004803603606081101561034257600080fd5b8101908080359060200190929190803567ffffffffffffffff169060200190929190803567ffffffffffffffff169060200190929190505050610eb2565b6040518082815260200191505060405180910390f35b6103c2600480360360208110156103ac57600080fd5b81019080803590602001909291905050506112c8565b604051808060200180602001848152602001838103835286818151815260200191508051906020019080838360005b8381101561040c5780820151818401526020810190506103f1565b50505050905090810190601f1680156104395780820380516001836020036101000a031916815260200191505b50838103825285818151815260200191508051906020019080838360005b83811015610472578082015181840152602081019050610457565b50505050905090810190601f16801561049f5780820380516001836020036101000a031916815260200191505b509550505050505060405180910390f35b6104fc600480360360408110156104c657600080fd5b8101908080359060200190929190803573ffffffffffffffffffffffffffffffffffffffff1690602001909291905050506115a1565b005b61052a6004803603602081101561051457600080fd5b810190808035906020019092919050505061163a565b604051808267ffffffffffffffff16815260200191505060405180910390f35b6105946004803603608081101561056057600080fd5b81019080803590602001909291908035906020019092919080359060200190929190803590602001909291905050506118b9565b6040518082815260200191505060405180910390f35b6105d6600480360360208110156105c057600080fd5b81019080803590602001909291905050506122b4565b604051808273ffffffffffffffffffffffffffffffffffffffff16815260200191505060405180910390f35b61062e6004803603602081101561061857600080fd5b81019080803590602001909291905050506122e7565b6040518080602001858152602001806020018467ffffffffffffffff168152602001838103835287818151815260200191508051906020019080838360005b8381101561068857808201518184015260208101905061066d565b50505050905090810190601f1680156106b55780820380516001836020036101000a031916815260200191505b50838103825285818151815260200191508051906020019080838360005b838110156106ee5780820151818401526020810190506106d3565b50505050905090810190601f16801561071b5780820380516001836020036101000a031916815260200191505b50965050505050505060405180910390f35b6107596004803603602081101561074357600080fd5b8101908080359060200190929190505050612566565b60405180806020018581526020018460070b81526020018315158152602001828103825286818151815260200191508051906020019080838360005b838110156107b0578082015181840152602081019050610795565b50505050905090810190601f1680156107dd5780820380516001836020036101000a031916815260200191505b509550505050505060405180910390f35b61082e6004803603606081101561080457600080fd5b81019080803590602001909291908035906020019092919080359060200190929190505050612670565b005b6108666004803603604081101561084657600080fd5b810190808035906020019092919080359060200190929190505050612e81565b604051808273ffffffffffffffffffffffffffffffffffffffff16815260200191505060405180910390f35b6108de600480360360408110156108a857600080fd5b8101908080359060200190929190803573ffffffffffffffffffffffffffffffffffffffff169060200190929190505050612eb2565b60405180821515815260200191505060405180910390f35b6109226004803603602081101561090c57600080fd5b8101908080359060200190929190505050612ee3565b60405180806020018681526020018567ffffffffffffffff1681526020018467ffffffffffffffff16815260200180602001838103835288818151815260200191508051906020019080838360005b8381101561098c578082015181840152602081019050610971565b50505050905090810190601f1680156109b95780820380516001836020036101000a031916815260200191505b50838103825284818151815260200191508051906020019060200280838360005b838110156109f55780820151818401526020810190506109da565b5050505090500197505050505050505060405180910390f35b610a166130e8565b6040518082815260200191505060405180910390f35b610a6e60048036036020811015610a4257600080fd5b81019080803573ffffffffffffffffffffffffffffffffffffffff1690602001909291905050506130ef565b6040518082815260200191505060405180910390f35b610ab060048036036020811015610a9a57600080fd5b81019080803590602001909291905050506131d7565b6040518082815260200191505060405180910390f35b610af260048036036020811015610adc57600080fd5b81019080803590602001909291905050506131fd565b005b610b2060048036036020811015610b0a57600080fd5b810190808035906020019092919050505061346c565b60405180821515815260200191505060405180910390f35b610b8460048036036040811015610b4e57600080fd5b8101908080359060200190929190803573ffffffffffffffffffffffffffffffffffffffff16906020019092919050505061348c565b005b610c5660048036036060811015610b9c57600080fd5b8101908080359060200190640100000000811115610bb957600080fd5b820183602082011115610bcb57600080fd5b80359060200191846001830284011164010000000083111715610bed57600080fd5b91908080601f016020809104026020016040519081016040528093929190818152602001838380828437600081840152601f19601f82011690508083019250505050505050919291929080359060200190929190803560070b9060200190929190505050613515565b6040518082815260200191505060405180910390f35b610c746137ac565b6040518082815260200191505060405180910390f35b610ccc60048036036020811015610ca057600080fd5b81019080803573ffffffffffffffffffffffffffffffffffffffff1690602001909291905050506137d0565b6040518082815260200191505060405180910390f35b600a6020528060005260406000206000915054906101000a900460ff1681565b6000806000838152602001908152602001600020600201549050919050565b6007602052806000526040600020600091509050806000015490806001018054600181600116156101000203166002900480601f016020809104026020016040519081016040528092919081815260200182805460018160011615610100020316600290048015610dd35780601f10610da857610100808354040283529160200191610dd3565b820191906000526020600020905b815481529060010190602001808311610db657829003601f168201915b5050505050908060020160009054906101000a900460070b908060030154908060040160009054906101000a900467ffffffffffffffff16908060040160089054906101000a900460ff16908060050154905087565b610e4f60008084815260200190815260200160002060020154610e4a613818565b612eb2565b610ea4576040517f08c379a000000000000000000000000000000000000000000000000000000000815260040180806020018281038252602f815260200180613fcb602f913960400191505060405180910390fd5b610eae8282613820565b5050565b600060011515600b600086815260200190815260200160002060009054906101000a900460ff16151514610f4e576040517f08c379a000000000000000000000000000000000000000000000000000000000815260040180806020018281038252601d8152602001807f4f6666696365206973204e4f5420757020666f7220656c656374696f6e00000081525060200191505060405180910390fd5b60011515610f5f6000801b33612eb2565b15151480610f9a575060011515610f967fb7f8beecafe1ad662cec1153812612581a86b9460f21b876f3ee163141203dcb33612eb2565b1515145b610fef576040517f08c379a000000000000000000000000000000000000000000000000000000000815260040180806020018281038252602e8152602001806143b4602e913960400191505060405180910390fd5b600460018160018154018082558091505003906000526020600020905050611015613df6565b6003858154811061102257fe5b90600052602060002090600402016040518060a0016040529081600082018054600181600116156101000203166002900480601f0160208091040260200160405190810160405280929190818152602001828054600181600116156101000203166002900480156110d45780601f106110a9576101008083540402835291602001916110d4565b820191906000526020600020905b8154815290600101906020018083116110b757829003601f168201915b50505050508152602001600182015481526020016002820160009054906101000a900460070b60070b60070b81526020016002820160089054906101000a900467ffffffffffffffff1667ffffffffffffffff1667ffffffffffffffff1681526020016003820154815250509050600060046001600480549050038154811061115957fe5b90600052602060002090600402019050858160000181905550848160010160006101000a81548167ffffffffffffffff021916908367ffffffffffffffff160217905550838160010160086101000a81548167ffffffffffffffff021916908367ffffffffffffffff1602179055506004805490508160020181905550600060016004805490500390507fa951106ad0f6639e96325687aa3ef355f8b1d0e0a7bce6446da8c7971a2c04698360000151846020015188888560405180806020018681526020018567ffffffffffffffff1681526020018467ffffffffffffffff168152602001838152602001828103825287818151815260200191508051906020019080838360005b8381101561127d578082015181840152602081019050611262565b50505050905090810190601f1680156112aa5780820380516001836020036101000a031916815260200191505b50965050505050505060405180910390a18093505050509392505050565b606080600080600285815481106112db57fe5b906000526020600020906005020190506112f3613df6565b600382600101548154811061130457fe5b90600052602060002090600402016040518060a0016040529081600082018054600181600116156101000203166002900480601f0160208091040260200160405190810160405280929190818152602001828054600181600116156101000203166002900480156113b65780601f1061138b576101008083540402835291602001916113b6565b820191906000526020600020905b81548152906001019060200180831161139957829003601f168201915b50505050508152602001600182015481526020016002820160009054906101000a900460070b60070b60070b81526020016002820160089054906101000a900467ffffffffffffffff1667ffffffffffffffff1667ffffffffffffffff168152602001600382015481525050905061142c613e32565b600183600001548154811061143d57fe5b90600052602060002090600602016040518060e001604052908160008201548152602001600182018054600181600116156101000203166002900480601f0160208091040260200160405190810160405280929190818152602001828054600181600116156101000203166002900480156114f95780601f106114ce576101008083540402835291602001916114f9565b820191906000526020600020905b8154815290600101906020018083116114dc57829003601f168201915b505050505081526020016002820160009054906101000a900460070b60070b60070b8152602001600382015481526020016004820160009054906101000a900467ffffffffffffffff1667ffffffffffffffff1667ffffffffffffffff1681526020016004820160089054906101000a900460ff1615151515815260200160058201548152505090508060200151955081600001519450816020015193505050509193909250565b6115a9613818565b73ffffffffffffffffffffffffffffffffffffffff168173ffffffffffffffffffffffffffffffffffffffff161461162c576040517f08c379a000000000000000000000000000000000000000000000000000000000815260040180806020018281038252602f815260200180614385602f913960400191505060405180910390fd5b61163682826138b3565b5050565b6000611644613e7e565b6004838154811061165157fe5b90600052602060002090600402016040518060a0016040529081600082015481526020016001820160009054906101000a900467ffffffffffffffff1667ffffffffffffffff1667ffffffffffffffff1681526020016001820160089054906101000a900467ffffffffffffffff1667ffffffffffffffff1667ffffffffffffffff168152602001600282015481526020016003820180548060200260200160405190810160405280929190818152602001828054801561173157602002820191906000526020600020905b81548152602001906001019080831161171d575b50505050508152505090504267ffffffffffffffff16816040015167ffffffffffffffff1611156117ad576040517f08c379a000000000000000000000000000000000000000000000000000000000815260040180806020018281038252604b81526020018061408a604b913960600191505060405180910390fd5b6000805b82608001515181116118ae576117c5613ec1565b600282815481106117d257fe5b90600052602060002090600502016040518060c00160405290816000820154815260200160018201548152602001600282015481526020016003820160009054906101000a900467ffffffffffffffff1667ffffffffffffffff1667ffffffffffffffff1681526020016003820160089054906101000a900467ffffffffffffffff1667ffffffffffffffff1667ffffffffffffffff16815260200160048201548152505090508267ffffffffffffffff16816060015167ffffffffffffffff16106118a057806060015192505b5080806001019150506117b1565b508092505050919050565b6000600115156008600086815260200190815260200160002060009054906101000a900460ff16151514611938576040517f08c379a00000000000000000000000000000000000000000000000000000000081526004018080602001828103825260298152602001806142536029913960400191505060405180910390fd5b60011515600960003373ffffffffffffffffffffffffffffffffffffffff1673ffffffffffffffffffffffffffffffffffffffff16815260200190815260200160002060009054906101000a900460ff161515146119e1576040517f08c379a000000000000000000000000000000000000000000000000000000000815260040180806020018281038252602b81526020018061427c602b913960400191505060405180910390fd5b3373ffffffffffffffffffffffffffffffffffffffff166005600087815260200190815260200160002060009054906101000a900473ffffffffffffffffffffffffffffffffffffffff1673ffffffffffffffffffffffffffffffffffffffff1614611a98576040517f08c379a00000000000000000000000000000000000000000000000000000000081526004018080602001828103825260378152602001806141a26037913960400191505060405180910390fd5b611aa0613e32565b600760008781526020019081526020016000206040518060e001604052908160008201548152602001600182018054600181600116156101000203166002900480601f016020809104026020016040519081016040528092919081815260200182805460018160011615610100020316600290048015611b615780601f10611b3657610100808354040283529160200191611b61565b820191906000526020600020905b815481529060010190602001808311611b4457829003601f168201915b505050505081526020016002820160009054906101000a900460070b60070b60070b8152602001600382015481526020016004820160009054906101000a900467ffffffffffffffff1667ffffffffffffffff1667ffffffffffffffff1681526020016004820160089054906101000a900460ff161515151581526020016005820154815250509050611bf2613df6565b60038581548110611bff57fe5b90600052602060002090600402016040518060a0016040529081600082018054600181600116156101000203166002900480601f016020809104026020016040519081016040528092919081815260200182805460018160011615610100020316600290048015611cb15780601f10611c8657610100808354040283529160200191611cb1565b820191906000526020600020905b815481529060010190602001808311611c9457829003601f168201915b50505050508152602001600182015481526020016002820160009054906101000a900460070b60070b60070b81526020016002820160089054906101000a900467ffffffffffffffff1667ffffffffffffffff1667ffffffffffffffff1681526020016003820154815250509050611d27613e7e565b60048581548110611d3457fe5b90600052602060002090600402016040518060a0016040529081600082015481526020016001820160009054906101000a900467ffffffffffffffff1667ffffffffffffffff1667ffffffffffffffff1681526020016001820160089054906101000a900467ffffffffffffffff1667ffffffffffffffff1667ffffffffffffffff1681526020016002820154815260200160038201805480602002602001604051908101604052809291908181526020018280548015611e1457602002820191906000526020600020905b815481526020019060010190808311611e00575b5050505050815250509050600115158360a00151151514611e9d576040517f08c379a000000000000000000000000000000000000000000000000000000000815260040180806020018281038252601b8152602001807f596f7520617265206e6f206c6f6e676572206120636974697a656e000000000081525060200191505060405180910390fd5b86836000015114611ef9576040517f08c379a00000000000000000000000000000000000000000000000000000000081526004018080602001828103825260268152602001806142fe6026913960400191505060405180910390fd5b60011515600b600088815260200190815260200160002060009054906101000a900460ff16151514611f93576040517f08c379a000000000000000000000000000000000000000000000000000000000815260040180806020018281038252601d8152602001807f4f6666696365206973204e4f5420757020666f7220656c656374696f6e00000081525060200191505060405180910390fd5b826040015160070b826040015160070b1215611ffa576040517f08c379a000000000000000000000000000000000000000000000000000000000815260040180806020018281038252602b81526020018061405f602b913960400191505060405180910390fd5b612002613ec1565b6040518060c001604052808a8152602001888152602001878152602001600067ffffffffffffffff1681526020014267ffffffffffffffff1681526020016002805490508152509050600281908060018154018082558091505060019003906000526020600020906005020160009091909190915060008201518160000155602082015181600101556040820151816002015560608201518160030160006101000a81548167ffffffffffffffff021916908367ffffffffffffffff16021790555060808201518160030160086101000a81548167ffffffffffffffff021916908367ffffffffffffffff16021790555060a082015181600401555050600060016002805490500390506004878154811061211957fe5b90600052602060002090600402016003018190806001815401808255809150506001900390600052602060002001600090919091909150556001600a600083815260200190815260200160002060006101000a81548160ff0219169083151502179055507f891e756eff7201520283922fc3ede4d874d465693e19f7cbb4fd2555b3b63e0a8560200151856000015185602001516040518080602001806020018467ffffffffffffffff168152602001838103835286818151815260200191508051906020019080838360005b838110156122015780820151818401526020810190506121e6565b50505050905090810190601f16801561222e5780820380516001836020036101000a031916815260200191505b50838103825285818151815260200191508051906020019080838360005b8381101561226757808201518184015260208101905061224c565b50505050905090810190601f1680156122945780820380516001836020036101000a031916815260200191505b509550505050505060405180910390a18095505050505050949350505050565b60056020528060005260406000206000915054906101000a900473ffffffffffffffffffffffffffffffffffffffff1681565b606060006060600080600286815481106122fd57fe5b906000526020600020906005020190506000600182600001548154811061232057fe5b906000526020600020906006020190506000600483600201548154811061234357fe5b906000526020600020906004020190504267ffffffffffffffff168160010160089054906101000a900467ffffffffffffffff1667ffffffffffffffff1611156123d8576040517f08c379a000000000000000000000000000000000000000000000000000000000815260040180806020018281038252604a815260200180614209604a913960600191505060405180910390fd5b600060038260000154815481106123eb57fe5b90600052602060002090600402019050806000018054600181600116156101000203166002900480601f0160208091040260200160405190810160405280929190818152602001828054600181600116156101000203166002900480156124935780601f1061246857610100808354040283529160200191612493565b820191906000526020600020905b81548152906001019060200180831161247657829003601f168201915b5050505050975080600101549650826001018054600181600116156101000203166002900480601f0160208091040260200160405190810160405280929190818152602001828054600181600116156101000203166002900480156125395780601f1061250e57610100808354040283529160200191612539565b820191906000526020600020905b81548152906001019060200180831161251c57829003601f168201915b505050505095508360030160009054906101000a900467ffffffffffffffff169450505050509193509193565b60606000806000806003868154811061257b57fe5b90600052602060002090600402019050806000018054600181600116156101000203166002900480601f0160208091040260200160405190810160405280929190818152602001828054600181600116156101000203166002900480156126235780601f106125f857610100808354040283529160200191612623565b820191906000526020600020905b81548152906001019060200180831161260657829003601f168201915b50505050509450806001015493508060020160009054906101000a900460070b9250600b600087815260200190815260200160002060009054906101000a900460ff169150509193509193565b3373ffffffffffffffffffffffffffffffffffffffff166005600085815260200190815260200160002060009054906101000a900473ffffffffffffffffffffffffffffffffffffffff1673ffffffffffffffffffffffffffffffffffffffff1614612727576040517f08c379a000000000000000000000000000000000000000000000000000000000815260040180806020018281038252602b8152602001806142a7602b913960400191505060405180910390fd5b60011515600960003373ffffffffffffffffffffffffffffffffffffffff1673ffffffffffffffffffffffffffffffffffffffff16815260200190815260200160002060009054906101000a900460ff161515146127d0576040517f08c379a00000000000000000000000000000000000000000000000000000000081526004018080602001828103825260248152602001806143246024913960400191505060405180910390fd5b6127d8613e32565b600760008581526020019081526020016000206040518060e001604052908160008201548152602001600182018054600181600116156101000203166002900480601f0160208091040260200160405190810160405280929190818152602001828054600181600116156101000203166002900480156128995780601f1061286e57610100808354040283529160200191612899565b820191906000526020600020905b81548152906001019060200180831161287c57829003601f168201915b505050505081526020016002820160009054906101000a900460070b60070b60070b8152602001600382015481526020016004820160009054906101000a900467ffffffffffffffff1667ffffffffffffffff1667ffffffffffffffff1681526020016004820160089054906101000a900460ff161515151581526020016005820154815250509050600115158160a001511515146129a0576040517f08c379a000000000000000000000000000000000000000000000000000000000815260040180806020018281038252601b8152602001807f596f7520617265206e6f206c6f6e676572206120636974697a656e000000000081525060200191505060405180910390fd5b6129a8613e7e565b600483815481106129b557fe5b90600052602060002090600402016040518060a0016040529081600082015481526020016001820160009054906101000a900467ffffffffffffffff1667ffffffffffffffff1667ffffffffffffffff1681526020016001820160089054906101000a900467ffffffffffffffff1667ffffffffffffffff1667ffffffffffffffff1681526020016002820154815260200160038201805480602002602001604051908101604052809291908181526020018280548015612a9557602002820191906000526020600020905b815481526020019060010190808311612a81575b50505050508152505090504267ffffffffffffffff16816020015167ffffffffffffffff161115612b2e576040517f08c379a000000000000000000000000000000000000000000000000000000000815260040180806020018281038252601f8152602001807f54686520656c656374696f6e20686173206e6f74206f70656e6564207965740081525060200191505060405180910390fd5b4267ffffffffffffffff16816040015167ffffffffffffffff161015612bbc576040517f08c379a000000000000000000000000000000000000000000000000000000000815260040180806020018281038252601e8152602001807f54686520656c656374696f6e206973206e6f206c6f6e676572206f70656e000081525060200191505060405180910390fd5b612bc4613df6565b6003826000015181548110612bd557fe5b90600052602060002090600402016040518060a0016040529081600082018054600181600116156101000203166002900480601f016020809104026020016040519081016040528092919081815260200182805460018160011615610100020316600290048015612c875780601f10612c5c57610100808354040283529160200191612c87565b820191906000526020600020905b815481529060010190602001808311612c6a57829003601f168201915b50505050508152602001600182015481526020016002820160009054906101000a900460070b60070b60070b81526020016002820160089054906101000a900467ffffffffffffffff1667ffffffffffffffff1667ffffffffffffffff16815260200160038201548152505090508060200151836060015114612d55576040517f08c379a000000000000000000000000000000000000000000000000000000000815260040180806020018281038252603d81526020018061410c603d913960400191505060405180910390fd5b600060028681548110612d6457fe5b9060005260206000209060050201905082600001518160010154148015612d8e5750848160020154145b612de3576040517f08c379a000000000000000000000000000000000000000000000000000000000815260040180806020018281038252602c8152602001806142d2602c913960400191505060405180910390fd5b60018160030160008282829054906101000a900467ffffffffffffffff160192506101000a81548167ffffffffffffffff021916908367ffffffffffffffff1602179055507e49e9a81233825e4f5949eb5b06cce97b4f086f6981805188b1e12c5cf638e4868642604051808481526020018381526020018267ffffffffffffffff168152602001935050505060405180910390a150505050505050565b6000612eaa8260008086815260200190815260200160002060000161394690919063ffffffff16565b905092915050565b6000612edb8260008086815260200190815260200160002060000161396090919063ffffffff16565b905092915050565b606060008060006060600060048781548110612efb57fe5b90600052602060002090600402019050612f13613df6565b6003826000015481548110612f2457fe5b90600052602060002090600402016040518060a0016040529081600082018054600181600116156101000203166002900480601f016020809104026020016040519081016040528092919081815260200182805460018160011615610100020316600290048015612fd65780601f10612fab57610100808354040283529160200191612fd6565b820191906000526020600020905b815481529060010190602001808311612fb957829003601f168201915b50505050508152602001600182015481526020016002820160009054906101000a900460070b60070b60070b81526020016002820160089054906101000a900467ffffffffffffffff1667ffffffffffffffff1667ffffffffffffffff168152602001600382015481525050905080600001519650806020015195508160010160009054906101000a900467ffffffffffffffff1694508160010160089054906101000a900467ffffffffffffffff169350816003018054806020026020016040519081016040528092919081815260200182805480156130d657602002820191906000526020600020905b8154815260200190600101908083116130c2575b50505050509250505091939590929450565b6000801b81565b60008173ffffffffffffffffffffffffffffffffffffffff163373ffffffffffffffffffffffffffffffffffffffff16148061313b5750600115156131376000801b33612eb2565b1515145b613190576040517f08c379a000000000000000000000000000000000000000000000000000000000815260040180806020018281038252603081526020018061402f6030913960400191505060405180910390fd5b600660008373ffffffffffffffffffffffffffffffffffffffff1673ffffffffffffffffffffffffffffffffffffffff168152602001908152602001600020549050919050565b60006131f6600080848152602001908152602001600020600001613990565b9050919050565b613205613ec1565b6002828154811061321257fe5b90600052602060002090600502016040518060c00160405290816000820154815260200160018201548152602001600282015481526020016003820160009054906101000a900467ffffffffffffffff1667ffffffffffffffff1667ffffffffffffffff1681526020016003820160089054906101000a900467ffffffffffffffff1667ffffffffffffffff1667ffffffffffffffff1681526020016004820154815250509050806060015167ffffffffffffffff166132d5826040015161163a565b67ffffffffffffffff1614613335576040517f08c379a00000000000000000000000000000000000000000000000000000000081526004018080602001828103825260378152602001806140d56037913960400191505060405180910390fd5b600115156133466000801b33612eb2565b1515148061338157506001151561337d7fb7f8beecafe1ad662cec1153812612581a86b9460f21b876f3ee163141203dcb33612eb2565b1515145b6133d6576040517f08c379a000000000000000000000000000000000000000000000000000000000815260040180806020018281038252603d815260200180614348603d913960400191505060405180910390fd5b6133df826139a5565b7f737019d53070b31742678ee65b3baa855c9cb034d73d970a17e2b352a3d773e582826020015183606001514233604051808681526020018581526020018467ffffffffffffffff1681526020018367ffffffffffffffff1681526020018273ffffffffffffffffffffffffffffffffffffffff1681526020019550505050505060405180910390a15050565b600b6020528060005260406000206000915054906101000a900460ff1681565b6134b2600080848152602001908152602001600020600201546134ad613818565b612eb2565b613507576040517f08c379a00000000000000000000000000000000000000000000000000000000081526004018080602001828103825260308152602001806141d96030913960400191505060405180910390fd5b61351182826138b3565b5050565b6000600115156135286000801b33612eb2565b1515148061356357506001151561355f7fb7f8beecafe1ad662cec1153812612581a86b9460f21b876f3ee163141203dcb33612eb2565b1515145b6135b8576040517f08c379a0000000000000000000000000000000000000000000000000000000008152600401808060200182810382526035815260200180613ffa6035913960400191505060405180910390fd5b6135c0613df6565b6040518060a001604052808681526020018581526020018460070b81526020014267ffffffffffffffff168152602001600380549050815250905060038190806001815401808255809150506001900390600052602060002090600402016000909190919091506000820151816000019080519060200190613643929190613f0b565b506020820151816001015560408201518160020160006101000a81548167ffffffffffffffff021916908360070b67ffffffffffffffff16021790555060608201518160020160086101000a81548167ffffffffffffffff021916908367ffffffffffffffff160217905550608082015181600301555050600060016003805490500390506001600b600083815260200190815260200160002060006101000a81548160ff0219169083151502179055507fb88277fa8c66993083f7ebdd5f92a7991cf4ed8d4957b20268880dca91a50bdb8686836040518080602001848152602001838152602001828103825285818151815260200191508051906020019080838360005b83811015613764578082015181840152602081019050613749565b50505050905090810190601f1680156137915780820380516001836020036101000a031916815260200191505b5094505050505060405180910390a180925050509392505050565b7fb7f8beecafe1ad662cec1153812612581a86b9460f21b876f3ee163141203dcb81565b60066020528060005260406000206000915090505481565b6000613810836000018373ffffffffffffffffffffffffffffffffffffffff1660001b613bb7565b905092915050565b600033905090565b613847816000808581526020019081526020016000206000016137e890919063ffffffff16565b156138af57613854613818565b73ffffffffffffffffffffffffffffffffffffffff168173ffffffffffffffffffffffffffffffffffffffff16837f2f8788117e7eff1d82e926ec794901d17c78024a50270940304540a733656f0d60405160405180910390a45b5050565b6138da81600080858152602001908152602001600020600001613c2790919063ffffffff16565b15613942576138e7613818565b73ffffffffffffffffffffffffffffffffffffffff168173ffffffffffffffffffffffffffffffffffffffff16837ff6391f5c32d9c69d2a47ea670b442974b53935d1edc7fd64eb21e047a839171b60405160405180910390a45b5050565b60006139558360000183613c57565b60001c905092915050565b6000613988836000018373ffffffffffffffffffffffffffffffffffffffff1660001b613cda565b905092915050565b600061399e82600001613cfd565b9050919050565b600115156139b66000801b33612eb2565b151514806139f15750600115156139ed7fb7f8beecafe1ad662cec1153812612581a86b9460f21b876f3ee163141203dcb33612eb2565b1515145b613a46576040517f08c379a000000000000000000000000000000000000000000000000000000000815260040180806020018281038252603481526020018061416e6034913960400191505060405180910390fd5b613a4e613ec1565b60028281548110613a5b57fe5b90600052602060002090600502016040518060c00160405290816000820154815260200160018201548152602001600282015481526020016003820160009054906101000a900467ffffffffffffffff1667ffffffffffffffff1667ffffffffffffffff1681526020016003820160089054906101000a900467ffffffffffffffff1667ffffffffffffffff1667ffffffffffffffff168152602001600482015481525050905060011515600b60008360200151815260200190815260200160002060009054906101000a900460ff16151514613b83576040517f08c379a00000000000000000000000000000000000000000000000000000000081526004018080602001828103825260258152602001806141496025913960400191505060405180910390fd5b6000600b60008360200151815260200190815260200160002060006101000a81548160ff0219169083151502179055505050565b6000613bc38383613cda565b613c1c578260000182908060018154018082558091505060019003906000526020600020016000909190919091505582600001805490508360010160008481526020019081526020016000208190555060019050613c21565b600090505b92915050565b6000613c4f836000018373ffffffffffffffffffffffffffffffffffffffff1660001b613d0e565b905092915050565b600081836000018054905011613cb8576040517f08c379a0000000000000000000000000000000000000000000000000000000008152600401808060200182810382526022815260200180613fa96022913960400191505060405180910390fd5b826000018281548110613cc757fe5b9060005260206000200154905092915050565b600080836001016000848152602001908152602001600020541415905092915050565b600081600001805490509050919050565b60008083600101600084815260200190815260200160002054905060008114613dea5760006001820390506000600186600001805490500390506000866000018281548110613d5957fe5b9060005260206000200154905080876000018481548110613d7657fe5b9060005260206000200181905550600183018760010160008381526020019081526020016000208190555086600001805480613dae57fe5b60019003818190600052602060002001600090559055866001016000878152602001908152602001600020600090556001945050505050613df0565b60009150505b92915050565b6040518060a001604052806060815260200160008152602001600060070b8152602001600067ffffffffffffffff168152602001600081525090565b6040518060e001604052806000815260200160608152602001600060070b815260200160008152602001600067ffffffffffffffff168152602001600015158152602001600081525090565b6040518060a0016040528060008152602001600067ffffffffffffffff168152602001600067ffffffffffffffff16815260200160008152602001606081525090565b6040518060c00160405280600081526020016000815260200160008152602001600067ffffffffffffffff168152602001600067ffffffffffffffff168152602001600081525090565b828054600181600116156101000203166002900490600052602060002090601f016020900481019282601f10613f4c57805160ff1916838001178555613f7a565b82800160010185558215613f7a579182015b82811115613f79578251825591602001919060010190613f5e565b5b509050613f879190613f8b565b5090565b5b80821115613fa4576000816000905550600101613f8c565b509056fe456e756d657261626c655365743a20696e646578206f7574206f6620626f756e6473416363657373436f6e74726f6c3a2073656e646572206d75737420626520616e2061646d696e20746f206772616e74596f7520646f204e4f5420686176652061636365737320746f206372656174696e6720616e206f666669636520706f736974696f6e4164647265737320646f6573206e6f7420686176652061636365737320746f207468697320696e666f726d6174696f6e436974697a656e206973204e4f54206f6c6420656e6f75676820746f2072756e20666f72204f6666696365456c656374696f6e20726573756c747320617265206e6f7420617661696c61626c6520756e74696c20656c656374696f6e20697320636c6f736564206f66662066726f6d20766f74696e67546869732063616e64696461746520646f6573206e6f74206861766520746865206869676865737420616d6f756e74206f6620766f7465596f7520617265206e6f74207065726d697474656420746f20766f746520666f722074686973206f666669636520696e2074686973207a6970436f64655468697320706f736974696f6e20776173206e6f7420757020666f7220656c656374696f6e596f7520646f204e4f5420686176652061636365737320746f20636c6f73696e6720616e206f666669636520706f736974696f6e55736572206973206e6f74206f776e6572206f6620636974697a656e20747279696e6720746f206265636f6d652063616e646964617465416363657373436f6e74726f6c3a2073656e646572206d75737420626520616e2061646d696e20746f207265766f6b65456c656374696f6e20726573756c747320617265206e6f7420617661696c61626c6520756e74696c20656c656374696f6e20697320636c6f7365206f66662066726f6d20766f74696e675374617465204964206973206e6f742061737369676e656420746f206120636974697a656e2079657441646472657373206973206e6f742061737369676e656420746f20746f206120636974697a656e2079657455736572206973206e6f74206f776e6572206f6620636974697a656e20747279696e6720746f20766f7465546869732063616e646964617465206973206e6f7420656c696769626c6520666f72207468697320766f746555736572206973206e6f74206f776e6572206f66207265717569726564205374617465204944546869732061646472657373206973206e6f7420656c696769626c6520746f20766f7465596f7520646f204e4f5420686176652061636365737320746f206465636c6172696e6720612077696e6e6572206f66207468697320656c656374696f6e416363657373436f6e74726f6c3a2063616e206f6e6c792072656e6f756e636520726f6c657320666f722073656c66596f7520646f204e4f5420686176652061636365737320746f206372656174696e6720616e20656c656374696f6ea26469706673582212206de38b6d8fb8480e9ab55c19b990903caa1c991d97f6ded3bbbf8ebd347d88d164736f6c63430007000033",
  "immutableReferences": {},
  "source": "pragma solidity ^0.7.0;\n\nimport \"../node_modules/@openzeppelin/contracts/math/SafeMath.sol\";\nimport \"../node_modules/@openzeppelin/contracts/access/AccessControl.sol\";\n\n\n\ncontract OneVote is AccessControl{\n\n    using SafeMath for uint256;\n\n\n//EVENTS\n    //emitted when citizen is created showing new citizen's name, indexed citizen's address zip code, date approved\n    event CitizenAdded(address owner, uint256 citizenId, uint256 stateId, uint256 zipCode);\n\n    //emitted when citizen has died or citzenship has been dismissed or revoked\n    event NoLongerACitizen(uint256 citizenId, address citzenAddress, string reasonForLoseOfCitizenship);\n\n    //emitted when citizen is assigned to a corresponding address\n    event Assigned(address from, address to, uint256 tokenId);\n\n    //emitted when a candidate is created showing new candidate name, office, electionStart\n    event CandidateAdded(string _name, string _officeTitle, uint64 _electionStart);\n\n    //emitted when an office is create\n    event OfficeAdded(string _officeTitle, uint256 _zipCode, uint256 _officeId);\n\n    //emitted when a election is created\n    event ElectionAdded(string _officeTitle, uint256 _zipCode, uint64 _electionStart, uint64 _electionEnd, uint256 _electionId);\n\n    //emitted when vote has been cast\n    event VoteCast(uint256 _candidateId, uint256 _electionId, uint64 timeVoteCast);\n\n    //emitted when winner of election is determined\n    event Winner(uint256 _candidateId, uint256 _officeId, uint64 _voteCount, uint64 timestamp, address confirmedBy);\n\n\n//STRUCTS\n    //use date object for all dates\n    struct Citizen {\n        uint256 stateId;\n        string name;\n        int64 dateOfBirth;\n        uint256 zipCode;\n        uint64 dateApproved;\n        //bool used for whether a citizen has died or lost citizenship\n        bool citizenship;\n        uint256 citizenId;\n    }\n\n    struct Candidate {\n        uint256 citizenId;\n        uint256 officeId;\n        uint256 electionId;\n        /* string name;\n        int64 dateOfBirth;\n        string officeTitle;\n        uint256 zipCode;\n        uint64 electionStart;\n        uint64 electionEnd; */\n        uint64 voteCount;\n        uint64 dateApprovedToRun;\n        uint256 candidateId;\n    }\n\n    struct Office {\n        string officeTitle;\n        uint256 zipCode;\n        int64 requiredAge;\n        uint64 dateApproved;\n        uint256 officeId;\n    }\n\n    struct Election {\n        /* string officeTitle;\n        uint256 zipCode; */\n        uint256 officeId;\n        uint64 electionStart;\n        uint64 electionEnd;\n        uint256 electionId;\n        uint256[] candidateIds;\n    }\n\n\n//ARRAYS\n    Citizen[] citizens;\n    Candidate[] candidates;\n    Office[] offices;\n    Election[] elections;\n\n    //citizen mapping\n    /// @dev citizen mapping needs to be private after testing\n    mapping(uint256 => address) public citizenIndexToOwner;\n    mapping(address => uint256) public citizenIdOfAddress;\n    mapping(uint256 => Citizen) public citizenIdToCitizen;\n    mapping(uint256 => bool) private stateIdInUse;\n    mapping(address => bool) private addressInUse;\n\n    //candidate mapping\n    /* mapping(uint256 => Candidate) public candidateIdToCandidate; */\n    mapping(uint256 => bool) public candidateIsApprovedToRun;\n\n    //office mapping\n    /* mapping(uint256 => Office) public officeIdToOffice; */\n    mapping(uint256 => bool) public officeIsUpForElection;\n\n    //election mapping\n    /* mapping(uint256 => Election) public electionIdToElection; */\n    /* mapping(uint256 => bool) public electionIsActive; */\n\n\n//CONSTRUCTOR\n    /*    // will set access control as contract owner upon deploying contract\n          // all arrays at elements at index 0 will empty */\n    constructor() public {\n      _setupRole(DEFAULT_ADMIN_ROLE, msg.sender);\n      elections.push();\n      citizens.push();\n      offices.push();\n      candidates.push();\n    }\n\n\n//ROLES\n        bytes32 public constant LOCAL_ADMIN_ROLE = keccak256(\"LOCAL_ADMIN_ROLE\");\n\n\n//FUNCTIONS\n////creation functions\n\n    /*  //creates citizens that will be able to vote if citizens are included in a particular election\n        //emits event once citizen is created\n        //a citizen cannot have the same stateId as another citizen */\n    function _createCitizen(\n            string memory _name,\n            int64 _dateOfBirth,\n            uint256 _zipCode,\n            uint256 _stateId\n        ) internal returns (uint256){\n          require(stateIdInUse[_stateId] == false, \"State ID is already assigned to a citizen\");\n          require(addressInUse[msg.sender] == false, \"Address is already assigned to a citizen\");\n\n            Citizen memory _citizen = Citizen({\n                stateId: _stateId,\n                name: _name,\n                dateOfBirth: _dateOfBirth,\n                zipCode: _zipCode,\n                dateApproved: uint64(block.timestamp),\n                citizenship: true,\n                citizenId: citizens.length\n            });\n\n            citizens.push(_citizen);\n            uint256 newCitizenId = citizens.length - 1;\n\n            stateIdInUse[_stateId] = true;\n            addressInUse[msg.sender] = true;\n            citizenIdToCitizen[newCitizenId] = _citizen;\n\n            emit CitizenAdded(msg.sender, newCitizenId, _stateId, _zipCode);\n\n            _assignCitizenIdToAddress(address(0), msg.sender, newCitizenId);\n\n          return newCitizenId;\n        }\n\n\n      /*  //gets citizen data\n          //must be internal to prevent data being seen by unwanted users */\n      function _getCitizen(uint256 _citizenId)internal view returns(\n            string memory _name,\n            int64 _dateOfBirth,\n            uint256 _zipCode,\n            bool _citizenship\n          )\n      {\n        require(citizenIndexToOwner[_citizenId] == msg.sender || hasRole(DEFAULT_ADMIN_ROLE, msg.sender) == true, \"Address does not have access to this information\");\n                Citizen storage citizen = citizens[_citizenId];\n\n                    _name = citizen.name;\n                    _dateOfBirth = citizen.dateOfBirth;\n                    _zipCode = citizen.zipCode;\n                    _citizenship = citizen.citizenship;\n      }\n\n\n      function getCitizenId(address owner) public view returns(uint256){\n        require(msg.sender == owner || hasRole(DEFAULT_ADMIN_ROLE, msg.sender) == true, \"Address does not have access to this information\");\n        return citizenIdOfAddress[owner];\n      }\n\n\n      /* //transfer citizen data to address the citizen was created to represent */\n      function _assignCitizenIdToAddress(address _from, address _to, uint256 _tokenId) internal {\n        citizenIndexToOwner[_tokenId] = _to;\n        citizenIdOfAddress[_to] = _tokenId;\n\n        emit Assigned(_from, _to, _tokenId);\n      }\n\n\n      /* //used when citizens have died or citzenship has been dismissed or revoked */\n      function _loseOfCitizenship(\n              uint256 _citizenId,\n              address _citizenAddress,\n              string memory _reason\n          ) internal {\n            require(hasRole(DEFAULT_ADMIN_ROLE, msg.sender) == true, \"You do NOT have access to changing citizenship status\");\n            require(citizenIndexToOwner[_citizenId] == _citizenAddress, \"This is not the citizens correct address\");\n            require(msg.sender != _citizenAddress, \"You cannot change your own citizenship\");\n\n            stateIdInUse[_citizenId] = false;\n            addressInUse[_citizenAddress] = false;\n\n            Citizen storage citizen = citizens[_citizenId];\n            citizen.citizenship = false;\n\n            emit NoLongerACitizen(_citizenId, _citizenAddress, _reason);\n          }\n\n\n      /*  //create a candidate that will be used for elections\n          //all candidates must be citizens\n          //emit event when canidiate is created */\n      function createCandidate(\n              uint256 _citizenId,\n              uint256 _stateId,\n              uint256 _officeId,\n              uint256 _electionId\n          ) public returns(uint256){\n            require(stateIdInUse[_stateId] == true, \"State Id is not assigned to a citizen yet\");\n            require(addressInUse[msg.sender] == true, \"Address is not assigned to to a citizen yet\");\n            require(citizenIndexToOwner[_citizenId] == msg.sender, \"User is not owner of citizen trying to become candidate\");\n\n            Citizen memory citizen = citizenIdToCitizen[_citizenId];\n            Office memory office = offices[_officeId];\n            Election memory election = elections[_electionId];\n\n            require(citizen.citizenship == true, \"You are no longer a citizen\");\n            require(citizen.stateId == _stateId, \"User is not owner of required State ID\");\n            require(officeIsUpForElection[_officeId] == true, \"Office is NOT up for election\");\n            require(office.requiredAge >= citizen.dateOfBirth, \"Citizen is NOT old enough to run for Office\");\n\n              //need to find out if it is possible to use _getCitizen() and assign that data to a variable like in javascript\n              Candidate memory _candidate = Candidate({\n                    /* //name: citizen.name,\n                    //dateOfBirth: citizen.dateOfBirth,\n                    //officeTitle: office.officeTitle,\n                    //zipCode: office.zipCode, */\n                    citizenId: _citizenId,\n                    officeId: _officeId,\n                    /* electionStart: election.electionStart,\n                    electionEnd: election.electionEnd, */\n                    electionId: _electionId,\n                    voteCount: 0,\n                    dateApprovedToRun: uint64(block.timestamp),\n                    candidateId: candidates.length\n                });\n\n            candidates.push(_candidate);\n            uint256 newCandidateId = candidates.length - 1;\n            elections[_electionId].candidateIds.push(newCandidateId);\n\n            /* elections[_electionId].candidateIds.push(newCandidateId); */\n            /* candidateIdToCandidate[newCandidateId] = _candidate; */\n            candidateIsApprovedToRun[newCandidateId] = true;\n\n            emit CandidateAdded(citizen.name, office.officeTitle, election.electionStart);\n\n        return newCandidateId;\n      }\n\n\n      function getCandidate(uint256 _candidateId) public view returns(\n            string memory name,\n            string memory officeTitle,\n            uint256 zipCode\n          )\n        {\n          Candidate storage candidate = candidates[_candidateId];\n          Office memory office = offices[candidate.officeId];\n          Citizen memory citizen = citizens[candidate.citizenId];\n\n          name = citizen.name;\n          officeTitle = office.officeTitle;\n          zipCode = office.zipCode;\n        }\n\n\n      /*  //create an office for candidates to run for election\n          //emit event when office is created\n          //will need array for zipCode if office covers multiple zipCodes */\n      function createOffice(\n              string memory _officeTitle,\n              uint256 _zipCode,\n              int64 _requiredAge\n          ) public returns(uint256){\n            require(hasRole(DEFAULT_ADMIN_ROLE, msg.sender) == true || hasRole(LOCAL_ADMIN_ROLE, msg.sender) == true, \"You do NOT have access to creating an office position\");\n\n            Office memory _office = Office({\n                  officeTitle: _officeTitle,\n                  zipCode: _zipCode,\n                  requiredAge: _requiredAge,\n                  dateApproved: uint64(block.timestamp),\n                  officeId: offices.length\n              });\n\n              offices.push(_office);\n              uint256 newOfficeId = offices.length - 1;\n\n              /* officeIdToOffice[newOfficeId] = _office; */\n              officeIsUpForElection[newOfficeId] = true;\n\n              emit OfficeAdded(_officeTitle, _zipCode, newOfficeId);\n\n        return newOfficeId;\n      }\n\n\n      function getOffice(uint256 _officeId) public view returns(\n            string memory officeTitle,\n            uint256 zipCode,\n            int64 requiredAge,\n            bool isOpenForElection\n          )\n        {\n          Office storage office = offices[_officeId];\n\n          officeTitle = office.officeTitle;\n          zipCode = office.zipCode;\n          requiredAge = office.requiredAge;\n          isOpenForElection = officeIsUpForElection[_officeId];\n        }\n\n\n      /* //changes status of open offices after elections */\n      function _filledOfficePosition(uint256 _candidateId) internal {\n        require(hasRole(DEFAULT_ADMIN_ROLE, msg.sender) == true || hasRole(LOCAL_ADMIN_ROLE, msg.sender) == true, \"You do NOT have access to closing an office position\");\n\n        Candidate memory candidate = candidates[_candidateId];\n\n        require(officeIsUpForElection[candidate.officeId] == true, \"This position was not up for election\");\n\n        officeIsUpForElection[candidate.officeId] = false;\n      }\n\n\n      /*  //emit event when election is created\n          //will need to access office array in which election is forum */\n      function createAnElection(\n              uint256 _officeId,\n              uint64 _start,\n              uint64 _end\n          ) public returns(uint256){\n            require(officeIsUpForElection[_officeId] == true, \"Office is NOT up for election\");\n            require(hasRole(DEFAULT_ADMIN_ROLE, msg.sender) == true || hasRole(LOCAL_ADMIN_ROLE, msg.sender) == true, \"You do NOT have access to creating an election\");\n\n            elections.push();\n\n            Office memory office = offices[_officeId];\n\n            Election storage election = elections[elections.length - 1];\n                /* officeTitle: office.officeTitle,\n                zipCode: office.zipCode, */\n                election.officeId = _officeId;\n                election.electionStart = _start;\n                election.electionEnd = _end;\n                election.electionId = elections.length;\n\n\n            /* elections.push(_election); */\n            uint256 newElectionId = elections.length - 1;\n\n            /* electionIdToElection[newElectionId] = _election; */\n\n            emit ElectionAdded(office.officeTitle, office.zipCode, _start, _end, newElectionId);\n\n        return newElectionId;\n      }\n\n\n      function getElection(uint256 _electionId) public view returns(\n            string memory officeTitle,\n            uint256 zipCode,\n            uint64 electionStart,\n            uint64 electionEnd,\n            uint256[] memory candidateIds\n          )\n        {\n          Election storage election = elections[_electionId];\n          Office memory office = offices[election.officeId];\n\n          officeTitle = office.officeTitle;\n          zipCode = office.zipCode;\n          electionStart = election.electionStart;\n          electionEnd = election.electionEnd;\n          candidateIds = election.candidateIds;\n        }\n\n\n////voting function\n\n      function vote(uint256 _citizenId, uint256 voteForCandidateId, uint256 _electionId) public {\n        require(citizenIndexToOwner[_citizenId] == msg.sender, \"User is not owner of citizen trying to vote\");\n        require(addressInUse[msg.sender] == true, \"This address is not eligible to vote\");\n\n        Citizen memory citizen = citizenIdToCitizen[_citizenId];\n        require(citizen.citizenship == true, \"You are no longer a citizen\");\n\n        Election memory election = elections[_electionId];\n        require(election.electionStart <= uint64(block.timestamp), \"The election has not opened yet\");\n        require(election.electionEnd >= uint64(block.timestamp), \"The election is no longer open\");\n\n        Office memory office = offices[election.officeId];\n        require(citizen.zipCode == office.zipCode, \"You are not permitted to vote for this office in this zipCode\");\n\n        Candidate storage candidate = candidates[voteForCandidateId];\n        require(candidate.officeId == election.officeId && candidate.electionId == _electionId, \"This candidate is not eligible for this vote\");\n        candidate.voteCount += 1;\n\n        emit VoteCast(voteForCandidateId, _electionId, uint64(block.timestamp));\n      }\n\n\n      /*  //returns individual candidates election data based on candidateId for only after vote casting has concluded */\n      function getResultsOfCandidate(uint256 _candidateId) public view returns(\n            string memory _officeTitle,\n            uint256 _zipCode,\n            string memory _candidateName,\n            uint64 _voteCount\n          )\n      {\n        Candidate storage candidate = candidates[_candidateId];\n\n        Citizen storage citizen = citizens[candidate.citizenId];\n\n        Election storage election = elections[candidate.electionId];\n        require(election.electionEnd <= uint64(block.timestamp), \"Election results are not available until election is close off from voting\");\n\n        Office storage office = offices[election.officeId];\n\n        _officeTitle = office.officeTitle;\n        _zipCode = office.zipCode;\n        _candidateName = citizen.name;\n        _voteCount = candidate.voteCount;\n      }\n\n\n      /*  //returns all candidateIds contained in an election struct based on an electionId */\n      /* function getAllCandidateIds(uint256 _electionId) public view returns (uint256[] memory){\n        Election memory election = elections[_electionId];\n\n        return election.candidateIds;\n      } */\n\n\n      /*  //returns highest amount of votes of each election associated with a particular electionId, this maybe the vote total for multiple candidateIds in the case of ties\n          //(full elections may be made of multiple electionIds due to election covering multiple zipCodes)\n          //will change officeIsUpForElection to false\n          //(this will only change the officeId associated with the particular electionId other officeIds of the same office may remain open until a later date due to office covering multiple zipCodes) */\n      function getHighestVoteTotal(uint256 _electionId) public view returns(uint64){\n        Election memory election = elections[_electionId];\n        require(election.electionEnd <= uint64(block.timestamp), \"Election results are not available until election is closed off from voting\");\n        /* require(hasRole(DEFAULT_ADMIN_ROLE, msg.sender) == true, \"You do NOT have access to this data\"); */\n\n        uint64 highestVoteCount = 0;\n\n        for(uint256 i = 0; i <= election.candidateIds.length; i++){\n          Candidate memory candidate = candidates[i];\n          if(candidate.voteCount >= highestVoteCount){\n            highestVoteCount = candidate.voteCount;\n          }\n        }\n        return highestVoteCount;\n      }\n\n\n      /* //will return an array of one or all candidates that have the highest amount of votes\n      function getIdOfWinningCandidates(uint256 _electionId) public view returns(uint256[] memory){\n        Election memory election = elections[_electionId];\n\n        uint64 highestVoteCount = getHighestVoteTotal(_electionId);\n        uint256[] memory result = new uint256[](election.candidateIds.length);\n\n        for(uint256 i = 0; i <= election.candidateIds.length; i++){\n          Candidate memory candidate = candidates[i];\n          if(candidate.voteCount == highestVoteCount){\n            result[i] = candidate.candidateId;\n          }\n        }\n        return result;\n      } */\n\n\n      /*  //will set the office up for election as no longer open and emit event stating the winner of the election */\n      function declareWinnerOfElection(uint256 _candidateId) public {\n        Candidate memory candidate = candidates[_candidateId];\n        require(getHighestVoteTotal(candidate.electionId) == candidate.voteCount, \"This candidate does not have the highest amount of vote\");\n        require(hasRole(DEFAULT_ADMIN_ROLE, msg.sender) == true || hasRole(LOCAL_ADMIN_ROLE, msg.sender) == true, \"You do NOT have access to declaring a winner of this election\");\n\n        _filledOfficePosition(_candidateId);\n\n        emit Winner(_candidateId, candidate.officeId, candidate.voteCount, uint64(block.timestamp), msg.sender);\n      }\n\n}\n",
  "sourcePath": "/Users/CalvinCutlass/Desktop/Coding/coding_2020/ivan_bootcamp/week_11/One_Vote/contracts/OneVote.sol",
  "compiler": {
    "name": "solc",
    "version": "0.7.0+commit.9e61f92b.Emscripten.clang"
  },
  "schemaVersion": "3.2.0",
  "updatedAt": "2021-02-18T02:31:53.784Z",
  "networkType": "ethereum",
  "devdoc": {
    "kind": "dev",
    "methods": {
      "getRoleAdmin(bytes32)": {
        "details": "Returns the admin role that controls `role`. See {grantRole} and {revokeRole}. To change a role's admin, use {_setRoleAdmin}."
      },
      "getRoleMember(bytes32,uint256)": {
        "details": "Returns one of the accounts that have `role`. `index` must be a value between 0 and {getRoleMemberCount}, non-inclusive. Role bearers are not sorted in any particular way, and their ordering may change at any point. WARNING: When using {getRoleMember} and {getRoleMemberCount}, make sure you perform all queries on the same block. See the following https://forum.openzeppelin.com/t/iterating-over-elements-on-enumerableset-in-openzeppelin-contracts/2296[forum post] for more information."
      },
      "getRoleMemberCount(bytes32)": {
        "details": "Returns the number of accounts that have `role`. Can be used together with {getRoleMember} to enumerate all bearers of a role."
      },
      "grantRole(bytes32,address)": {
        "details": "Grants `role` to `account`. If `account` had not been already granted `role`, emits a {RoleGranted} event. Requirements: - the caller must have ``role``'s admin role."
      },
      "hasRole(bytes32,address)": {
        "details": "Returns `true` if `account` has been granted `role`."
      },
      "renounceRole(bytes32,address)": {
        "details": "Revokes `role` from the calling account. Roles are often managed via {grantRole} and {revokeRole}: this function's purpose is to provide a mechanism for accounts to lose their privileges if they are compromised (such as when a trusted device is misplaced). If the calling account had been granted `role`, emits a {RoleRevoked} event. Requirements: - the caller must be `account`."
      },
      "revokeRole(bytes32,address)": {
        "details": "Revokes `role` from `account`. If `account` had been granted `role`, emits a {RoleRevoked} event. Requirements: - the caller must have ``role``'s admin role."
      }
    },
    "stateVariables": {
      "citizenIndexToOwner": {
        "details": "citizen mapping needs to be private after testing"
      }
    },
    "version": 1
  },
  "userdoc": {
    "kind": "user",
    "methods": {},
    "version": 1
  }
}