{
  "contractName": "OneVote",
  "abi": [
    {
      "inputs": [],
      "stateMutability": "nonpayable",
      "type": "constructor"
    },
    {
      "anonymous": false,
      "inputs": [
        {
          "indexed": false,
          "internalType": "address",
          "name": "from",
          "type": "address"
        },
        {
          "indexed": false,
          "internalType": "address",
          "name": "to",
          "type": "address"
        },
        {
          "indexed": false,
          "internalType": "uint256",
          "name": "tokenId",
          "type": "uint256"
        }
      ],
      "name": "Assigned",
      "type": "event"
    },
    {
      "anonymous": false,
      "inputs": [
        {
          "indexed": false,
          "internalType": "string",
          "name": "_name",
          "type": "string"
        },
        {
          "indexed": false,
          "internalType": "string",
          "name": "_officeTitle",
          "type": "string"
        },
        {
          "indexed": false,
          "internalType": "uint64",
          "name": "_electionStart",
          "type": "uint64"
        }
      ],
      "name": "CandidateAdded",
      "type": "event"
    },
    {
      "anonymous": false,
      "inputs": [
        {
          "indexed": false,
          "internalType": "address",
          "name": "owner",
          "type": "address"
        },
        {
          "indexed": false,
          "internalType": "uint256",
          "name": "citizenId",
          "type": "uint256"
        },
        {
          "indexed": false,
          "internalType": "uint256",
          "name": "stateId",
          "type": "uint256"
        },
        {
          "indexed": false,
          "internalType": "uint256",
          "name": "zipCode",
          "type": "uint256"
        }
      ],
      "name": "CitizenAdded",
      "type": "event"
    },
    {
      "anonymous": false,
      "inputs": [
        {
          "indexed": false,
          "internalType": "string",
          "name": "_officeTitle",
          "type": "string"
        },
        {
          "indexed": false,
          "internalType": "uint256",
          "name": "_zipCode",
          "type": "uint256"
        },
        {
          "indexed": false,
          "internalType": "uint64",
          "name": "_electionStart",
          "type": "uint64"
        },
        {
          "indexed": false,
          "internalType": "uint64",
          "name": "_electionEnd",
          "type": "uint64"
        },
        {
          "indexed": false,
          "internalType": "uint256",
          "name": "_electionId",
          "type": "uint256"
        }
      ],
      "name": "ElectionAdded",
      "type": "event"
    },
    {
      "anonymous": false,
      "inputs": [
        {
          "indexed": false,
          "internalType": "uint256",
          "name": "citizenId",
          "type": "uint256"
        },
        {
          "indexed": false,
          "internalType": "address",
          "name": "citzenAddress",
          "type": "address"
        },
        {
          "indexed": false,
          "internalType": "string",
          "name": "reasonForLoseOfCitizenship",
          "type": "string"
        }
      ],
      "name": "NoLongerACitizen",
      "type": "event"
    },
    {
      "anonymous": false,
      "inputs": [
        {
          "indexed": false,
          "internalType": "string",
          "name": "_officeTitle",
          "type": "string"
        },
        {
          "indexed": false,
          "internalType": "uint256",
          "name": "_zipCode",
          "type": "uint256"
        },
        {
          "indexed": false,
          "internalType": "uint256",
          "name": "_officeId",
          "type": "uint256"
        }
      ],
      "name": "OfficeAdded",
      "type": "event"
    },
    {
      "anonymous": false,
      "inputs": [
        {
          "indexed": true,
          "internalType": "bytes32",
          "name": "role",
          "type": "bytes32"
        },
        {
          "indexed": true,
          "internalType": "bytes32",
          "name": "previousAdminRole",
          "type": "bytes32"
        },
        {
          "indexed": true,
          "internalType": "bytes32",
          "name": "newAdminRole",
          "type": "bytes32"
        }
      ],
      "name": "RoleAdminChanged",
      "type": "event"
    },
    {
      "anonymous": false,
      "inputs": [
        {
          "indexed": true,
          "internalType": "bytes32",
          "name": "role",
          "type": "bytes32"
        },
        {
          "indexed": true,
          "internalType": "address",
          "name": "account",
          "type": "address"
        },
        {
          "indexed": true,
          "internalType": "address",
          "name": "sender",
          "type": "address"
        }
      ],
      "name": "RoleGranted",
      "type": "event"
    },
    {
      "anonymous": false,
      "inputs": [
        {
          "indexed": true,
          "internalType": "bytes32",
          "name": "role",
          "type": "bytes32"
        },
        {
          "indexed": true,
          "internalType": "address",
          "name": "account",
          "type": "address"
        },
        {
          "indexed": true,
          "internalType": "address",
          "name": "sender",
          "type": "address"
        }
      ],
      "name": "RoleRevoked",
      "type": "event"
    },
    {
      "anonymous": false,
      "inputs": [
        {
          "indexed": false,
          "internalType": "uint256",
          "name": "_candidateId",
          "type": "uint256"
        },
        {
          "indexed": false,
          "internalType": "uint256",
          "name": "_electionId",
          "type": "uint256"
        },
        {
          "indexed": false,
          "internalType": "uint64",
          "name": "timeVoteCast",
          "type": "uint64"
        }
      ],
      "name": "VoteCast",
      "type": "event"
    },
    {
      "anonymous": false,
      "inputs": [
        {
          "indexed": false,
          "internalType": "uint256",
          "name": "_candidateId",
          "type": "uint256"
        },
        {
          "indexed": false,
          "internalType": "uint256",
          "name": "_officeId",
          "type": "uint256"
        },
        {
          "indexed": false,
          "internalType": "uint64",
          "name": "_voteCount",
          "type": "uint64"
        },
        {
          "indexed": false,
          "internalType": "uint64",
          "name": "timestamp",
          "type": "uint64"
        },
        {
          "indexed": false,
          "internalType": "address",
          "name": "confirmedBy",
          "type": "address"
        }
      ],
      "name": "Winner",
      "type": "event"
    },
    {
      "inputs": [],
      "name": "DEFAULT_ADMIN_ROLE",
      "outputs": [
        {
          "internalType": "bytes32",
          "name": "",
          "type": "bytes32"
        }
      ],
      "stateMutability": "view",
      "type": "function",
      "constant": true
    },
    {
      "inputs": [],
      "name": "LOCAL_ADMIN_ROLE",
      "outputs": [
        {
          "internalType": "bytes32",
          "name": "",
          "type": "bytes32"
        }
      ],
      "stateMutability": "view",
      "type": "function",
      "constant": true
    },
    {
      "inputs": [
        {
          "internalType": "uint256",
          "name": "",
          "type": "uint256"
        }
      ],
      "name": "candidateIsApprovedToRun",
      "outputs": [
        {
          "internalType": "bool",
          "name": "",
          "type": "bool"
        }
      ],
      "stateMutability": "view",
      "type": "function",
      "constant": true
    },
    {
      "inputs": [
        {
          "internalType": "address",
          "name": "",
          "type": "address"
        }
      ],
      "name": "citizenIdOfAddress",
      "outputs": [
        {
          "internalType": "uint256",
          "name": "",
          "type": "uint256"
        }
      ],
      "stateMutability": "view",
      "type": "function",
      "constant": true
    },
    {
      "inputs": [
        {
          "internalType": "uint256",
          "name": "",
          "type": "uint256"
        }
      ],
      "name": "citizenIdToCitizen",
      "outputs": [
        {
          "internalType": "uint256",
          "name": "stateId",
          "type": "uint256"
        },
        {
          "internalType": "string",
          "name": "name",
          "type": "string"
        },
        {
          "internalType": "int64",
          "name": "dateOfBirth",
          "type": "int64"
        },
        {
          "internalType": "uint256",
          "name": "zipCode",
          "type": "uint256"
        },
        {
          "internalType": "uint64",
          "name": "dateApproved",
          "type": "uint64"
        },
        {
          "internalType": "bool",
          "name": "citizenship",
          "type": "bool"
        },
        {
          "internalType": "uint256",
          "name": "citizenId",
          "type": "uint256"
        }
      ],
      "stateMutability": "view",
      "type": "function",
      "constant": true
    },
    {
      "inputs": [
        {
          "internalType": "uint256",
          "name": "",
          "type": "uint256"
        }
      ],
      "name": "citizenIndexToOwner",
      "outputs": [
        {
          "internalType": "address",
          "name": "",
          "type": "address"
        }
      ],
      "stateMutability": "view",
      "type": "function",
      "constant": true
    },
    {
      "inputs": [
        {
          "internalType": "bytes32",
          "name": "role",
          "type": "bytes32"
        }
      ],
      "name": "getRoleAdmin",
      "outputs": [
        {
          "internalType": "bytes32",
          "name": "",
          "type": "bytes32"
        }
      ],
      "stateMutability": "view",
      "type": "function",
      "constant": true
    },
    {
      "inputs": [
        {
          "internalType": "bytes32",
          "name": "role",
          "type": "bytes32"
        },
        {
          "internalType": "uint256",
          "name": "index",
          "type": "uint256"
        }
      ],
      "name": "getRoleMember",
      "outputs": [
        {
          "internalType": "address",
          "name": "",
          "type": "address"
        }
      ],
      "stateMutability": "view",
      "type": "function",
      "constant": true
    },
    {
      "inputs": [
        {
          "internalType": "bytes32",
          "name": "role",
          "type": "bytes32"
        }
      ],
      "name": "getRoleMemberCount",
      "outputs": [
        {
          "internalType": "uint256",
          "name": "",
          "type": "uint256"
        }
      ],
      "stateMutability": "view",
      "type": "function",
      "constant": true
    },
    {
      "inputs": [
        {
          "internalType": "bytes32",
          "name": "role",
          "type": "bytes32"
        },
        {
          "internalType": "address",
          "name": "account",
          "type": "address"
        }
      ],
      "name": "grantRole",
      "outputs": [],
      "stateMutability": "nonpayable",
      "type": "function"
    },
    {
      "inputs": [
        {
          "internalType": "bytes32",
          "name": "role",
          "type": "bytes32"
        },
        {
          "internalType": "address",
          "name": "account",
          "type": "address"
        }
      ],
      "name": "hasRole",
      "outputs": [
        {
          "internalType": "bool",
          "name": "",
          "type": "bool"
        }
      ],
      "stateMutability": "view",
      "type": "function",
      "constant": true
    },
    {
      "inputs": [
        {
          "internalType": "uint256",
          "name": "",
          "type": "uint256"
        }
      ],
      "name": "officeIsUpForElection",
      "outputs": [
        {
          "internalType": "bool",
          "name": "",
          "type": "bool"
        }
      ],
      "stateMutability": "view",
      "type": "function",
      "constant": true
    },
    {
      "inputs": [
        {
          "internalType": "bytes32",
          "name": "role",
          "type": "bytes32"
        },
        {
          "internalType": "address",
          "name": "account",
          "type": "address"
        }
      ],
      "name": "renounceRole",
      "outputs": [],
      "stateMutability": "nonpayable",
      "type": "function"
    },
    {
      "inputs": [
        {
          "internalType": "bytes32",
          "name": "role",
          "type": "bytes32"
        },
        {
          "internalType": "address",
          "name": "account",
          "type": "address"
        }
      ],
      "name": "revokeRole",
      "outputs": [],
      "stateMutability": "nonpayable",
      "type": "function"
    },
    {
      "inputs": [
        {
          "internalType": "string",
          "name": "_name",
          "type": "string"
        },
        {
          "internalType": "int64",
          "name": "_dateOfBirth",
          "type": "int64"
        },
        {
          "internalType": "uint256",
          "name": "_zipCode",
          "type": "uint256"
        },
        {
          "internalType": "uint256",
          "name": "_stateId",
          "type": "uint256"
        }
      ],
      "name": "createCitizen",
      "outputs": [
        {
          "internalType": "uint256",
          "name": "",
          "type": "uint256"
        }
      ],
      "stateMutability": "nonpayable",
      "type": "function"
    },
    {
      "inputs": [
        {
          "internalType": "uint256",
          "name": "_citizenId",
          "type": "uint256"
        }
      ],
      "name": "_getCitizen",
      "outputs": [
        {
          "internalType": "string",
          "name": "_name",
          "type": "string"
        },
        {
          "internalType": "int64",
          "name": "_dateOfBirth",
          "type": "int64"
        },
        {
          "internalType": "uint256",
          "name": "_zipCode",
          "type": "uint256"
        },
        {
          "internalType": "bool",
          "name": "_citizenship",
          "type": "bool"
        }
      ],
      "stateMutability": "view",
      "type": "function",
      "constant": true
    },
    {
      "inputs": [
        {
          "internalType": "address",
          "name": "owner",
          "type": "address"
        }
      ],
      "name": "getCitizenId",
      "outputs": [
        {
          "internalType": "uint256",
          "name": "",
          "type": "uint256"
        }
      ],
      "stateMutability": "view",
      "type": "function",
      "constant": true
    },
    {
      "inputs": [
        {
          "internalType": "uint256",
          "name": "_citizenId",
          "type": "uint256"
        },
        {
          "internalType": "uint256",
          "name": "_stateId",
          "type": "uint256"
        },
        {
          "internalType": "uint256",
          "name": "_officeId",
          "type": "uint256"
        },
        {
          "internalType": "uint256",
          "name": "_electionId",
          "type": "uint256"
        }
      ],
      "name": "createCandidate",
      "outputs": [
        {
          "internalType": "uint256",
          "name": "",
          "type": "uint256"
        }
      ],
      "stateMutability": "nonpayable",
      "type": "function"
    },
    {
      "inputs": [
        {
          "internalType": "uint256",
          "name": "_candidateId",
          "type": "uint256"
        }
      ],
      "name": "getCandidate",
      "outputs": [
        {
          "internalType": "string",
          "name": "name",
          "type": "string"
        },
        {
          "internalType": "string",
          "name": "officeTitle",
          "type": "string"
        },
        {
          "internalType": "uint256",
          "name": "zipCode",
          "type": "uint256"
        }
      ],
      "stateMutability": "view",
      "type": "function",
      "constant": true
    },
    {
      "inputs": [
        {
          "internalType": "string",
          "name": "_officeTitle",
          "type": "string"
        },
        {
          "internalType": "uint256",
          "name": "_zipCode",
          "type": "uint256"
        },
        {
          "internalType": "int64",
          "name": "_requiredAge",
          "type": "int64"
        }
      ],
      "name": "createOffice",
      "outputs": [
        {
          "internalType": "uint256",
          "name": "",
          "type": "uint256"
        }
      ],
      "stateMutability": "nonpayable",
      "type": "function"
    },
    {
      "inputs": [
        {
          "internalType": "uint256",
          "name": "_officeId",
          "type": "uint256"
        }
      ],
      "name": "getOffice",
      "outputs": [
        {
          "internalType": "string",
          "name": "officeTitle",
          "type": "string"
        },
        {
          "internalType": "uint256",
          "name": "zipCode",
          "type": "uint256"
        },
        {
          "internalType": "int64",
          "name": "requiredAge",
          "type": "int64"
        },
        {
          "internalType": "bool",
          "name": "isOpenForElection",
          "type": "bool"
        }
      ],
      "stateMutability": "view",
      "type": "function",
      "constant": true
    },
    {
      "inputs": [
        {
          "internalType": "uint256",
          "name": "_officeId",
          "type": "uint256"
        },
        {
          "internalType": "uint64",
          "name": "_start",
          "type": "uint64"
        },
        {
          "internalType": "uint64",
          "name": "_end",
          "type": "uint64"
        }
      ],
      "name": "createAnElection",
      "outputs": [
        {
          "internalType": "uint256",
          "name": "",
          "type": "uint256"
        }
      ],
      "stateMutability": "nonpayable",
      "type": "function"
    },
    {
      "inputs": [
        {
          "internalType": "uint256",
          "name": "_electionId",
          "type": "uint256"
        }
      ],
      "name": "getElection",
      "outputs": [
        {
          "internalType": "string",
          "name": "officeTitle",
          "type": "string"
        },
        {
          "internalType": "uint256",
          "name": "zipCode",
          "type": "uint256"
        },
        {
          "internalType": "uint64",
          "name": "electionStart",
          "type": "uint64"
        },
        {
          "internalType": "uint64",
          "name": "electionEnd",
          "type": "uint64"
        },
        {
          "internalType": "uint256[]",
          "name": "candidateIds",
          "type": "uint256[]"
        }
      ],
      "stateMutability": "view",
      "type": "function",
      "constant": true
    },
    {
      "inputs": [
        {
          "internalType": "uint256",
          "name": "_citizenId",
          "type": "uint256"
        },
        {
          "internalType": "uint256",
          "name": "voteForCandidateId",
          "type": "uint256"
        },
        {
          "internalType": "uint256",
          "name": "_electionId",
          "type": "uint256"
        }
      ],
      "name": "vote",
      "outputs": [],
      "stateMutability": "nonpayable",
      "type": "function"
    },
    {
      "inputs": [
        {
          "internalType": "uint256",
          "name": "_candidateId",
          "type": "uint256"
        }
      ],
      "name": "getResultsOfCandidate",
      "outputs": [
        {
          "internalType": "string",
          "name": "_officeTitle",
          "type": "string"
        },
        {
          "internalType": "uint256",
          "name": "_zipCode",
          "type": "uint256"
        },
        {
          "internalType": "string",
          "name": "_candidateName",
          "type": "string"
        },
        {
          "internalType": "uint64",
          "name": "_voteCount",
          "type": "uint64"
        }
      ],
      "stateMutability": "view",
      "type": "function",
      "constant": true
    },
    {
      "inputs": [
        {
          "internalType": "uint256",
          "name": "_electionId",
          "type": "uint256"
        }
      ],
      "name": "getHighestVoteTotal",
      "outputs": [
        {
          "internalType": "uint64",
          "name": "",
          "type": "uint64"
        }
      ],
      "stateMutability": "view",
      "type": "function",
      "constant": true
    },
    {
      "inputs": [
        {
          "internalType": "uint256",
          "name": "_candidateId",
          "type": "uint256"
        }
      ],
      "name": "declareWinnerOfElection",
      "outputs": [],
      "stateMutability": "nonpayable",
      "type": "function"
    }
  ],
  "bytecode": "0x60806040523480156200001157600080fd5b50620000276000801b33620000a460201b60201c565b60046001816001815401808255809150500390600052602060002090505060018081600181540180825580915050039060005260206000209050506003600181600181540180825580915050039060005260206000209050506002600181600181540180825580915050039060005260206000209050506200023a565b620000b68282620000ba60201b60201c565b5050565b620000e8816000808581526020019081526020016000206000016200015d60201b62003fe11790919060201c565b156200015957620000fe6200019560201b60201c565b73ffffffffffffffffffffffffffffffffffffffff168173ffffffffffffffffffffffffffffffffffffffff16837f2f8788117e7eff1d82e926ec794901d17c78024a50270940304540a733656f0d60405160405180910390a45b5050565b60006200018d836000018373ffffffffffffffffffffffffffffffffffffffff1660001b6200019d60201b60201c565b905092915050565b600033905090565b6000620001b183836200021760201b60201c565b6200020c57826000018290806001815401808255809150506001900390600052602060002001600090919091909150558260000180549050836001016000848152602001908152602001600020819055506001905062000211565b600090505b92915050565b600080836001016000848152602001908152602001600020541415905092915050565b614d6f806200024a6000396000f3fe608060405234801561001057600080fd5b50600436106101a95760003560e01c80638a6655d6116100f9578063ce1b6c2911610097578063da12095b11610071578063da12095b14610c7d578063e2481dbd14610d63578063eee6f9bd14610d81578063fe93795914610dd9576101a9565b8063ce1b6c2914610bbd578063d0fb300a14610beb578063d547741f14610c2f576101a9565b80639d710777116100d35780639d710777146109ed578063a217fddf14610b05578063b06b2df114610b23578063ca15c87314610b7b576101a9565b80638a6655d6146108e55780639010d07c1461092757806391d1485414610989576101a9565b806336568abe1161016657806360a21d4b1161014057806360a21d4b1461064157806367bb9753146106a15780637ce74d13146106f95780637f5880a114610824576101a9565b806336568abe146104e6578063514770751461053457806358ac5af814610580576101a9565b806321f07364146101ae578063248a9ca3146101f25780632c051df5146102345780632f2ff15d14610314578063320db3761461036257806335b8e820146103cc575b600080fd5b6101da600480360360208110156101c457600080fd5b8101908080359060200190929190505050610ec9565b60405180821515815260200191505060405180910390f35b61021e6004803603602081101561020857600080fd5b8101908080359060200190929190505050610ee9565b6040518082815260200191505060405180910390f35b6102606004803603602081101561024a57600080fd5b8101908080359060200190929190505050610f08565b60405180888152602001806020018760070b81526020018681526020018567ffffffffffffffff1681526020018415158152602001838152602001828103825288818151815260200191508051906020019080838360005b838110156102d35780820151818401526020810190506102b8565b50505050905090810190601f1680156103005780820380516001836020036101000a031916815260200191505b509850505050505050505060405180910390f35b6103606004803603604081101561032a57600080fd5b8101908080359060200190929190803573ffffffffffffffffffffffffffffffffffffffff169060200190929190505050611010565b005b6103b66004803603606081101561037857600080fd5b8101908080359060200190929190803567ffffffffffffffff169060200190929190803567ffffffffffffffff169060200190929190505050611099565b6040518082815260200191505060405180910390f35b6103f8600480360360208110156103e257600080fd5b81019080803590602001909291905050506114af565b604051808060200180602001848152602001838103835286818151815260200191508051906020019080838360005b83811015610442578082015181840152602081019050610427565b50505050905090810190601f16801561046f5780820380516001836020036101000a031916815260200191505b50838103825285818151815260200191508051906020019080838360005b838110156104a857808201518184015260208101905061048d565b50505050905090810190601f1680156104d55780820380516001836020036101000a031916815260200191505b509550505050505060405180910390f35b610532600480360360408110156104fc57600080fd5b8101908080359060200190929190803573ffffffffffffffffffffffffffffffffffffffff169060200190929190505050611788565b005b6105606004803603602081101561054a57600080fd5b8101908080359060200190929190505050611821565b604051808267ffffffffffffffff16815260200191505060405180910390f35b6105ac6004803603602081101561059657600080fd5b8101908080359060200190929190505050611aa0565b60405180806020018560070b81526020018481526020018315158152602001828103825286818151815260200191508051906020019080838360005b838110156106035780820151818401526020810190506105e8565b50505050905090810190601f1680156106305780820380516001836020036101000a031916815260200191505b509550505050505060405180910390f35b61068b6004803603608081101561065757600080fd5b8101908080359060200190929190803590602001909291908035906020019092919080359060200190929190505050611c6e565b6040518082815260200191505060405180910390f35b6106cd600480360360208110156106b757600080fd5b8101908080359060200190929190505050612669565b604051808273ffffffffffffffffffffffffffffffffffffffff16815260200191505060405180910390f35b6107256004803603602081101561070f57600080fd5b810190808035906020019092919050505061269c565b6040518080602001858152602001806020018467ffffffffffffffff168152602001838103835287818151815260200191508051906020019080838360005b8381101561077f578082015181840152602081019050610764565b50505050905090810190601f1680156107ac5780820380516001836020036101000a031916815260200191505b50838103825285818151815260200191508051906020019080838360005b838110156107e55780820151818401526020810190506107ca565b50505050905090810190601f1680156108125780820380516001836020036101000a031916815260200191505b50965050505050505060405180910390f35b6108506004803603602081101561083a57600080fd5b810190808035906020019092919050505061291b565b60405180806020018581526020018460070b81526020018315158152602001828103825286818151815260200191508051906020019080838360005b838110156108a757808201518184015260208101905061088c565b50505050905090810190601f1680156108d45780820380516001836020036101000a031916815260200191505b509550505050505060405180910390f35b610925600480360360608110156108fb57600080fd5b81019080803590602001909291908035906020019092919080359060200190929190505050612a25565b005b61095d6004803603604081101561093d57600080fd5b810190808035906020019092919080359060200190929190505050613236565b604051808273ffffffffffffffffffffffffffffffffffffffff16815260200191505060405180910390f35b6109d56004803603604081101561099f57600080fd5b8101908080359060200190929190803573ffffffffffffffffffffffffffffffffffffffff169060200190929190505050613267565b60405180821515815260200191505060405180910390f35b610a1960048036036020811015610a0357600080fd5b8101908080359060200190929190505050613298565b60405180806020018681526020018567ffffffffffffffff1681526020018467ffffffffffffffff16815260200180602001838103835288818151815260200191508051906020019080838360005b83811015610a83578082015181840152602081019050610a68565b50505050905090810190601f168015610ab05780820380516001836020036101000a031916815260200191505b50838103825284818151815260200191508051906020019060200280838360005b83811015610aec578082015181840152602081019050610ad1565b5050505090500197505050505050505060405180910390f35b610b0d61349d565b6040518082815260200191505060405180910390f35b610b6560048036036020811015610b3957600080fd5b81019080803573ffffffffffffffffffffffffffffffffffffffff1690602001909291905050506134a4565b6040518082815260200191505060405180910390f35b610ba760048036036020811015610b9157600080fd5b810190808035906020019092919050505061358c565b6040518082815260200191505060405180910390f35b610be960048036036020811015610bd357600080fd5b81019080803590602001909291905050506135b2565b005b610c1760048036036020811015610c0157600080fd5b8101908080359060200190929190505050613821565b60405180821515815260200191505060405180910390f35b610c7b60048036036040811015610c4557600080fd5b8101908080359060200190929190803573ffffffffffffffffffffffffffffffffffffffff169060200190929190505050613841565b005b610d4d60048036036060811015610c9357600080fd5b8101908080359060200190640100000000811115610cb057600080fd5b820183602082011115610cc257600080fd5b80359060200191846001830284011164010000000083111715610ce457600080fd5b91908080601f016020809104026020016040519081016040528093929190818152602001838380828437600081840152601f19601f82011690508083019250505050505050919291929080359060200190929190803560070b90602001909291905050506138ca565b6040518082815260200191505060405180910390f35b610d6b613b61565b6040518082815260200191505060405180910390f35b610dc360048036036020811015610d9757600080fd5b81019080803573ffffffffffffffffffffffffffffffffffffffff169060200190929190505050613b85565b6040518082815260200191505060405180910390f35b610eb360048036036080811015610def57600080fd5b8101908080359060200190640100000000811115610e0c57600080fd5b820183602082011115610e1e57600080fd5b80359060200191846001830284011164010000000083111715610e4057600080fd5b91908080601f016020809104026020016040519081016040528093929190818152602001838380828437600081840152601f19601f820116905080830192505050505050509192919290803560070b90602001909291908035906020019092919080359060200190929190505050613b9d565b6040518082815260200191505060405180910390f35b600a6020528060005260406000206000915054906101000a900460ff1681565b6000806000838152602001908152602001600020600201549050919050565b6007602052806000526040600020600091509050806000015490806001018054600181600116156101000203166002900480601f016020809104026020016040519081016040528092919081815260200182805460018160011615610100020316600290048015610fba5780601f10610f8f57610100808354040283529160200191610fba565b820191906000526020600020905b815481529060010190602001808311610f9d57829003601f168201915b5050505050908060020160009054906101000a900460070b908060030154908060040160009054906101000a900467ffffffffffffffff16908060040160089054906101000a900460ff16908060050154905087565b61103660008084815260200190815260200160002060020154611031614011565b613267565b61108b576040517f08c379a000000000000000000000000000000000000000000000000000000000815260040180806020018281038252602f8152602001806148d2602f913960400191505060405180910390fd5b6110958282614019565b5050565b600060011515600b600086815260200190815260200160002060009054906101000a900460ff16151514611135576040517f08c379a000000000000000000000000000000000000000000000000000000000815260040180806020018281038252601d8152602001807f4f6666696365206973204e4f5420757020666f7220656c656374696f6e00000081525060200191505060405180910390fd5b600115156111466000801b33613267565b1515148061118157506001151561117d7fb7f8beecafe1ad662cec1153812612581a86b9460f21b876f3ee163141203dcb33613267565b1515145b6111d6576040517f08c379a000000000000000000000000000000000000000000000000000000000815260040180806020018281038252602e815260200180614d0c602e913960400191505060405180910390fd5b6004600181600181540180825580915050039060005260206000209050506111fc6146fd565b6003858154811061120957fe5b90600052602060002090600402016040518060a0016040529081600082018054600181600116156101000203166002900480601f0160208091040260200160405190810160405280929190818152602001828054600181600116156101000203166002900480156112bb5780601f10611290576101008083540402835291602001916112bb565b820191906000526020600020905b81548152906001019060200180831161129e57829003601f168201915b50505050508152602001600182015481526020016002820160009054906101000a900460070b60070b60070b81526020016002820160089054906101000a900467ffffffffffffffff1667ffffffffffffffff1667ffffffffffffffff1681526020016003820154815250509050600060046001600480549050038154811061134057fe5b90600052602060002090600402019050858160000181905550848160010160006101000a81548167ffffffffffffffff021916908367ffffffffffffffff160217905550838160010160086101000a81548167ffffffffffffffff021916908367ffffffffffffffff1602179055506004805490508160020181905550600060016004805490500390507fa951106ad0f6639e96325687aa3ef355f8b1d0e0a7bce6446da8c7971a2c04698360000151846020015188888560405180806020018681526020018567ffffffffffffffff1681526020018467ffffffffffffffff168152602001838152602001828103825287818151815260200191508051906020019080838360005b83811015611464578082015181840152602081019050611449565b50505050905090810190601f1680156114915780820380516001836020036101000a031916815260200191505b50965050505050505060405180910390a18093505050509392505050565b606080600080600285815481106114c257fe5b906000526020600020906005020190506114da6146fd565b60038260010154815481106114eb57fe5b90600052602060002090600402016040518060a0016040529081600082018054600181600116156101000203166002900480601f01602080910402602001604051908101604052809291908181526020018280546001816001161561010002031660029004801561159d5780601f106115725761010080835404028352916020019161159d565b820191906000526020600020905b81548152906001019060200180831161158057829003601f168201915b50505050508152602001600182015481526020016002820160009054906101000a900460070b60070b60070b81526020016002820160089054906101000a900467ffffffffffffffff1667ffffffffffffffff1667ffffffffffffffff1681526020016003820154815250509050611613614739565b600183600001548154811061162457fe5b90600052602060002090600602016040518060e001604052908160008201548152602001600182018054600181600116156101000203166002900480601f0160208091040260200160405190810160405280929190818152602001828054600181600116156101000203166002900480156116e05780601f106116b5576101008083540402835291602001916116e0565b820191906000526020600020905b8154815290600101906020018083116116c357829003601f168201915b505050505081526020016002820160009054906101000a900460070b60070b60070b8152602001600382015481526020016004820160009054906101000a900467ffffffffffffffff1667ffffffffffffffff1667ffffffffffffffff1681526020016004820160089054906101000a900460ff1615151515815260200160058201548152505090508060200151955081600001519450816020015193505050509193909250565b611790614011565b73ffffffffffffffffffffffffffffffffffffffff168173ffffffffffffffffffffffffffffffffffffffff1614611813576040517f08c379a000000000000000000000000000000000000000000000000000000000815260040180806020018281038252602f815260200180614cdd602f913960400191505060405180910390fd5b61181d82826140ac565b5050565b600061182b614785565b6004838154811061183857fe5b90600052602060002090600402016040518060a0016040529081600082015481526020016001820160009054906101000a900467ffffffffffffffff1667ffffffffffffffff1667ffffffffffffffff1681526020016001820160089054906101000a900467ffffffffffffffff1667ffffffffffffffff1667ffffffffffffffff168152602001600282015481526020016003820180548060200260200160405190810160405280929190818152602001828054801561191857602002820191906000526020600020905b815481526020019060010190808311611904575b50505050508152505090504267ffffffffffffffff16816040015167ffffffffffffffff161115611994576040517f08c379a000000000000000000000000000000000000000000000000000000000815260040180806020018281038252604b8152602001806149b9604b913960600191505060405180910390fd5b6000805b8260800151518111611a95576119ac6147c8565b600282815481106119b957fe5b90600052602060002090600502016040518060c00160405290816000820154815260200160018201548152602001600282015481526020016003820160009054906101000a900467ffffffffffffffff1667ffffffffffffffff1667ffffffffffffffff1681526020016003820160089054906101000a900467ffffffffffffffff1667ffffffffffffffff1667ffffffffffffffff16815260200160048201548152505090508267ffffffffffffffff16816060015167ffffffffffffffff1610611a8757806060015192505b508080600101915050611998565b508092505050919050565b606060008060003373ffffffffffffffffffffffffffffffffffffffff166005600087815260200190815260200160002060009054906101000a900473ffffffffffffffffffffffffffffffffffffffff1673ffffffffffffffffffffffffffffffffffffffff161480611b24575060011515611b206000801b33613267565b1515145b611b79576040517f08c379a00000000000000000000000000000000000000000000000000000000081526004018080602001828103825260308152602001806149366030913960400191505060405180910390fd5b600060018681548110611b8857fe5b90600052602060002090600602019050806001018054600181600116156101000203166002900480601f016020809104026020016040519081016040528092919081815260200182805460018160011615610100020316600290048015611c305780601f10611c0557610100808354040283529160200191611c30565b820191906000526020600020905b815481529060010190602001808311611c1357829003601f168201915b505050505094508060020160009054906101000a900460070b9350806003015492508060040160089054906101000a900460ff169150509193509193565b6000600115156008600086815260200190815260200160002060009054906101000a900460ff16151514611ced576040517f08c379a0000000000000000000000000000000000000000000000000000000008152600401808060200182810382526029815260200180614b826029913960400191505060405180910390fd5b60011515600960003373ffffffffffffffffffffffffffffffffffffffff1673ffffffffffffffffffffffffffffffffffffffff16815260200190815260200160002060009054906101000a900460ff16151514611d96576040517f08c379a000000000000000000000000000000000000000000000000000000000815260040180806020018281038252602b815260200180614bab602b913960400191505060405180910390fd5b3373ffffffffffffffffffffffffffffffffffffffff166005600087815260200190815260200160002060009054906101000a900473ffffffffffffffffffffffffffffffffffffffff1673ffffffffffffffffffffffffffffffffffffffff1614611e4d576040517f08c379a0000000000000000000000000000000000000000000000000000000008152600401808060200182810382526037815260200180614ad16037913960400191505060405180910390fd5b611e55614739565b600760008781526020019081526020016000206040518060e001604052908160008201548152602001600182018054600181600116156101000203166002900480601f016020809104026020016040519081016040528092919081815260200182805460018160011615610100020316600290048015611f165780601f10611eeb57610100808354040283529160200191611f16565b820191906000526020600020905b815481529060010190602001808311611ef957829003601f168201915b505050505081526020016002820160009054906101000a900460070b60070b60070b8152602001600382015481526020016004820160009054906101000a900467ffffffffffffffff1667ffffffffffffffff1667ffffffffffffffff1681526020016004820160089054906101000a900460ff161515151581526020016005820154815250509050611fa76146fd565b60038581548110611fb457fe5b90600052602060002090600402016040518060a0016040529081600082018054600181600116156101000203166002900480601f0160208091040260200160405190810160405280929190818152602001828054600181600116156101000203166002900480156120665780601f1061203b57610100808354040283529160200191612066565b820191906000526020600020905b81548152906001019060200180831161204957829003601f168201915b50505050508152602001600182015481526020016002820160009054906101000a900460070b60070b60070b81526020016002820160089054906101000a900467ffffffffffffffff1667ffffffffffffffff1667ffffffffffffffff16815260200160038201548152505090506120dc614785565b600485815481106120e957fe5b90600052602060002090600402016040518060a0016040529081600082015481526020016001820160009054906101000a900467ffffffffffffffff1667ffffffffffffffff1667ffffffffffffffff1681526020016001820160089054906101000a900467ffffffffffffffff1667ffffffffffffffff1667ffffffffffffffff16815260200160028201548152602001600382018054806020026020016040519081016040528092919081815260200182805480156121c957602002820191906000526020600020905b8154815260200190600101908083116121b5575b5050505050815250509050600115158360a00151151514612252576040517f08c379a000000000000000000000000000000000000000000000000000000000815260040180806020018281038252601b8152602001807f596f7520617265206e6f206c6f6e676572206120636974697a656e000000000081525060200191505060405180910390fd5b868360000151146122ae576040517f08c379a0000000000000000000000000000000000000000000000000000000008152600401808060200182810382526026815260200180614c2d6026913960400191505060405180910390fd5b60011515600b600088815260200190815260200160002060009054906101000a900460ff16151514612348576040517f08c379a000000000000000000000000000000000000000000000000000000000815260040180806020018281038252601d8152602001807f4f6666696365206973204e4f5420757020666f7220656c656374696f6e00000081525060200191505060405180910390fd5b826040015160070b826040015160070b12156123af576040517f08c379a000000000000000000000000000000000000000000000000000000000815260040180806020018281038252602b815260200180614966602b913960400191505060405180910390fd5b6123b76147c8565b6040518060c001604052808a8152602001888152602001878152602001600067ffffffffffffffff1681526020014267ffffffffffffffff1681526020016002805490508152509050600281908060018154018082558091505060019003906000526020600020906005020160009091909190915060008201518160000155602082015181600101556040820151816002015560608201518160030160006101000a81548167ffffffffffffffff021916908367ffffffffffffffff16021790555060808201518160030160086101000a81548167ffffffffffffffff021916908367ffffffffffffffff16021790555060a08201518160040155505060006001600280549050039050600487815481106124ce57fe5b90600052602060002090600402016003018190806001815401808255809150506001900390600052602060002001600090919091909150556001600a600083815260200190815260200160002060006101000a81548160ff0219169083151502179055507f891e756eff7201520283922fc3ede4d874d465693e19f7cbb4fd2555b3b63e0a8560200151856000015185602001516040518080602001806020018467ffffffffffffffff168152602001838103835286818151815260200191508051906020019080838360005b838110156125b657808201518184015260208101905061259b565b50505050905090810190601f1680156125e35780820380516001836020036101000a031916815260200191505b50838103825285818151815260200191508051906020019080838360005b8381101561261c578082015181840152602081019050612601565b50505050905090810190601f1680156126495780820380516001836020036101000a031916815260200191505b509550505050505060405180910390a18095505050505050949350505050565b60056020528060005260406000206000915054906101000a900473ffffffffffffffffffffffffffffffffffffffff1681565b606060006060600080600286815481106126b257fe5b90600052602060002090600502019050600060018260000154815481106126d557fe5b90600052602060002090600602019050600060048360020154815481106126f857fe5b906000526020600020906004020190504267ffffffffffffffff168160010160089054906101000a900467ffffffffffffffff1667ffffffffffffffff16111561278d576040517f08c379a000000000000000000000000000000000000000000000000000000000815260040180806020018281038252604a815260200180614b38604a913960600191505060405180910390fd5b600060038260000154815481106127a057fe5b90600052602060002090600402019050806000018054600181600116156101000203166002900480601f0160208091040260200160405190810160405280929190818152602001828054600181600116156101000203166002900480156128485780601f1061281d57610100808354040283529160200191612848565b820191906000526020600020905b81548152906001019060200180831161282b57829003601f168201915b5050505050975080600101549650826001018054600181600116156101000203166002900480601f0160208091040260200160405190810160405280929190818152602001828054600181600116156101000203166002900480156128ee5780601f106128c3576101008083540402835291602001916128ee565b820191906000526020600020905b8154815290600101906020018083116128d157829003601f168201915b505050505095508360030160009054906101000a900467ffffffffffffffff169450505050509193509193565b60606000806000806003868154811061293057fe5b90600052602060002090600402019050806000018054600181600116156101000203166002900480601f0160208091040260200160405190810160405280929190818152602001828054600181600116156101000203166002900480156129d85780601f106129ad576101008083540402835291602001916129d8565b820191906000526020600020905b8154815290600101906020018083116129bb57829003601f168201915b50505050509450806001015493508060020160009054906101000a900460070b9250600b600087815260200190815260200160002060009054906101000a900460ff169150509193509193565b3373ffffffffffffffffffffffffffffffffffffffff166005600085815260200190815260200160002060009054906101000a900473ffffffffffffffffffffffffffffffffffffffff1673ffffffffffffffffffffffffffffffffffffffff1614612adc576040517f08c379a000000000000000000000000000000000000000000000000000000000815260040180806020018281038252602b815260200180614bd6602b913960400191505060405180910390fd5b60011515600960003373ffffffffffffffffffffffffffffffffffffffff1673ffffffffffffffffffffffffffffffffffffffff16815260200190815260200160002060009054906101000a900460ff16151514612b85576040517f08c379a0000000000000000000000000000000000000000000000000000000008152600401808060200182810382526024815260200180614c536024913960400191505060405180910390fd5b612b8d614739565b600760008581526020019081526020016000206040518060e001604052908160008201548152602001600182018054600181600116156101000203166002900480601f016020809104026020016040519081016040528092919081815260200182805460018160011615610100020316600290048015612c4e5780601f10612c2357610100808354040283529160200191612c4e565b820191906000526020600020905b815481529060010190602001808311612c3157829003601f168201915b505050505081526020016002820160009054906101000a900460070b60070b60070b8152602001600382015481526020016004820160009054906101000a900467ffffffffffffffff1667ffffffffffffffff1667ffffffffffffffff1681526020016004820160089054906101000a900460ff161515151581526020016005820154815250509050600115158160a00151151514612d55576040517f08c379a000000000000000000000000000000000000000000000000000000000815260040180806020018281038252601b8152602001807f596f7520617265206e6f206c6f6e676572206120636974697a656e000000000081525060200191505060405180910390fd5b612d5d614785565b60048381548110612d6a57fe5b90600052602060002090600402016040518060a0016040529081600082015481526020016001820160009054906101000a900467ffffffffffffffff1667ffffffffffffffff1667ffffffffffffffff1681526020016001820160089054906101000a900467ffffffffffffffff1667ffffffffffffffff1667ffffffffffffffff1681526020016002820154815260200160038201805480602002602001604051908101604052809291908181526020018280548015612e4a57602002820191906000526020600020905b815481526020019060010190808311612e36575b50505050508152505090504267ffffffffffffffff16816020015167ffffffffffffffff161115612ee3576040517f08c379a000000000000000000000000000000000000000000000000000000000815260040180806020018281038252601f8152602001807f54686520656c656374696f6e20686173206e6f74206f70656e6564207965740081525060200191505060405180910390fd5b4267ffffffffffffffff16816040015167ffffffffffffffff161015612f71576040517f08c379a000000000000000000000000000000000000000000000000000000000815260040180806020018281038252601e8152602001807f54686520656c656374696f6e206973206e6f206c6f6e676572206f70656e000081525060200191505060405180910390fd5b612f796146fd565b6003826000015181548110612f8a57fe5b90600052602060002090600402016040518060a0016040529081600082018054600181600116156101000203166002900480601f01602080910402602001604051908101604052809291908181526020018280546001816001161561010002031660029004801561303c5780601f106130115761010080835404028352916020019161303c565b820191906000526020600020905b81548152906001019060200180831161301f57829003601f168201915b50505050508152602001600182015481526020016002820160009054906101000a900460070b60070b60070b81526020016002820160089054906101000a900467ffffffffffffffff1667ffffffffffffffff1667ffffffffffffffff1681526020016003820154815250509050806020015183606001511461310a576040517f08c379a000000000000000000000000000000000000000000000000000000000815260040180806020018281038252603d815260200180614a3b603d913960400191505060405180910390fd5b60006002868154811061311957fe5b90600052602060002090600502019050826000015181600101541480156131435750848160020154145b613198576040517f08c379a000000000000000000000000000000000000000000000000000000000815260040180806020018281038252602c815260200180614c01602c913960400191505060405180910390fd5b60018160030160008282829054906101000a900467ffffffffffffffff160192506101000a81548167ffffffffffffffff021916908367ffffffffffffffff1602179055507e49e9a81233825e4f5949eb5b06cce97b4f086f6981805188b1e12c5cf638e4868642604051808481526020018381526020018267ffffffffffffffff168152602001935050505060405180910390a150505050505050565b600061325f8260008086815260200190815260200160002060000161413f90919063ffffffff16565b905092915050565b60006132908260008086815260200190815260200160002060000161415990919063ffffffff16565b905092915050565b6060600080600060606000600487815481106132b057fe5b906000526020600020906004020190506132c86146fd565b60038260000154815481106132d957fe5b90600052602060002090600402016040518060a0016040529081600082018054600181600116156101000203166002900480601f01602080910402602001604051908101604052809291908181526020018280546001816001161561010002031660029004801561338b5780601f106133605761010080835404028352916020019161338b565b820191906000526020600020905b81548152906001019060200180831161336e57829003601f168201915b50505050508152602001600182015481526020016002820160009054906101000a900460070b60070b60070b81526020016002820160089054906101000a900467ffffffffffffffff1667ffffffffffffffff1667ffffffffffffffff168152602001600382015481525050905080600001519650806020015195508160010160009054906101000a900467ffffffffffffffff1694508160010160089054906101000a900467ffffffffffffffff1693508160030180548060200260200160405190810160405280929190818152602001828054801561348b57602002820191906000526020600020905b815481526020019060010190808311613477575b50505050509250505091939590929450565b6000801b81565b60008173ffffffffffffffffffffffffffffffffffffffff163373ffffffffffffffffffffffffffffffffffffffff1614806134f05750600115156134ec6000801b33613267565b1515145b613545576040517f08c379a00000000000000000000000000000000000000000000000000000000081526004018080602001828103825260308152602001806149366030913960400191505060405180910390fd5b600660008373ffffffffffffffffffffffffffffffffffffffff1673ffffffffffffffffffffffffffffffffffffffff168152602001908152602001600020549050919050565b60006135ab600080848152602001908152602001600020600001614189565b9050919050565b6135ba6147c8565b600282815481106135c757fe5b90600052602060002090600502016040518060c00160405290816000820154815260200160018201548152602001600282015481526020016003820160009054906101000a900467ffffffffffffffff1667ffffffffffffffff1667ffffffffffffffff1681526020016003820160089054906101000a900467ffffffffffffffff1667ffffffffffffffff1667ffffffffffffffff1681526020016004820154815250509050806060015167ffffffffffffffff1661368a8260400151611821565b67ffffffffffffffff16146136ea576040517f08c379a0000000000000000000000000000000000000000000000000000000008152600401808060200182810382526037815260200180614a046037913960400191505060405180910390fd5b600115156136fb6000801b33613267565b151514806137365750600115156137327fb7f8beecafe1ad662cec1153812612581a86b9460f21b876f3ee163141203dcb33613267565b1515145b61378b576040517f08c379a000000000000000000000000000000000000000000000000000000000815260040180806020018281038252603d815260200180614c77603d913960400191505060405180910390fd5b6137948261419e565b7f737019d53070b31742678ee65b3baa855c9cb034d73d970a17e2b352a3d773e582826020015183606001514233604051808681526020018581526020018467ffffffffffffffff1681526020018367ffffffffffffffff1681526020018273ffffffffffffffffffffffffffffffffffffffff1681526020019550505050505060405180910390a15050565b600b6020528060005260406000206000915054906101000a900460ff1681565b61386760008084815260200190815260200160002060020154613862614011565b613267565b6138bc576040517f08c379a0000000000000000000000000000000000000000000000000000000008152600401808060200182810382526030815260200180614b086030913960400191505060405180910390fd5b6138c682826140ac565b5050565b6000600115156138dd6000801b33613267565b151514806139185750600115156139147fb7f8beecafe1ad662cec1153812612581a86b9460f21b876f3ee163141203dcb33613267565b1515145b61396d576040517f08c379a00000000000000000000000000000000000000000000000000000000081526004018080602001828103825260358152602001806149016035913960400191505060405180910390fd5b6139756146fd565b6040518060a001604052808681526020018581526020018460070b81526020014267ffffffffffffffff1681526020016003805490508152509050600381908060018154018082558091505060019003906000526020600020906004020160009091909190915060008201518160000190805190602001906139f8929190614812565b506020820151816001015560408201518160020160006101000a81548167ffffffffffffffff021916908360070b67ffffffffffffffff16021790555060608201518160020160086101000a81548167ffffffffffffffff021916908367ffffffffffffffff160217905550608082015181600301555050600060016003805490500390506001600b600083815260200190815260200160002060006101000a81548160ff0219169083151502179055507fb88277fa8c66993083f7ebdd5f92a7991cf4ed8d4957b20268880dca91a50bdb8686836040518080602001848152602001838152602001828103825285818151815260200191508051906020019080838360005b83811015613b19578082015181840152602081019050613afe565b50505050905090810190601f168015613b465780820380516001836020036101000a031916815260200191505b5094505050505060405180910390a180925050509392505050565b7fb7f8beecafe1ad662cec1153812612581a86b9460f21b876f3ee163141203dcb81565b60066020528060005260406000206000915090505481565b60008015156008600084815260200190815260200160002060009054906101000a900460ff16151514613c1b576040517f08c379a0000000000000000000000000000000000000000000000000000000008152600401808060200182810382526029815260200180614cb46029913960400191505060405180910390fd5b60001515600960003373ffffffffffffffffffffffffffffffffffffffff1673ffffffffffffffffffffffffffffffffffffffff16815260200190815260200160002060009054906101000a900460ff16151514613cc4576040517f08c379a00000000000000000000000000000000000000000000000000000000081526004018080602001828103825260288152602001806149916028913960400191505060405180910390fd5b613ccc614739565b6040518060e001604052808481526020018781526020018660070b81526020018581526020014267ffffffffffffffff16815260200160011515815260200160018054905081525090506001819080600181540180825580915050600190039060005260206000209060060201600090919091909150600082015181600001556020820151816001019080519060200190613d68929190614812565b5060408201518160020160006101000a81548167ffffffffffffffff021916908360070b67ffffffffffffffff1602179055506060820151816003015560808201518160040160006101000a81548167ffffffffffffffff021916908367ffffffffffffffff16021790555060a08201518160040160086101000a81548160ff02191690831515021790555060c08201518160050155505060006001808054905003905060016008600086815260200190815260200160002060006101000a81548160ff0219169083151502179055506001600960003373ffffffffffffffffffffffffffffffffffffffff1673ffffffffffffffffffffffffffffffffffffffff16815260200190815260200160002060006101000a81548160ff0219169083151502179055508160076000838152602001908152602001600020600082015181600001556020820151816001019080519060200190613eca929190614812565b5060408201518160020160006101000a81548167ffffffffffffffff021916908360070b67ffffffffffffffff1602179055506060820151816003015560808201518160040160006101000a81548167ffffffffffffffff021916908367ffffffffffffffff16021790555060a08201518160040160086101000a81548160ff02191690831515021790555060c082015181600501559050507fa12daf0dc9e98c44420339df34fbae8835074be1a972516ca7363d867ca01d9c33828688604051808573ffffffffffffffffffffffffffffffffffffffff16815260200184815260200183815260200182815260200194505050505060405180910390a1613fd4600033836143b0565b8092505050949350505050565b6000614009836000018373ffffffffffffffffffffffffffffffffffffffff1660001b6144be565b905092915050565b600033905090565b61404081600080858152602001908152602001600020600001613fe190919063ffffffff16565b156140a85761404d614011565b73ffffffffffffffffffffffffffffffffffffffff168173ffffffffffffffffffffffffffffffffffffffff16837f2f8788117e7eff1d82e926ec794901d17c78024a50270940304540a733656f0d60405160405180910390a45b5050565b6140d38160008085815260200190815260200160002060000161452e90919063ffffffff16565b1561413b576140e0614011565b73ffffffffffffffffffffffffffffffffffffffff168173ffffffffffffffffffffffffffffffffffffffff16837ff6391f5c32d9c69d2a47ea670b442974b53935d1edc7fd64eb21e047a839171b60405160405180910390a45b5050565b600061414e836000018361455e565b60001c905092915050565b6000614181836000018373ffffffffffffffffffffffffffffffffffffffff1660001b6145e1565b905092915050565b600061419782600001614604565b9050919050565b600115156141af6000801b33613267565b151514806141ea5750600115156141e67fb7f8beecafe1ad662cec1153812612581a86b9460f21b876f3ee163141203dcb33613267565b1515145b61423f576040517f08c379a0000000000000000000000000000000000000000000000000000000008152600401808060200182810382526034815260200180614a9d6034913960400191505060405180910390fd5b6142476147c8565b6002828154811061425457fe5b90600052602060002090600502016040518060c00160405290816000820154815260200160018201548152602001600282015481526020016003820160009054906101000a900467ffffffffffffffff1667ffffffffffffffff1667ffffffffffffffff1681526020016003820160089054906101000a900467ffffffffffffffff1667ffffffffffffffff1667ffffffffffffffff168152602001600482015481525050905060011515600b60008360200151815260200190815260200160002060009054906101000a900460ff1615151461437c576040517f08c379a0000000000000000000000000000000000000000000000000000000008152600401808060200182810382526025815260200180614a786025913960400191505060405180910390fd5b6000600b60008360200151815260200190815260200160002060006101000a81548160ff0219169083151502179055505050565b816005600083815260200190815260200160002060006101000a81548173ffffffffffffffffffffffffffffffffffffffff021916908373ffffffffffffffffffffffffffffffffffffffff16021790555080600660008473ffffffffffffffffffffffffffffffffffffffff1673ffffffffffffffffffffffffffffffffffffffff168152602001908152602001600020819055507f0c0ee92e381a7696445c71651e0d09689a61bd67a3b7c08ebe8fec6339c1e011838383604051808473ffffffffffffffffffffffffffffffffffffffff1681526020018373ffffffffffffffffffffffffffffffffffffffff168152602001828152602001935050505060405180910390a1505050565b60006144ca83836145e1565b614523578260000182908060018154018082558091505060019003906000526020600020016000909190919091505582600001805490508360010160008481526020019081526020016000208190555060019050614528565b600090505b92915050565b6000614556836000018373ffffffffffffffffffffffffffffffffffffffff1660001b614615565b905092915050565b6000818360000180549050116145bf576040517f08c379a00000000000000000000000000000000000000000000000000000000081526004018080602001828103825260228152602001806148b06022913960400191505060405180910390fd5b8260000182815481106145ce57fe5b9060005260206000200154905092915050565b600080836001016000848152602001908152602001600020541415905092915050565b600081600001805490509050919050565b600080836001016000848152602001908152602001600020549050600081146146f1576000600182039050600060018660000180549050039050600086600001828154811061466057fe5b906000526020600020015490508087600001848154811061467d57fe5b90600052602060002001819055506001830187600101600083815260200190815260200160002081905550866000018054806146b557fe5b600190038181906000526020600020016000905590558660010160008781526020019081526020016000206000905560019450505050506146f7565b60009150505b92915050565b6040518060a001604052806060815260200160008152602001600060070b8152602001600067ffffffffffffffff168152602001600081525090565b6040518060e001604052806000815260200160608152602001600060070b815260200160008152602001600067ffffffffffffffff168152602001600015158152602001600081525090565b6040518060a0016040528060008152602001600067ffffffffffffffff168152602001600067ffffffffffffffff16815260200160008152602001606081525090565b6040518060c00160405280600081526020016000815260200160008152602001600067ffffffffffffffff168152602001600067ffffffffffffffff168152602001600081525090565b828054600181600116156101000203166002900490600052602060002090601f016020900481019282601f1061485357805160ff1916838001178555614881565b82800160010185558215614881579182015b82811115614880578251825591602001919060010190614865565b5b50905061488e9190614892565b5090565b5b808211156148ab576000816000905550600101614893565b509056fe456e756d657261626c655365743a20696e646578206f7574206f6620626f756e6473416363657373436f6e74726f6c3a2073656e646572206d75737420626520616e2061646d696e20746f206772616e74596f7520646f204e4f5420686176652061636365737320746f206372656174696e6720616e206f666669636520706f736974696f6e4164647265737320646f6573206e6f7420686176652061636365737320746f207468697320696e666f726d6174696f6e436974697a656e206973204e4f54206f6c6420656e6f75676820746f2072756e20666f72204f66666963654164647265737320697320616c72656164792061737369676e656420746f206120636974697a656e456c656374696f6e20726573756c747320617265206e6f7420617661696c61626c6520756e74696c20656c656374696f6e20697320636c6f736564206f66662066726f6d20766f74696e67546869732063616e64696461746520646f6573206e6f74206861766520746865206869676865737420616d6f756e74206f6620766f7465596f7520617265206e6f74207065726d697474656420746f20766f746520666f722074686973206f666669636520696e2074686973207a6970436f64655468697320706f736974696f6e20776173206e6f7420757020666f7220656c656374696f6e596f7520646f204e4f5420686176652061636365737320746f20636c6f73696e6720616e206f666669636520706f736974696f6e55736572206973206e6f74206f776e6572206f6620636974697a656e20747279696e6720746f206265636f6d652063616e646964617465416363657373436f6e74726f6c3a2073656e646572206d75737420626520616e2061646d696e20746f207265766f6b65456c656374696f6e20726573756c747320617265206e6f7420617661696c61626c6520756e74696c20656c656374696f6e20697320636c6f7365206f66662066726f6d20766f74696e675374617465204964206973206e6f742061737369676e656420746f206120636974697a656e2079657441646472657373206973206e6f742061737369676e656420746f20746f206120636974697a656e2079657455736572206973206e6f74206f776e6572206f6620636974697a656e20747279696e6720746f20766f7465546869732063616e646964617465206973206e6f7420656c696769626c6520666f72207468697320766f746555736572206973206e6f74206f776e6572206f66207265717569726564205374617465204944546869732061646472657373206973206e6f7420656c696769626c6520746f20766f7465596f7520646f204e4f5420686176652061636365737320746f206465636c6172696e6720612077696e6e6572206f66207468697320656c656374696f6e537461746520494420697320616c72656164792061737369676e656420746f206120636974697a656e416363657373436f6e74726f6c3a2063616e206f6e6c792072656e6f756e636520726f6c657320666f722073656c66596f7520646f204e4f5420686176652061636365737320746f206372656174696e6720616e20656c656374696f6ea2646970667358221220e322c30a9d41d3a64a192261ad05acf72a00bddf9dd10f95af41eb80b6fd1f5e64736f6c63430007000033",
  "immutableReferences": {},
  "source": "pragma solidity ^0.7.0;\n\nimport \"../node_modules/@openzeppelin/contracts/math/SafeMath.sol\";\nimport \"../node_modules/@openzeppelin/contracts/access/AccessControl.sol\";\n\n\n\ncontract OneVote is AccessControl{\n\n    using SafeMath for uint256;\n\n\n//EVENTS\n    //emitted when citizen is created showing new citizen's name, indexed citizen's address zip code, date approved\n    event CitizenAdded(address owner, uint256 citizenId, uint256 stateId, uint256 zipCode);\n\n    //emitted when citizen has died or citzenship has been dismissed or revoked\n    event NoLongerACitizen(uint256 citizenId, address citzenAddress, string reasonForLoseOfCitizenship);\n\n    //emitted when citizen is assigned to a corresponding address\n    event Assigned(address from, address to, uint256 tokenId);\n\n    //emitted when a candidate is created showing new candidate name, office, electionStart\n    event CandidateAdded(string _name, string _officeTitle, uint64 _electionStart);\n\n    //emitted when an office is create\n    event OfficeAdded(string _officeTitle, uint256 _zipCode, uint256 _officeId);\n\n    //emitted when a election is created\n    event ElectionAdded(string _officeTitle, uint256 _zipCode, uint64 _electionStart, uint64 _electionEnd, uint256 _electionId);\n\n    //emitted when vote has been cast\n    event VoteCast(uint256 _candidateId, uint256 _electionId, uint64 timeVoteCast);\n\n    //emitted when winner of election is determined\n    event Winner(uint256 _candidateId, uint256 _officeId, uint64 _voteCount, uint64 timestamp, address confirmedBy);\n\n\n//STRUCTS\n    //use date object for all dates\n    struct Citizen {\n        uint256 stateId;\n        string name;\n        int64 dateOfBirth;\n        uint256 zipCode;\n        uint64 dateApproved;\n        //bool used for whether a citizen has died or lost citizenship\n        bool citizenship;\n        uint256 citizenId;\n    }\n\n    struct Candidate {\n        uint256 citizenId;\n        uint256 officeId;\n        uint256 electionId;\n        /* string name;\n        int64 dateOfBirth;\n        string officeTitle;\n        uint256 zipCode;\n        uint64 electionStart;\n        uint64 electionEnd; */\n        uint64 voteCount;\n        uint64 dateApprovedToRun;\n        uint256 candidateId;\n    }\n\n    struct Office {\n        string officeTitle;\n        uint256 zipCode;\n        int64 requiredAge;\n        uint64 dateApproved;\n        uint256 officeId;\n    }\n\n    struct Election {\n        /* string officeTitle;\n        uint256 zipCode; */\n        uint256 officeId;\n        uint64 electionStart;\n        uint64 electionEnd;\n        uint256 electionId;\n        uint256[] candidateIds;\n    }\n\n\n//ARRAYS\n    Citizen[] citizens;\n    Candidate[] candidates;\n    Office[] offices;\n    Election[] elections;\n\n    //citizen mapping\n    /// @dev citizen mapping needs to be private after testing\n    mapping(uint256 => address) public citizenIndexToOwner;\n    mapping(address => uint256) public citizenIdOfAddress;\n    mapping(uint256 => Citizen) public citizenIdToCitizen;\n    mapping(uint256 => bool) private stateIdInUse;\n    mapping(address => bool) private addressInUse;\n\n    //candidate mapping\n    /* mapping(uint256 => Candidate) public candidateIdToCandidate; */\n    mapping(uint256 => bool) public candidateIsApprovedToRun;\n\n    //office mapping\n    /* mapping(uint256 => Office) public officeIdToOffice; */\n    mapping(uint256 => bool) public officeIsUpForElection;\n\n    //election mapping\n    /* mapping(uint256 => Election) public electionIdToElection; */\n    /* mapping(uint256 => bool) public electionIsActive; */\n\n\n//CONSTRUCTOR\n    /*    // will set access control as contract owner upon deploying contract\n          // all arrays at elements at index 0 will empty */\n    constructor() public {\n      _setupRole(DEFAULT_ADMIN_ROLE, msg.sender);\n      elections.push();\n      citizens.push();\n      offices.push();\n      candidates.push();\n    }\n\n\n//ROLES\n        bytes32 public constant LOCAL_ADMIN_ROLE = keccak256(\"LOCAL_ADMIN_ROLE\");\n\n\n//FUNCTIONS\n////creation functions\n\n    /*  //creates citizens that will be able to vote if citizens are included in a particular election\n        //emits event once citizen is created\n        //a citizen cannot have the same stateId as another citizen */\n    function createCitizen(\n            string memory _name,\n            int64 _dateOfBirth,\n            uint256 _zipCode,\n            uint256 _stateId\n        ) public returns (uint256){\n          require(stateIdInUse[_stateId] == false, \"State ID is already assigned to a citizen\");\n          require(addressInUse[msg.sender] == false, \"Address is already assigned to a citizen\");\n\n            Citizen memory _citizen = Citizen({\n                stateId: _stateId,\n                name: _name,\n                dateOfBirth: _dateOfBirth,\n                zipCode: _zipCode,\n                dateApproved: uint64(block.timestamp),\n                citizenship: true,\n                citizenId: citizens.length\n            });\n\n            citizens.push(_citizen);\n            uint256 newCitizenId = citizens.length - 1;\n\n            stateIdInUse[_stateId] = true;\n            addressInUse[msg.sender] = true;\n            citizenIdToCitizen[newCitizenId] = _citizen;\n\n            emit CitizenAdded(msg.sender, newCitizenId, _stateId, _zipCode);\n\n            _assignCitizenIdToAddress(address(0), msg.sender, newCitizenId);\n\n          return newCitizenId;\n        }\n\n\n      /*  //gets citizen data\n          //must be internal to prevent data being seen by unwanted users */\n      function _getCitizen(uint256 _citizenId)public view returns(\n            string memory _name,\n            int64 _dateOfBirth,\n            uint256 _zipCode,\n            bool _citizenship\n          )\n      {\n        require(citizenIndexToOwner[_citizenId] == msg.sender || hasRole(DEFAULT_ADMIN_ROLE, msg.sender) == true, \"Address does not have access to this information\");\n                Citizen storage citizen = citizens[_citizenId];\n\n                    _name = citizen.name;\n                    _dateOfBirth = citizen.dateOfBirth;\n                    _zipCode = citizen.zipCode;\n                    _citizenship = citizen.citizenship;\n      }\n\n\n      function getCitizenId(address owner) public view returns(uint256){\n        require(msg.sender == owner || hasRole(DEFAULT_ADMIN_ROLE, msg.sender) == true, \"Address does not have access to this information\");\n        return citizenIdOfAddress[owner];\n      }\n\n\n      /* //transfer citizen data to address the citizen was created to represent */\n      function _assignCitizenIdToAddress(address _from, address _to, uint256 _tokenId) internal {\n        citizenIndexToOwner[_tokenId] = _to;\n        citizenIdOfAddress[_to] = _tokenId;\n\n        emit Assigned(_from, _to, _tokenId);\n      }\n\n\n      /* //used when citizens have died or citzenship has been dismissed or revoked */\n      function _loseOfCitizenship(\n              uint256 _citizenId,\n              address _citizenAddress,\n              string memory _reason\n          ) internal {\n            require(hasRole(DEFAULT_ADMIN_ROLE, msg.sender) == true, \"You do NOT have access to changing citizenship status\");\n            require(citizenIndexToOwner[_citizenId] == _citizenAddress, \"This is not the citizens correct address\");\n            require(msg.sender != _citizenAddress, \"You cannot change your own citizenship\");\n\n            stateIdInUse[_citizenId] = false;\n            addressInUse[_citizenAddress] = false;\n\n            Citizen storage citizen = citizens[_citizenId];\n            citizen.citizenship = false;\n\n            emit NoLongerACitizen(_citizenId, _citizenAddress, _reason);\n          }\n\n\n      /*  //create a candidate that will be used for elections\n          //all candidates must be citizens\n          //emit event when canidiate is created */\n      function createCandidate(\n              uint256 _citizenId,\n              uint256 _stateId,\n              uint256 _officeId,\n              uint256 _electionId\n          ) public returns(uint256){\n            require(stateIdInUse[_stateId] == true, \"State Id is not assigned to a citizen yet\");\n            require(addressInUse[msg.sender] == true, \"Address is not assigned to to a citizen yet\");\n            require(citizenIndexToOwner[_citizenId] == msg.sender, \"User is not owner of citizen trying to become candidate\");\n\n            Citizen memory citizen = citizenIdToCitizen[_citizenId];\n            Office memory office = offices[_officeId];\n            Election memory election = elections[_electionId];\n\n            require(citizen.citizenship == true, \"You are no longer a citizen\");\n            require(citizen.stateId == _stateId, \"User is not owner of required State ID\");\n            require(officeIsUpForElection[_officeId] == true, \"Office is NOT up for election\");\n            require(office.requiredAge >= citizen.dateOfBirth, \"Citizen is NOT old enough to run for Office\");\n\n              //need to find out if it is possible to use _getCitizen() and assign that data to a variable like in javascript\n              Candidate memory _candidate = Candidate({\n                    /* //name: citizen.name,\n                    //dateOfBirth: citizen.dateOfBirth,\n                    //officeTitle: office.officeTitle,\n                    //zipCode: office.zipCode, */\n                    citizenId: _citizenId,\n                    officeId: _officeId,\n                    /* electionStart: election.electionStart,\n                    electionEnd: election.electionEnd, */\n                    electionId: _electionId,\n                    voteCount: 0,\n                    dateApprovedToRun: uint64(block.timestamp),\n                    candidateId: candidates.length\n                });\n\n            candidates.push(_candidate);\n            uint256 newCandidateId = candidates.length - 1;\n            elections[_electionId].candidateIds.push(newCandidateId);\n\n            /* elections[_electionId].candidateIds.push(newCandidateId); */\n            /* candidateIdToCandidate[newCandidateId] = _candidate; */\n            candidateIsApprovedToRun[newCandidateId] = true;\n\n            emit CandidateAdded(citizen.name, office.officeTitle, election.electionStart);\n\n        return newCandidateId;\n      }\n\n\n      function getCandidate(uint256 _candidateId) public view returns(\n            string memory name,\n            string memory officeTitle,\n            uint256 zipCode\n          )\n        {\n          Candidate storage candidate = candidates[_candidateId];\n          Office memory office = offices[candidate.officeId];\n          Citizen memory citizen = citizens[candidate.citizenId];\n\n          name = citizen.name;\n          officeTitle = office.officeTitle;\n          zipCode = office.zipCode;\n        }\n\n\n      /*  //create an office for candidates to run for election\n          //emit event when office is created\n          //will need array for zipCode if office covers multiple zipCodes */\n      function createOffice(\n              string memory _officeTitle,\n              uint256 _zipCode,\n              int64 _requiredAge\n          ) public returns(uint256){\n            require(hasRole(DEFAULT_ADMIN_ROLE, msg.sender) == true || hasRole(LOCAL_ADMIN_ROLE, msg.sender) == true, \"You do NOT have access to creating an office position\");\n\n            Office memory _office = Office({\n                  officeTitle: _officeTitle,\n                  zipCode: _zipCode,\n                  requiredAge: _requiredAge,\n                  dateApproved: uint64(block.timestamp),\n                  officeId: offices.length\n              });\n\n              offices.push(_office);\n              uint256 newOfficeId = offices.length - 1;\n\n              /* officeIdToOffice[newOfficeId] = _office; */\n              officeIsUpForElection[newOfficeId] = true;\n\n              emit OfficeAdded(_officeTitle, _zipCode, newOfficeId);\n\n        return newOfficeId;\n      }\n\n\n      function getOffice(uint256 _officeId) public view returns(\n            string memory officeTitle,\n            uint256 zipCode,\n            int64 requiredAge,\n            bool isOpenForElection\n          )\n        {\n          Office storage office = offices[_officeId];\n\n          officeTitle = office.officeTitle;\n          zipCode = office.zipCode;\n          requiredAge = office.requiredAge;\n          isOpenForElection = officeIsUpForElection[_officeId];\n        }\n\n\n      /* //changes status of open offices after elections */\n      function _filledOfficePosition(uint256 _candidateId) internal {\n        require(hasRole(DEFAULT_ADMIN_ROLE, msg.sender) == true || hasRole(LOCAL_ADMIN_ROLE, msg.sender) == true, \"You do NOT have access to closing an office position\");\n\n        Candidate memory candidate = candidates[_candidateId];\n\n        require(officeIsUpForElection[candidate.officeId] == true, \"This position was not up for election\");\n\n        officeIsUpForElection[candidate.officeId] = false;\n      }\n\n\n      /*  //emit event when election is created\n          //will need to access office array in which election is forum */\n      function createAnElection(\n              uint256 _officeId,\n              uint64 _start,\n              uint64 _end\n          ) public returns(uint256){\n            require(officeIsUpForElection[_officeId] == true, \"Office is NOT up for election\");\n            require(hasRole(DEFAULT_ADMIN_ROLE, msg.sender) == true || hasRole(LOCAL_ADMIN_ROLE, msg.sender) == true, \"You do NOT have access to creating an election\");\n\n            elections.push();\n\n            Office memory office = offices[_officeId];\n\n            Election storage election = elections[elections.length - 1];\n                /* officeTitle: office.officeTitle,\n                zipCode: office.zipCode, */\n                election.officeId = _officeId;\n                election.electionStart = _start;\n                election.electionEnd = _end;\n                election.electionId = elections.length;\n\n\n            /* elections.push(_election); */\n            uint256 newElectionId = elections.length - 1;\n\n            /* electionIdToElection[newElectionId] = _election; */\n\n            emit ElectionAdded(office.officeTitle, office.zipCode, _start, _end, newElectionId);\n\n        return newElectionId;\n      }\n\n\n      function getElection(uint256 _electionId) public view returns(\n            string memory officeTitle,\n            uint256 zipCode,\n            uint64 electionStart,\n            uint64 electionEnd,\n            uint256[] memory candidateIds\n          )\n        {\n          Election storage election = elections[_electionId];\n          Office memory office = offices[election.officeId];\n\n          officeTitle = office.officeTitle;\n          zipCode = office.zipCode;\n          electionStart = election.electionStart;\n          electionEnd = election.electionEnd;\n          candidateIds = election.candidateIds;\n        }\n\n\n////voting function\n\n      function vote(uint256 _citizenId, uint256 voteForCandidateId, uint256 _electionId) public {\n        require(citizenIndexToOwner[_citizenId] == msg.sender, \"User is not owner of citizen trying to vote\");\n        require(addressInUse[msg.sender] == true, \"This address is not eligible to vote\");\n\n        Citizen memory citizen = citizenIdToCitizen[_citizenId];\n        require(citizen.citizenship == true, \"You are no longer a citizen\");\n\n        Election memory election = elections[_electionId];\n        require(election.electionStart <= uint64(block.timestamp), \"The election has not opened yet\");\n        require(election.electionEnd >= uint64(block.timestamp), \"The election is no longer open\");\n\n        Office memory office = offices[election.officeId];\n        require(citizen.zipCode == office.zipCode, \"You are not permitted to vote for this office in this zipCode\");\n\n        Candidate storage candidate = candidates[voteForCandidateId];\n        require(candidate.officeId == election.officeId && candidate.electionId == _electionId, \"This candidate is not eligible for this vote\");\n        candidate.voteCount += 1;\n\n        emit VoteCast(voteForCandidateId, _electionId, uint64(block.timestamp));\n      }\n\n\n      /*  //returns individual candidates election data based on candidateId for only after vote casting has concluded */\n      function getResultsOfCandidate(uint256 _candidateId) public view returns(\n            string memory _officeTitle,\n            uint256 _zipCode,\n            string memory _candidateName,\n            uint64 _voteCount\n          )\n      {\n        Candidate storage candidate = candidates[_candidateId];\n\n        Citizen storage citizen = citizens[candidate.citizenId];\n\n        Election storage election = elections[candidate.electionId];\n        require(election.electionEnd <= uint64(block.timestamp), \"Election results are not available until election is close off from voting\");\n\n        Office storage office = offices[election.officeId];\n\n        _officeTitle = office.officeTitle;\n        _zipCode = office.zipCode;\n        _candidateName = citizen.name;\n        _voteCount = candidate.voteCount;\n      }\n\n\n      /*  //returns all candidateIds contained in an election struct based on an electionId */\n      /* function getAllCandidateIds(uint256 _electionId) public view returns (uint256[] memory){\n        Election memory election = elections[_electionId];\n\n        return election.candidateIds;\n      } */\n\n\n      /*  //returns highest amount of votes of each election associated with a particular electionId, this maybe the vote total for multiple candidateIds in the case of ties\n          //(full elections may be made of multiple electionIds due to election covering multiple zipCodes)\n          //will change officeIsUpForElection to false\n          //(this will only change the officeId associated with the particular electionId other officeIds of the same office may remain open until a later date due to office covering multiple zipCodes) */\n      function getHighestVoteTotal(uint256 _electionId) public view returns(uint64){\n        Election memory election = elections[_electionId];\n        require(election.electionEnd <= uint64(block.timestamp), \"Election results are not available until election is closed off from voting\");\n        /* require(hasRole(DEFAULT_ADMIN_ROLE, msg.sender) == true, \"You do NOT have access to this data\"); */\n\n        uint64 highestVoteCount = 0;\n\n        for(uint256 i = 0; i <= election.candidateIds.length; i++){\n          Candidate memory candidate = candidates[i];\n          if(candidate.voteCount >= highestVoteCount){\n            highestVoteCount = candidate.voteCount;\n          }\n        }\n        return highestVoteCount;\n      }\n\n\n      /* //will return an array of one or all candidates that have the highest amount of votes\n      function getIdOfWinningCandidates(uint256 _electionId) public view returns(uint256[] memory){\n        Election memory election = elections[_electionId];\n\n        uint64 highestVoteCount = getHighestVoteTotal(_electionId);\n        uint256[] memory result = new uint256[](election.candidateIds.length);\n\n        for(uint256 i = 0; i <= election.candidateIds.length; i++){\n          Candidate memory candidate = candidates[i];\n          if(candidate.voteCount == highestVoteCount){\n            result[i] = candidate.candidateId;\n          }\n        }\n        return result;\n      } */\n\n\n      /*  //will set the office up for election as no longer open and emit event stating the winner of the election */\n      function declareWinnerOfElection(uint256 _candidateId) public {\n        Candidate memory candidate = candidates[_candidateId];\n        require(getHighestVoteTotal(candidate.electionId) == candidate.voteCount, \"This candidate does not have the highest amount of vote\");\n        require(hasRole(DEFAULT_ADMIN_ROLE, msg.sender) == true || hasRole(LOCAL_ADMIN_ROLE, msg.sender) == true, \"You do NOT have access to declaring a winner of this election\");\n\n        _filledOfficePosition(_candidateId);\n\n        emit Winner(_candidateId, candidate.officeId, candidate.voteCount, uint64(block.timestamp), msg.sender);\n      }\n\n}\n",
  "sourcePath": "/Users/CalvinCutlass/Desktop/Coding/coding_2020/ivan_bootcamp/week_11/One_Vote/contracts/OneVote.sol",
  "compiler": {
    "name": "solc",
    "version": "0.7.0+commit.9e61f92b.Emscripten.clang"
  },
  "schemaVersion": "3.2.0",
  "updatedAt": "2021-02-25T00:49:12.521Z",
  "networkType": "ethereum",
  "devdoc": {
    "kind": "dev",
    "methods": {
      "getRoleAdmin(bytes32)": {
        "details": "Returns the admin role that controls `role`. See {grantRole} and {revokeRole}. To change a role's admin, use {_setRoleAdmin}."
      },
      "getRoleMember(bytes32,uint256)": {
        "details": "Returns one of the accounts that have `role`. `index` must be a value between 0 and {getRoleMemberCount}, non-inclusive. Role bearers are not sorted in any particular way, and their ordering may change at any point. WARNING: When using {getRoleMember} and {getRoleMemberCount}, make sure you perform all queries on the same block. See the following https://forum.openzeppelin.com/t/iterating-over-elements-on-enumerableset-in-openzeppelin-contracts/2296[forum post] for more information."
      },
      "getRoleMemberCount(bytes32)": {
        "details": "Returns the number of accounts that have `role`. Can be used together with {getRoleMember} to enumerate all bearers of a role."
      },
      "grantRole(bytes32,address)": {
        "details": "Grants `role` to `account`. If `account` had not been already granted `role`, emits a {RoleGranted} event. Requirements: - the caller must have ``role``'s admin role."
      },
      "hasRole(bytes32,address)": {
        "details": "Returns `true` if `account` has been granted `role`."
      },
      "renounceRole(bytes32,address)": {
        "details": "Revokes `role` from the calling account. Roles are often managed via {grantRole} and {revokeRole}: this function's purpose is to provide a mechanism for accounts to lose their privileges if they are compromised (such as when a trusted device is misplaced). If the calling account had been granted `role`, emits a {RoleRevoked} event. Requirements: - the caller must be `account`."
      },
      "revokeRole(bytes32,address)": {
        "details": "Revokes `role` from `account`. If `account` had been granted `role`, emits a {RoleRevoked} event. Requirements: - the caller must have ``role``'s admin role."
      }
    },
    "stateVariables": {
      "citizenIndexToOwner": {
        "details": "citizen mapping needs to be private after testing"
      }
    },
    "version": 1
  },
  "userdoc": {
    "kind": "user",
    "methods": {},
    "version": 1
  }
}