{
  "contractName": "OneVote",
  "abi": [
    {
      "inputs": [],
      "stateMutability": "nonpayable",
      "type": "constructor"
    },
    {
      "anonymous": false,
      "inputs": [
        {
          "indexed": false,
          "internalType": "address",
          "name": "from",
          "type": "address"
        },
        {
          "indexed": false,
          "internalType": "address",
          "name": "to",
          "type": "address"
        },
        {
          "indexed": false,
          "internalType": "uint256",
          "name": "tokenId",
          "type": "uint256"
        }
      ],
      "name": "Assigned",
      "type": "event"
    },
    {
      "anonymous": false,
      "inputs": [
        {
          "indexed": false,
          "internalType": "string",
          "name": "_name",
          "type": "string"
        },
        {
          "indexed": false,
          "internalType": "string",
          "name": "_officeTitle",
          "type": "string"
        },
        {
          "indexed": false,
          "internalType": "uint64",
          "name": "_electionStart",
          "type": "uint64"
        }
      ],
      "name": "CandidateAdded",
      "type": "event"
    },
    {
      "anonymous": false,
      "inputs": [
        {
          "indexed": false,
          "internalType": "address",
          "name": "owner",
          "type": "address"
        },
        {
          "indexed": false,
          "internalType": "uint256",
          "name": "citizenId",
          "type": "uint256"
        },
        {
          "indexed": false,
          "internalType": "uint256",
          "name": "stateId",
          "type": "uint256"
        },
        {
          "indexed": false,
          "internalType": "uint256",
          "name": "zipCode",
          "type": "uint256"
        }
      ],
      "name": "CitizenAdded",
      "type": "event"
    },
    {
      "anonymous": false,
      "inputs": [
        {
          "indexed": false,
          "internalType": "string",
          "name": "_officeTitle",
          "type": "string"
        },
        {
          "indexed": false,
          "internalType": "uint256",
          "name": "_zipCode",
          "type": "uint256"
        },
        {
          "indexed": false,
          "internalType": "uint64",
          "name": "_electionStart",
          "type": "uint64"
        },
        {
          "indexed": false,
          "internalType": "uint64",
          "name": "_electionEnd",
          "type": "uint64"
        },
        {
          "indexed": false,
          "internalType": "uint256",
          "name": "_electionId",
          "type": "uint256"
        }
      ],
      "name": "ElectionAdded",
      "type": "event"
    },
    {
      "anonymous": false,
      "inputs": [
        {
          "indexed": false,
          "internalType": "uint256",
          "name": "citizenId",
          "type": "uint256"
        },
        {
          "indexed": false,
          "internalType": "address",
          "name": "citzenAddress",
          "type": "address"
        },
        {
          "indexed": false,
          "internalType": "string",
          "name": "reasonForLoseOfCitizenship",
          "type": "string"
        }
      ],
      "name": "NoLongerACitizen",
      "type": "event"
    },
    {
      "anonymous": false,
      "inputs": [
        {
          "indexed": false,
          "internalType": "string",
          "name": "_officeTitle",
          "type": "string"
        },
        {
          "indexed": false,
          "internalType": "uint256",
          "name": "_zipCode",
          "type": "uint256"
        },
        {
          "indexed": false,
          "internalType": "uint256",
          "name": "_officeId",
          "type": "uint256"
        }
      ],
      "name": "OfficeAdded",
      "type": "event"
    },
    {
      "anonymous": false,
      "inputs": [
        {
          "indexed": true,
          "internalType": "bytes32",
          "name": "role",
          "type": "bytes32"
        },
        {
          "indexed": true,
          "internalType": "bytes32",
          "name": "previousAdminRole",
          "type": "bytes32"
        },
        {
          "indexed": true,
          "internalType": "bytes32",
          "name": "newAdminRole",
          "type": "bytes32"
        }
      ],
      "name": "RoleAdminChanged",
      "type": "event"
    },
    {
      "anonymous": false,
      "inputs": [
        {
          "indexed": true,
          "internalType": "bytes32",
          "name": "role",
          "type": "bytes32"
        },
        {
          "indexed": true,
          "internalType": "address",
          "name": "account",
          "type": "address"
        },
        {
          "indexed": true,
          "internalType": "address",
          "name": "sender",
          "type": "address"
        }
      ],
      "name": "RoleGranted",
      "type": "event"
    },
    {
      "anonymous": false,
      "inputs": [
        {
          "indexed": true,
          "internalType": "bytes32",
          "name": "role",
          "type": "bytes32"
        },
        {
          "indexed": true,
          "internalType": "address",
          "name": "account",
          "type": "address"
        },
        {
          "indexed": true,
          "internalType": "address",
          "name": "sender",
          "type": "address"
        }
      ],
      "name": "RoleRevoked",
      "type": "event"
    },
    {
      "anonymous": false,
      "inputs": [
        {
          "indexed": false,
          "internalType": "uint256",
          "name": "_candidateId",
          "type": "uint256"
        },
        {
          "indexed": false,
          "internalType": "uint256",
          "name": "_electionId",
          "type": "uint256"
        },
        {
          "indexed": false,
          "internalType": "uint64",
          "name": "timeVoteCast",
          "type": "uint64"
        }
      ],
      "name": "VoteCast",
      "type": "event"
    },
    {
      "anonymous": false,
      "inputs": [
        {
          "indexed": false,
          "internalType": "uint256",
          "name": "_candidateId",
          "type": "uint256"
        },
        {
          "indexed": false,
          "internalType": "uint256",
          "name": "_officeId",
          "type": "uint256"
        },
        {
          "indexed": false,
          "internalType": "uint64",
          "name": "_voteCount",
          "type": "uint64"
        },
        {
          "indexed": false,
          "internalType": "uint64",
          "name": "timestamp",
          "type": "uint64"
        },
        {
          "indexed": false,
          "internalType": "address",
          "name": "confirmedBy",
          "type": "address"
        }
      ],
      "name": "Winner",
      "type": "event"
    },
    {
      "inputs": [],
      "name": "DEFAULT_ADMIN_ROLE",
      "outputs": [
        {
          "internalType": "bytes32",
          "name": "",
          "type": "bytes32"
        }
      ],
      "stateMutability": "view",
      "type": "function",
      "constant": true
    },
    {
      "inputs": [],
      "name": "LOCAL_ADMIN_ROLE",
      "outputs": [
        {
          "internalType": "bytes32",
          "name": "",
          "type": "bytes32"
        }
      ],
      "stateMutability": "view",
      "type": "function",
      "constant": true
    },
    {
      "inputs": [
        {
          "internalType": "uint256",
          "name": "",
          "type": "uint256"
        }
      ],
      "name": "candidateIsApprovedToRun",
      "outputs": [
        {
          "internalType": "bool",
          "name": "",
          "type": "bool"
        }
      ],
      "stateMutability": "view",
      "type": "function",
      "constant": true
    },
    {
      "inputs": [
        {
          "internalType": "address",
          "name": "",
          "type": "address"
        }
      ],
      "name": "citizenIdOfAddress",
      "outputs": [
        {
          "internalType": "uint256",
          "name": "",
          "type": "uint256"
        }
      ],
      "stateMutability": "view",
      "type": "function",
      "constant": true
    },
    {
      "inputs": [
        {
          "internalType": "uint256",
          "name": "",
          "type": "uint256"
        }
      ],
      "name": "citizenIdToCitizen",
      "outputs": [
        {
          "internalType": "uint256",
          "name": "stateId",
          "type": "uint256"
        },
        {
          "internalType": "string",
          "name": "name",
          "type": "string"
        },
        {
          "internalType": "int64",
          "name": "dateOfBirth",
          "type": "int64"
        },
        {
          "internalType": "uint256",
          "name": "zipCode",
          "type": "uint256"
        },
        {
          "internalType": "uint64",
          "name": "dateApproved",
          "type": "uint64"
        },
        {
          "internalType": "bool",
          "name": "citizenship",
          "type": "bool"
        },
        {
          "internalType": "uint256",
          "name": "citizenId",
          "type": "uint256"
        }
      ],
      "stateMutability": "view",
      "type": "function",
      "constant": true
    },
    {
      "inputs": [
        {
          "internalType": "uint256",
          "name": "",
          "type": "uint256"
        }
      ],
      "name": "citizenIndexToOwner",
      "outputs": [
        {
          "internalType": "address",
          "name": "",
          "type": "address"
        }
      ],
      "stateMutability": "view",
      "type": "function",
      "constant": true
    },
    {
      "inputs": [
        {
          "internalType": "bytes32",
          "name": "role",
          "type": "bytes32"
        }
      ],
      "name": "getRoleAdmin",
      "outputs": [
        {
          "internalType": "bytes32",
          "name": "",
          "type": "bytes32"
        }
      ],
      "stateMutability": "view",
      "type": "function",
      "constant": true
    },
    {
      "inputs": [
        {
          "internalType": "bytes32",
          "name": "role",
          "type": "bytes32"
        },
        {
          "internalType": "uint256",
          "name": "index",
          "type": "uint256"
        }
      ],
      "name": "getRoleMember",
      "outputs": [
        {
          "internalType": "address",
          "name": "",
          "type": "address"
        }
      ],
      "stateMutability": "view",
      "type": "function",
      "constant": true
    },
    {
      "inputs": [
        {
          "internalType": "bytes32",
          "name": "role",
          "type": "bytes32"
        }
      ],
      "name": "getRoleMemberCount",
      "outputs": [
        {
          "internalType": "uint256",
          "name": "",
          "type": "uint256"
        }
      ],
      "stateMutability": "view",
      "type": "function",
      "constant": true
    },
    {
      "inputs": [
        {
          "internalType": "bytes32",
          "name": "role",
          "type": "bytes32"
        },
        {
          "internalType": "address",
          "name": "account",
          "type": "address"
        }
      ],
      "name": "grantRole",
      "outputs": [],
      "stateMutability": "nonpayable",
      "type": "function"
    },
    {
      "inputs": [
        {
          "internalType": "bytes32",
          "name": "role",
          "type": "bytes32"
        },
        {
          "internalType": "address",
          "name": "account",
          "type": "address"
        }
      ],
      "name": "hasRole",
      "outputs": [
        {
          "internalType": "bool",
          "name": "",
          "type": "bool"
        }
      ],
      "stateMutability": "view",
      "type": "function",
      "constant": true
    },
    {
      "inputs": [
        {
          "internalType": "uint256",
          "name": "",
          "type": "uint256"
        }
      ],
      "name": "officeIsUpForElection",
      "outputs": [
        {
          "internalType": "bool",
          "name": "",
          "type": "bool"
        }
      ],
      "stateMutability": "view",
      "type": "function",
      "constant": true
    },
    {
      "inputs": [
        {
          "internalType": "bytes32",
          "name": "role",
          "type": "bytes32"
        },
        {
          "internalType": "address",
          "name": "account",
          "type": "address"
        }
      ],
      "name": "renounceRole",
      "outputs": [],
      "stateMutability": "nonpayable",
      "type": "function"
    },
    {
      "inputs": [
        {
          "internalType": "bytes32",
          "name": "role",
          "type": "bytes32"
        },
        {
          "internalType": "address",
          "name": "account",
          "type": "address"
        }
      ],
      "name": "revokeRole",
      "outputs": [],
      "stateMutability": "nonpayable",
      "type": "function"
    },
    {
      "inputs": [
        {
          "internalType": "string",
          "name": "_name",
          "type": "string"
        },
        {
          "internalType": "int64",
          "name": "_dateOfBirth",
          "type": "int64"
        },
        {
          "internalType": "uint256",
          "name": "_zipCode",
          "type": "uint256"
        },
        {
          "internalType": "uint256",
          "name": "_stateId",
          "type": "uint256"
        }
      ],
      "name": "_createCitizen",
      "outputs": [
        {
          "internalType": "uint256",
          "name": "",
          "type": "uint256"
        }
      ],
      "stateMutability": "nonpayable",
      "type": "function"
    },
    {
      "inputs": [
        {
          "internalType": "address",
          "name": "owner",
          "type": "address"
        }
      ],
      "name": "getCitizenId",
      "outputs": [
        {
          "internalType": "uint256",
          "name": "",
          "type": "uint256"
        }
      ],
      "stateMutability": "view",
      "type": "function",
      "constant": true
    },
    {
      "inputs": [
        {
          "internalType": "uint256",
          "name": "_citizenId",
          "type": "uint256"
        },
        {
          "internalType": "uint256",
          "name": "_stateId",
          "type": "uint256"
        },
        {
          "internalType": "uint256",
          "name": "_officeId",
          "type": "uint256"
        },
        {
          "internalType": "uint256",
          "name": "_electionId",
          "type": "uint256"
        }
      ],
      "name": "createCandidate",
      "outputs": [
        {
          "internalType": "uint256",
          "name": "",
          "type": "uint256"
        }
      ],
      "stateMutability": "nonpayable",
      "type": "function"
    },
    {
      "inputs": [
        {
          "internalType": "uint256",
          "name": "_candidateId",
          "type": "uint256"
        }
      ],
      "name": "getCandidate",
      "outputs": [
        {
          "internalType": "string",
          "name": "name",
          "type": "string"
        },
        {
          "internalType": "string",
          "name": "officeTitle",
          "type": "string"
        },
        {
          "internalType": "uint256",
          "name": "zipCode",
          "type": "uint256"
        }
      ],
      "stateMutability": "view",
      "type": "function",
      "constant": true
    },
    {
      "inputs": [
        {
          "internalType": "string",
          "name": "_officeTitle",
          "type": "string"
        },
        {
          "internalType": "uint256",
          "name": "_zipCode",
          "type": "uint256"
        },
        {
          "internalType": "int64",
          "name": "_requiredAge",
          "type": "int64"
        }
      ],
      "name": "createOffice",
      "outputs": [
        {
          "internalType": "uint256",
          "name": "",
          "type": "uint256"
        }
      ],
      "stateMutability": "nonpayable",
      "type": "function"
    },
    {
      "inputs": [
        {
          "internalType": "uint256",
          "name": "_officeId",
          "type": "uint256"
        }
      ],
      "name": "getOffice",
      "outputs": [
        {
          "internalType": "string",
          "name": "officeTitle",
          "type": "string"
        },
        {
          "internalType": "uint256",
          "name": "zipCode",
          "type": "uint256"
        },
        {
          "internalType": "int64",
          "name": "requiredAge",
          "type": "int64"
        },
        {
          "internalType": "bool",
          "name": "isOpenForElection",
          "type": "bool"
        }
      ],
      "stateMutability": "view",
      "type": "function",
      "constant": true
    },
    {
      "inputs": [
        {
          "internalType": "uint256",
          "name": "_officeId",
          "type": "uint256"
        },
        {
          "internalType": "uint64",
          "name": "_start",
          "type": "uint64"
        },
        {
          "internalType": "uint64",
          "name": "_end",
          "type": "uint64"
        }
      ],
      "name": "createAnElection",
      "outputs": [
        {
          "internalType": "uint256",
          "name": "",
          "type": "uint256"
        }
      ],
      "stateMutability": "nonpayable",
      "type": "function"
    },
    {
      "inputs": [
        {
          "internalType": "uint256",
          "name": "_electionId",
          "type": "uint256"
        }
      ],
      "name": "getElection",
      "outputs": [
        {
          "internalType": "string",
          "name": "officeTitle",
          "type": "string"
        },
        {
          "internalType": "uint256",
          "name": "zipCode",
          "type": "uint256"
        },
        {
          "internalType": "uint64",
          "name": "electionStart",
          "type": "uint64"
        },
        {
          "internalType": "uint64",
          "name": "electionEnd",
          "type": "uint64"
        },
        {
          "internalType": "uint256[]",
          "name": "candidateIds",
          "type": "uint256[]"
        }
      ],
      "stateMutability": "view",
      "type": "function",
      "constant": true
    },
    {
      "inputs": [
        {
          "internalType": "uint256",
          "name": "_citizenId",
          "type": "uint256"
        },
        {
          "internalType": "uint256",
          "name": "voteForCandidateId",
          "type": "uint256"
        },
        {
          "internalType": "uint256",
          "name": "_electionId",
          "type": "uint256"
        }
      ],
      "name": "vote",
      "outputs": [],
      "stateMutability": "nonpayable",
      "type": "function"
    },
    {
      "inputs": [
        {
          "internalType": "uint256",
          "name": "_candidateId",
          "type": "uint256"
        }
      ],
      "name": "getResultsOfCandidate",
      "outputs": [
        {
          "internalType": "string",
          "name": "_officeTitle",
          "type": "string"
        },
        {
          "internalType": "uint256",
          "name": "_zipCode",
          "type": "uint256"
        },
        {
          "internalType": "string",
          "name": "_candidateName",
          "type": "string"
        },
        {
          "internalType": "uint64",
          "name": "_voteCount",
          "type": "uint64"
        }
      ],
      "stateMutability": "view",
      "type": "function",
      "constant": true
    },
    {
      "inputs": [
        {
          "internalType": "uint256",
          "name": "_electionId",
          "type": "uint256"
        }
      ],
      "name": "getHighestVoteTotal",
      "outputs": [
        {
          "internalType": "uint64",
          "name": "",
          "type": "uint64"
        }
      ],
      "stateMutability": "view",
      "type": "function",
      "constant": true
    },
    {
      "inputs": [
        {
          "internalType": "uint256",
          "name": "_candidateId",
          "type": "uint256"
        }
      ],
      "name": "declareWinnerOfElection",
      "outputs": [],
      "stateMutability": "nonpayable",
      "type": "function"
    }
  ],
  "bytecode": "0x60806040523480156200001157600080fd5b50620000276000801b33620000a460201b60201c565b60046001816001815401808255809150500390600052602060002090505060018081600181540180825580915050039060005260206000209050506003600181600181540180825580915050039060005260206000209050506002600181600181540180825580915050039060005260206000209050506200023a565b620000b68282620000ba60201b60201c565b5050565b620000e8816000808581526020019081526020016000206000016200015d60201b62003d371790919060201c565b156200015957620000fe6200019560201b60201c565b73ffffffffffffffffffffffffffffffffffffffff168173ffffffffffffffffffffffffffffffffffffffff16837f2f8788117e7eff1d82e926ec794901d17c78024a50270940304540a733656f0d60405160405180910390a45b5050565b60006200018d836000018373ffffffffffffffffffffffffffffffffffffffff1660001b6200019d60201b60201c565b905092915050565b600033905090565b6000620001b183836200021760201b60201c565b6200020c57826000018290806001815401808255809150506001900390600052602060002001600090919091909150558260000180549050836001016000848152602001908152602001600020819055506001905062000211565b600090505b92915050565b600080836001016000848152602001908152602001600020541415905092915050565b614ac5806200024a6000396000f3fe608060405234801561001057600080fd5b506004361061018e5760003560e01c80638a6655d6116100de578063ca15c87311610097578063d547741f11610071578063d547741f14610c43578063da12095b14610c91578063e2481dbd14610d77578063eee6f9bd14610d955761018e565b8063ca15c87314610b8f578063ce1b6c2914610bd1578063d0fb300a14610bff5761018e565b80638a6655d6146108f95780639010d07c1461093b57806391d148541461099d5780639d71077714610a01578063a217fddf14610b19578063b06b2df114610b375761018e565b806335b8e8201161014b57806360a21d4b1161012557806360a21d4b1461065557806367bb9753146106b55780637ce74d131461070d5780637f5880a1146108385761018e565b806335b8e820146104a157806336568abe146105bb57806351477075146106095761018e565b80630d8b80671461019357806321f0736414610283578063248a9ca3146102c75780632c051df5146103095780632f2ff15d146103e9578063320db37614610437575b600080fd5b61026d600480360360808110156101a957600080fd5b81019080803590602001906401000000008111156101c657600080fd5b8201836020820111156101d857600080fd5b803590602001918460018302840111640100000000831117156101fa57600080fd5b91908080601f016020809104026020016040519081016040528093929190818152602001838380828437600081840152601f19601f820116905080830192505050505050509192919290803560070b90602001909291908035906020019092919080359060200190929190505050610ded565b6040518082815260200191505060405180910390f35b6102af6004803603602081101561029957600080fd5b8101908080359060200190929190505050611231565b60405180821515815260200191505060405180910390f35b6102f3600480360360208110156102dd57600080fd5b8101908080359060200190929190505050611251565b6040518082815260200191505060405180910390f35b6103356004803603602081101561031f57600080fd5b8101908080359060200190929190505050611270565b60405180888152602001806020018760070b81526020018681526020018567ffffffffffffffff1681526020018415158152602001838152602001828103825288818151815260200191508051906020019080838360005b838110156103a857808201518184015260208101905061038d565b50505050905090810190601f1680156103d55780820380516001836020036101000a031916815260200191505b509850505050505050505060405180910390f35b610435600480360360408110156103ff57600080fd5b8101908080359060200190929190803573ffffffffffffffffffffffffffffffffffffffff169060200190929190505050611378565b005b61048b6004803603606081101561044d57600080fd5b8101908080359060200190929190803567ffffffffffffffff169060200190929190803567ffffffffffffffff169060200190929190505050611401565b6040518082815260200191505060405180910390f35b6104cd600480360360208110156104b757600080fd5b8101908080359060200190929190505050611817565b604051808060200180602001848152602001838103835286818151815260200191508051906020019080838360005b838110156105175780820151818401526020810190506104fc565b50505050905090810190601f1680156105445780820380516001836020036101000a031916815260200191505b50838103825285818151815260200191508051906020019080838360005b8381101561057d578082015181840152602081019050610562565b50505050905090810190601f1680156105aa5780820380516001836020036101000a031916815260200191505b509550505050505060405180910390f35b610607600480360360408110156105d157600080fd5b8101908080359060200190929190803573ffffffffffffffffffffffffffffffffffffffff169060200190929190505050611af0565b005b6106356004803603602081101561061f57600080fd5b8101908080359060200190929190505050611b89565b604051808267ffffffffffffffff16815260200191505060405180910390f35b61069f6004803603608081101561066b57600080fd5b8101908080359060200190929190803590602001909291908035906020019092919080359060200190929190505050611e08565b6040518082815260200191505060405180910390f35b6106e1600480360360208110156106cb57600080fd5b8101908080359060200190929190505050612803565b604051808273ffffffffffffffffffffffffffffffffffffffff16815260200191505060405180910390f35b6107396004803603602081101561072357600080fd5b8101908080359060200190929190505050612836565b6040518080602001858152602001806020018467ffffffffffffffff168152602001838103835287818151815260200191508051906020019080838360005b83811015610793578082015181840152602081019050610778565b50505050905090810190601f1680156107c05780820380516001836020036101000a031916815260200191505b50838103825285818151815260200191508051906020019080838360005b838110156107f95780820151818401526020810190506107de565b50505050905090810190601f1680156108265780820380516001836020036101000a031916815260200191505b50965050505050505060405180910390f35b6108646004803603602081101561084e57600080fd5b8101908080359060200190929190505050612ab5565b60405180806020018581526020018460070b81526020018315158152602001828103825286818151815260200191508051906020019080838360005b838110156108bb5780820151818401526020810190506108a0565b50505050905090810190601f1680156108e85780820380516001836020036101000a031916815260200191505b509550505050505060405180910390f35b6109396004803603606081101561090f57600080fd5b81019080803590602001909291908035906020019092919080359060200190929190505050612bbf565b005b6109716004803603604081101561095157600080fd5b8101908080359060200190929190803590602001909291905050506133d0565b604051808273ffffffffffffffffffffffffffffffffffffffff16815260200191505060405180910390f35b6109e9600480360360408110156109b357600080fd5b8101908080359060200190929190803573ffffffffffffffffffffffffffffffffffffffff169060200190929190505050613401565b60405180821515815260200191505060405180910390f35b610a2d60048036036020811015610a1757600080fd5b8101908080359060200190929190505050613432565b60405180806020018681526020018567ffffffffffffffff1681526020018467ffffffffffffffff16815260200180602001838103835288818151815260200191508051906020019080838360005b83811015610a97578082015181840152602081019050610a7c565b50505050905090810190601f168015610ac45780820380516001836020036101000a031916815260200191505b50838103825284818151815260200191508051906020019060200280838360005b83811015610b00578082015181840152602081019050610ae5565b5050505090500197505050505050505060405180910390f35b610b21613637565b6040518082815260200191505060405180910390f35b610b7960048036036020811015610b4d57600080fd5b81019080803573ffffffffffffffffffffffffffffffffffffffff16906020019092919050505061363e565b6040518082815260200191505060405180910390f35b610bbb60048036036020811015610ba557600080fd5b8101908080359060200190929190505050613726565b6040518082815260200191505060405180910390f35b610bfd60048036036020811015610be757600080fd5b810190808035906020019092919050505061374c565b005b610c2b60048036036020811015610c1557600080fd5b81019080803590602001909291905050506139bb565b60405180821515815260200191505060405180910390f35b610c8f60048036036040811015610c5957600080fd5b8101908080359060200190929190803573ffffffffffffffffffffffffffffffffffffffff1690602001909291905050506139db565b005b610d6160048036036060811015610ca757600080fd5b8101908080359060200190640100000000811115610cc457600080fd5b820183602082011115610cd657600080fd5b80359060200191846001830284011164010000000083111715610cf857600080fd5b91908080601f016020809104026020016040519081016040528093929190818152602001838380828437600081840152601f19601f82011690508083019250505050505050919291929080359060200190929190803560070b9060200190929190505050613a64565b6040518082815260200191505060405180910390f35b610d7f613cfb565b6040518082815260200191505060405180910390f35b610dd760048036036020811015610dab57600080fd5b81019080803573ffffffffffffffffffffffffffffffffffffffff169060200190929190505050613d1f565b6040518082815260200191505060405180910390f35b60008015156008600084815260200190815260200160002060009054906101000a900460ff16151514610e6b576040517f08c379a0000000000000000000000000000000000000000000000000000000008152600401808060200182810382526029815260200180614a0a6029913960400191505060405180910390fd5b60001515600960003373ffffffffffffffffffffffffffffffffffffffff1673ffffffffffffffffffffffffffffffffffffffff16815260200190815260200160002060009054906101000a900460ff16151514610f14576040517f08c379a00000000000000000000000000000000000000000000000000000000081526004018080602001828103825260288152602001806146e76028913960400191505060405180910390fd5b610f1c614453565b6040518060e001604052808481526020018781526020018660070b81526020018581526020014267ffffffffffffffff16815260200160011515815260200160018054905081525090506001819080600181540180825580915050600190039060005260206000209060060201600090919091909150600082015181600001556020820151816001019080519060200190610fb892919061449f565b5060408201518160020160006101000a81548167ffffffffffffffff021916908360070b67ffffffffffffffff1602179055506060820151816003015560808201518160040160006101000a81548167ffffffffffffffff021916908367ffffffffffffffff16021790555060a08201518160040160086101000a81548160ff02191690831515021790555060c08201518160050155505060006001808054905003905060016008600086815260200190815260200160002060006101000a81548160ff0219169083151502179055506001600960003373ffffffffffffffffffffffffffffffffffffffff1673ffffffffffffffffffffffffffffffffffffffff16815260200190815260200160002060006101000a81548160ff021916908315150217905550816007600083815260200190815260200160002060008201518160000155602082015181600101908051906020019061111a92919061449f565b5060408201518160020160006101000a81548167ffffffffffffffff021916908360070b67ffffffffffffffff1602179055506060820151816003015560808201518160040160006101000a81548167ffffffffffffffff021916908367ffffffffffffffff16021790555060a08201518160040160086101000a81548160ff02191690831515021790555060c082015181600501559050507fa12daf0dc9e98c44420339df34fbae8835074be1a972516ca7363d867ca01d9c33828688604051808573ffffffffffffffffffffffffffffffffffffffff16815260200184815260200183815260200182815260200194505050505060405180910390a161122460003383613d67565b8092505050949350505050565b600a6020528060005260406000206000915054906101000a900460ff1681565b6000806000838152602001908152602001600020600201549050919050565b6007602052806000526040600020600091509050806000015490806001018054600181600116156101000203166002900480601f0160208091040260200160405190810160405280929190818152602001828054600181600116156101000203166002900480156113225780601f106112f757610100808354040283529160200191611322565b820191906000526020600020905b81548152906001019060200180831161130557829003601f168201915b5050505050908060020160009054906101000a900460070b908060030154908060040160009054906101000a900467ffffffffffffffff16908060040160089054906101000a900460ff16908060050154905087565b61139e60008084815260200190815260200160002060020154611399613e75565b613401565b6113f3576040517f08c379a000000000000000000000000000000000000000000000000000000000815260040180806020018281038252602f815260200180614628602f913960400191505060405180910390fd5b6113fd8282613e7d565b5050565b600060011515600b600086815260200190815260200160002060009054906101000a900460ff1615151461149d576040517f08c379a000000000000000000000000000000000000000000000000000000000815260040180806020018281038252601d8152602001807f4f6666696365206973204e4f5420757020666f7220656c656374696f6e00000081525060200191505060405180910390fd5b600115156114ae6000801b33613401565b151514806114e95750600115156114e57fb7f8beecafe1ad662cec1153812612581a86b9460f21b876f3ee163141203dcb33613401565b1515145b61153e576040517f08c379a000000000000000000000000000000000000000000000000000000000815260040180806020018281038252602e815260200180614a62602e913960400191505060405180910390fd5b60046001816001815401808255809150500390600052602060002090505061156461451f565b6003858154811061157157fe5b90600052602060002090600402016040518060a0016040529081600082018054600181600116156101000203166002900480601f0160208091040260200160405190810160405280929190818152602001828054600181600116156101000203166002900480156116235780601f106115f857610100808354040283529160200191611623565b820191906000526020600020905b81548152906001019060200180831161160657829003601f168201915b50505050508152602001600182015481526020016002820160009054906101000a900460070b60070b60070b81526020016002820160089054906101000a900467ffffffffffffffff1667ffffffffffffffff1667ffffffffffffffff168152602001600382015481525050905060006004600160048054905003815481106116a857fe5b90600052602060002090600402019050858160000181905550848160010160006101000a81548167ffffffffffffffff021916908367ffffffffffffffff160217905550838160010160086101000a81548167ffffffffffffffff021916908367ffffffffffffffff1602179055506004805490508160020181905550600060016004805490500390507fa951106ad0f6639e96325687aa3ef355f8b1d0e0a7bce6446da8c7971a2c04698360000151846020015188888560405180806020018681526020018567ffffffffffffffff1681526020018467ffffffffffffffff168152602001838152602001828103825287818151815260200191508051906020019080838360005b838110156117cc5780820151818401526020810190506117b1565b50505050905090810190601f1680156117f95780820380516001836020036101000a031916815260200191505b50965050505050505060405180910390a18093505050509392505050565b6060806000806002858154811061182a57fe5b9060005260206000209060050201905061184261451f565b600382600101548154811061185357fe5b90600052602060002090600402016040518060a0016040529081600082018054600181600116156101000203166002900480601f0160208091040260200160405190810160405280929190818152602001828054600181600116156101000203166002900480156119055780601f106118da57610100808354040283529160200191611905565b820191906000526020600020905b8154815290600101906020018083116118e857829003601f168201915b50505050508152602001600182015481526020016002820160009054906101000a900460070b60070b60070b81526020016002820160089054906101000a900467ffffffffffffffff1667ffffffffffffffff1667ffffffffffffffff168152602001600382015481525050905061197b614453565b600183600001548154811061198c57fe5b90600052602060002090600602016040518060e001604052908160008201548152602001600182018054600181600116156101000203166002900480601f016020809104026020016040519081016040528092919081815260200182805460018160011615610100020316600290048015611a485780601f10611a1d57610100808354040283529160200191611a48565b820191906000526020600020905b815481529060010190602001808311611a2b57829003601f168201915b505050505081526020016002820160009054906101000a900460070b60070b60070b8152602001600382015481526020016004820160009054906101000a900467ffffffffffffffff1667ffffffffffffffff1667ffffffffffffffff1681526020016004820160089054906101000a900460ff1615151515815260200160058201548152505090508060200151955081600001519450816020015193505050509193909250565b611af8613e75565b73ffffffffffffffffffffffffffffffffffffffff168173ffffffffffffffffffffffffffffffffffffffff1614611b7b576040517f08c379a000000000000000000000000000000000000000000000000000000000815260040180806020018281038252602f815260200180614a33602f913960400191505060405180910390fd5b611b858282613f10565b5050565b6000611b9361455b565b60048381548110611ba057fe5b90600052602060002090600402016040518060a0016040529081600082015481526020016001820160009054906101000a900467ffffffffffffffff1667ffffffffffffffff1667ffffffffffffffff1681526020016001820160089054906101000a900467ffffffffffffffff1667ffffffffffffffff1667ffffffffffffffff1681526020016002820154815260200160038201805480602002602001604051908101604052809291908181526020018280548015611c8057602002820191906000526020600020905b815481526020019060010190808311611c6c575b50505050508152505090504267ffffffffffffffff16816040015167ffffffffffffffff161115611cfc576040517f08c379a000000000000000000000000000000000000000000000000000000000815260040180806020018281038252604b81526020018061470f604b913960600191505060405180910390fd5b6000805b8260800151518111611dfd57611d1461459e565b60028281548110611d2157fe5b90600052602060002090600502016040518060c00160405290816000820154815260200160018201548152602001600282015481526020016003820160009054906101000a900467ffffffffffffffff1667ffffffffffffffff1667ffffffffffffffff1681526020016003820160089054906101000a900467ffffffffffffffff1667ffffffffffffffff1667ffffffffffffffff16815260200160048201548152505090508267ffffffffffffffff16816060015167ffffffffffffffff1610611def57806060015192505b508080600101915050611d00565b508092505050919050565b6000600115156008600086815260200190815260200160002060009054906101000a900460ff16151514611e87576040517f08c379a00000000000000000000000000000000000000000000000000000000081526004018080602001828103825260298152602001806148d86029913960400191505060405180910390fd5b60011515600960003373ffffffffffffffffffffffffffffffffffffffff1673ffffffffffffffffffffffffffffffffffffffff16815260200190815260200160002060009054906101000a900460ff16151514611f30576040517f08c379a000000000000000000000000000000000000000000000000000000000815260040180806020018281038252602b815260200180614901602b913960400191505060405180910390fd5b3373ffffffffffffffffffffffffffffffffffffffff166005600087815260200190815260200160002060009054906101000a900473ffffffffffffffffffffffffffffffffffffffff1673ffffffffffffffffffffffffffffffffffffffff1614611fe7576040517f08c379a00000000000000000000000000000000000000000000000000000000081526004018080602001828103825260378152602001806148276037913960400191505060405180910390fd5b611fef614453565b600760008781526020019081526020016000206040518060e001604052908160008201548152602001600182018054600181600116156101000203166002900480601f0160208091040260200160405190810160405280929190818152602001828054600181600116156101000203166002900480156120b05780601f10612085576101008083540402835291602001916120b0565b820191906000526020600020905b81548152906001019060200180831161209357829003601f168201915b505050505081526020016002820160009054906101000a900460070b60070b60070b8152602001600382015481526020016004820160009054906101000a900467ffffffffffffffff1667ffffffffffffffff1667ffffffffffffffff1681526020016004820160089054906101000a900460ff16151515158152602001600582015481525050905061214161451f565b6003858154811061214e57fe5b90600052602060002090600402016040518060a0016040529081600082018054600181600116156101000203166002900480601f0160208091040260200160405190810160405280929190818152602001828054600181600116156101000203166002900480156122005780601f106121d557610100808354040283529160200191612200565b820191906000526020600020905b8154815290600101906020018083116121e357829003601f168201915b50505050508152602001600182015481526020016002820160009054906101000a900460070b60070b60070b81526020016002820160089054906101000a900467ffffffffffffffff1667ffffffffffffffff1667ffffffffffffffff168152602001600382015481525050905061227661455b565b6004858154811061228357fe5b90600052602060002090600402016040518060a0016040529081600082015481526020016001820160009054906101000a900467ffffffffffffffff1667ffffffffffffffff1667ffffffffffffffff1681526020016001820160089054906101000a900467ffffffffffffffff1667ffffffffffffffff1667ffffffffffffffff168152602001600282015481526020016003820180548060200260200160405190810160405280929190818152602001828054801561236357602002820191906000526020600020905b81548152602001906001019080831161234f575b5050505050815250509050600115158360a001511515146123ec576040517f08c379a000000000000000000000000000000000000000000000000000000000815260040180806020018281038252601b8152602001807f596f7520617265206e6f206c6f6e676572206120636974697a656e000000000081525060200191505060405180910390fd5b86836000015114612448576040517f08c379a00000000000000000000000000000000000000000000000000000000081526004018080602001828103825260268152602001806149836026913960400191505060405180910390fd5b60011515600b600088815260200190815260200160002060009054906101000a900460ff161515146124e2576040517f08c379a000000000000000000000000000000000000000000000000000000000815260040180806020018281038252601d8152602001807f4f6666696365206973204e4f5420757020666f7220656c656374696f6e00000081525060200191505060405180910390fd5b826040015160070b826040015160070b1215612549576040517f08c379a000000000000000000000000000000000000000000000000000000000815260040180806020018281038252602b8152602001806146bc602b913960400191505060405180910390fd5b61255161459e565b6040518060c001604052808a8152602001888152602001878152602001600067ffffffffffffffff1681526020014267ffffffffffffffff1681526020016002805490508152509050600281908060018154018082558091505060019003906000526020600020906005020160009091909190915060008201518160000155602082015181600101556040820151816002015560608201518160030160006101000a81548167ffffffffffffffff021916908367ffffffffffffffff16021790555060808201518160030160086101000a81548167ffffffffffffffff021916908367ffffffffffffffff16021790555060a082015181600401555050600060016002805490500390506004878154811061266857fe5b90600052602060002090600402016003018190806001815401808255809150506001900390600052602060002001600090919091909150556001600a600083815260200190815260200160002060006101000a81548160ff0219169083151502179055507f891e756eff7201520283922fc3ede4d874d465693e19f7cbb4fd2555b3b63e0a8560200151856000015185602001516040518080602001806020018467ffffffffffffffff168152602001838103835286818151815260200191508051906020019080838360005b83811015612750578082015181840152602081019050612735565b50505050905090810190601f16801561277d5780820380516001836020036101000a031916815260200191505b50838103825285818151815260200191508051906020019080838360005b838110156127b657808201518184015260208101905061279b565b50505050905090810190601f1680156127e35780820380516001836020036101000a031916815260200191505b509550505050505060405180910390a18095505050505050949350505050565b60056020528060005260406000206000915054906101000a900473ffffffffffffffffffffffffffffffffffffffff1681565b6060600060606000806002868154811061284c57fe5b906000526020600020906005020190506000600182600001548154811061286f57fe5b906000526020600020906006020190506000600483600201548154811061289257fe5b906000526020600020906004020190504267ffffffffffffffff168160010160089054906101000a900467ffffffffffffffff1667ffffffffffffffff161115612927576040517f08c379a000000000000000000000000000000000000000000000000000000000815260040180806020018281038252604a81526020018061488e604a913960600191505060405180910390fd5b6000600382600001548154811061293a57fe5b90600052602060002090600402019050806000018054600181600116156101000203166002900480601f0160208091040260200160405190810160405280929190818152602001828054600181600116156101000203166002900480156129e25780601f106129b7576101008083540402835291602001916129e2565b820191906000526020600020905b8154815290600101906020018083116129c557829003601f168201915b5050505050975080600101549650826001018054600181600116156101000203166002900480601f016020809104026020016040519081016040528092919081815260200182805460018160011615610100020316600290048015612a885780601f10612a5d57610100808354040283529160200191612a88565b820191906000526020600020905b815481529060010190602001808311612a6b57829003601f168201915b505050505095508360030160009054906101000a900467ffffffffffffffff169450505050509193509193565b606060008060008060038681548110612aca57fe5b90600052602060002090600402019050806000018054600181600116156101000203166002900480601f016020809104026020016040519081016040528092919081815260200182805460018160011615610100020316600290048015612b725780601f10612b4757610100808354040283529160200191612b72565b820191906000526020600020905b815481529060010190602001808311612b5557829003601f168201915b50505050509450806001015493508060020160009054906101000a900460070b9250600b600087815260200190815260200160002060009054906101000a900460ff169150509193509193565b3373ffffffffffffffffffffffffffffffffffffffff166005600085815260200190815260200160002060009054906101000a900473ffffffffffffffffffffffffffffffffffffffff1673ffffffffffffffffffffffffffffffffffffffff1614612c76576040517f08c379a000000000000000000000000000000000000000000000000000000000815260040180806020018281038252602b81526020018061492c602b913960400191505060405180910390fd5b60011515600960003373ffffffffffffffffffffffffffffffffffffffff1673ffffffffffffffffffffffffffffffffffffffff16815260200190815260200160002060009054906101000a900460ff16151514612d1f576040517f08c379a00000000000000000000000000000000000000000000000000000000081526004018080602001828103825260248152602001806149a96024913960400191505060405180910390fd5b612d27614453565b600760008581526020019081526020016000206040518060e001604052908160008201548152602001600182018054600181600116156101000203166002900480601f016020809104026020016040519081016040528092919081815260200182805460018160011615610100020316600290048015612de85780601f10612dbd57610100808354040283529160200191612de8565b820191906000526020600020905b815481529060010190602001808311612dcb57829003601f168201915b505050505081526020016002820160009054906101000a900460070b60070b60070b8152602001600382015481526020016004820160009054906101000a900467ffffffffffffffff1667ffffffffffffffff1667ffffffffffffffff1681526020016004820160089054906101000a900460ff161515151581526020016005820154815250509050600115158160a00151151514612eef576040517f08c379a000000000000000000000000000000000000000000000000000000000815260040180806020018281038252601b8152602001807f596f7520617265206e6f206c6f6e676572206120636974697a656e000000000081525060200191505060405180910390fd5b612ef761455b565b60048381548110612f0457fe5b90600052602060002090600402016040518060a0016040529081600082015481526020016001820160009054906101000a900467ffffffffffffffff1667ffffffffffffffff1667ffffffffffffffff1681526020016001820160089054906101000a900467ffffffffffffffff1667ffffffffffffffff1667ffffffffffffffff1681526020016002820154815260200160038201805480602002602001604051908101604052809291908181526020018280548015612fe457602002820191906000526020600020905b815481526020019060010190808311612fd0575b50505050508152505090504267ffffffffffffffff16816020015167ffffffffffffffff16111561307d576040517f08c379a000000000000000000000000000000000000000000000000000000000815260040180806020018281038252601f8152602001807f54686520656c656374696f6e20686173206e6f74206f70656e6564207965740081525060200191505060405180910390fd5b4267ffffffffffffffff16816040015167ffffffffffffffff16101561310b576040517f08c379a000000000000000000000000000000000000000000000000000000000815260040180806020018281038252601e8152602001807f54686520656c656374696f6e206973206e6f206c6f6e676572206f70656e000081525060200191505060405180910390fd5b61311361451f565b600382600001518154811061312457fe5b90600052602060002090600402016040518060a0016040529081600082018054600181600116156101000203166002900480601f0160208091040260200160405190810160405280929190818152602001828054600181600116156101000203166002900480156131d65780601f106131ab576101008083540402835291602001916131d6565b820191906000526020600020905b8154815290600101906020018083116131b957829003601f168201915b50505050508152602001600182015481526020016002820160009054906101000a900460070b60070b60070b81526020016002820160089054906101000a900467ffffffffffffffff1667ffffffffffffffff1667ffffffffffffffff168152602001600382015481525050905080602001518360600151146132a4576040517f08c379a000000000000000000000000000000000000000000000000000000000815260040180806020018281038252603d815260200180614791603d913960400191505060405180910390fd5b6000600286815481106132b357fe5b90600052602060002090600502019050826000015181600101541480156132dd5750848160020154145b613332576040517f08c379a000000000000000000000000000000000000000000000000000000000815260040180806020018281038252602c815260200180614957602c913960400191505060405180910390fd5b60018160030160008282829054906101000a900467ffffffffffffffff160192506101000a81548167ffffffffffffffff021916908367ffffffffffffffff1602179055507e49e9a81233825e4f5949eb5b06cce97b4f086f6981805188b1e12c5cf638e4868642604051808481526020018381526020018267ffffffffffffffff168152602001935050505060405180910390a150505050505050565b60006133f982600080868152602001908152602001600020600001613fa390919063ffffffff16565b905092915050565b600061342a82600080868152602001908152602001600020600001613fbd90919063ffffffff16565b905092915050565b60606000806000606060006004878154811061344a57fe5b9060005260206000209060040201905061346261451f565b600382600001548154811061347357fe5b90600052602060002090600402016040518060a0016040529081600082018054600181600116156101000203166002900480601f0160208091040260200160405190810160405280929190818152602001828054600181600116156101000203166002900480156135255780601f106134fa57610100808354040283529160200191613525565b820191906000526020600020905b81548152906001019060200180831161350857829003601f168201915b50505050508152602001600182015481526020016002820160009054906101000a900460070b60070b60070b81526020016002820160089054906101000a900467ffffffffffffffff1667ffffffffffffffff1667ffffffffffffffff168152602001600382015481525050905080600001519650806020015195508160010160009054906101000a900467ffffffffffffffff1694508160010160089054906101000a900467ffffffffffffffff1693508160030180548060200260200160405190810160405280929190818152602001828054801561362557602002820191906000526020600020905b815481526020019060010190808311613611575b50505050509250505091939590929450565b6000801b81565b60008173ffffffffffffffffffffffffffffffffffffffff163373ffffffffffffffffffffffffffffffffffffffff16148061368a5750600115156136866000801b33613401565b1515145b6136df576040517f08c379a000000000000000000000000000000000000000000000000000000000815260040180806020018281038252603081526020018061468c6030913960400191505060405180910390fd5b600660008373ffffffffffffffffffffffffffffffffffffffff1673ffffffffffffffffffffffffffffffffffffffff168152602001908152602001600020549050919050565b6000613745600080848152602001908152602001600020600001613fed565b9050919050565b61375461459e565b6002828154811061376157fe5b90600052602060002090600502016040518060c00160405290816000820154815260200160018201548152602001600282015481526020016003820160009054906101000a900467ffffffffffffffff1667ffffffffffffffff1667ffffffffffffffff1681526020016003820160089054906101000a900467ffffffffffffffff1667ffffffffffffffff1667ffffffffffffffff1681526020016004820154815250509050806060015167ffffffffffffffff166138248260400151611b89565b67ffffffffffffffff1614613884576040517f08c379a000000000000000000000000000000000000000000000000000000000815260040180806020018281038252603781526020018061475a6037913960400191505060405180910390fd5b600115156138956000801b33613401565b151514806138d05750600115156138cc7fb7f8beecafe1ad662cec1153812612581a86b9460f21b876f3ee163141203dcb33613401565b1515145b613925576040517f08c379a000000000000000000000000000000000000000000000000000000000815260040180806020018281038252603d8152602001806149cd603d913960400191505060405180910390fd5b61392e82614002565b7f737019d53070b31742678ee65b3baa855c9cb034d73d970a17e2b352a3d773e582826020015183606001514233604051808681526020018581526020018467ffffffffffffffff1681526020018367ffffffffffffffff1681526020018273ffffffffffffffffffffffffffffffffffffffff1681526020019550505050505060405180910390a15050565b600b6020528060005260406000206000915054906101000a900460ff1681565b613a01600080848152602001908152602001600020600201546139fc613e75565b613401565b613a56576040517f08c379a000000000000000000000000000000000000000000000000000000000815260040180806020018281038252603081526020018061485e6030913960400191505060405180910390fd5b613a608282613f10565b5050565b600060011515613a776000801b33613401565b15151480613ab2575060011515613aae7fb7f8beecafe1ad662cec1153812612581a86b9460f21b876f3ee163141203dcb33613401565b1515145b613b07576040517f08c379a00000000000000000000000000000000000000000000000000000000081526004018080602001828103825260358152602001806146576035913960400191505060405180910390fd5b613b0f61451f565b6040518060a001604052808681526020018581526020018460070b81526020014267ffffffffffffffff168152602001600380549050815250905060038190806001815401808255809150506001900390600052602060002090600402016000909190919091506000820151816000019080519060200190613b9292919061449f565b506020820151816001015560408201518160020160006101000a81548167ffffffffffffffff021916908360070b67ffffffffffffffff16021790555060608201518160020160086101000a81548167ffffffffffffffff021916908367ffffffffffffffff160217905550608082015181600301555050600060016003805490500390506001600b600083815260200190815260200160002060006101000a81548160ff0219169083151502179055507fb88277fa8c66993083f7ebdd5f92a7991cf4ed8d4957b20268880dca91a50bdb8686836040518080602001848152602001838152602001828103825285818151815260200191508051906020019080838360005b83811015613cb3578082015181840152602081019050613c98565b50505050905090810190601f168015613ce05780820380516001836020036101000a031916815260200191505b5094505050505060405180910390a180925050509392505050565b7fb7f8beecafe1ad662cec1153812612581a86b9460f21b876f3ee163141203dcb81565b60066020528060005260406000206000915090505481565b6000613d5f836000018373ffffffffffffffffffffffffffffffffffffffff1660001b614214565b905092915050565b816005600083815260200190815260200160002060006101000a81548173ffffffffffffffffffffffffffffffffffffffff021916908373ffffffffffffffffffffffffffffffffffffffff16021790555080600660008473ffffffffffffffffffffffffffffffffffffffff1673ffffffffffffffffffffffffffffffffffffffff168152602001908152602001600020819055507f0c0ee92e381a7696445c71651e0d09689a61bd67a3b7c08ebe8fec6339c1e011838383604051808473ffffffffffffffffffffffffffffffffffffffff1681526020018373ffffffffffffffffffffffffffffffffffffffff168152602001828152602001935050505060405180910390a1505050565b600033905090565b613ea481600080858152602001908152602001600020600001613d3790919063ffffffff16565b15613f0c57613eb1613e75565b73ffffffffffffffffffffffffffffffffffffffff168173ffffffffffffffffffffffffffffffffffffffff16837f2f8788117e7eff1d82e926ec794901d17c78024a50270940304540a733656f0d60405160405180910390a45b5050565b613f378160008085815260200190815260200160002060000161428490919063ffffffff16565b15613f9f57613f44613e75565b73ffffffffffffffffffffffffffffffffffffffff168173ffffffffffffffffffffffffffffffffffffffff16837ff6391f5c32d9c69d2a47ea670b442974b53935d1edc7fd64eb21e047a839171b60405160405180910390a45b5050565b6000613fb283600001836142b4565b60001c905092915050565b6000613fe5836000018373ffffffffffffffffffffffffffffffffffffffff1660001b614337565b905092915050565b6000613ffb8260000161435a565b9050919050565b600115156140136000801b33613401565b1515148061404e57506001151561404a7fb7f8beecafe1ad662cec1153812612581a86b9460f21b876f3ee163141203dcb33613401565b1515145b6140a3576040517f08c379a00000000000000000000000000000000000000000000000000000000081526004018080602001828103825260348152602001806147f36034913960400191505060405180910390fd5b6140ab61459e565b600282815481106140b857fe5b90600052602060002090600502016040518060c00160405290816000820154815260200160018201548152602001600282015481526020016003820160009054906101000a900467ffffffffffffffff1667ffffffffffffffff1667ffffffffffffffff1681526020016003820160089054906101000a900467ffffffffffffffff1667ffffffffffffffff1667ffffffffffffffff168152602001600482015481525050905060011515600b60008360200151815260200190815260200160002060009054906101000a900460ff161515146141e0576040517f08c379a00000000000000000000000000000000000000000000000000000000081526004018080602001828103825260258152602001806147ce6025913960400191505060405180910390fd5b6000600b60008360200151815260200190815260200160002060006101000a81548160ff0219169083151502179055505050565b60006142208383614337565b61427957826000018290806001815401808255809150506001900390600052602060002001600090919091909150558260000180549050836001016000848152602001908152602001600020819055506001905061427e565b600090505b92915050565b60006142ac836000018373ffffffffffffffffffffffffffffffffffffffff1660001b61436b565b905092915050565b600081836000018054905011614315576040517f08c379a00000000000000000000000000000000000000000000000000000000081526004018080602001828103825260228152602001806146066022913960400191505060405180910390fd5b82600001828154811061432457fe5b9060005260206000200154905092915050565b600080836001016000848152602001908152602001600020541415905092915050565b600081600001805490509050919050565b6000808360010160008481526020019081526020016000205490506000811461444757600060018203905060006001866000018054905003905060008660000182815481106143b657fe5b90600052602060002001549050808760000184815481106143d357fe5b906000526020600020018190555060018301876001016000838152602001908152602001600020819055508660000180548061440b57fe5b6001900381819060005260206000200160009055905586600101600087815260200190815260200160002060009055600194505050505061444d565b60009150505b92915050565b6040518060e001604052806000815260200160608152602001600060070b815260200160008152602001600067ffffffffffffffff168152602001600015158152602001600081525090565b828054600181600116156101000203166002900490600052602060002090601f016020900481019282601f106144e057805160ff191683800117855561450e565b8280016001018555821561450e579182015b8281111561450d5782518255916020019190600101906144f2565b5b50905061451b91906145e8565b5090565b6040518060a001604052806060815260200160008152602001600060070b8152602001600067ffffffffffffffff168152602001600081525090565b6040518060a0016040528060008152602001600067ffffffffffffffff168152602001600067ffffffffffffffff16815260200160008152602001606081525090565b6040518060c00160405280600081526020016000815260200160008152602001600067ffffffffffffffff168152602001600067ffffffffffffffff168152602001600081525090565b5b808211156146015760008160009055506001016145e9565b509056fe456e756d657261626c655365743a20696e646578206f7574206f6620626f756e6473416363657373436f6e74726f6c3a2073656e646572206d75737420626520616e2061646d696e20746f206772616e74596f7520646f204e4f5420686176652061636365737320746f206372656174696e6720616e206f666669636520706f736974696f6e4164647265737320646f6573206e6f7420686176652061636365737320746f207468697320696e666f726d6174696f6e436974697a656e206973204e4f54206f6c6420656e6f75676820746f2072756e20666f72204f66666963654164647265737320697320616c72656164792061737369676e656420746f206120636974697a656e456c656374696f6e20726573756c747320617265206e6f7420617661696c61626c6520756e74696c20656c656374696f6e20697320636c6f736564206f66662066726f6d20766f74696e67546869732063616e64696461746520646f6573206e6f74206861766520746865206869676865737420616d6f756e74206f6620766f7465596f7520617265206e6f74207065726d697474656420746f20766f746520666f722074686973206f666669636520696e2074686973207a6970436f64655468697320706f736974696f6e20776173206e6f7420757020666f7220656c656374696f6e596f7520646f204e4f5420686176652061636365737320746f20636c6f73696e6720616e206f666669636520706f736974696f6e55736572206973206e6f74206f776e6572206f6620636974697a656e20747279696e6720746f206265636f6d652063616e646964617465416363657373436f6e74726f6c3a2073656e646572206d75737420626520616e2061646d696e20746f207265766f6b65456c656374696f6e20726573756c747320617265206e6f7420617661696c61626c6520756e74696c20656c656374696f6e20697320636c6f7365206f66662066726f6d20766f74696e675374617465204964206973206e6f742061737369676e656420746f206120636974697a656e2079657441646472657373206973206e6f742061737369676e656420746f20746f206120636974697a656e2079657455736572206973206e6f74206f776e6572206f6620636974697a656e20747279696e6720746f20766f7465546869732063616e646964617465206973206e6f7420656c696769626c6520666f72207468697320766f746555736572206973206e6f74206f776e6572206f66207265717569726564205374617465204944546869732061646472657373206973206e6f7420656c696769626c6520746f20766f7465596f7520646f204e4f5420686176652061636365737320746f206465636c6172696e6720612077696e6e6572206f66207468697320656c656374696f6e537461746520494420697320616c72656164792061737369676e656420746f206120636974697a656e416363657373436f6e74726f6c3a2063616e206f6e6c792072656e6f756e636520726f6c657320666f722073656c66596f7520646f204e4f5420686176652061636365737320746f206372656174696e6720616e20656c656374696f6ea26469706673582212201ca49112656fafe1b899f1d9f34c9b36e98c8e09d31cbc1c469e0c9f4b2a999664736f6c63430007000033",
  "immutableReferences": {},
  "source": "pragma solidity ^0.7.0;\n\nimport \"../node_modules/@openzeppelin/contracts/math/SafeMath.sol\";\nimport \"../node_modules/@openzeppelin/contracts/access/AccessControl.sol\";\n\n\n\ncontract OneVote is AccessControl{\n\n    using SafeMath for uint256;\n\n\n//EVENTS\n    //emitted when citizen is created showing new citizen's name, indexed citizen's address zip code, date approved\n    event CitizenAdded(address owner, uint256 citizenId, uint256 stateId, uint256 zipCode);\n\n    //emitted when citizen has died or citzenship has been dismissed or revoked\n    event NoLongerACitizen(uint256 citizenId, address citzenAddress, string reasonForLoseOfCitizenship);\n\n    //emitted when citizen is assigned to a corresponding address\n    event Assigned(address from, address to, uint256 tokenId);\n\n    //emitted when a candidate is created showing new candidate name, office, electionStart\n    event CandidateAdded(string _name, string _officeTitle, uint64 _electionStart);\n\n    //emitted when an office is create\n    event OfficeAdded(string _officeTitle, uint256 _zipCode, uint256 _officeId);\n\n    //emitted when a election is created\n    event ElectionAdded(string _officeTitle, uint256 _zipCode, uint64 _electionStart, uint64 _electionEnd, uint256 _electionId);\n\n    //emitted when vote has been cast\n    event VoteCast(uint256 _candidateId, uint256 _electionId, uint64 timeVoteCast);\n\n    //emitted when winner of election is determined\n    event Winner(uint256 _candidateId, uint256 _officeId, uint64 _voteCount, uint64 timestamp, address confirmedBy);\n\n\n//STRUCTS\n    //use date object for all dates\n    struct Citizen {\n        uint256 stateId;\n        string name;\n        int64 dateOfBirth;\n        uint256 zipCode;\n        uint64 dateApproved;\n        //bool used for whether a citizen has died or lost citizenship\n        bool citizenship;\n        uint256 citizenId;\n    }\n\n    struct Candidate {\n        uint256 citizenId;\n        uint256 officeId;\n        uint256 electionId;\n        /* string name;\n        int64 dateOfBirth;\n        string officeTitle;\n        uint256 zipCode;\n        uint64 electionStart;\n        uint64 electionEnd; */\n        uint64 voteCount;\n        uint64 dateApprovedToRun;\n        uint256 candidateId;\n    }\n\n    struct Office {\n        string officeTitle;\n        uint256 zipCode;\n        int64 requiredAge;\n        uint64 dateApproved;\n        uint256 officeId;\n    }\n\n    struct Election {\n        /* string officeTitle;\n        uint256 zipCode; */\n        uint256 officeId;\n        uint64 electionStart;\n        uint64 electionEnd;\n        uint256 electionId;\n        uint256[] candidateIds;\n    }\n\n\n//ARRAYS\n    Citizen[] citizens;\n    Candidate[] candidates;\n    Office[] offices;\n    Election[] elections;\n\n    //citizen mapping\n    /// @dev citizen mapping needs to be private after testing\n    mapping(uint256 => address) public citizenIndexToOwner;\n    mapping(address => uint256) public citizenIdOfAddress;\n    mapping(uint256 => Citizen) public citizenIdToCitizen;\n    mapping(uint256 => bool) private stateIdInUse;\n    mapping(address => bool) private addressInUse;\n\n    //candidate mapping\n    /* mapping(uint256 => Candidate) public candidateIdToCandidate; */\n    mapping(uint256 => bool) public candidateIsApprovedToRun;\n\n    //office mapping\n    /* mapping(uint256 => Office) public officeIdToOffice; */\n    mapping(uint256 => bool) public officeIsUpForElection;\n\n    //election mapping\n    /* mapping(uint256 => Election) public electionIdToElection; */\n    /* mapping(uint256 => bool) public electionIsActive; */\n\n\n//CONSTRUCTOR\n    /*    // will set access control as contract owner upon deploying contract\n          // all arrays at elements at index 0 will empty */\n    constructor() public {\n      _setupRole(DEFAULT_ADMIN_ROLE, msg.sender);\n      elections.push();\n      citizens.push();\n      offices.push();\n      candidates.push();\n    }\n\n\n//ROLES\n        bytes32 public constant LOCAL_ADMIN_ROLE = keccak256(\"LOCAL_ADMIN_ROLE\");\n\n\n//FUNCTIONS\n////creation functions\n\n    /*  //creates citizens that will be able to vote if citizens are included in a particular election\n        //emits event once citizen is created\n        //a citizen cannot have the same stateId as another citizen */\n    function _createCitizen(\n            string memory _name,\n            int64 _dateOfBirth,\n            uint256 _zipCode,\n            uint256 _stateId\n        ) public returns (uint256){\n          require(stateIdInUse[_stateId] == false, \"State ID is already assigned to a citizen\");\n          require(addressInUse[msg.sender] == false, \"Address is already assigned to a citizen\");\n\n            Citizen memory _citizen = Citizen({\n                stateId: _stateId,\n                name: _name,\n                dateOfBirth: _dateOfBirth,\n                zipCode: _zipCode,\n                dateApproved: uint64(block.timestamp),\n                citizenship: true,\n                citizenId: citizens.length\n            });\n\n            citizens.push(_citizen);\n            uint256 newCitizenId = citizens.length - 1;\n\n            stateIdInUse[_stateId] = true;\n            addressInUse[msg.sender] = true;\n            citizenIdToCitizen[newCitizenId] = _citizen;\n\n            emit CitizenAdded(msg.sender, newCitizenId, _stateId, _zipCode);\n\n            _assignCitizenIdToAddress(address(0), msg.sender, newCitizenId);\n\n          return newCitizenId;\n        }\n\n\n      /*  //gets citizen data\n          //must be internal to prevent data being seen by unwanted users */\n      function _getCitizen(uint256 _citizenId)internal view returns(\n            string memory _name,\n            int64 _dateOfBirth,\n            uint256 _zipCode,\n            bool _citizenship\n          )\n      {\n        require(citizenIndexToOwner[_citizenId] == msg.sender || hasRole(DEFAULT_ADMIN_ROLE, msg.sender) == true, \"Address does not have access to this information\");\n                Citizen storage citizen = citizens[_citizenId];\n\n                    _name = citizen.name;\n                    _dateOfBirth = citizen.dateOfBirth;\n                    _zipCode = citizen.zipCode;\n                    _citizenship = citizen.citizenship;\n      }\n\n\n      function getCitizenId(address owner) public view returns(uint256){\n        require(msg.sender == owner || hasRole(DEFAULT_ADMIN_ROLE, msg.sender) == true, \"Address does not have access to this information\");\n        return citizenIdOfAddress[owner];\n      }\n\n\n      /* //transfer citizen data to address the citizen was created to represent */\n      function _assignCitizenIdToAddress(address _from, address _to, uint256 _tokenId) internal {\n        citizenIndexToOwner[_tokenId] = _to;\n        citizenIdOfAddress[_to] = _tokenId;\n\n        emit Assigned(_from, _to, _tokenId);\n      }\n\n\n      /* //used when citizens have died or citzenship has been dismissed or revoked */\n      function _loseOfCitizenship(\n              uint256 _citizenId,\n              address _citizenAddress,\n              string memory _reason\n          ) internal {\n            require(hasRole(DEFAULT_ADMIN_ROLE, msg.sender) == true, \"You do NOT have access to changing citizenship status\");\n            require(citizenIndexToOwner[_citizenId] == _citizenAddress, \"This is not the citizens correct address\");\n            require(msg.sender != _citizenAddress, \"You cannot change your own citizenship\");\n\n            stateIdInUse[_citizenId] = false;\n            addressInUse[_citizenAddress] = false;\n\n            Citizen storage citizen = citizens[_citizenId];\n            citizen.citizenship = false;\n\n            emit NoLongerACitizen(_citizenId, _citizenAddress, _reason);\n          }\n\n\n      /*  //create a candidate that will be used for elections\n          //all candidates must be citizens\n          //emit event when canidiate is created */\n      function createCandidate(\n              uint256 _citizenId,\n              uint256 _stateId,\n              uint256 _officeId,\n              uint256 _electionId\n          ) public returns(uint256){\n            require(stateIdInUse[_stateId] == true, \"State Id is not assigned to a citizen yet\");\n            require(addressInUse[msg.sender] == true, \"Address is not assigned to to a citizen yet\");\n            require(citizenIndexToOwner[_citizenId] == msg.sender, \"User is not owner of citizen trying to become candidate\");\n\n            Citizen memory citizen = citizenIdToCitizen[_citizenId];\n            Office memory office = offices[_officeId];\n            Election memory election = elections[_electionId];\n\n            require(citizen.citizenship == true, \"You are no longer a citizen\");\n            require(citizen.stateId == _stateId, \"User is not owner of required State ID\");\n            require(officeIsUpForElection[_officeId] == true, \"Office is NOT up for election\");\n            require(office.requiredAge >= citizen.dateOfBirth, \"Citizen is NOT old enough to run for Office\");\n\n              //need to find out if it is possible to use _getCitizen() and assign that data to a variable like in javascript\n              Candidate memory _candidate = Candidate({\n                    /* //name: citizen.name,\n                    //dateOfBirth: citizen.dateOfBirth,\n                    //officeTitle: office.officeTitle,\n                    //zipCode: office.zipCode, */\n                    citizenId: _citizenId,\n                    officeId: _officeId,\n                    /* electionStart: election.electionStart,\n                    electionEnd: election.electionEnd, */\n                    electionId: _electionId,\n                    voteCount: 0,\n                    dateApprovedToRun: uint64(block.timestamp),\n                    candidateId: candidates.length\n                });\n\n            candidates.push(_candidate);\n            uint256 newCandidateId = candidates.length - 1;\n            elections[_electionId].candidateIds.push(newCandidateId);\n\n            /* elections[_electionId].candidateIds.push(newCandidateId); */\n            /* candidateIdToCandidate[newCandidateId] = _candidate; */\n            candidateIsApprovedToRun[newCandidateId] = true;\n\n            emit CandidateAdded(citizen.name, office.officeTitle, election.electionStart);\n\n        return newCandidateId;\n      }\n\n\n      function getCandidate(uint256 _candidateId) public view returns(\n            string memory name,\n            string memory officeTitle,\n            uint256 zipCode\n          )\n        {\n          Candidate storage candidate = candidates[_candidateId];\n          Office memory office = offices[candidate.officeId];\n          Citizen memory citizen = citizens[candidate.citizenId];\n\n          name = citizen.name;\n          officeTitle = office.officeTitle;\n          zipCode = office.zipCode;\n        }\n\n\n      /*  //create an office for candidates to run for election\n          //emit event when office is created\n          //will need array for zipCode if office covers multiple zipCodes */\n      function createOffice(\n              string memory _officeTitle,\n              uint256 _zipCode,\n              int64 _requiredAge\n          ) public returns(uint256){\n            require(hasRole(DEFAULT_ADMIN_ROLE, msg.sender) == true || hasRole(LOCAL_ADMIN_ROLE, msg.sender) == true, \"You do NOT have access to creating an office position\");\n\n            Office memory _office = Office({\n                  officeTitle: _officeTitle,\n                  zipCode: _zipCode,\n                  requiredAge: _requiredAge,\n                  dateApproved: uint64(block.timestamp),\n                  officeId: offices.length\n              });\n\n              offices.push(_office);\n              uint256 newOfficeId = offices.length - 1;\n\n              /* officeIdToOffice[newOfficeId] = _office; */\n              officeIsUpForElection[newOfficeId] = true;\n\n              emit OfficeAdded(_officeTitle, _zipCode, newOfficeId);\n\n        return newOfficeId;\n      }\n\n\n      function getOffice(uint256 _officeId) public view returns(\n            string memory officeTitle,\n            uint256 zipCode,\n            int64 requiredAge,\n            bool isOpenForElection\n          )\n        {\n          Office storage office = offices[_officeId];\n\n          officeTitle = office.officeTitle;\n          zipCode = office.zipCode;\n          requiredAge = office.requiredAge;\n          isOpenForElection = officeIsUpForElection[_officeId];\n        }\n\n\n      /* //changes status of open offices after elections */\n      function _filledOfficePosition(uint256 _candidateId) internal {\n        require(hasRole(DEFAULT_ADMIN_ROLE, msg.sender) == true || hasRole(LOCAL_ADMIN_ROLE, msg.sender) == true, \"You do NOT have access to closing an office position\");\n\n        Candidate memory candidate = candidates[_candidateId];\n\n        require(officeIsUpForElection[candidate.officeId] == true, \"This position was not up for election\");\n\n        officeIsUpForElection[candidate.officeId] = false;\n      }\n\n\n      /*  //emit event when election is created\n          //will need to access office array in which election is forum */\n      function createAnElection(\n              uint256 _officeId,\n              uint64 _start,\n              uint64 _end\n          ) public returns(uint256){\n            require(officeIsUpForElection[_officeId] == true, \"Office is NOT up for election\");\n            require(hasRole(DEFAULT_ADMIN_ROLE, msg.sender) == true || hasRole(LOCAL_ADMIN_ROLE, msg.sender) == true, \"You do NOT have access to creating an election\");\n\n            elections.push();\n\n            Office memory office = offices[_officeId];\n\n            Election storage election = elections[elections.length - 1];\n                /* officeTitle: office.officeTitle,\n                zipCode: office.zipCode, */\n                election.officeId = _officeId;\n                election.electionStart = _start;\n                election.electionEnd = _end;\n                election.electionId = elections.length;\n\n\n            /* elections.push(_election); */\n            uint256 newElectionId = elections.length - 1;\n\n            /* electionIdToElection[newElectionId] = _election; */\n\n            emit ElectionAdded(office.officeTitle, office.zipCode, _start, _end, newElectionId);\n\n        return newElectionId;\n      }\n\n\n      function getElection(uint256 _electionId) public view returns(\n            string memory officeTitle,\n            uint256 zipCode,\n            uint64 electionStart,\n            uint64 electionEnd,\n            uint256[] memory candidateIds\n          )\n        {\n          Election storage election = elections[_electionId];\n          Office memory office = offices[election.officeId];\n\n          officeTitle = office.officeTitle;\n          zipCode = office.zipCode;\n          electionStart = election.electionStart;\n          electionEnd = election.electionEnd;\n          candidateIds = election.candidateIds;\n        }\n\n\n////voting function\n\n      function vote(uint256 _citizenId, uint256 voteForCandidateId, uint256 _electionId) public {\n        require(citizenIndexToOwner[_citizenId] == msg.sender, \"User is not owner of citizen trying to vote\");\n        require(addressInUse[msg.sender] == true, \"This address is not eligible to vote\");\n\n        Citizen memory citizen = citizenIdToCitizen[_citizenId];\n        require(citizen.citizenship == true, \"You are no longer a citizen\");\n\n        Election memory election = elections[_electionId];\n        require(election.electionStart <= uint64(block.timestamp), \"The election has not opened yet\");\n        require(election.electionEnd >= uint64(block.timestamp), \"The election is no longer open\");\n\n        Office memory office = offices[election.officeId];\n        require(citizen.zipCode == office.zipCode, \"You are not permitted to vote for this office in this zipCode\");\n\n        Candidate storage candidate = candidates[voteForCandidateId];\n        require(candidate.officeId == election.officeId && candidate.electionId == _electionId, \"This candidate is not eligible for this vote\");\n        candidate.voteCount += 1;\n\n        emit VoteCast(voteForCandidateId, _electionId, uint64(block.timestamp));\n      }\n\n\n      /*  //returns individual candidates election data based on candidateId for only after vote casting has concluded */\n      function getResultsOfCandidate(uint256 _candidateId) public view returns(\n            string memory _officeTitle,\n            uint256 _zipCode,\n            string memory _candidateName,\n            uint64 _voteCount\n          )\n      {\n        Candidate storage candidate = candidates[_candidateId];\n\n        Citizen storage citizen = citizens[candidate.citizenId];\n\n        Election storage election = elections[candidate.electionId];\n        require(election.electionEnd <= uint64(block.timestamp), \"Election results are not available until election is close off from voting\");\n\n        Office storage office = offices[election.officeId];\n\n        _officeTitle = office.officeTitle;\n        _zipCode = office.zipCode;\n        _candidateName = citizen.name;\n        _voteCount = candidate.voteCount;\n      }\n\n\n      /*  //returns all candidateIds contained in an election struct based on an electionId */\n      /* function getAllCandidateIds(uint256 _electionId) public view returns (uint256[] memory){\n        Election memory election = elections[_electionId];\n\n        return election.candidateIds;\n      } */\n\n\n      /*  //returns highest amount of votes of each election associated with a particular electionId, this maybe the vote total for multiple candidateIds in the case of ties\n          //(full elections may be made of multiple electionIds due to election covering multiple zipCodes)\n          //will change officeIsUpForElection to false\n          //(this will only change the officeId associated with the particular electionId other officeIds of the same office may remain open until a later date due to office covering multiple zipCodes) */\n      function getHighestVoteTotal(uint256 _electionId) public view returns(uint64){\n        Election memory election = elections[_electionId];\n        require(election.electionEnd <= uint64(block.timestamp), \"Election results are not available until election is closed off from voting\");\n        /* require(hasRole(DEFAULT_ADMIN_ROLE, msg.sender) == true, \"You do NOT have access to this data\"); */\n\n        uint64 highestVoteCount = 0;\n\n        for(uint256 i = 0; i <= election.candidateIds.length; i++){\n          Candidate memory candidate = candidates[i];\n          if(candidate.voteCount >= highestVoteCount){\n            highestVoteCount = candidate.voteCount;\n          }\n        }\n        return highestVoteCount;\n      }\n\n\n      /* //will return an array of one or all candidates that have the highest amount of votes\n      function getIdOfWinningCandidates(uint256 _electionId) public view returns(uint256[] memory){\n        Election memory election = elections[_electionId];\n\n        uint64 highestVoteCount = getHighestVoteTotal(_electionId);\n        uint256[] memory result = new uint256[](election.candidateIds.length);\n\n        for(uint256 i = 0; i <= election.candidateIds.length; i++){\n          Candidate memory candidate = candidates[i];\n          if(candidate.voteCount == highestVoteCount){\n            result[i] = candidate.candidateId;\n          }\n        }\n        return result;\n      } */\n\n\n      /*  //will set the office up for election as no longer open and emit event stating the winner of the election */\n      function declareWinnerOfElection(uint256 _candidateId) public {\n        Candidate memory candidate = candidates[_candidateId];\n        require(getHighestVoteTotal(candidate.electionId) == candidate.voteCount, \"This candidate does not have the highest amount of vote\");\n        require(hasRole(DEFAULT_ADMIN_ROLE, msg.sender) == true || hasRole(LOCAL_ADMIN_ROLE, msg.sender) == true, \"You do NOT have access to declaring a winner of this election\");\n\n        _filledOfficePosition(_candidateId);\n\n        emit Winner(_candidateId, candidate.officeId, candidate.voteCount, uint64(block.timestamp), msg.sender);\n      }\n\n}\n",
  "sourcePath": "/Users/CalvinCutlass/Desktop/Coding/coding_2020/ivan_bootcamp/week_11/One_Vote/contracts/OneVote.sol",
  "compiler": {
    "name": "solc",
    "version": "0.7.0+commit.9e61f92b.Emscripten.clang"
  },
  "schemaVersion": "3.2.0",
  "updatedAt": "2021-02-20T08:25:51.076Z",
  "networkType": "ethereum",
  "devdoc": {
    "kind": "dev",
    "methods": {
      "getRoleAdmin(bytes32)": {
        "details": "Returns the admin role that controls `role`. See {grantRole} and {revokeRole}. To change a role's admin, use {_setRoleAdmin}."
      },
      "getRoleMember(bytes32,uint256)": {
        "details": "Returns one of the accounts that have `role`. `index` must be a value between 0 and {getRoleMemberCount}, non-inclusive. Role bearers are not sorted in any particular way, and their ordering may change at any point. WARNING: When using {getRoleMember} and {getRoleMemberCount}, make sure you perform all queries on the same block. See the following https://forum.openzeppelin.com/t/iterating-over-elements-on-enumerableset-in-openzeppelin-contracts/2296[forum post] for more information."
      },
      "getRoleMemberCount(bytes32)": {
        "details": "Returns the number of accounts that have `role`. Can be used together with {getRoleMember} to enumerate all bearers of a role."
      },
      "grantRole(bytes32,address)": {
        "details": "Grants `role` to `account`. If `account` had not been already granted `role`, emits a {RoleGranted} event. Requirements: - the caller must have ``role``'s admin role."
      },
      "hasRole(bytes32,address)": {
        "details": "Returns `true` if `account` has been granted `role`."
      },
      "renounceRole(bytes32,address)": {
        "details": "Revokes `role` from the calling account. Roles are often managed via {grantRole} and {revokeRole}: this function's purpose is to provide a mechanism for accounts to lose their privileges if they are compromised (such as when a trusted device is misplaced). If the calling account had been granted `role`, emits a {RoleRevoked} event. Requirements: - the caller must be `account`."
      },
      "revokeRole(bytes32,address)": {
        "details": "Revokes `role` from `account`. If `account` had been granted `role`, emits a {RoleRevoked} event. Requirements: - the caller must have ``role``'s admin role."
      }
    },
    "stateVariables": {
      "citizenIndexToOwner": {
        "details": "citizen mapping needs to be private after testing"
      }
    },
    "version": 1
  },
  "userdoc": {
    "kind": "user",
    "methods": {},
    "version": 1
  }
}