{
  "contractName": "Test",
  "abi": [
    {
      "anonymous": false,
      "inputs": [
        {
          "indexed": false,
          "internalType": "address",
          "name": "from",
          "type": "address"
        },
        {
          "indexed": false,
          "internalType": "address",
          "name": "to",
          "type": "address"
        },
        {
          "indexed": false,
          "internalType": "uint256",
          "name": "tokenId",
          "type": "uint256"
        }
      ],
      "name": "Assigned",
      "type": "event"
    },
    {
      "anonymous": false,
      "inputs": [
        {
          "indexed": false,
          "internalType": "string",
          "name": "_name",
          "type": "string"
        },
        {
          "indexed": false,
          "internalType": "string",
          "name": "_officeTitle",
          "type": "string"
        },
        {
          "indexed": false,
          "internalType": "uint64",
          "name": "_electionStart",
          "type": "uint64"
        }
      ],
      "name": "CandidateAdded",
      "type": "event"
    },
    {
      "anonymous": false,
      "inputs": [
        {
          "indexed": false,
          "internalType": "address",
          "name": "owner",
          "type": "address"
        },
        {
          "indexed": false,
          "internalType": "uint256",
          "name": "citizenId",
          "type": "uint256"
        },
        {
          "indexed": false,
          "internalType": "uint256",
          "name": "stateId",
          "type": "uint256"
        },
        {
          "indexed": false,
          "internalType": "uint256",
          "name": "zipCode",
          "type": "uint256"
        }
      ],
      "name": "CitizenAdded",
      "type": "event"
    },
    {
      "anonymous": false,
      "inputs": [
        {
          "indexed": false,
          "internalType": "string",
          "name": "_officeTitle",
          "type": "string"
        },
        {
          "indexed": false,
          "internalType": "uint256",
          "name": "_zipCode",
          "type": "uint256"
        },
        {
          "indexed": false,
          "internalType": "uint64",
          "name": "_electionStart",
          "type": "uint64"
        },
        {
          "indexed": false,
          "internalType": "uint64",
          "name": "_electionEnd",
          "type": "uint64"
        },
        {
          "indexed": false,
          "internalType": "uint256",
          "name": "_electionId",
          "type": "uint256"
        }
      ],
      "name": "ElectionAdded",
      "type": "event"
    },
    {
      "anonymous": false,
      "inputs": [
        {
          "indexed": false,
          "internalType": "uint256",
          "name": "citizenId",
          "type": "uint256"
        },
        {
          "indexed": false,
          "internalType": "address",
          "name": "citzenAddress",
          "type": "address"
        },
        {
          "indexed": false,
          "internalType": "string",
          "name": "reasonForLoseOfCitizenship",
          "type": "string"
        }
      ],
      "name": "NoLongerACitizen",
      "type": "event"
    },
    {
      "anonymous": false,
      "inputs": [
        {
          "indexed": false,
          "internalType": "string",
          "name": "_officeTitle",
          "type": "string"
        },
        {
          "indexed": false,
          "internalType": "uint256",
          "name": "_zipCode",
          "type": "uint256"
        },
        {
          "indexed": false,
          "internalType": "uint256",
          "name": "_officeId",
          "type": "uint256"
        }
      ],
      "name": "OfficeAdded",
      "type": "event"
    },
    {
      "anonymous": false,
      "inputs": [
        {
          "indexed": true,
          "internalType": "bytes32",
          "name": "role",
          "type": "bytes32"
        },
        {
          "indexed": true,
          "internalType": "bytes32",
          "name": "previousAdminRole",
          "type": "bytes32"
        },
        {
          "indexed": true,
          "internalType": "bytes32",
          "name": "newAdminRole",
          "type": "bytes32"
        }
      ],
      "name": "RoleAdminChanged",
      "type": "event"
    },
    {
      "anonymous": false,
      "inputs": [
        {
          "indexed": true,
          "internalType": "bytes32",
          "name": "role",
          "type": "bytes32"
        },
        {
          "indexed": true,
          "internalType": "address",
          "name": "account",
          "type": "address"
        },
        {
          "indexed": true,
          "internalType": "address",
          "name": "sender",
          "type": "address"
        }
      ],
      "name": "RoleGranted",
      "type": "event"
    },
    {
      "anonymous": false,
      "inputs": [
        {
          "indexed": true,
          "internalType": "bytes32",
          "name": "role",
          "type": "bytes32"
        },
        {
          "indexed": true,
          "internalType": "address",
          "name": "account",
          "type": "address"
        },
        {
          "indexed": true,
          "internalType": "address",
          "name": "sender",
          "type": "address"
        }
      ],
      "name": "RoleRevoked",
      "type": "event"
    },
    {
      "anonymous": false,
      "inputs": [
        {
          "indexed": false,
          "internalType": "uint256",
          "name": "_candidateId",
          "type": "uint256"
        },
        {
          "indexed": false,
          "internalType": "uint256",
          "name": "_electionId",
          "type": "uint256"
        },
        {
          "indexed": false,
          "internalType": "uint64",
          "name": "timeVoteCast",
          "type": "uint64"
        }
      ],
      "name": "VoteCast",
      "type": "event"
    },
    {
      "anonymous": false,
      "inputs": [
        {
          "indexed": false,
          "internalType": "uint256",
          "name": "_candidateId",
          "type": "uint256"
        },
        {
          "indexed": false,
          "internalType": "uint256",
          "name": "_officeId",
          "type": "uint256"
        },
        {
          "indexed": false,
          "internalType": "uint64",
          "name": "_voteCount",
          "type": "uint64"
        },
        {
          "indexed": false,
          "internalType": "uint64",
          "name": "timestamp",
          "type": "uint64"
        },
        {
          "indexed": false,
          "internalType": "address",
          "name": "confirmedBy",
          "type": "address"
        }
      ],
      "name": "Winner",
      "type": "event"
    },
    {
      "inputs": [],
      "name": "DEFAULT_ADMIN_ROLE",
      "outputs": [
        {
          "internalType": "bytes32",
          "name": "",
          "type": "bytes32"
        }
      ],
      "stateMutability": "view",
      "type": "function"
    },
    {
      "inputs": [],
      "name": "LOCAL_ADMIN_ROLE",
      "outputs": [
        {
          "internalType": "bytes32",
          "name": "",
          "type": "bytes32"
        }
      ],
      "stateMutability": "view",
      "type": "function"
    },
    {
      "inputs": [
        {
          "internalType": "uint256",
          "name": "_citizenId",
          "type": "uint256"
        }
      ],
      "name": "_getCitizen",
      "outputs": [
        {
          "internalType": "string",
          "name": "_name",
          "type": "string"
        },
        {
          "internalType": "int64",
          "name": "_dateOfBirth",
          "type": "int64"
        },
        {
          "internalType": "uint256",
          "name": "_zipCode",
          "type": "uint256"
        },
        {
          "internalType": "bool",
          "name": "_citizenship",
          "type": "bool"
        }
      ],
      "stateMutability": "view",
      "type": "function"
    },
    {
      "inputs": [
        {
          "internalType": "uint256",
          "name": "",
          "type": "uint256"
        }
      ],
      "name": "candidateIsApprovedToRun",
      "outputs": [
        {
          "internalType": "bool",
          "name": "",
          "type": "bool"
        }
      ],
      "stateMutability": "view",
      "type": "function"
    },
    {
      "inputs": [
        {
          "internalType": "address",
          "name": "",
          "type": "address"
        }
      ],
      "name": "citizenIdOfAddress",
      "outputs": [
        {
          "internalType": "uint256",
          "name": "",
          "type": "uint256"
        }
      ],
      "stateMutability": "view",
      "type": "function"
    },
    {
      "inputs": [
        {
          "internalType": "uint256",
          "name": "",
          "type": "uint256"
        }
      ],
      "name": "citizenIdToCitizen",
      "outputs": [
        {
          "internalType": "uint256",
          "name": "stateId",
          "type": "uint256"
        },
        {
          "internalType": "string",
          "name": "name",
          "type": "string"
        },
        {
          "internalType": "int64",
          "name": "dateOfBirth",
          "type": "int64"
        },
        {
          "internalType": "uint256",
          "name": "zipCode",
          "type": "uint256"
        },
        {
          "internalType": "uint64",
          "name": "dateApproved",
          "type": "uint64"
        },
        {
          "internalType": "bool",
          "name": "citizenship",
          "type": "bool"
        },
        {
          "internalType": "uint256",
          "name": "citizenId",
          "type": "uint256"
        }
      ],
      "stateMutability": "view",
      "type": "function"
    },
    {
      "inputs": [
        {
          "internalType": "uint256",
          "name": "",
          "type": "uint256"
        }
      ],
      "name": "citizenIndexToOwner",
      "outputs": [
        {
          "internalType": "address",
          "name": "",
          "type": "address"
        }
      ],
      "stateMutability": "view",
      "type": "function"
    },
    {
      "inputs": [
        {
          "internalType": "uint256",
          "name": "_officeId",
          "type": "uint256"
        },
        {
          "internalType": "uint64",
          "name": "_start",
          "type": "uint64"
        },
        {
          "internalType": "uint64",
          "name": "_end",
          "type": "uint64"
        }
      ],
      "name": "createAnElection",
      "outputs": [
        {
          "internalType": "uint256",
          "name": "",
          "type": "uint256"
        }
      ],
      "stateMutability": "nonpayable",
      "type": "function"
    },
    {
      "inputs": [
        {
          "internalType": "uint256",
          "name": "_citizenId",
          "type": "uint256"
        },
        {
          "internalType": "uint256",
          "name": "_stateId",
          "type": "uint256"
        },
        {
          "internalType": "uint256",
          "name": "_officeId",
          "type": "uint256"
        },
        {
          "internalType": "uint256",
          "name": "_electionId",
          "type": "uint256"
        }
      ],
      "name": "createCandidate",
      "outputs": [
        {
          "internalType": "uint256",
          "name": "",
          "type": "uint256"
        }
      ],
      "stateMutability": "nonpayable",
      "type": "function"
    },
    {
      "inputs": [
        {
          "internalType": "string",
          "name": "_name",
          "type": "string"
        },
        {
          "internalType": "int64",
          "name": "_dateOfBirth",
          "type": "int64"
        },
        {
          "internalType": "uint256",
          "name": "_zipCode",
          "type": "uint256"
        },
        {
          "internalType": "uint256",
          "name": "_stateId",
          "type": "uint256"
        }
      ],
      "name": "createCitizen",
      "outputs": [
        {
          "internalType": "uint256",
          "name": "",
          "type": "uint256"
        }
      ],
      "stateMutability": "nonpayable",
      "type": "function"
    },
    {
      "inputs": [
        {
          "internalType": "string",
          "name": "_officeTitle",
          "type": "string"
        },
        {
          "internalType": "uint256",
          "name": "_zipCode",
          "type": "uint256"
        },
        {
          "internalType": "int64",
          "name": "_requiredAge",
          "type": "int64"
        }
      ],
      "name": "createOffice",
      "outputs": [
        {
          "internalType": "uint256",
          "name": "",
          "type": "uint256"
        }
      ],
      "stateMutability": "nonpayable",
      "type": "function"
    },
    {
      "inputs": [
        {
          "internalType": "uint256",
          "name": "_candidateId",
          "type": "uint256"
        }
      ],
      "name": "declareWinnerOfElection",
      "outputs": [],
      "stateMutability": "nonpayable",
      "type": "function"
    },
    {
      "inputs": [
        {
          "internalType": "uint256",
          "name": "_candidateId",
          "type": "uint256"
        }
      ],
      "name": "getCandidate",
      "outputs": [
        {
          "internalType": "string",
          "name": "name",
          "type": "string"
        },
        {
          "internalType": "string",
          "name": "officeTitle",
          "type": "string"
        },
        {
          "internalType": "uint256",
          "name": "zipCode",
          "type": "uint256"
        }
      ],
      "stateMutability": "view",
      "type": "function"
    },
    {
      "inputs": [
        {
          "internalType": "address",
          "name": "owner",
          "type": "address"
        }
      ],
      "name": "getCitizenId",
      "outputs": [
        {
          "internalType": "uint256",
          "name": "",
          "type": "uint256"
        }
      ],
      "stateMutability": "view",
      "type": "function"
    },
    {
      "inputs": [
        {
          "internalType": "uint256",
          "name": "_electionId",
          "type": "uint256"
        }
      ],
      "name": "getElection",
      "outputs": [
        {
          "internalType": "string",
          "name": "officeTitle",
          "type": "string"
        },
        {
          "internalType": "uint256",
          "name": "zipCode",
          "type": "uint256"
        },
        {
          "internalType": "uint64",
          "name": "electionStart",
          "type": "uint64"
        },
        {
          "internalType": "uint64",
          "name": "electionEnd",
          "type": "uint64"
        },
        {
          "internalType": "uint256[]",
          "name": "candidateIds",
          "type": "uint256[]"
        }
      ],
      "stateMutability": "view",
      "type": "function"
    },
    {
      "inputs": [
        {
          "internalType": "uint256",
          "name": "_electionId",
          "type": "uint256"
        }
      ],
      "name": "getHighestVoteTotal",
      "outputs": [
        {
          "internalType": "uint64",
          "name": "",
          "type": "uint64"
        }
      ],
      "stateMutability": "view",
      "type": "function"
    },
    {
      "inputs": [
        {
          "internalType": "uint256",
          "name": "_officeId",
          "type": "uint256"
        }
      ],
      "name": "getOffice",
      "outputs": [
        {
          "internalType": "string",
          "name": "officeTitle",
          "type": "string"
        },
        {
          "internalType": "uint256",
          "name": "zipCode",
          "type": "uint256"
        },
        {
          "internalType": "int64",
          "name": "requiredAge",
          "type": "int64"
        },
        {
          "internalType": "bool",
          "name": "isOpenForElection",
          "type": "bool"
        }
      ],
      "stateMutability": "view",
      "type": "function"
    },
    {
      "inputs": [
        {
          "internalType": "uint256",
          "name": "_candidateId",
          "type": "uint256"
        }
      ],
      "name": "getResultsOfCandidate",
      "outputs": [
        {
          "internalType": "string",
          "name": "_officeTitle",
          "type": "string"
        },
        {
          "internalType": "uint256",
          "name": "_zipCode",
          "type": "uint256"
        },
        {
          "internalType": "string",
          "name": "_candidateName",
          "type": "string"
        },
        {
          "internalType": "uint64",
          "name": "_voteCount",
          "type": "uint64"
        }
      ],
      "stateMutability": "view",
      "type": "function"
    },
    {
      "inputs": [
        {
          "internalType": "bytes32",
          "name": "role",
          "type": "bytes32"
        }
      ],
      "name": "getRoleAdmin",
      "outputs": [
        {
          "internalType": "bytes32",
          "name": "",
          "type": "bytes32"
        }
      ],
      "stateMutability": "view",
      "type": "function"
    },
    {
      "inputs": [
        {
          "internalType": "bytes32",
          "name": "role",
          "type": "bytes32"
        },
        {
          "internalType": "uint256",
          "name": "index",
          "type": "uint256"
        }
      ],
      "name": "getRoleMember",
      "outputs": [
        {
          "internalType": "address",
          "name": "",
          "type": "address"
        }
      ],
      "stateMutability": "view",
      "type": "function"
    },
    {
      "inputs": [
        {
          "internalType": "bytes32",
          "name": "role",
          "type": "bytes32"
        }
      ],
      "name": "getRoleMemberCount",
      "outputs": [
        {
          "internalType": "uint256",
          "name": "",
          "type": "uint256"
        }
      ],
      "stateMutability": "view",
      "type": "function"
    },
    {
      "inputs": [
        {
          "internalType": "bytes32",
          "name": "role",
          "type": "bytes32"
        },
        {
          "internalType": "address",
          "name": "account",
          "type": "address"
        }
      ],
      "name": "grantRole",
      "outputs": [],
      "stateMutability": "nonpayable",
      "type": "function"
    },
    {
      "inputs": [
        {
          "internalType": "bytes32",
          "name": "role",
          "type": "bytes32"
        },
        {
          "internalType": "address",
          "name": "account",
          "type": "address"
        }
      ],
      "name": "hasRole",
      "outputs": [
        {
          "internalType": "bool",
          "name": "",
          "type": "bool"
        }
      ],
      "stateMutability": "view",
      "type": "function"
    },
    {
      "inputs": [
        {
          "internalType": "uint256",
          "name": "",
          "type": "uint256"
        }
      ],
      "name": "officeIsUpForElection",
      "outputs": [
        {
          "internalType": "bool",
          "name": "",
          "type": "bool"
        }
      ],
      "stateMutability": "view",
      "type": "function"
    },
    {
      "inputs": [
        {
          "internalType": "bytes32",
          "name": "role",
          "type": "bytes32"
        },
        {
          "internalType": "address",
          "name": "account",
          "type": "address"
        }
      ],
      "name": "renounceRole",
      "outputs": [],
      "stateMutability": "nonpayable",
      "type": "function"
    },
    {
      "inputs": [
        {
          "internalType": "bytes32",
          "name": "role",
          "type": "bytes32"
        },
        {
          "internalType": "address",
          "name": "account",
          "type": "address"
        }
      ],
      "name": "revokeRole",
      "outputs": [],
      "stateMutability": "nonpayable",
      "type": "function"
    },
    {
      "inputs": [
        {
          "internalType": "uint256",
          "name": "_citizenId",
          "type": "uint256"
        },
        {
          "internalType": "uint256",
          "name": "voteForCandidateId",
          "type": "uint256"
        },
        {
          "internalType": "uint256",
          "name": "_electionId",
          "type": "uint256"
        }
      ],
      "name": "vote",
      "outputs": [],
      "stateMutability": "nonpayable",
      "type": "function"
    },
    {
      "inputs": [
        {
          "internalType": "uint256",
          "name": "_citizenId",
          "type": "uint256"
        }
      ],
      "name": "getCitizen",
      "outputs": [
        {
          "internalType": "string",
          "name": "name",
          "type": "string"
        },
        {
          "internalType": "int64",
          "name": "dateOfBirth",
          "type": "int64"
        },
        {
          "internalType": "uint256",
          "name": "zipCode",
          "type": "uint256"
        },
        {
          "internalType": "bool",
          "name": "citizenship",
          "type": "bool"
        }
      ],
      "stateMutability": "view",
      "type": "function"
    },
    {
      "inputs": [
        {
          "internalType": "uint256",
          "name": "_tokenId",
          "type": "uint256"
        }
      ],
      "name": "addressAssignedToId",
      "outputs": [
        {
          "internalType": "address",
          "name": "",
          "type": "address"
        }
      ],
      "stateMutability": "view",
      "type": "function"
    },
    {
      "inputs": [
        {
          "internalType": "uint256",
          "name": "_citizenId",
          "type": "uint256"
        },
        {
          "internalType": "address",
          "name": "_citizenAddress",
          "type": "address"
        },
        {
          "internalType": "string",
          "name": "_reasonForLoseOfCitizenship",
          "type": "string"
        }
      ],
      "name": "loseOfCitizenship",
      "outputs": [],
      "stateMutability": "nonpayable",
      "type": "function"
    },
    {
      "inputs": [
        {
          "internalType": "uint256",
          "name": "_candidateId",
          "type": "uint256"
        }
      ],
      "name": "filledOfficePosition",
      "outputs": [],
      "stateMutability": "nonpayable",
      "type": "function"
    },
    {
      "inputs": [],
      "name": "timestamp",
      "outputs": [
        {
          "internalType": "uint64",
          "name": "",
          "type": "uint64"
        }
      ],
      "stateMutability": "view",
      "type": "function"
    },
    {
      "inputs": [
        {
          "internalType": "uint256",
          "name": "_candidateId",
          "type": "uint256"
        }
      ],
      "name": "getTestResultsOfCandidate",
      "outputs": [
        {
          "internalType": "string",
          "name": "_officeTitle",
          "type": "string"
        },
        {
          "internalType": "uint256",
          "name": "_zipCode",
          "type": "uint256"
        },
        {
          "internalType": "string",
          "name": "_candidateName",
          "type": "string"
        },
        {
          "internalType": "uint256",
          "name": "_voteCount",
          "type": "uint256"
        }
      ],
      "stateMutability": "view",
      "type": "function"
    },
    {
      "inputs": [
        {
          "internalType": "uint256",
          "name": "_electionId",
          "type": "uint256"
        }
      ],
      "name": "getTestHighestVoteTotal",
      "outputs": [
        {
          "internalType": "uint64",
          "name": "",
          "type": "uint64"
        }
      ],
      "stateMutability": "view",
      "type": "function"
    },
    {
      "inputs": [
        {
          "internalType": "uint256",
          "name": "_candidateId",
          "type": "uint256"
        }
      ],
      "name": "declareWinnerOfTestElection",
      "outputs": [],
      "stateMutability": "nonpayable",
      "type": "function"
    }
  ],
  "bytecode": "0x60806040523480156200001157600080fd5b50620000276000801b33620000a460201b60201c565b60046001816001815401808255809150500390600052602060002090505060018081600181540180825580915050039060005260206000209050506003600181600181540180825580915050039060005260206000209050506002600181600181540180825580915050039060005260206000209050506200023a565b620000b68282620000ba60201b60201c565b5050565b620000e8816000808581526020019081526020016000206000016200015d60201b62004b061790919060201c565b156200015957620000fe6200019560201b60201c565b73ffffffffffffffffffffffffffffffffffffffff168173ffffffffffffffffffffffffffffffffffffffff16837f2f8788117e7eff1d82e926ec794901d17c78024a50270940304540a733656f0d60405160405180910390a45b5050565b60006200018d836000018373ffffffffffffffffffffffffffffffffffffffff1660001b6200019d60201b60201c565b905092915050565b600033905090565b6000620001b183836200021760201b60201c565b6200020c57826000018290806001815401808255809150506001900390600052602060002001600090919091909150558260000180549050836001016000848152602001908152602001600020819055506001905062000211565b600090505b92915050565b600080836001016000848152602001908152602001600020541415905092915050565b615c67806200024a6000396000f3fe608060405234801561001057600080fd5b50600436106102115760003560e01c80638914a8a011610125578063ca15c873116100ad578063da12095b1161007c578063da12095b146110a6578063dc5c705f1461118c578063e2481dbd146111ba578063eee6f9bd146111d8578063fe9379591461123057610211565b8063ca15c87314610fa4578063ce1b6c2914610fe6578063d0fb300a14611014578063d547741f1461105857610211565b80639d710777116100f45780639d71077714610dc0578063a217fddf14610ed8578063b06b2df114610ef6578063b80777ea14610f4e578063c4cb00d514610f7657610211565b80638914a8a014610bf75780638a6655d614610cb85780639010d07c14610cfa57806391d1485414610d5c57610211565b806336568abe116101a857806358ac5af81161017757806358ac5af81461089257806360a21d4b1461095357806367bb9753146109b35780637ce74d1314610a0b5780637f5880a114610b3657610211565b806336568abe1461067f5780633e80c371146106cd5780635147707514610725578063580cb0b51461077157610211565b80632c051df5116101e45780632c051df5146103cd5780632f2ff15d146104ad578063320db376146104fb57806335b8e8201461056557610211565b8063047720fa1461021657806321f0736414610262578063231816ab146102a6578063248a9ca31461038b575b600080fd5b6102426004803603602081101561022c57600080fd5b8101908080359060200190929190505050611320565b604051808267ffffffffffffffff16815260200191505060405180910390f35b61028e6004803603602081101561027857600080fd5b810190808035906020019092919050505061159c565b60405180821515815260200191505060405180910390f35b610389600480360360608110156102bc57600080fd5b8101908080359060200190929190803573ffffffffffffffffffffffffffffffffffffffff1690602001909291908035906020019064010000000081111561030357600080fd5b82018360208201111561031557600080fd5b8035906020019184600183028401116401000000008311171561033757600080fd5b91908080601f016020809104026020016040519081016040528093929190818152602001838380828437600081840152601f19601f8201169050808301925050505050505091929192905050506115bc565b005b6103b7600480360360208110156103a157600080fd5b81019080803590602001909291905050506115cc565b6040518082815260200191505060405180910390f35b6103f9600480360360208110156103e357600080fd5b81019080803590602001909291905050506115eb565b60405180888152602001806020018760070b81526020018681526020018567ffffffffffffffff1681526020018415158152602001838152602001828103825288818151815260200191508051906020019080838360005b8381101561046c578082015181840152602081019050610451565b50505050905090810190601f1680156104995780820380516001836020036101000a031916815260200191505b509850505050505050505060405180910390f35b6104f9600480360360408110156104c357600080fd5b8101908080359060200190929190803573ffffffffffffffffffffffffffffffffffffffff1690602001909291905050506116f3565b005b61054f6004803603606081101561051157600080fd5b8101908080359060200190929190803567ffffffffffffffff169060200190929190803567ffffffffffffffff16906020019092919050505061177c565b6040518082815260200191505060405180910390f35b6105916004803603602081101561057b57600080fd5b8101908080359060200190929190505050611b92565b604051808060200180602001848152602001838103835286818151815260200191508051906020019080838360005b838110156105db5780820151818401526020810190506105c0565b50505050905090810190601f1680156106085780820380516001836020036101000a031916815260200191505b50838103825285818151815260200191508051906020019080838360005b83811015610641578082015181840152602081019050610626565b50505050905090810190601f16801561066e5780820380516001836020036101000a031916815260200191505b509550505050505060405180910390f35b6106cb6004803603604081101561069557600080fd5b8101908080359060200190929190803573ffffffffffffffffffffffffffffffffffffffff169060200190929190505050611e6b565b005b6106f9600480360360208110156106e357600080fd5b8101908080359060200190929190505050611f04565b604051808273ffffffffffffffffffffffffffffffffffffffff16815260200191505060405180910390f35b6107516004803603602081101561073b57600080fd5b8101908080359060200190929190505050611f41565b604051808267ffffffffffffffff16815260200191505060405180910390f35b61079d6004803603602081101561078757600080fd5b81019080803590602001909291905050506121c0565b604051808060200185815260200180602001848152602001838103835287818151815260200191508051906020019080838360005b838110156107ed5780820151818401526020810190506107d2565b50505050905090810190601f16801561081a5780820380516001836020036101000a031916815260200191505b50838103825285818151815260200191508051906020019080838360005b83811015610853578082015181840152602081019050610838565b50505050905090810190601f1680156108805780820380516001836020036101000a031916815260200191505b50965050505050505060405180910390f35b6108be600480360360208110156108a857600080fd5b81019080803590602001909291905050506123c4565b60405180806020018560070b81526020018481526020018315158152602001828103825286818151815260200191508051906020019080838360005b838110156109155780820151818401526020810190506108fa565b50505050905090810190601f1680156109425780820380516001836020036101000a031916815260200191505b509550505050505060405180910390f35b61099d6004803603608081101561096957600080fd5b8101908080359060200190929190803590602001909291908035906020019092919080359060200190929190505050612592565b6040518082815260200191505060405180910390f35b6109df600480360360208110156109c957600080fd5b8101908080359060200190929190505050612f8d565b604051808273ffffffffffffffffffffffffffffffffffffffff16815260200191505060405180910390f35b610a3760048036036020811015610a2157600080fd5b8101908080359060200190929190505050612fc0565b6040518080602001858152602001806020018467ffffffffffffffff168152602001838103835287818151815260200191508051906020019080838360005b83811015610a91578082015181840152602081019050610a76565b50505050905090810190601f168015610abe5780820380516001836020036101000a031916815260200191505b50838103825285818151815260200191508051906020019080838360005b83811015610af7578082015181840152602081019050610adc565b50505050905090810190601f168015610b245780820380516001836020036101000a031916815260200191505b50965050505050505060405180910390f35b610b6260048036036020811015610b4c57600080fd5b810190808035906020019092919050505061323f565b60405180806020018581526020018460070b81526020018315158152602001828103825286818151815260200191508051906020019080838360005b83811015610bb9578082015181840152602081019050610b9e565b50505050905090810190601f168015610be65780820380516001836020036101000a031916815260200191505b509550505050505060405180910390f35b610c2360048036036020811015610c0d57600080fd5b8101908080359060200190929190505050613349565b60405180806020018560070b81526020018481526020018315158152602001828103825286818151815260200191508051906020019080838360005b83811015610c7a578082015181840152602081019050610c5f565b50505050905090810190601f168015610ca75780820380516001836020036101000a031916815260200191505b509550505050505060405180910390f35b610cf860048036036060811015610cce57600080fd5b81019080803590602001909291908035906020019092919080359060200190929190505050613368565b005b610d3060048036036040811015610d1057600080fd5b810190808035906020019092919080359060200190929190505050613b79565b604051808273ffffffffffffffffffffffffffffffffffffffff16815260200191505060405180910390f35b610da860048036036040811015610d7257600080fd5b8101908080359060200190929190803573ffffffffffffffffffffffffffffffffffffffff169060200190929190505050613baa565b60405180821515815260200191505060405180910390f35b610dec60048036036020811015610dd657600080fd5b8101908080359060200190929190505050613bdb565b60405180806020018681526020018567ffffffffffffffff1681526020018467ffffffffffffffff16815260200180602001838103835288818151815260200191508051906020019080838360005b83811015610e56578082015181840152602081019050610e3b565b50505050905090810190601f168015610e835780820380516001836020036101000a031916815260200191505b50838103825284818151815260200191508051906020019060200280838360005b83811015610ebf578082015181840152602081019050610ea4565b5050505090500197505050505050505060405180910390f35b610ee0613de0565b6040518082815260200191505060405180910390f35b610f3860048036036020811015610f0c57600080fd5b81019080803573ffffffffffffffffffffffffffffffffffffffff169060200190929190505050613de7565b6040518082815260200191505060405180910390f35b610f56613ecf565b604051808267ffffffffffffffff16815260200191505060405180910390f35b610fa260048036036020811015610f8c57600080fd5b8101908080359060200190929190505050613ed7565b005b610fd060048036036020811015610fba57600080fd5b81019080803590602001909291905050506140a5565b6040518082815260200191505060405180910390f35b61101260048036036020811015610ffc57600080fd5b81019080803590602001909291905050506140cb565b005b6110406004803603602081101561102a57600080fd5b810190808035906020019092919050505061433a565b60405180821515815260200191505060405180910390f35b6110a46004803603604081101561106e57600080fd5b8101908080359060200190929190803573ffffffffffffffffffffffffffffffffffffffff16906020019092919050505061435a565b005b611176600480360360608110156110bc57600080fd5b81019080803590602001906401000000008111156110d957600080fd5b8201836020820111156110eb57600080fd5b8035906020019184600183028401116401000000008311171561110d57600080fd5b91908080601f016020809104026020016040519081016040528093929190818152602001838380828437600081840152601f19601f82011690508083019250505050505050919291929080359060200190929190803560070b90602001909291905050506143e3565b6040518082815260200191505060405180910390f35b6111b8600480360360208110156111a257600080fd5b810190808035906020019092919050505061467a565b005b6111c2614686565b6040518082815260200191505060405180910390f35b61121a600480360360208110156111ee57600080fd5b81019080803573ffffffffffffffffffffffffffffffffffffffff1690602001909291905050506146aa565b6040518082815260200191505060405180910390f35b61130a6004803603608081101561124657600080fd5b810190808035906020019064010000000081111561126357600080fd5b82018360208201111561127557600080fd5b8035906020019184600183028401116401000000008311171561129757600080fd5b91908080601f016020809104026020016040519081016040528093929190818152602001838380828437600081840152601f19601f820116905080830192505050505050509192919290803560070b906020019092919080359060200190929190803590602001909291905050506146c2565b6040518082815260200191505060405180910390f35b600061132a61554f565b6004838154811061133757fe5b90600052602060002090600402016040518060a0016040529081600082015481526020016001820160009054906101000a900467ffffffffffffffff1667ffffffffffffffff1667ffffffffffffffff1681526020016001820160089054906101000a900467ffffffffffffffff1667ffffffffffffffff1667ffffffffffffffff168152602001600282015481526020016003820180548060200260200160405190810160405280929190818152602001828054801561141757602002820191906000526020600020905b815481526020019060010190808311611403575b5050505050815250509050600115156114336000801b33613baa565b15151461148b576040517f08c379a0000000000000000000000000000000000000000000000000000000008152600401808060200182810382526023815260200180615b246023913960400191505060405180910390fd5b600080600090505b826080015151811015611591576114a8615592565b600282815481106114b557fe5b90600052602060002090600502016040518060c00160405290816000820154815260200160018201548152602001600282015481526020016003820160009054906101000a900467ffffffffffffffff1667ffffffffffffffff1667ffffffffffffffff1681526020016003820160089054906101000a900467ffffffffffffffff1667ffffffffffffffff1667ffffffffffffffff16815260200160048201548152505090508267ffffffffffffffff16816060015167ffffffffffffffff161061158357806060015192505b508080600101915050611493565b819350505050919050565b600a6020528060005260406000206000915054906101000a900460ff1681565b6115c7838383614b36565b505050565b6000806000838152602001908152602001600020600201549050919050565b6007602052806000526040600020600091509050806000015490806001018054600181600116156101000203166002900480601f01602080910402602001604051908101604052809291908181526020018280546001816001161561010002031660029004801561169d5780601f106116725761010080835404028352916020019161169d565b820191906000526020600020905b81548152906001019060200180831161168057829003601f168201915b5050505050908060020160009054906101000a900460070b908060030154908060040160009054906101000a900467ffffffffffffffff16908060040160089054906101000a900460ff16908060050154905087565b61171960008084815260200190815260200160002060020154611714614e63565b613baa565b61176e576040517f08c379a000000000000000000000000000000000000000000000000000000000815260040180806020018281038252602f815260200180615724602f913960400191505060405180910390fd5b6117788282614e6b565b5050565b600060011515600b600086815260200190815260200160002060009054906101000a900460ff16151514611818576040517f08c379a000000000000000000000000000000000000000000000000000000000815260040180806020018281038252601d8152602001807f4f6666696365206973204e4f5420757020666f7220656c656374696f6e00000081525060200191505060405180910390fd5b600115156118296000801b33613baa565b151514806118645750600115156118607fb7f8beecafe1ad662cec1153812612581a86b9460f21b876f3ee163141203dcb33613baa565b1515145b6118b9576040517f08c379a000000000000000000000000000000000000000000000000000000000815260040180806020018281038252602e815260200180615c04602e913960400191505060405180910390fd5b6004600181600181540180825580915050039060005260206000209050506118df6155dc565b600385815481106118ec57fe5b90600052602060002090600402016040518060a0016040529081600082018054600181600116156101000203166002900480601f01602080910402602001604051908101604052809291908181526020018280546001816001161561010002031660029004801561199e5780601f106119735761010080835404028352916020019161199e565b820191906000526020600020905b81548152906001019060200180831161198157829003601f168201915b50505050508152602001600182015481526020016002820160009054906101000a900460070b60070b60070b81526020016002820160089054906101000a900467ffffffffffffffff1667ffffffffffffffff1667ffffffffffffffff16815260200160038201548152505090506000600460016004805490500381548110611a2357fe5b90600052602060002090600402019050858160000181905550848160010160006101000a81548167ffffffffffffffff021916908367ffffffffffffffff160217905550838160010160086101000a81548167ffffffffffffffff021916908367ffffffffffffffff1602179055506004805490508160020181905550600060016004805490500390507fa951106ad0f6639e96325687aa3ef355f8b1d0e0a7bce6446da8c7971a2c04698360000151846020015188888560405180806020018681526020018567ffffffffffffffff1681526020018467ffffffffffffffff168152602001838152602001828103825287818151815260200191508051906020019080838360005b83811015611b47578082015181840152602081019050611b2c565b50505050905090810190601f168015611b745780820380516001836020036101000a031916815260200191505b50965050505050505060405180910390a18093505050509392505050565b60608060008060028581548110611ba557fe5b90600052602060002090600502019050611bbd6155dc565b6003826001015481548110611bce57fe5b90600052602060002090600402016040518060a0016040529081600082018054600181600116156101000203166002900480601f016020809104026020016040519081016040528092919081815260200182805460018160011615610100020316600290048015611c805780601f10611c5557610100808354040283529160200191611c80565b820191906000526020600020905b815481529060010190602001808311611c6357829003601f168201915b50505050508152602001600182015481526020016002820160009054906101000a900460070b60070b60070b81526020016002820160089054906101000a900467ffffffffffffffff1667ffffffffffffffff1667ffffffffffffffff1681526020016003820154815250509050611cf6615618565b6001836000015481548110611d0757fe5b90600052602060002090600602016040518060e001604052908160008201548152602001600182018054600181600116156101000203166002900480601f016020809104026020016040519081016040528092919081815260200182805460018160011615610100020316600290048015611dc35780601f10611d9857610100808354040283529160200191611dc3565b820191906000526020600020905b815481529060010190602001808311611da657829003601f168201915b505050505081526020016002820160009054906101000a900460070b60070b60070b8152602001600382015481526020016004820160009054906101000a900467ffffffffffffffff1667ffffffffffffffff1667ffffffffffffffff1681526020016004820160089054906101000a900460ff1615151515815260200160058201548152505090508060200151955081600001519450816020015193505050509193909250565b611e73614e63565b73ffffffffffffffffffffffffffffffffffffffff168173ffffffffffffffffffffffffffffffffffffffff1614611ef6576040517f08c379a000000000000000000000000000000000000000000000000000000000815260040180806020018281038252602f815260200180615bd5602f913960400191505060405180910390fd5b611f008282614efe565b5050565b60006005600083815260200190815260200160002060009054906101000a900473ffffffffffffffffffffffffffffffffffffffff169050919050565b6000611f4b61554f565b60048381548110611f5857fe5b90600052602060002090600402016040518060a0016040529081600082015481526020016001820160009054906101000a900467ffffffffffffffff1667ffffffffffffffff1667ffffffffffffffff1681526020016001820160089054906101000a900467ffffffffffffffff1667ffffffffffffffff1667ffffffffffffffff168152602001600282015481526020016003820180548060200260200160405190810160405280929190818152602001828054801561203857602002820191906000526020600020905b815481526020019060010190808311612024575b50505050508152505090504267ffffffffffffffff16816040015167ffffffffffffffff1611156120b4576040517f08c379a000000000000000000000000000000000000000000000000000000000815260040180806020018281038252604b815260200180615866604b913960600191505060405180910390fd5b6000805b82608001515181116121b5576120cc615592565b600282815481106120d957fe5b90600052602060002090600502016040518060c00160405290816000820154815260200160018201548152602001600282015481526020016003820160009054906101000a900467ffffffffffffffff1667ffffffffffffffff1667ffffffffffffffff1681526020016003820160089054906101000a900467ffffffffffffffff1667ffffffffffffffff1667ffffffffffffffff16815260200160048201548152505090508267ffffffffffffffff16816060015167ffffffffffffffff16106121a757806060015192505b5080806001019150506120b8565b508092505050919050565b606060006060600080600286815481106121d657fe5b90600052602060002090600502019050600060018260000154815481106121f957fe5b906000526020600020906006020190506000600483600201548154811061221c57fe5b906000526020600020906004020190506000600382600001548154811061223f57fe5b90600052602060002090600402019050806000018054600181600116156101000203166002900480601f0160208091040260200160405190810160405280929190818152602001828054600181600116156101000203166002900480156122e75780601f106122bc576101008083540402835291602001916122e7565b820191906000526020600020905b8154815290600101906020018083116122ca57829003601f168201915b5050505050975080600101549650826001018054600181600116156101000203166002900480601f01602080910402602001604051908101604052809291908181526020018280546001816001161561010002031660029004801561238d5780601f106123625761010080835404028352916020019161238d565b820191906000526020600020905b81548152906001019060200180831161237057829003601f168201915b505050505095508360030160009054906101000a900467ffffffffffffffff1667ffffffffffffffff169450505050509193509193565b606060008060003373ffffffffffffffffffffffffffffffffffffffff166005600087815260200190815260200160002060009054906101000a900473ffffffffffffffffffffffffffffffffffffffff1673ffffffffffffffffffffffffffffffffffffffff1614806124485750600115156124446000801b33613baa565b1515145b61249d576040517f08c379a00000000000000000000000000000000000000000000000000000000081526004018080602001828103825260308152602001806157886030913960400191505060405180910390fd5b6000600186815481106124ac57fe5b90600052602060002090600602019050806001018054600181600116156101000203166002900480601f0160208091040260200160405190810160405280929190818152602001828054600181600116156101000203166002900480156125545780601f1061252957610100808354040283529160200191612554565b820191906000526020600020905b81548152906001019060200180831161253757829003601f168201915b505050505094508060020160009054906101000a900460070b9350806003015492508060040160089054906101000a900460ff169150509193509193565b6000600115156008600086815260200190815260200160002060009054906101000a900460ff16151514612611576040517f08c379a0000000000000000000000000000000000000000000000000000000008152600401808060200182810382526029815260200180615a2f6029913960400191505060405180910390fd5b60011515600960003373ffffffffffffffffffffffffffffffffffffffff1673ffffffffffffffffffffffffffffffffffffffff16815260200190815260200160002060009054906101000a900460ff161515146126ba576040517f08c379a000000000000000000000000000000000000000000000000000000000815260040180806020018281038252602b815260200180615a58602b913960400191505060405180910390fd5b3373ffffffffffffffffffffffffffffffffffffffff166005600087815260200190815260200160002060009054906101000a900473ffffffffffffffffffffffffffffffffffffffff1673ffffffffffffffffffffffffffffffffffffffff1614612771576040517f08c379a000000000000000000000000000000000000000000000000000000000815260040180806020018281038252603781526020018061597e6037913960400191505060405180910390fd5b612779615618565b600760008781526020019081526020016000206040518060e001604052908160008201548152602001600182018054600181600116156101000203166002900480601f01602080910402602001604051908101604052809291908181526020018280546001816001161561010002031660029004801561283a5780601f1061280f5761010080835404028352916020019161283a565b820191906000526020600020905b81548152906001019060200180831161281d57829003601f168201915b505050505081526020016002820160009054906101000a900460070b60070b60070b8152602001600382015481526020016004820160009054906101000a900467ffffffffffffffff1667ffffffffffffffff1667ffffffffffffffff1681526020016004820160089054906101000a900460ff1615151515815260200160058201548152505090506128cb6155dc565b600385815481106128d857fe5b90600052602060002090600402016040518060a0016040529081600082018054600181600116156101000203166002900480601f01602080910402602001604051908101604052809291908181526020018280546001816001161561010002031660029004801561298a5780601f1061295f5761010080835404028352916020019161298a565b820191906000526020600020905b81548152906001019060200180831161296d57829003601f168201915b50505050508152602001600182015481526020016002820160009054906101000a900460070b60070b60070b81526020016002820160089054906101000a900467ffffffffffffffff1667ffffffffffffffff1667ffffffffffffffff1681526020016003820154815250509050612a0061554f565b60048581548110612a0d57fe5b90600052602060002090600402016040518060a0016040529081600082015481526020016001820160009054906101000a900467ffffffffffffffff1667ffffffffffffffff1667ffffffffffffffff1681526020016001820160089054906101000a900467ffffffffffffffff1667ffffffffffffffff1667ffffffffffffffff1681526020016002820154815260200160038201805480602002602001604051908101604052809291908181526020018280548015612aed57602002820191906000526020600020905b815481526020019060010190808311612ad9575b5050505050815250509050600115158360a00151151514612b76576040517f08c379a000000000000000000000000000000000000000000000000000000000815260040180806020018281038252601b8152602001807f596f7520617265206e6f206c6f6e676572206120636974697a656e000000000081525060200191505060405180910390fd5b86836000015114612bd2576040517f08c379a0000000000000000000000000000000000000000000000000000000008152600401808060200182810382526026815260200180615ada6026913960400191505060405180910390fd5b60011515600b600088815260200190815260200160002060009054906101000a900460ff16151514612c6c576040517f08c379a000000000000000000000000000000000000000000000000000000000815260040180806020018281038252601d8152602001807f4f6666696365206973204e4f5420757020666f7220656c656374696f6e00000081525060200191505060405180910390fd5b826040015160070b826040015160070b1215612cd3576040517f08c379a000000000000000000000000000000000000000000000000000000000815260040180806020018281038252602b8152602001806157b8602b913960400191505060405180910390fd5b612cdb615592565b6040518060c001604052808a8152602001888152602001878152602001600067ffffffffffffffff1681526020014267ffffffffffffffff1681526020016002805490508152509050600281908060018154018082558091505060019003906000526020600020906005020160009091909190915060008201518160000155602082015181600101556040820151816002015560608201518160030160006101000a81548167ffffffffffffffff021916908367ffffffffffffffff16021790555060808201518160030160086101000a81548167ffffffffffffffff021916908367ffffffffffffffff16021790555060a0820151816004015550506000600160028054905003905060048781548110612df257fe5b90600052602060002090600402016003018190806001815401808255809150506001900390600052602060002001600090919091909150556001600a600083815260200190815260200160002060006101000a81548160ff0219169083151502179055507f891e756eff7201520283922fc3ede4d874d465693e19f7cbb4fd2555b3b63e0a8560200151856000015185602001516040518080602001806020018467ffffffffffffffff168152602001838103835286818151815260200191508051906020019080838360005b83811015612eda578082015181840152602081019050612ebf565b50505050905090810190601f168015612f075780820380516001836020036101000a031916815260200191505b50838103825285818151815260200191508051906020019080838360005b83811015612f40578082015181840152602081019050612f25565b50505050905090810190601f168015612f6d5780820380516001836020036101000a031916815260200191505b509550505050505060405180910390a18095505050505050949350505050565b60056020528060005260406000206000915054906101000a900473ffffffffffffffffffffffffffffffffffffffff1681565b60606000606060008060028681548110612fd657fe5b9060005260206000209060050201905060006001826000015481548110612ff957fe5b906000526020600020906006020190506000600483600201548154811061301c57fe5b906000526020600020906004020190504267ffffffffffffffff168160010160089054906101000a900467ffffffffffffffff1667ffffffffffffffff1611156130b1576040517f08c379a000000000000000000000000000000000000000000000000000000000815260040180806020018281038252604a8152602001806159e5604a913960600191505060405180910390fd5b600060038260000154815481106130c457fe5b90600052602060002090600402019050806000018054600181600116156101000203166002900480601f01602080910402602001604051908101604052809291908181526020018280546001816001161561010002031660029004801561316c5780601f106131415761010080835404028352916020019161316c565b820191906000526020600020905b81548152906001019060200180831161314f57829003601f168201915b5050505050975080600101549650826001018054600181600116156101000203166002900480601f0160208091040260200160405190810160405280929190818152602001828054600181600116156101000203166002900480156132125780601f106131e757610100808354040283529160200191613212565b820191906000526020600020905b8154815290600101906020018083116131f557829003601f168201915b505050505095508360030160009054906101000a900467ffffffffffffffff169450505050509193509193565b60606000806000806003868154811061325457fe5b90600052602060002090600402019050806000018054600181600116156101000203166002900480601f0160208091040260200160405190810160405280929190818152602001828054600181600116156101000203166002900480156132fc5780601f106132d1576101008083540402835291602001916132fc565b820191906000526020600020905b8154815290600101906020018083116132df57829003601f168201915b50505050509450806001015493508060020160009054906101000a900460070b9250600b600087815260200190815260200160002060009054906101000a900460ff169150509193509193565b60606000806000613359856123c4565b93509350935093509193509193565b3373ffffffffffffffffffffffffffffffffffffffff166005600085815260200190815260200160002060009054906101000a900473ffffffffffffffffffffffffffffffffffffffff1673ffffffffffffffffffffffffffffffffffffffff161461341f576040517f08c379a000000000000000000000000000000000000000000000000000000000815260040180806020018281038252602b815260200180615a83602b913960400191505060405180910390fd5b60011515600960003373ffffffffffffffffffffffffffffffffffffffff1673ffffffffffffffffffffffffffffffffffffffff16815260200190815260200160002060009054906101000a900460ff161515146134c8576040517f08c379a0000000000000000000000000000000000000000000000000000000008152600401808060200182810382526024815260200180615b006024913960400191505060405180910390fd5b6134d0615618565b600760008581526020019081526020016000206040518060e001604052908160008201548152602001600182018054600181600116156101000203166002900480601f0160208091040260200160405190810160405280929190818152602001828054600181600116156101000203166002900480156135915780601f1061356657610100808354040283529160200191613591565b820191906000526020600020905b81548152906001019060200180831161357457829003601f168201915b505050505081526020016002820160009054906101000a900460070b60070b60070b8152602001600382015481526020016004820160009054906101000a900467ffffffffffffffff1667ffffffffffffffff1667ffffffffffffffff1681526020016004820160089054906101000a900460ff161515151581526020016005820154815250509050600115158160a00151151514613698576040517f08c379a000000000000000000000000000000000000000000000000000000000815260040180806020018281038252601b8152602001807f596f7520617265206e6f206c6f6e676572206120636974697a656e000000000081525060200191505060405180910390fd5b6136a061554f565b600483815481106136ad57fe5b90600052602060002090600402016040518060a0016040529081600082015481526020016001820160009054906101000a900467ffffffffffffffff1667ffffffffffffffff1667ffffffffffffffff1681526020016001820160089054906101000a900467ffffffffffffffff1667ffffffffffffffff1667ffffffffffffffff168152602001600282015481526020016003820180548060200260200160405190810160405280929190818152602001828054801561378d57602002820191906000526020600020905b815481526020019060010190808311613779575b50505050508152505090504267ffffffffffffffff16816020015167ffffffffffffffff161115613826576040517f08c379a000000000000000000000000000000000000000000000000000000000815260040180806020018281038252601f8152602001807f54686520656c656374696f6e20686173206e6f74206f70656e6564207965740081525060200191505060405180910390fd5b4267ffffffffffffffff16816040015167ffffffffffffffff1610156138b4576040517f08c379a000000000000000000000000000000000000000000000000000000000815260040180806020018281038252601e8152602001807f54686520656c656374696f6e206973206e6f206c6f6e676572206f70656e000081525060200191505060405180910390fd5b6138bc6155dc565b60038260000151815481106138cd57fe5b90600052602060002090600402016040518060a0016040529081600082018054600181600116156101000203166002900480601f01602080910402602001604051908101604052809291908181526020018280546001816001161561010002031660029004801561397f5780601f106139545761010080835404028352916020019161397f565b820191906000526020600020905b81548152906001019060200180831161396257829003601f168201915b50505050508152602001600182015481526020016002820160009054906101000a900460070b60070b60070b81526020016002820160089054906101000a900467ffffffffffffffff1667ffffffffffffffff1667ffffffffffffffff16815260200160038201548152505090508060200151836060015114613a4d576040517f08c379a000000000000000000000000000000000000000000000000000000000815260040180806020018281038252603d8152602001806158e8603d913960400191505060405180910390fd5b600060028681548110613a5c57fe5b9060005260206000209060050201905082600001518160010154148015613a865750848160020154145b613adb576040517f08c379a000000000000000000000000000000000000000000000000000000000815260040180806020018281038252602c815260200180615aae602c913960400191505060405180910390fd5b60018160030160008282829054906101000a900467ffffffffffffffff160192506101000a81548167ffffffffffffffff021916908367ffffffffffffffff1602179055507e49e9a81233825e4f5949eb5b06cce97b4f086f6981805188b1e12c5cf638e4868642604051808481526020018381526020018267ffffffffffffffff168152602001935050505060405180910390a150505050505050565b6000613ba282600080868152602001908152602001600020600001614f9190919063ffffffff16565b905092915050565b6000613bd382600080868152602001908152602001600020600001614fab90919063ffffffff16565b905092915050565b606060008060006060600060048781548110613bf357fe5b90600052602060002090600402019050613c0b6155dc565b6003826000015481548110613c1c57fe5b90600052602060002090600402016040518060a0016040529081600082018054600181600116156101000203166002900480601f016020809104026020016040519081016040528092919081815260200182805460018160011615610100020316600290048015613cce5780601f10613ca357610100808354040283529160200191613cce565b820191906000526020600020905b815481529060010190602001808311613cb157829003601f168201915b50505050508152602001600182015481526020016002820160009054906101000a900460070b60070b60070b81526020016002820160089054906101000a900467ffffffffffffffff1667ffffffffffffffff1667ffffffffffffffff168152602001600382015481525050905080600001519650806020015195508160010160009054906101000a900467ffffffffffffffff1694508160010160089054906101000a900467ffffffffffffffff16935081600301805480602002602001604051908101604052809291908181526020018280548015613dce57602002820191906000526020600020905b815481526020019060010190808311613dba575b50505050509250505091939590929450565b6000801b81565b60008173ffffffffffffffffffffffffffffffffffffffff163373ffffffffffffffffffffffffffffffffffffffff161480613e33575060011515613e2f6000801b33613baa565b1515145b613e88576040517f08c379a00000000000000000000000000000000000000000000000000000000081526004018080602001828103825260308152602001806157886030913960400191505060405180910390fd5b600660008373ffffffffffffffffffffffffffffffffffffffff1673ffffffffffffffffffffffffffffffffffffffff168152602001908152602001600020549050919050565b600042905090565b613edf615592565b60028281548110613eec57fe5b90600052602060002090600502016040518060c00160405290816000820154815260200160018201548152602001600282015481526020016003820160009054906101000a900467ffffffffffffffff1667ffffffffffffffff1667ffffffffffffffff1681526020016003820160089054906101000a900467ffffffffffffffff1667ffffffffffffffff1667ffffffffffffffff1681526020016004820154815250509050806060015167ffffffffffffffff16613faf8260400151611320565b67ffffffffffffffff161461400f576040517f08c379a00000000000000000000000000000000000000000000000000000000081526004018080602001828103825260378152602001806158b16037913960400191505060405180910390fd5b6140188261467a565b7f737019d53070b31742678ee65b3baa855c9cb034d73d970a17e2b352a3d773e582826020015183606001514233604051808681526020018581526020018467ffffffffffffffff1681526020018367ffffffffffffffff1681526020018273ffffffffffffffffffffffffffffffffffffffff1681526020019550505050505060405180910390a15050565b60006140c4600080848152602001908152602001600020600001614fdb565b9050919050565b6140d3615592565b600282815481106140e057fe5b90600052602060002090600502016040518060c00160405290816000820154815260200160018201548152602001600282015481526020016003820160009054906101000a900467ffffffffffffffff1667ffffffffffffffff1667ffffffffffffffff1681526020016003820160089054906101000a900467ffffffffffffffff1667ffffffffffffffff1667ffffffffffffffff1681526020016004820154815250509050806060015167ffffffffffffffff166141a38260400151611f41565b67ffffffffffffffff1614614203576040517f08c379a00000000000000000000000000000000000000000000000000000000081526004018080602001828103825260378152602001806158b16037913960400191505060405180910390fd5b600115156142146000801b33613baa565b1515148061424f57506001151561424b7fb7f8beecafe1ad662cec1153812612581a86b9460f21b876f3ee163141203dcb33613baa565b1515145b6142a4576040517f08c379a000000000000000000000000000000000000000000000000000000000815260040180806020018281038252603d815260200180615b47603d913960400191505060405180910390fd5b6142ad82614ff0565b7f737019d53070b31742678ee65b3baa855c9cb034d73d970a17e2b352a3d773e582826020015183606001514233604051808681526020018581526020018467ffffffffffffffff1681526020018367ffffffffffffffff1681526020018273ffffffffffffffffffffffffffffffffffffffff1681526020019550505050505060405180910390a15050565b600b6020528060005260406000206000915054906101000a900460ff1681565b6143806000808481526020019081526020016000206002015461437b614e63565b613baa565b6143d5576040517f08c379a00000000000000000000000000000000000000000000000000000000081526004018080602001828103825260308152602001806159b56030913960400191505060405180910390fd5b6143df8282614efe565b5050565b6000600115156143f66000801b33613baa565b1515148061443157506001151561442d7fb7f8beecafe1ad662cec1153812612581a86b9460f21b876f3ee163141203dcb33613baa565b1515145b614486576040517f08c379a00000000000000000000000000000000000000000000000000000000081526004018080602001828103825260358152602001806157536035913960400191505060405180910390fd5b61448e6155dc565b6040518060a001604052808681526020018581526020018460070b81526020014267ffffffffffffffff168152602001600380549050815250905060038190806001815401808255809150506001900390600052602060002090600402016000909190919091506000820151816000019080519060200190614511929190615664565b506020820151816001015560408201518160020160006101000a81548167ffffffffffffffff021916908360070b67ffffffffffffffff16021790555060608201518160020160086101000a81548167ffffffffffffffff021916908367ffffffffffffffff160217905550608082015181600301555050600060016003805490500390506001600b600083815260200190815260200160002060006101000a81548160ff0219169083151502179055507fb88277fa8c66993083f7ebdd5f92a7991cf4ed8d4957b20268880dca91a50bdb8686836040518080602001848152602001838152602001828103825285818151815260200191508051906020019080838360005b83811015614632578082015181840152602081019050614617565b50505050905090810190601f16801561465f5780820380516001836020036101000a031916815260200191505b5094505050505060405180910390a180925050509392505050565b61468381614ff0565b50565b7fb7f8beecafe1ad662cec1153812612581a86b9460f21b876f3ee163141203dcb81565b60066020528060005260406000206000915090505481565b60008015156008600084815260200190815260200160002060009054906101000a900460ff16151514614740576040517f08c379a0000000000000000000000000000000000000000000000000000000008152600401808060200182810382526029815260200180615bac6029913960400191505060405180910390fd5b60001515600960003373ffffffffffffffffffffffffffffffffffffffff1673ffffffffffffffffffffffffffffffffffffffff16815260200190815260200160002060009054906101000a900460ff161515146147e9576040517f08c379a00000000000000000000000000000000000000000000000000000000081526004018080602001828103825260288152602001806158186028913960400191505060405180910390fd5b6147f1615618565b6040518060e001604052808481526020018781526020018660070b81526020018581526020014267ffffffffffffffff1681526020016001151581526020016001805490508152509050600181908060018154018082558091505060019003906000526020600020906006020160009091909190915060008201518160000155602082015181600101908051906020019061488d929190615664565b5060408201518160020160006101000a81548167ffffffffffffffff021916908360070b67ffffffffffffffff1602179055506060820151816003015560808201518160040160006101000a81548167ffffffffffffffff021916908367ffffffffffffffff16021790555060a08201518160040160086101000a81548160ff02191690831515021790555060c08201518160050155505060006001808054905003905060016008600086815260200190815260200160002060006101000a81548160ff0219169083151502179055506001600960003373ffffffffffffffffffffffffffffffffffffffff1673ffffffffffffffffffffffffffffffffffffffff16815260200190815260200160002060006101000a81548160ff02191690831515021790555081600760008381526020019081526020016000206000820151816000015560208201518160010190805190602001906149ef929190615664565b5060408201518160020160006101000a81548167ffffffffffffffff021916908360070b67ffffffffffffffff1602179055506060820151816003015560808201518160040160006101000a81548167ffffffffffffffff021916908367ffffffffffffffff16021790555060a08201518160040160086101000a81548160ff02191690831515021790555060c082015181600501559050507fa12daf0dc9e98c44420339df34fbae8835074be1a972516ca7363d867ca01d9c33828688604051808573ffffffffffffffffffffffffffffffffffffffff16815260200184815260200183815260200182815260200194505050505060405180910390a1614af960003383615202565b8092505050949350505050565b6000614b2e836000018373ffffffffffffffffffffffffffffffffffffffff1660001b615310565b905092915050565b60011515614b476000801b33613baa565b151514614b9f576040517f08c379a00000000000000000000000000000000000000000000000000000000081526004018080602001828103825260358152602001806157e36035913960400191505060405180910390fd5b8173ffffffffffffffffffffffffffffffffffffffff166005600085815260200190815260200160002060009054906101000a900473ffffffffffffffffffffffffffffffffffffffff1673ffffffffffffffffffffffffffffffffffffffff1614614c56576040517f08c379a0000000000000000000000000000000000000000000000000000000008152600401808060200182810382526028815260200180615b846028913960400191505060405180910390fd5b8173ffffffffffffffffffffffffffffffffffffffff163373ffffffffffffffffffffffffffffffffffffffff161415614cdb576040517f08c379a00000000000000000000000000000000000000000000000000000000081526004018080602001828103825260268152602001806158406026913960400191505060405180910390fd5b60006008600085815260200190815260200160002060006101000a81548160ff0219169083151502179055506000600960008473ffffffffffffffffffffffffffffffffffffffff1673ffffffffffffffffffffffffffffffffffffffff16815260200190815260200160002060006101000a81548160ff021916908315150217905550600060018481548110614d6e57fe5b9060005260206000209060060201905060008160040160086101000a81548160ff0219169083151502179055507f5dbf89e749b723e87d5232ef46f9acbeb85bcfccd0c9d7c18c1993d9de5c0670848484604051808481526020018373ffffffffffffffffffffffffffffffffffffffff16815260200180602001828103825283818151815260200191508051906020019080838360005b83811015614e21578082015181840152602081019050614e06565b50505050905090810190601f168015614e4e5780820380516001836020036101000a031916815260200191505b5094505050505060405180910390a150505050565b600033905090565b614e9281600080858152602001908152602001600020600001614b0690919063ffffffff16565b15614efa57614e9f614e63565b73ffffffffffffffffffffffffffffffffffffffff168173ffffffffffffffffffffffffffffffffffffffff16837f2f8788117e7eff1d82e926ec794901d17c78024a50270940304540a733656f0d60405160405180910390a45b5050565b614f258160008085815260200190815260200160002060000161538090919063ffffffff16565b15614f8d57614f32614e63565b73ffffffffffffffffffffffffffffffffffffffff168173ffffffffffffffffffffffffffffffffffffffff16837ff6391f5c32d9c69d2a47ea670b442974b53935d1edc7fd64eb21e047a839171b60405160405180910390a45b5050565b6000614fa083600001836153b0565b60001c905092915050565b6000614fd3836000018373ffffffffffffffffffffffffffffffffffffffff1660001b615433565b905092915050565b6000614fe982600001615456565b9050919050565b600115156150016000801b33613baa565b1515148061503c5750600115156150387fb7f8beecafe1ad662cec1153812612581a86b9460f21b876f3ee163141203dcb33613baa565b1515145b615091576040517f08c379a000000000000000000000000000000000000000000000000000000000815260040180806020018281038252603481526020018061594a6034913960400191505060405180910390fd5b615099615592565b600282815481106150a657fe5b90600052602060002090600502016040518060c00160405290816000820154815260200160018201548152602001600282015481526020016003820160009054906101000a900467ffffffffffffffff1667ffffffffffffffff1667ffffffffffffffff1681526020016003820160089054906101000a900467ffffffffffffffff1667ffffffffffffffff1667ffffffffffffffff168152602001600482015481525050905060011515600b60008360200151815260200190815260200160002060009054906101000a900460ff161515146151ce576040517f08c379a00000000000000000000000000000000000000000000000000000000081526004018080602001828103825260258152602001806159256025913960400191505060405180910390fd5b6000600b60008360200151815260200190815260200160002060006101000a81548160ff0219169083151502179055505050565b816005600083815260200190815260200160002060006101000a81548173ffffffffffffffffffffffffffffffffffffffff021916908373ffffffffffffffffffffffffffffffffffffffff16021790555080600660008473ffffffffffffffffffffffffffffffffffffffff1673ffffffffffffffffffffffffffffffffffffffff168152602001908152602001600020819055507f0c0ee92e381a7696445c71651e0d09689a61bd67a3b7c08ebe8fec6339c1e011838383604051808473ffffffffffffffffffffffffffffffffffffffff1681526020018373ffffffffffffffffffffffffffffffffffffffff168152602001828152602001935050505060405180910390a1505050565b600061531c8383615433565b61537557826000018290806001815401808255809150506001900390600052602060002001600090919091909150558260000180549050836001016000848152602001908152602001600020819055506001905061537a565b600090505b92915050565b60006153a8836000018373ffffffffffffffffffffffffffffffffffffffff1660001b615467565b905092915050565b600081836000018054905011615411576040517f08c379a00000000000000000000000000000000000000000000000000000000081526004018080602001828103825260228152602001806157026022913960400191505060405180910390fd5b82600001828154811061542057fe5b9060005260206000200154905092915050565b600080836001016000848152602001908152602001600020541415905092915050565b600081600001805490509050919050565b6000808360010160008481526020019081526020016000205490506000811461554357600060018203905060006001866000018054905003905060008660000182815481106154b257fe5b90600052602060002001549050808760000184815481106154cf57fe5b906000526020600020018190555060018301876001016000838152602001908152602001600020819055508660000180548061550757fe5b60019003818190600052602060002001600090559055866001016000878152602001908152602001600020600090556001945050505050615549565b60009150505b92915050565b6040518060a0016040528060008152602001600067ffffffffffffffff168152602001600067ffffffffffffffff16815260200160008152602001606081525090565b6040518060c00160405280600081526020016000815260200160008152602001600067ffffffffffffffff168152602001600067ffffffffffffffff168152602001600081525090565b6040518060a001604052806060815260200160008152602001600060070b8152602001600067ffffffffffffffff168152602001600081525090565b6040518060e001604052806000815260200160608152602001600060070b815260200160008152602001600067ffffffffffffffff168152602001600015158152602001600081525090565b828054600181600116156101000203166002900490600052602060002090601f016020900481019282601f106156a557805160ff19168380011785556156d3565b828001600101855582156156d3579182015b828111156156d25782518255916020019190600101906156b7565b5b5090506156e091906156e4565b5090565b5b808211156156fd5760008160009055506001016156e5565b509056fe456e756d657261626c655365743a20696e646578206f7574206f6620626f756e6473416363657373436f6e74726f6c3a2073656e646572206d75737420626520616e2061646d696e20746f206772616e74596f7520646f204e4f5420686176652061636365737320746f206372656174696e6720616e206f666669636520706f736974696f6e4164647265737320646f6573206e6f7420686176652061636365737320746f207468697320696e666f726d6174696f6e436974697a656e206973204e4f54206f6c6420656e6f75676820746f2072756e20666f72204f6666696365596f7520646f204e4f5420686176652061636365737320746f206368616e67696e6720636974697a656e73686970207374617475734164647265737320697320616c72656164792061737369676e656420746f206120636974697a656e596f752063616e6e6f74206368616e676520796f7572206f776e20636974697a656e73686970456c656374696f6e20726573756c747320617265206e6f7420617661696c61626c6520756e74696c20656c656374696f6e20697320636c6f736564206f66662066726f6d20766f74696e67546869732063616e64696461746520646f6573206e6f74206861766520746865206869676865737420616d6f756e74206f6620766f7465596f7520617265206e6f74207065726d697474656420746f20766f746520666f722074686973206f666669636520696e2074686973207a6970436f64655468697320706f736974696f6e20776173206e6f7420757020666f7220656c656374696f6e596f7520646f204e4f5420686176652061636365737320746f20636c6f73696e6720616e206f666669636520706f736974696f6e55736572206973206e6f74206f776e6572206f6620636974697a656e20747279696e6720746f206265636f6d652063616e646964617465416363657373436f6e74726f6c3a2073656e646572206d75737420626520616e2061646d696e20746f207265766f6b65456c656374696f6e20726573756c747320617265206e6f7420617661696c61626c6520756e74696c20656c656374696f6e20697320636c6f7365206f66662066726f6d20766f74696e675374617465204964206973206e6f742061737369676e656420746f206120636974697a656e2079657441646472657373206973206e6f742061737369676e656420746f20746f206120636974697a656e2079657455736572206973206e6f74206f776e6572206f6620636974697a656e20747279696e6720746f20766f7465546869732063616e646964617465206973206e6f7420656c696769626c6520666f72207468697320766f746555736572206973206e6f74206f776e6572206f66207265717569726564205374617465204944546869732061646472657373206973206e6f7420656c696769626c6520746f20766f7465596f7520646f204e4f5420686176652061636365737320746f20746869732064617461596f7520646f204e4f5420686176652061636365737320746f206465636c6172696e6720612077696e6e6572206f66207468697320656c656374696f6e54686973206973206e6f742074686520636974697a656e7320636f72726563742061646472657373537461746520494420697320616c72656164792061737369676e656420746f206120636974697a656e416363657373436f6e74726f6c3a2063616e206f6e6c792072656e6f756e636520726f6c657320666f722073656c66596f7520646f204e4f5420686176652061636365737320746f206372656174696e6720616e20656c656374696f6ea264697066735822122047d4b91cb1d2eaf755d8ef8fdcf1915e6fdbb095b87062c524d8699dd834d78464736f6c63430007000033",
  "immutableReferences": {},
  "source": "pragma solidity ^0.7\n.0;\n\nimport \"./OneVote.sol\";\n\n\ncontract Test is OneVote{\n\n  /* function createCitizen(\n    string memory _name,\n    int64 _dateOfBirth,\n    uint256 _zipCode,\n    uint256 _stateId\n    ) public returns (uint256){\n      return _createCitizen(_name, _dateOfBirth, _zipCode, _stateId);\n    } */\n\n\n  function getCitizen(uint256 _citizenId) public view returns(string memory name, int64 dateOfBirth, uint256 zipCode, bool citizenship){\n    return _getCitizen(_citizenId);\n  }\n\n\n  function addressAssignedToId(uint256 _tokenId) public view returns(address){\n    return citizenIndexToOwner[_tokenId];\n  }\n\n\n  function loseOfCitizenship(\n          uint256 _citizenId,\n          address _citizenAddress,\n          string memory _reasonForLoseOfCitizenship\n    ) public{\n      _loseOfCitizenship(_citizenId, _citizenAddress, _reasonForLoseOfCitizenship);\n  }\n\n\n  function filledOfficePosition(uint256 _candidateId) public {\n    _filledOfficePosition(_candidateId);\n  }\n\n\n  function timestamp() public view returns(uint64){\n    return uint64(block.timestamp);\n  }\n\n\n  function getTestResultsOfCandidate(uint256 _candidateId) public view returns(\n        string memory _officeTitle,\n        uint256 _zipCode,\n        string memory _candidateName,\n        uint256 _voteCount\n      )\n  {\n    Candidate storage candidate = candidates[_candidateId];\n\n    Citizen storage citizen = citizens[candidate.citizenId];\n\n    Election storage election = elections[candidate.electionId];\n    /* require(election.electionEnd <= uint64(block.timestamp), \"Election results are not available until election is close off from voting\"); */\n\n    Office storage office = offices[election.officeId];\n\n    _officeTitle = office.officeTitle;\n    _zipCode = office.zipCode;\n    _candidateName = citizen.name;\n    _voteCount = candidate.voteCount;\n  }\n\n\n  function getTestHighestVoteTotal(uint256 _electionId) public view returns(uint64){\n    Election memory election = elections[_electionId];\n\n    require(hasRole(DEFAULT_ADMIN_ROLE, msg.sender) == true, \"You do NOT have access to this data\");\n\n    uint64 highestVoteCount = 0;\n    uint256 i = 0;\n\n    for(i = 0; i < election.candidateIds.length; i++){\n      Candidate memory candidate = candidates[i];\n      if(candidate.voteCount >= highestVoteCount){\n        highestVoteCount = candidate.voteCount;\n      }\n    }\n    return highestVoteCount;\n  }\n\n\n  function declareWinnerOfTestElection(uint256 _candidateId) public {\n    Candidate memory candidate = candidates[_candidateId];\n    require(getTestHighestVoteTotal(candidate.electionId) == candidate.voteCount, \"This candidate does not have the highest amount of vote\");\n\n    filledOfficePosition(_candidateId);\n\n    emit Winner(_candidateId, candidate.officeId, candidate.voteCount, uint64(block.timestamp), msg.sender);\n  }\n\n\n  /* function getTestIdOfWinningCandidates(uint256 _electionId) public view returns(uint256[] memory){\n    Election memory election = elections[_electionId];\n\n    uint64 highestVoteCount = getTestHighestVoteTotal(_electionId);\n    uint256[] memory result = new uint256[](election.candidateIds.length);\n\n    for(uint256 i = 0; i < election.candidateIds.length; i++){\n      Candidate memory candidate = candidates[i];\n      if(candidate.voteCount == highestVoteCount){\n        result[i] = candidate.candidateId;\n      }\n    }\n    return result;\n  } */\n\n\n}\n",
  "sourcePath": "/Users/CalvinCutlass/Desktop/Coding/coding_2020/ivan_bootcamp/week_11/One_Vote/contracts/Test_OneVote.sol",
  "compiler": {
    "name": "solc",
    "version": "0.7.0+commit.9e61f92b.Emscripten.clang"
  },
  "schemaVersion": "3.2.0",
  "updatedAt": "2021-02-25T00:49:11.674Z",
  "devdoc": {
    "kind": "dev",
    "methods": {
      "getRoleAdmin(bytes32)": {
        "details": "Returns the admin role that controls `role`. See {grantRole} and {revokeRole}. To change a role's admin, use {_setRoleAdmin}."
      },
      "getRoleMember(bytes32,uint256)": {
        "details": "Returns one of the accounts that have `role`. `index` must be a value between 0 and {getRoleMemberCount}, non-inclusive. Role bearers are not sorted in any particular way, and their ordering may change at any point. WARNING: When using {getRoleMember} and {getRoleMemberCount}, make sure you perform all queries on the same block. See the following https://forum.openzeppelin.com/t/iterating-over-elements-on-enumerableset-in-openzeppelin-contracts/2296[forum post] for more information."
      },
      "getRoleMemberCount(bytes32)": {
        "details": "Returns the number of accounts that have `role`. Can be used together with {getRoleMember} to enumerate all bearers of a role."
      },
      "grantRole(bytes32,address)": {
        "details": "Grants `role` to `account`. If `account` had not been already granted `role`, emits a {RoleGranted} event. Requirements: - the caller must have ``role``'s admin role."
      },
      "hasRole(bytes32,address)": {
        "details": "Returns `true` if `account` has been granted `role`."
      },
      "renounceRole(bytes32,address)": {
        "details": "Revokes `role` from the calling account. Roles are often managed via {grantRole} and {revokeRole}: this function's purpose is to provide a mechanism for accounts to lose their privileges if they are compromised (such as when a trusted device is misplaced). If the calling account had been granted `role`, emits a {RoleRevoked} event. Requirements: - the caller must be `account`."
      },
      "revokeRole(bytes32,address)": {
        "details": "Revokes `role` from `account`. If `account` had been granted `role`, emits a {RoleRevoked} event. Requirements: - the caller must have ``role``'s admin role."
      }
    },
    "version": 1
  },
  "userdoc": {
    "kind": "user",
    "methods": {},
    "version": 1
  }
}