{
  "contractName": "Test",
  "abi": [
    {
      "anonymous": false,
      "inputs": [
        {
          "indexed": false,
          "internalType": "address",
          "name": "from",
          "type": "address"
        },
        {
          "indexed": false,
          "internalType": "address",
          "name": "to",
          "type": "address"
        },
        {
          "indexed": false,
          "internalType": "uint256",
          "name": "tokenId",
          "type": "uint256"
        }
      ],
      "name": "Assigned",
      "type": "event"
    },
    {
      "anonymous": false,
      "inputs": [
        {
          "indexed": false,
          "internalType": "string",
          "name": "_name",
          "type": "string"
        },
        {
          "indexed": false,
          "internalType": "string",
          "name": "_officeTitle",
          "type": "string"
        },
        {
          "indexed": false,
          "internalType": "uint64",
          "name": "_electionStart",
          "type": "uint64"
        }
      ],
      "name": "CandidateAdded",
      "type": "event"
    },
    {
      "anonymous": false,
      "inputs": [
        {
          "indexed": false,
          "internalType": "address",
          "name": "owner",
          "type": "address"
        },
        {
          "indexed": false,
          "internalType": "uint256",
          "name": "citizenId",
          "type": "uint256"
        },
        {
          "indexed": false,
          "internalType": "uint256",
          "name": "stateId",
          "type": "uint256"
        },
        {
          "indexed": false,
          "internalType": "uint256",
          "name": "zipCode",
          "type": "uint256"
        }
      ],
      "name": "CitizenAdded",
      "type": "event"
    },
    {
      "anonymous": false,
      "inputs": [
        {
          "indexed": false,
          "internalType": "string",
          "name": "_officeTitle",
          "type": "string"
        },
        {
          "indexed": false,
          "internalType": "uint256",
          "name": "_zipCode",
          "type": "uint256"
        },
        {
          "indexed": false,
          "internalType": "uint64",
          "name": "_electionStart",
          "type": "uint64"
        },
        {
          "indexed": false,
          "internalType": "uint64",
          "name": "_electionEnd",
          "type": "uint64"
        },
        {
          "indexed": false,
          "internalType": "uint256",
          "name": "_electionId",
          "type": "uint256"
        }
      ],
      "name": "ElectionAdded",
      "type": "event"
    },
    {
      "anonymous": false,
      "inputs": [
        {
          "indexed": false,
          "internalType": "uint256",
          "name": "citizenId",
          "type": "uint256"
        },
        {
          "indexed": false,
          "internalType": "address",
          "name": "citzenAddress",
          "type": "address"
        },
        {
          "indexed": false,
          "internalType": "string",
          "name": "reasonForLoseOfCitizenship",
          "type": "string"
        }
      ],
      "name": "NoLongerACitizen",
      "type": "event"
    },
    {
      "anonymous": false,
      "inputs": [
        {
          "indexed": false,
          "internalType": "string",
          "name": "_officeTitle",
          "type": "string"
        },
        {
          "indexed": false,
          "internalType": "uint256",
          "name": "_zipCode",
          "type": "uint256"
        },
        {
          "indexed": false,
          "internalType": "uint256",
          "name": "_officeId",
          "type": "uint256"
        }
      ],
      "name": "OfficeAdded",
      "type": "event"
    },
    {
      "anonymous": false,
      "inputs": [
        {
          "indexed": true,
          "internalType": "bytes32",
          "name": "role",
          "type": "bytes32"
        },
        {
          "indexed": true,
          "internalType": "bytes32",
          "name": "previousAdminRole",
          "type": "bytes32"
        },
        {
          "indexed": true,
          "internalType": "bytes32",
          "name": "newAdminRole",
          "type": "bytes32"
        }
      ],
      "name": "RoleAdminChanged",
      "type": "event"
    },
    {
      "anonymous": false,
      "inputs": [
        {
          "indexed": true,
          "internalType": "bytes32",
          "name": "role",
          "type": "bytes32"
        },
        {
          "indexed": true,
          "internalType": "address",
          "name": "account",
          "type": "address"
        },
        {
          "indexed": true,
          "internalType": "address",
          "name": "sender",
          "type": "address"
        }
      ],
      "name": "RoleGranted",
      "type": "event"
    },
    {
      "anonymous": false,
      "inputs": [
        {
          "indexed": true,
          "internalType": "bytes32",
          "name": "role",
          "type": "bytes32"
        },
        {
          "indexed": true,
          "internalType": "address",
          "name": "account",
          "type": "address"
        },
        {
          "indexed": true,
          "internalType": "address",
          "name": "sender",
          "type": "address"
        }
      ],
      "name": "RoleRevoked",
      "type": "event"
    },
    {
      "anonymous": false,
      "inputs": [
        {
          "indexed": false,
          "internalType": "uint256",
          "name": "_candidateId",
          "type": "uint256"
        },
        {
          "indexed": false,
          "internalType": "uint256",
          "name": "_electionId",
          "type": "uint256"
        },
        {
          "indexed": false,
          "internalType": "uint64",
          "name": "timeVoteCast",
          "type": "uint64"
        }
      ],
      "name": "VoteCast",
      "type": "event"
    },
    {
      "anonymous": false,
      "inputs": [
        {
          "indexed": false,
          "internalType": "uint256",
          "name": "_candidateId",
          "type": "uint256"
        },
        {
          "indexed": false,
          "internalType": "uint256",
          "name": "_officeId",
          "type": "uint256"
        },
        {
          "indexed": false,
          "internalType": "uint64",
          "name": "_voteCount",
          "type": "uint64"
        },
        {
          "indexed": false,
          "internalType": "uint64",
          "name": "timestamp",
          "type": "uint64"
        },
        {
          "indexed": false,
          "internalType": "address",
          "name": "confirmedBy",
          "type": "address"
        }
      ],
      "name": "Winner",
      "type": "event"
    },
    {
      "inputs": [],
      "name": "DEFAULT_ADMIN_ROLE",
      "outputs": [
        {
          "internalType": "bytes32",
          "name": "",
          "type": "bytes32"
        }
      ],
      "stateMutability": "view",
      "type": "function"
    },
    {
      "inputs": [],
      "name": "LOCAL_ADMIN_ROLE",
      "outputs": [
        {
          "internalType": "bytes32",
          "name": "",
          "type": "bytes32"
        }
      ],
      "stateMutability": "view",
      "type": "function"
    },
    {
      "inputs": [
        {
          "internalType": "uint256",
          "name": "_citizenId",
          "type": "uint256"
        }
      ],
      "name": "_getCitizen",
      "outputs": [
        {
          "internalType": "string",
          "name": "_name",
          "type": "string"
        },
        {
          "internalType": "int64",
          "name": "_dateOfBirth",
          "type": "int64"
        },
        {
          "internalType": "uint256",
          "name": "_zipCode",
          "type": "uint256"
        },
        {
          "internalType": "bool",
          "name": "_citizenship",
          "type": "bool"
        }
      ],
      "stateMutability": "view",
      "type": "function"
    },
    {
      "inputs": [
        {
          "internalType": "uint256",
          "name": "",
          "type": "uint256"
        }
      ],
      "name": "allElectionIdsInZip",
      "outputs": [
        {
          "internalType": "bool",
          "name": "electionIsPending",
          "type": "bool"
        }
      ],
      "stateMutability": "view",
      "type": "function"
    },
    {
      "inputs": [
        {
          "internalType": "uint256",
          "name": "",
          "type": "uint256"
        }
      ],
      "name": "candidateIsApprovedToRun",
      "outputs": [
        {
          "internalType": "bool",
          "name": "",
          "type": "bool"
        }
      ],
      "stateMutability": "view",
      "type": "function"
    },
    {
      "inputs": [
        {
          "internalType": "address",
          "name": "",
          "type": "address"
        },
        {
          "internalType": "uint256",
          "name": "",
          "type": "uint256"
        }
      ],
      "name": "citizenHasVotedInElection",
      "outputs": [
        {
          "internalType": "bool",
          "name": "",
          "type": "bool"
        }
      ],
      "stateMutability": "view",
      "type": "function"
    },
    {
      "inputs": [
        {
          "internalType": "address",
          "name": "",
          "type": "address"
        }
      ],
      "name": "citizenIdOfAddress",
      "outputs": [
        {
          "internalType": "uint256",
          "name": "",
          "type": "uint256"
        }
      ],
      "stateMutability": "view",
      "type": "function"
    },
    {
      "inputs": [
        {
          "internalType": "uint256",
          "name": "",
          "type": "uint256"
        }
      ],
      "name": "citizenIdToCitizen",
      "outputs": [
        {
          "internalType": "uint256",
          "name": "stateId",
          "type": "uint256"
        },
        {
          "internalType": "string",
          "name": "name",
          "type": "string"
        },
        {
          "internalType": "int64",
          "name": "dateOfBirth",
          "type": "int64"
        },
        {
          "internalType": "uint256",
          "name": "zipCode",
          "type": "uint256"
        },
        {
          "internalType": "uint64",
          "name": "dateApproved",
          "type": "uint64"
        },
        {
          "internalType": "bool",
          "name": "citizenship",
          "type": "bool"
        },
        {
          "internalType": "uint256",
          "name": "citizenId",
          "type": "uint256"
        }
      ],
      "stateMutability": "view",
      "type": "function"
    },
    {
      "inputs": [
        {
          "internalType": "uint256",
          "name": "",
          "type": "uint256"
        }
      ],
      "name": "citizenIndexToOwner",
      "outputs": [
        {
          "internalType": "address",
          "name": "",
          "type": "address"
        }
      ],
      "stateMutability": "view",
      "type": "function"
    },
    {
      "inputs": [
        {
          "internalType": "uint256",
          "name": "_officeId",
          "type": "uint256"
        },
        {
          "internalType": "uint64",
          "name": "_start",
          "type": "uint64"
        },
        {
          "internalType": "uint64",
          "name": "_end",
          "type": "uint64"
        }
      ],
      "name": "createAnElection",
      "outputs": [
        {
          "internalType": "uint256",
          "name": "",
          "type": "uint256"
        }
      ],
      "stateMutability": "nonpayable",
      "type": "function"
    },
    {
      "inputs": [
        {
          "internalType": "uint256",
          "name": "_citizenId",
          "type": "uint256"
        },
        {
          "internalType": "uint256",
          "name": "_stateId",
          "type": "uint256"
        },
        {
          "internalType": "uint256",
          "name": "_officeId",
          "type": "uint256"
        },
        {
          "internalType": "uint256",
          "name": "_electionId",
          "type": "uint256"
        }
      ],
      "name": "createCandidate",
      "outputs": [
        {
          "internalType": "uint256",
          "name": "",
          "type": "uint256"
        }
      ],
      "stateMutability": "nonpayable",
      "type": "function"
    },
    {
      "inputs": [
        {
          "internalType": "string",
          "name": "_name",
          "type": "string"
        },
        {
          "internalType": "int64",
          "name": "_dateOfBirth",
          "type": "int64"
        },
        {
          "internalType": "uint256",
          "name": "_zipCode",
          "type": "uint256"
        },
        {
          "internalType": "uint256",
          "name": "_stateId",
          "type": "uint256"
        }
      ],
      "name": "createCitizen",
      "outputs": [
        {
          "internalType": "uint256",
          "name": "",
          "type": "uint256"
        }
      ],
      "stateMutability": "nonpayable",
      "type": "function"
    },
    {
      "inputs": [
        {
          "internalType": "string",
          "name": "_officeTitle",
          "type": "string"
        },
        {
          "internalType": "uint256",
          "name": "_zipCode",
          "type": "uint256"
        },
        {
          "internalType": "int64",
          "name": "_requiredAge",
          "type": "int64"
        }
      ],
      "name": "createOffice",
      "outputs": [
        {
          "internalType": "uint256",
          "name": "",
          "type": "uint256"
        }
      ],
      "stateMutability": "nonpayable",
      "type": "function"
    },
    {
      "inputs": [
        {
          "internalType": "uint256",
          "name": "_candidateId",
          "type": "uint256"
        }
      ],
      "name": "declareWinnerOfElection",
      "outputs": [],
      "stateMutability": "nonpayable",
      "type": "function"
    },
    {
      "inputs": [
        {
          "internalType": "uint256",
          "name": "",
          "type": "uint256"
        }
      ],
      "name": "electionIsPending",
      "outputs": [
        {
          "internalType": "bool",
          "name": "",
          "type": "bool"
        }
      ],
      "stateMutability": "view",
      "type": "function"
    },
    {
      "inputs": [
        {
          "internalType": "uint256",
          "name": "_zipCode",
          "type": "uint256"
        }
      ],
      "name": "getAllElectionsInZip",
      "outputs": [
        {
          "internalType": "uint256[]",
          "name": "electionIds",
          "type": "uint256[]"
        }
      ],
      "stateMutability": "view",
      "type": "function"
    },
    {
      "inputs": [
        {
          "internalType": "uint256",
          "name": "_candidateId",
          "type": "uint256"
        }
      ],
      "name": "getCandidate",
      "outputs": [
        {
          "internalType": "string",
          "name": "name",
          "type": "string"
        },
        {
          "internalType": "string",
          "name": "officeTitle",
          "type": "string"
        },
        {
          "internalType": "uint256",
          "name": "zipCode",
          "type": "uint256"
        }
      ],
      "stateMutability": "view",
      "type": "function"
    },
    {
      "inputs": [
        {
          "internalType": "address",
          "name": "owner",
          "type": "address"
        }
      ],
      "name": "getCitizenId",
      "outputs": [
        {
          "internalType": "uint256",
          "name": "",
          "type": "uint256"
        }
      ],
      "stateMutability": "view",
      "type": "function"
    },
    {
      "inputs": [
        {
          "internalType": "uint256",
          "name": "_electionId",
          "type": "uint256"
        }
      ],
      "name": "getElection",
      "outputs": [
        {
          "internalType": "string",
          "name": "officeTitle",
          "type": "string"
        },
        {
          "internalType": "uint256",
          "name": "zipCode",
          "type": "uint256"
        },
        {
          "internalType": "uint64",
          "name": "electionStart",
          "type": "uint64"
        },
        {
          "internalType": "uint64",
          "name": "electionEnd",
          "type": "uint64"
        },
        {
          "internalType": "uint256[]",
          "name": "candidateIds",
          "type": "uint256[]"
        }
      ],
      "stateMutability": "view",
      "type": "function"
    },
    {
      "inputs": [
        {
          "internalType": "uint256",
          "name": "_electionId",
          "type": "uint256"
        }
      ],
      "name": "getHighestVoteTotal",
      "outputs": [
        {
          "internalType": "uint64",
          "name": "",
          "type": "uint64"
        }
      ],
      "stateMutability": "view",
      "type": "function"
    },
    {
      "inputs": [
        {
          "internalType": "uint256",
          "name": "_officeId",
          "type": "uint256"
        }
      ],
      "name": "getOffice",
      "outputs": [
        {
          "internalType": "string",
          "name": "officeTitle",
          "type": "string"
        },
        {
          "internalType": "uint256",
          "name": "zipCode",
          "type": "uint256"
        },
        {
          "internalType": "int64",
          "name": "requiredAge",
          "type": "int64"
        },
        {
          "internalType": "bool",
          "name": "isOpenForElection",
          "type": "bool"
        }
      ],
      "stateMutability": "view",
      "type": "function"
    },
    {
      "inputs": [
        {
          "internalType": "uint256",
          "name": "_candidateId",
          "type": "uint256"
        }
      ],
      "name": "getResultsOfCandidate",
      "outputs": [
        {
          "internalType": "string",
          "name": "_officeTitle",
          "type": "string"
        },
        {
          "internalType": "uint256",
          "name": "_zipCode",
          "type": "uint256"
        },
        {
          "internalType": "string",
          "name": "_candidateName",
          "type": "string"
        },
        {
          "internalType": "uint64",
          "name": "_voteCount",
          "type": "uint64"
        }
      ],
      "stateMutability": "view",
      "type": "function"
    },
    {
      "inputs": [
        {
          "internalType": "bytes32",
          "name": "role",
          "type": "bytes32"
        }
      ],
      "name": "getRoleAdmin",
      "outputs": [
        {
          "internalType": "bytes32",
          "name": "",
          "type": "bytes32"
        }
      ],
      "stateMutability": "view",
      "type": "function"
    },
    {
      "inputs": [
        {
          "internalType": "bytes32",
          "name": "role",
          "type": "bytes32"
        },
        {
          "internalType": "uint256",
          "name": "index",
          "type": "uint256"
        }
      ],
      "name": "getRoleMember",
      "outputs": [
        {
          "internalType": "address",
          "name": "",
          "type": "address"
        }
      ],
      "stateMutability": "view",
      "type": "function"
    },
    {
      "inputs": [
        {
          "internalType": "bytes32",
          "name": "role",
          "type": "bytes32"
        }
      ],
      "name": "getRoleMemberCount",
      "outputs": [
        {
          "internalType": "uint256",
          "name": "",
          "type": "uint256"
        }
      ],
      "stateMutability": "view",
      "type": "function"
    },
    {
      "inputs": [
        {
          "internalType": "bytes32",
          "name": "role",
          "type": "bytes32"
        },
        {
          "internalType": "address",
          "name": "account",
          "type": "address"
        }
      ],
      "name": "grantRole",
      "outputs": [],
      "stateMutability": "nonpayable",
      "type": "function"
    },
    {
      "inputs": [
        {
          "internalType": "bytes32",
          "name": "role",
          "type": "bytes32"
        },
        {
          "internalType": "address",
          "name": "account",
          "type": "address"
        }
      ],
      "name": "hasRole",
      "outputs": [
        {
          "internalType": "bool",
          "name": "",
          "type": "bool"
        }
      ],
      "stateMutability": "view",
      "type": "function"
    },
    {
      "inputs": [
        {
          "internalType": "uint256",
          "name": "_electionId",
          "type": "uint256"
        }
      ],
      "name": "isPending",
      "outputs": [
        {
          "internalType": "bool",
          "name": "",
          "type": "bool"
        }
      ],
      "stateMutability": "view",
      "type": "function"
    },
    {
      "inputs": [
        {
          "internalType": "uint256",
          "name": "",
          "type": "uint256"
        }
      ],
      "name": "officeIsUpForElection",
      "outputs": [
        {
          "internalType": "bool",
          "name": "",
          "type": "bool"
        }
      ],
      "stateMutability": "view",
      "type": "function"
    },
    {
      "inputs": [
        {
          "internalType": "bytes32",
          "name": "role",
          "type": "bytes32"
        },
        {
          "internalType": "address",
          "name": "account",
          "type": "address"
        }
      ],
      "name": "renounceRole",
      "outputs": [],
      "stateMutability": "nonpayable",
      "type": "function"
    },
    {
      "inputs": [
        {
          "internalType": "bytes32",
          "name": "role",
          "type": "bytes32"
        },
        {
          "internalType": "address",
          "name": "account",
          "type": "address"
        }
      ],
      "name": "revokeRole",
      "outputs": [],
      "stateMutability": "nonpayable",
      "type": "function"
    },
    {
      "inputs": [
        {
          "internalType": "uint256",
          "name": "_citizenId",
          "type": "uint256"
        },
        {
          "internalType": "uint256",
          "name": "voteForCandidateId",
          "type": "uint256"
        },
        {
          "internalType": "uint256",
          "name": "_electionId",
          "type": "uint256"
        }
      ],
      "name": "vote",
      "outputs": [],
      "stateMutability": "nonpayable",
      "type": "function"
    },
    {
      "inputs": [
        {
          "internalType": "uint256",
          "name": "_citizenId",
          "type": "uint256"
        }
      ],
      "name": "getCitizen",
      "outputs": [
        {
          "internalType": "string",
          "name": "name",
          "type": "string"
        },
        {
          "internalType": "int64",
          "name": "dateOfBirth",
          "type": "int64"
        },
        {
          "internalType": "uint256",
          "name": "zipCode",
          "type": "uint256"
        },
        {
          "internalType": "bool",
          "name": "citizenship",
          "type": "bool"
        }
      ],
      "stateMutability": "view",
      "type": "function"
    },
    {
      "inputs": [
        {
          "internalType": "uint256",
          "name": "_tokenId",
          "type": "uint256"
        }
      ],
      "name": "addressAssignedToId",
      "outputs": [
        {
          "internalType": "address",
          "name": "",
          "type": "address"
        }
      ],
      "stateMutability": "view",
      "type": "function"
    },
    {
      "inputs": [
        {
          "internalType": "uint256",
          "name": "_citizenId",
          "type": "uint256"
        },
        {
          "internalType": "address",
          "name": "_citizenAddress",
          "type": "address"
        },
        {
          "internalType": "string",
          "name": "_reasonForLoseOfCitizenship",
          "type": "string"
        }
      ],
      "name": "loseOfCitizenship",
      "outputs": [],
      "stateMutability": "nonpayable",
      "type": "function"
    },
    {
      "inputs": [
        {
          "internalType": "uint256",
          "name": "_candidateId",
          "type": "uint256"
        }
      ],
      "name": "filledOfficePosition",
      "outputs": [],
      "stateMutability": "nonpayable",
      "type": "function"
    },
    {
      "inputs": [],
      "name": "timestamp",
      "outputs": [
        {
          "internalType": "uint64",
          "name": "",
          "type": "uint64"
        }
      ],
      "stateMutability": "view",
      "type": "function"
    },
    {
      "inputs": [
        {
          "internalType": "uint256",
          "name": "_candidateId",
          "type": "uint256"
        }
      ],
      "name": "getTestResultsOfCandidate",
      "outputs": [
        {
          "internalType": "string",
          "name": "_officeTitle",
          "type": "string"
        },
        {
          "internalType": "uint256",
          "name": "_zipCode",
          "type": "uint256"
        },
        {
          "internalType": "string",
          "name": "_candidateName",
          "type": "string"
        },
        {
          "internalType": "uint256",
          "name": "_voteCount",
          "type": "uint256"
        }
      ],
      "stateMutability": "view",
      "type": "function"
    },
    {
      "inputs": [
        {
          "internalType": "uint256",
          "name": "_electionId",
          "type": "uint256"
        }
      ],
      "name": "getTestHighestVoteTotal",
      "outputs": [
        {
          "internalType": "uint64",
          "name": "",
          "type": "uint64"
        }
      ],
      "stateMutability": "view",
      "type": "function"
    },
    {
      "inputs": [
        {
          "internalType": "uint256",
          "name": "_candidateId",
          "type": "uint256"
        }
      ],
      "name": "declareWinnerOfTestElection",
      "outputs": [],
      "stateMutability": "nonpayable",
      "type": "function"
    }
  ],
  "bytecode": "0x60806040523480156200001157600080fd5b50620000276000801b33620000c260201b60201c565b600460018160018154018082558091505003906000526020600020905050600180816001815401808255809150500390600052602060002090505060036001816001815401808255809150500390600052602060002090505060026001816001815401808255809150500390600052602060002090505060056001816001815401808255809150500390600052602060002090505062000258565b620000d48282620000d860201b60201c565b5050565b62000106816000808581526020019081526020016000206000016200017b60201b62004f601790919060201c565b1562000177576200011c620001b360201b60201c565b73ffffffffffffffffffffffffffffffffffffffff168173ffffffffffffffffffffffffffffffffffffffff16837f2f8788117e7eff1d82e926ec794901d17c78024a50270940304540a733656f0d60405160405180910390a45b5050565b6000620001ab836000018373ffffffffffffffffffffffffffffffffffffffff1660001b620001bb60201b60201c565b905092915050565b600033905090565b6000620001cf83836200023560201b60201c565b6200022a5782600001829080600181540180825580915050600190039060005260206000200160009091909190915055826000018054905083600101600084815260200190815260200160002081905550600190506200022f565b600090505b92915050565b600080836001016000848152602001908152602001600020541415905092915050565b6162c980620002686000396000f3fe608060405234801561001057600080fd5b50600436106102485760003560e01c80638914a8a01161013b578063ca15c873116100b8578063da12095b1161007c578063da12095b14611290578063dc5c705f14611376578063e2481dbd146113a4578063eee6f9bd146113c2578063fe9379591461141a57610248565b8063ca15c8731461114a578063ca8836d21461118c578063ce1b6c29146111d0578063d0fb300a146111fe578063d547741f1461124257610248565b8063a217fddf116100ff578063a217fddf1461103a578063a41ca37314611058578063b06b2df11461109c578063b80777ea146110f4578063c4cb00d51461111c57610248565b80638914a8a014610d595780638a6655d614610e1a5780639010d07c14610e5c57806391d1485414610ebe5780639d71077714610f2257610248565b80633e80c371116101c9578063622175511161018d5780636221755114610a6d57806367bb975314610ad15780637ce74d1314610b295780637d5dbab314610c545780637f5880a114610c9857610248565b80633e80c3711461078757806351477075146107df578063580cb0b51461082b57806358ac5af81461094c57806360a21d4b14610a0d57610248565b80632c051df5116102105780632c051df5146104875780632f2ff15d14610567578063320db376146105b557806335b8e8201461061f57806336568abe1461073957610248565b8063047720fa1461024d57806307cbd1401461029957806321f073641461031c578063231816ab14610360578063248a9ca314610445575b600080fd5b6102796004803603602081101561026357600080fd5b810190808035906020019092919050505061150a565b604051808267ffffffffffffffff16815260200191505060405180910390f35b6102c5600480360360208110156102af57600080fd5b8101908080359060200190929190505050611786565b6040518080602001828103825283818151815260200191508051906020019060200280838360005b838110156103085780820151818401526020810190506102ed565b505050509050019250505060405180910390f35b6103486004803603602081101561033257600080fd5b81019080803590602001909291905050506117f4565b60405180821515815260200191505060405180910390f35b6104436004803603606081101561037657600080fd5b8101908080359060200190929190803573ffffffffffffffffffffffffffffffffffffffff169060200190929190803590602001906401000000008111156103bd57600080fd5b8201836020820111156103cf57600080fd5b803590602001918460018302840111640100000000831117156103f157600080fd5b91908080601f016020809104026020016040519081016040528093929190818152602001838380828437600081840152601f19601f820116905080830192505050505050509192919290505050611814565b005b6104716004803603602081101561045b57600080fd5b8101908080359060200190929190505050611824565b6040518082815260200191505060405180910390f35b6104b36004803603602081101561049d57600080fd5b8101908080359060200190929190505050611843565b60405180888152602001806020018760070b81526020018681526020018567ffffffffffffffff1681526020018415158152602001838152602001828103825288818151815260200191508051906020019080838360005b8381101561052657808201518184015260208101905061050b565b50505050905090810190601f1680156105535780820380516001836020036101000a031916815260200191505b509850505050505050505060405180910390f35b6105b36004803603604081101561057d57600080fd5b8101908080359060200190929190803573ffffffffffffffffffffffffffffffffffffffff16906020019092919050505061194b565b005b610609600480360360608110156105cb57600080fd5b8101908080359060200190929190803567ffffffffffffffff169060200190929190803567ffffffffffffffff1690602001909291905050506119d4565b6040518082815260200191505060405180910390f35b61064b6004803603602081101561063557600080fd5b8101908080359060200190929190505050611e24565b604051808060200180602001848152602001838103835286818151815260200191508051906020019080838360005b8381101561069557808201518184015260208101905061067a565b50505050905090810190601f1680156106c25780820380516001836020036101000a031916815260200191505b50838103825285818151815260200191508051906020019080838360005b838110156106fb5780820151818401526020810190506106e0565b50505050905090810190601f1680156107285780820380516001836020036101000a031916815260200191505b509550505050505060405180910390f35b6107856004803603604081101561074f57600080fd5b8101908080359060200190929190803573ffffffffffffffffffffffffffffffffffffffff1690602001909291905050506120fd565b005b6107b36004803603602081101561079d57600080fd5b8101908080359060200190929190505050612196565b604051808273ffffffffffffffffffffffffffffffffffffffff16815260200191505060405180910390f35b61080b600480360360208110156107f557600080fd5b81019080803590602001909291905050506121d3565b604051808267ffffffffffffffff16815260200191505060405180910390f35b6108576004803603602081101561084157600080fd5b8101908080359060200190929190505050612452565b604051808060200185815260200180602001848152602001838103835287818151815260200191508051906020019080838360005b838110156108a757808201518184015260208101905061088c565b50505050905090810190601f1680156108d45780820380516001836020036101000a031916815260200191505b50838103825285818151815260200191508051906020019080838360005b8381101561090d5780820151818401526020810190506108f2565b50505050905090810190601f16801561093a5780820380516001836020036101000a031916815260200191505b50965050505050505060405180910390f35b6109786004803603602081101561096257600080fd5b8101908080359060200190929190505050612656565b60405180806020018560070b81526020018481526020018315158152602001828103825286818151815260200191508051906020019080838360005b838110156109cf5780820151818401526020810190506109b4565b50505050905090810190601f1680156109fc5780820380516001836020036101000a031916815260200191505b509550505050505060405180910390f35b610a5760048036036080811015610a2357600080fd5b8101908080359060200190929190803590602001909291908035906020019092919080359060200190929190505050612824565b6040518082815260200191505060405180910390f35b610ab960048036036040811015610a8357600080fd5b81019080803573ffffffffffffffffffffffffffffffffffffffff1690602001909291908035906020019092919050505061321f565b60405180821515815260200191505060405180910390f35b610afd60048036036020811015610ae757600080fd5b810190808035906020019092919050505061324e565b604051808273ffffffffffffffffffffffffffffffffffffffff16815260200191505060405180910390f35b610b5560048036036020811015610b3f57600080fd5b8101908080359060200190929190505050613281565b6040518080602001858152602001806020018467ffffffffffffffff168152602001838103835287818151815260200191508051906020019080838360005b83811015610baf578082015181840152602081019050610b94565b50505050905090810190601f168015610bdc5780820380516001836020036101000a031916815260200191505b50838103825285818151815260200191508051906020019080838360005b83811015610c15578082015181840152602081019050610bfa565b50505050905090810190601f168015610c425780820380516001836020036101000a031916815260200191505b50965050505050505060405180910390f35b610c8060048036036020811015610c6a57600080fd5b8101908080359060200190929190505050613500565b60405180821515815260200191505060405180910390f35b610cc460048036036020811015610cae57600080fd5b8101908080359060200190929190505050613520565b60405180806020018581526020018460070b81526020018315158152602001828103825286818151815260200191508051906020019080838360005b83811015610d1b578082015181840152602081019050610d00565b50505050905090810190601f168015610d485780820380516001836020036101000a031916815260200191505b509550505050505060405180910390f35b610d8560048036036020811015610d6f57600080fd5b810190808035906020019092919050505061362a565b60405180806020018560070b81526020018481526020018315158152602001828103825286818151815260200191508051906020019080838360005b83811015610ddc578082015181840152602081019050610dc1565b50505050905090810190601f168015610e095780820380516001836020036101000a031916815260200191505b509550505050505060405180910390f35b610e5a60048036036060811015610e3057600080fd5b81019080803590602001909291908035906020019092919080359060200190929190505050613649565b005b610e9260048036036040811015610e7257600080fd5b810190808035906020019092919080359060200190929190505050613f7e565b604051808273ffffffffffffffffffffffffffffffffffffffff16815260200191505060405180910390f35b610f0a60048036036040811015610ed457600080fd5b8101908080359060200190929190803573ffffffffffffffffffffffffffffffffffffffff169060200190929190505050613faf565b60405180821515815260200191505060405180910390f35b610f4e60048036036020811015610f3857600080fd5b8101908080359060200190929190505050613fe0565b60405180806020018681526020018567ffffffffffffffff1681526020018467ffffffffffffffff16815260200180602001838103835288818151815260200191508051906020019080838360005b83811015610fb8578082015181840152602081019050610f9d565b50505050905090810190601f168015610fe55780820380516001836020036101000a031916815260200191505b50838103825284818151815260200191508051906020019060200280838360005b83811015611021578082015181840152602081019050611006565b5050505090500197505050505050505060405180910390f35b6110426141e5565b6040518082815260200191505060405180910390f35b6110846004803603602081101561106e57600080fd5b81019080803590602001909291905050506141ec565b60405180821515815260200191505060405180910390f35b6110de600480360360208110156110b257600080fd5b81019080803573ffffffffffffffffffffffffffffffffffffffff169060200190929190505050614217565b6040518082815260200191505060405180910390f35b6110fc6142ff565b604051808267ffffffffffffffff16815260200191505060405180910390f35b6111486004803603602081101561113257600080fd5b8101908080359060200190929190505050614307565b005b6111766004803603602081101561116057600080fd5b81019080803590602001909291905050506144d5565b6040518082815260200191505060405180910390f35b6111b8600480360360208110156111a257600080fd5b81019080803590602001909291905050506144fb565b60405180821515815260200191505060405180910390f35b6111fc600480360360208110156111e657600080fd5b8101908080359060200190929190505050614525565b005b61122a6004803603602081101561121457600080fd5b8101908080359060200190929190505050614794565b60405180821515815260200191505060405180910390f35b61128e6004803603604081101561125857600080fd5b8101908080359060200190929190803573ffffffffffffffffffffffffffffffffffffffff1690602001909291905050506147b4565b005b611360600480360360608110156112a657600080fd5b81019080803590602001906401000000008111156112c357600080fd5b8201836020820111156112d557600080fd5b803590602001918460018302840111640100000000831117156112f757600080fd5b91908080601f016020809104026020016040519081016040528093929190818152602001838380828437600081840152601f19601f82011690508083019250505050505050919291929080359060200190929190803560070b906020019092919050505061483d565b6040518082815260200191505060405180910390f35b6113a26004803603602081101561138c57600080fd5b8101908080359060200190929190505050614ad4565b005b6113ac614ae0565b6040518082815260200191505060405180910390f35b611404600480360360208110156113d857600080fd5b81019080803573ffffffffffffffffffffffffffffffffffffffff169060200190929190505050614b04565b6040518082815260200191505060405180910390f35b6114f46004803603608081101561143057600080fd5b810190808035906020019064010000000081111561144d57600080fd5b82018360208201111561145f57600080fd5b8035906020019184600183028401116401000000008311171561148157600080fd5b91908080601f016020809104026020016040519081016040528093929190818152602001838380828437600081840152601f19601f820116905080830192505050505050509192919290803560070b90602001909291908035906020019092919080359060200190929190505050614b1c565b6040518082815260200191505060405180910390f35b6000611514615b38565b6004838154811061152157fe5b90600052602060002090600402016040518060a0016040529081600082015481526020016001820160009054906101000a900467ffffffffffffffff1667ffffffffffffffff1667ffffffffffffffff1681526020016001820160089054906101000a900467ffffffffffffffff1667ffffffffffffffff1667ffffffffffffffff168152602001600282015481526020016003820180548060200260200160405190810160405280929190818152602001828054801561160157602002820191906000526020600020905b8154815260200190600101908083116115ed575b50505050508152505090506001151561161d6000801b33613faf565b151514611675576040517f08c379a00000000000000000000000000000000000000000000000000000000081526004018080602001828103825260238152602001806161866023913960400191505060405180910390fd5b600080600090505b82608001515181101561177b57611692615b7b565b6002828154811061169f57fe5b90600052602060002090600502016040518060c00160405290816000820154815260200160018201548152602001600282015481526020016003820160009054906101000a900467ffffffffffffffff1667ffffffffffffffff1667ffffffffffffffff1681526020016003820160089054906101000a900467ffffffffffffffff1667ffffffffffffffff1667ffffffffffffffff16815260200160048201548152505090508267ffffffffffffffff16816060015167ffffffffffffffff161061176d57806060015192505b50808060010191505061167d565b819350505050919050565b6060600d60008381526020019081526020016000206000018054806020026020016040519081016040528092919081815260200182805480156117e857602002820191906000526020600020905b8154815260200190600101908083116117d4575b50505050509050919050565b600b6020528060005260406000206000915054906101000a900460ff1681565b61181f838383614f90565b505050565b6000806000838152602001908152602001600020600201549050919050565b6008602052806000526040600020600091509050806000015490806001018054600181600116156101000203166002900480601f0160208091040260200160405190810160405280929190818152602001828054600181600116156101000203166002900480156118f55780601f106118ca576101008083540402835291602001916118f5565b820191906000526020600020905b8154815290600101906020018083116118d857829003601f168201915b5050505050908060020160009054906101000a900460070b908060030154908060040160009054906101000a900467ffffffffffffffff16908060040160089054906101000a900460ff16908060050154905087565b6119716000808481526020019081526020016000206002015461196c6152bd565b613faf565b6119c6576040517f08c379a000000000000000000000000000000000000000000000000000000000815260040180806020018281038252602f815260200180615d5f602f913960400191505060405180910390fd5b6119d082826152c5565b5050565b600060011515600c600086815260200190815260200160002060009054906101000a900460ff16151514611a70576040517f08c379a000000000000000000000000000000000000000000000000000000000815260040180806020018281038252601d8152602001807f4f6666696365206973204e4f5420757020666f7220656c656374696f6e00000081525060200191505060405180910390fd5b60011515611a816000801b33613faf565b15151480611abc575060011515611ab87fb7f8beecafe1ad662cec1153812612581a86b9460f21b876f3ee163141203dcb33613faf565b1515145b611b11576040517f08c379a000000000000000000000000000000000000000000000000000000000815260040180806020018281038252602e815260200180616266602e913960400191505060405180910390fd5b600460018160018154018082558091505003906000526020600020905050611b37615bc5565b60038581548110611b4457fe5b90600052602060002090600402016040518060a0016040529081600082018054600181600116156101000203166002900480601f016020809104026020016040519081016040528092919081815260200182805460018160011615610100020316600290048015611bf65780601f10611bcb57610100808354040283529160200191611bf6565b820191906000526020600020905b815481529060010190602001808311611bd957829003601f168201915b50505050508152602001600182015481526020016002820160009054906101000a900460070b60070b60070b81526020016002820160089054906101000a900467ffffffffffffffff1667ffffffffffffffff1667ffffffffffffffff16815260200160038201548152505090506000600460016004805490500381548110611c7b57fe5b90600052602060002090600402019050858160000181905550848160010160006101000a81548167ffffffffffffffff021916908367ffffffffffffffff160217905550838160010160086101000a81548167ffffffffffffffff021916908367ffffffffffffffff160217905550600480549050816002018190555060006001600480549050039050611d13836020015182615358565b6001600e600083815260200190815260200160002060006101000a81548160ff0219169083151502179055507fa951106ad0f6639e96325687aa3ef355f8b1d0e0a7bce6446da8c7971a2c04698360000151846020015188888560405180806020018681526020018567ffffffffffffffff1681526020018467ffffffffffffffff168152602001838152602001828103825287818151815260200191508051906020019080838360005b83811015611dd9578082015181840152602081019050611dbe565b50505050905090810190601f168015611e065780820380516001836020036101000a031916815260200191505b50965050505050505060405180910390a18093505050509392505050565b60608060008060028581548110611e3757fe5b90600052602060002090600502019050611e4f615bc5565b6003826001015481548110611e6057fe5b90600052602060002090600402016040518060a0016040529081600082018054600181600116156101000203166002900480601f016020809104026020016040519081016040528092919081815260200182805460018160011615610100020316600290048015611f125780601f10611ee757610100808354040283529160200191611f12565b820191906000526020600020905b815481529060010190602001808311611ef557829003601f168201915b50505050508152602001600182015481526020016002820160009054906101000a900460070b60070b60070b81526020016002820160089054906101000a900467ffffffffffffffff1667ffffffffffffffff1667ffffffffffffffff1681526020016003820154815250509050611f88615c01565b6001836000015481548110611f9957fe5b90600052602060002090600602016040518060e001604052908160008201548152602001600182018054600181600116156101000203166002900480601f0160208091040260200160405190810160405280929190818152602001828054600181600116156101000203166002900480156120555780601f1061202a57610100808354040283529160200191612055565b820191906000526020600020905b81548152906001019060200180831161203857829003601f168201915b505050505081526020016002820160009054906101000a900460070b60070b60070b8152602001600382015481526020016004820160009054906101000a900467ffffffffffffffff1667ffffffffffffffff1667ffffffffffffffff1681526020016004820160089054906101000a900460ff1615151515815260200160058201548152505090508060200151955081600001519450816020015193505050509193909250565b6121056152bd565b73ffffffffffffffffffffffffffffffffffffffff168173ffffffffffffffffffffffffffffffffffffffff1614612188576040517f08c379a000000000000000000000000000000000000000000000000000000000815260040180806020018281038252602f815260200180616237602f913960400191505060405180910390fd5b61219282826154b7565b5050565b60006006600083815260200190815260200160002060009054906101000a900473ffffffffffffffffffffffffffffffffffffffff169050919050565b60006121dd615b38565b600483815481106121ea57fe5b90600052602060002090600402016040518060a0016040529081600082015481526020016001820160009054906101000a900467ffffffffffffffff1667ffffffffffffffff1667ffffffffffffffff1681526020016001820160089054906101000a900467ffffffffffffffff1667ffffffffffffffff1667ffffffffffffffff16815260200160028201548152602001600382018054806020026020016040519081016040528092919081815260200182805480156122ca57602002820191906000526020600020905b8154815260200190600101908083116122b6575b50505050508152505090504267ffffffffffffffff16816040015167ffffffffffffffff161115612346576040517f08c379a000000000000000000000000000000000000000000000000000000000815260040180806020018281038252604b815260200180615ec8604b913960600191505060405180910390fd5b6000805b82608001515181116124475761235e615b7b565b6002828154811061236b57fe5b90600052602060002090600502016040518060c00160405290816000820154815260200160018201548152602001600282015481526020016003820160009054906101000a900467ffffffffffffffff1667ffffffffffffffff1667ffffffffffffffff1681526020016003820160089054906101000a900467ffffffffffffffff1667ffffffffffffffff1667ffffffffffffffff16815260200160048201548152505090508267ffffffffffffffff16816060015167ffffffffffffffff161061243957806060015192505b50808060010191505061234a565b508092505050919050565b6060600060606000806002868154811061246857fe5b906000526020600020906005020190506000600182600001548154811061248b57fe5b90600052602060002090600602019050600060048360020154815481106124ae57fe5b90600052602060002090600402019050600060038260000154815481106124d157fe5b90600052602060002090600402019050806000018054600181600116156101000203166002900480601f0160208091040260200160405190810160405280929190818152602001828054600181600116156101000203166002900480156125795780601f1061254e57610100808354040283529160200191612579565b820191906000526020600020905b81548152906001019060200180831161255c57829003601f168201915b5050505050975080600101549650826001018054600181600116156101000203166002900480601f01602080910402602001604051908101604052809291908181526020018280546001816001161561010002031660029004801561261f5780601f106125f45761010080835404028352916020019161261f565b820191906000526020600020905b81548152906001019060200180831161260257829003601f168201915b505050505095508360030160009054906101000a900467ffffffffffffffff1667ffffffffffffffff169450505050509193509193565b606060008060003373ffffffffffffffffffffffffffffffffffffffff166006600087815260200190815260200160002060009054906101000a900473ffffffffffffffffffffffffffffffffffffffff1673ffffffffffffffffffffffffffffffffffffffff1614806126da5750600115156126d66000801b33613faf565b1515145b61272f576040517f08c379a0000000000000000000000000000000000000000000000000000000008152600401808060200182810382526030815260200180615dc36030913960400191505060405180910390fd5b60006001868154811061273e57fe5b90600052602060002090600602019050806001018054600181600116156101000203166002900480601f0160208091040260200160405190810160405280929190818152602001828054600181600116156101000203166002900480156127e65780601f106127bb576101008083540402835291602001916127e6565b820191906000526020600020905b8154815290600101906020018083116127c957829003601f168201915b505050505094508060020160009054906101000a900460070b9350806003015492508060040160089054906101000a900460ff169150509193509193565b6000600115156009600086815260200190815260200160002060009054906101000a900460ff161515146128a3576040517f08c379a00000000000000000000000000000000000000000000000000000000081526004018080602001828103825260298152602001806160916029913960400191505060405180910390fd5b60011515600a60003373ffffffffffffffffffffffffffffffffffffffff1673ffffffffffffffffffffffffffffffffffffffff16815260200190815260200160002060009054906101000a900460ff1615151461294c576040517f08c379a000000000000000000000000000000000000000000000000000000000815260040180806020018281038252602b8152602001806160ba602b913960400191505060405180910390fd5b3373ffffffffffffffffffffffffffffffffffffffff166006600087815260200190815260200160002060009054906101000a900473ffffffffffffffffffffffffffffffffffffffff1673ffffffffffffffffffffffffffffffffffffffff1614612a03576040517f08c379a0000000000000000000000000000000000000000000000000000000008152600401808060200182810382526037815260200180615fe06037913960400191505060405180910390fd5b612a0b615c01565b600860008781526020019081526020016000206040518060e001604052908160008201548152602001600182018054600181600116156101000203166002900480601f016020809104026020016040519081016040528092919081815260200182805460018160011615610100020316600290048015612acc5780601f10612aa157610100808354040283529160200191612acc565b820191906000526020600020905b815481529060010190602001808311612aaf57829003601f168201915b505050505081526020016002820160009054906101000a900460070b60070b60070b8152602001600382015481526020016004820160009054906101000a900467ffffffffffffffff1667ffffffffffffffff1667ffffffffffffffff1681526020016004820160089054906101000a900460ff161515151581526020016005820154815250509050612b5d615bc5565b60038581548110612b6a57fe5b90600052602060002090600402016040518060a0016040529081600082018054600181600116156101000203166002900480601f016020809104026020016040519081016040528092919081815260200182805460018160011615610100020316600290048015612c1c5780601f10612bf157610100808354040283529160200191612c1c565b820191906000526020600020905b815481529060010190602001808311612bff57829003601f168201915b50505050508152602001600182015481526020016002820160009054906101000a900460070b60070b60070b81526020016002820160089054906101000a900467ffffffffffffffff1667ffffffffffffffff1667ffffffffffffffff1681526020016003820154815250509050612c92615b38565b60048581548110612c9f57fe5b90600052602060002090600402016040518060a0016040529081600082015481526020016001820160009054906101000a900467ffffffffffffffff1667ffffffffffffffff1667ffffffffffffffff1681526020016001820160089054906101000a900467ffffffffffffffff1667ffffffffffffffff1667ffffffffffffffff1681526020016002820154815260200160038201805480602002602001604051908101604052809291908181526020018280548015612d7f57602002820191906000526020600020905b815481526020019060010190808311612d6b575b5050505050815250509050600115158360a00151151514612e08576040517f08c379a000000000000000000000000000000000000000000000000000000000815260040180806020018281038252601b8152602001807f596f7520617265206e6f206c6f6e676572206120636974697a656e000000000081525060200191505060405180910390fd5b86836000015114612e64576040517f08c379a000000000000000000000000000000000000000000000000000000000815260040180806020018281038252602681526020018061613c6026913960400191505060405180910390fd5b60011515600c600088815260200190815260200160002060009054906101000a900460ff16151514612efe576040517f08c379a000000000000000000000000000000000000000000000000000000000815260040180806020018281038252601d8152602001807f4f6666696365206973204e4f5420757020666f7220656c656374696f6e00000081525060200191505060405180910390fd5b826040015160070b826040015160070b1215612f65576040517f08c379a000000000000000000000000000000000000000000000000000000000815260040180806020018281038252602b815260200180615df3602b913960400191505060405180910390fd5b612f6d615b7b565b6040518060c001604052808a8152602001888152602001878152602001600067ffffffffffffffff1681526020014267ffffffffffffffff1681526020016002805490508152509050600281908060018154018082558091505060019003906000526020600020906005020160009091909190915060008201518160000155602082015181600101556040820151816002015560608201518160030160006101000a81548167ffffffffffffffff021916908367ffffffffffffffff16021790555060808201518160030160086101000a81548167ffffffffffffffff021916908367ffffffffffffffff16021790555060a082015181600401555050600060016002805490500390506004878154811061308457fe5b90600052602060002090600402016003018190806001815401808255809150506001900390600052602060002001600090919091909150556001600b600083815260200190815260200160002060006101000a81548160ff0219169083151502179055507f891e756eff7201520283922fc3ede4d874d465693e19f7cbb4fd2555b3b63e0a8560200151856000015185602001516040518080602001806020018467ffffffffffffffff168152602001838103835286818151815260200191508051906020019080838360005b8381101561316c578082015181840152602081019050613151565b50505050905090810190601f1680156131995780820380516001836020036101000a031916815260200191505b50838103825285818151815260200191508051906020019080838360005b838110156131d25780820151818401526020810190506131b7565b50505050905090810190601f1680156131ff5780820380516001836020036101000a031916815260200191505b509550505050505060405180910390a18095505050505050949350505050565b600f6020528160005260406000206020528060005260406000206000915091509054906101000a900460ff1681565b60066020528060005260406000206000915054906101000a900473ffffffffffffffffffffffffffffffffffffffff1681565b6060600060606000806002868154811061329757fe5b90600052602060002090600502019050600060018260000154815481106132ba57fe5b90600052602060002090600602019050600060048360020154815481106132dd57fe5b906000526020600020906004020190504267ffffffffffffffff168160010160089054906101000a900467ffffffffffffffff1667ffffffffffffffff161115613372576040517f08c379a000000000000000000000000000000000000000000000000000000000815260040180806020018281038252604a815260200180616047604a913960600191505060405180910390fd5b6000600382600001548154811061338557fe5b90600052602060002090600402019050806000018054600181600116156101000203166002900480601f01602080910402602001604051908101604052809291908181526020018280546001816001161561010002031660029004801561342d5780601f106134025761010080835404028352916020019161342d565b820191906000526020600020905b81548152906001019060200180831161341057829003601f168201915b5050505050975080600101549650826001018054600181600116156101000203166002900480601f0160208091040260200160405190810160405280929190818152602001828054600181600116156101000203166002900480156134d35780601f106134a8576101008083540402835291602001916134d3565b820191906000526020600020905b8154815290600101906020018083116134b657829003601f168201915b505050505095508360030160009054906101000a900467ffffffffffffffff169450505050509193509193565b600e6020528060005260406000206000915054906101000a900460ff1681565b60606000806000806003868154811061353557fe5b90600052602060002090600402019050806000018054600181600116156101000203166002900480601f0160208091040260200160405190810160405280929190818152602001828054600181600116156101000203166002900480156135dd5780601f106135b2576101008083540402835291602001916135dd565b820191906000526020600020905b8154815290600101906020018083116135c057829003601f168201915b50505050509450806001015493508060020160009054906101000a900460070b9250600c600087815260200190815260200160002060009054906101000a900460ff169150509193509193565b6060600080600061363a85612656565b93509350935093509193509193565b3373ffffffffffffffffffffffffffffffffffffffff166006600085815260200190815260200160002060009054906101000a900473ffffffffffffffffffffffffffffffffffffffff1673ffffffffffffffffffffffffffffffffffffffff1614613700576040517f08c379a000000000000000000000000000000000000000000000000000000000815260040180806020018281038252602b8152602001806160e5602b913960400191505060405180910390fd5b60011515600a60003373ffffffffffffffffffffffffffffffffffffffff1673ffffffffffffffffffffffffffffffffffffffff16815260200190815260200160002060009054906101000a900460ff161515146137a9576040517f08c379a00000000000000000000000000000000000000000000000000000000081526004018080602001828103825260248152602001806161626024913960400191505060405180910390fd5b60011515600f60003373ffffffffffffffffffffffffffffffffffffffff1673ffffffffffffffffffffffffffffffffffffffff168152602001908152602001600020600083815260200190815260200160002060009054906101000a900460ff1615151415613864576040517f08c379a0000000000000000000000000000000000000000000000000000000008152600401808060200182810382526027815260200180615e536027913960400191505060405180910390fd5b61386c615c01565b600860008581526020019081526020016000206040518060e001604052908160008201548152602001600182018054600181600116156101000203166002900480601f01602080910402602001604051908101604052809291908181526020018280546001816001161561010002031660029004801561392d5780601f106139025761010080835404028352916020019161392d565b820191906000526020600020905b81548152906001019060200180831161391057829003601f168201915b505050505081526020016002820160009054906101000a900460070b60070b60070b8152602001600382015481526020016004820160009054906101000a900467ffffffffffffffff1667ffffffffffffffff1667ffffffffffffffff1681526020016004820160089054906101000a900460ff161515151581526020016005820154815250509050600115158160a00151151514613a34576040517f08c379a000000000000000000000000000000000000000000000000000000000815260040180806020018281038252601b8152602001807f596f7520617265206e6f206c6f6e676572206120636974697a656e000000000081525060200191505060405180910390fd5b613a3c615b38565b60048381548110613a4957fe5b90600052602060002090600402016040518060a0016040529081600082015481526020016001820160009054906101000a900467ffffffffffffffff1667ffffffffffffffff1667ffffffffffffffff1681526020016001820160089054906101000a900467ffffffffffffffff1667ffffffffffffffff1667ffffffffffffffff1681526020016002820154815260200160038201805480602002602001604051908101604052809291908181526020018280548015613b2957602002820191906000526020600020905b815481526020019060010190808311613b15575b50505050508152505090504267ffffffffffffffff16816020015167ffffffffffffffff161115613bc2576040517f08c379a000000000000000000000000000000000000000000000000000000000815260040180806020018281038252601f8152602001807f54686520656c656374696f6e20686173206e6f74206f70656e6564207965740081525060200191505060405180910390fd5b4267ffffffffffffffff16816040015167ffffffffffffffff161015613c50576040517f08c379a000000000000000000000000000000000000000000000000000000000815260040180806020018281038252601e8152602001807f54686520656c656374696f6e206973206e6f206c6f6e676572206f70656e000081525060200191505060405180910390fd5b613c58615bc5565b6003826000015181548110613c6957fe5b90600052602060002090600402016040518060a0016040529081600082018054600181600116156101000203166002900480601f016020809104026020016040519081016040528092919081815260200182805460018160011615610100020316600290048015613d1b5780601f10613cf057610100808354040283529160200191613d1b565b820191906000526020600020905b815481529060010190602001808311613cfe57829003601f168201915b50505050508152602001600182015481526020016002820160009054906101000a900460070b60070b60070b81526020016002820160089054906101000a900467ffffffffffffffff1667ffffffffffffffff1667ffffffffffffffff16815260200160038201548152505090508060200151836060015114613de9576040517f08c379a000000000000000000000000000000000000000000000000000000000815260040180806020018281038252603d815260200180615f4a603d913960400191505060405180910390fd5b600060028681548110613df857fe5b9060005260206000209060050201905082600001518160010154148015613e225750848160020154145b613e77576040517f08c379a000000000000000000000000000000000000000000000000000000000815260040180806020018281038252602c815260200180616110602c913960400191505060405180910390fd5b60018160030160008282829054906101000a900467ffffffffffffffff160192506101000a81548167ffffffffffffffff021916908367ffffffffffffffff1602179055506001600f60003373ffffffffffffffffffffffffffffffffffffffff1673ffffffffffffffffffffffffffffffffffffffff168152602001908152602001600020600087815260200190815260200160002060006101000a81548160ff0219169083151502179055507e49e9a81233825e4f5949eb5b06cce97b4f086f6981805188b1e12c5cf638e4868642604051808481526020018381526020018267ffffffffffffffff168152602001935050505060405180910390a150505050505050565b6000613fa78260008086815260200190815260200160002060000161554a90919063ffffffff16565b905092915050565b6000613fd88260008086815260200190815260200160002060000161556490919063ffffffff16565b905092915050565b606060008060006060600060048781548110613ff857fe5b90600052602060002090600402019050614010615bc5565b600382600001548154811061402157fe5b90600052602060002090600402016040518060a0016040529081600082018054600181600116156101000203166002900480601f0160208091040260200160405190810160405280929190818152602001828054600181600116156101000203166002900480156140d35780601f106140a8576101008083540402835291602001916140d3565b820191906000526020600020905b8154815290600101906020018083116140b657829003601f168201915b50505050508152602001600182015481526020016002820160009054906101000a900460070b60070b60070b81526020016002820160089054906101000a900467ffffffffffffffff1667ffffffffffffffff1667ffffffffffffffff168152602001600382015481525050905080600001519650806020015195508160010160009054906101000a900467ffffffffffffffff1694508160010160089054906101000a900467ffffffffffffffff169350816003018054806020026020016040519081016040528092919081815260200182805480156141d357602002820191906000526020600020905b8154815260200190600101908083116141bf575b50505050509250505091939590929450565b6000801b81565b600d6020528060005260406000206000915090508060010160009054906101000a900460ff16905081565b60008173ffffffffffffffffffffffffffffffffffffffff163373ffffffffffffffffffffffffffffffffffffffff16148061426357506001151561425f6000801b33613faf565b1515145b6142b8576040517f08c379a0000000000000000000000000000000000000000000000000000000008152600401808060200182810382526030815260200180615dc36030913960400191505060405180910390fd5b600760008373ffffffffffffffffffffffffffffffffffffffff1673ffffffffffffffffffffffffffffffffffffffff168152602001908152602001600020549050919050565b600042905090565b61430f615b7b565b6002828154811061431c57fe5b90600052602060002090600502016040518060c00160405290816000820154815260200160018201548152602001600282015481526020016003820160009054906101000a900467ffffffffffffffff1667ffffffffffffffff1667ffffffffffffffff1681526020016003820160089054906101000a900467ffffffffffffffff1667ffffffffffffffff1667ffffffffffffffff1681526020016004820154815250509050806060015167ffffffffffffffff166143df826040015161150a565b67ffffffffffffffff161461443f576040517f08c379a0000000000000000000000000000000000000000000000000000000008152600401808060200182810382526037815260200180615f136037913960400191505060405180910390fd5b61444882614ad4565b7f737019d53070b31742678ee65b3baa855c9cb034d73d970a17e2b352a3d773e582826020015183606001514233604051808681526020018581526020018467ffffffffffffffff1681526020018367ffffffffffffffff1681526020018273ffffffffffffffffffffffffffffffffffffffff1681526020019550505050505060405180910390a15050565b60006144f4600080848152602001908152602001600020600001615594565b9050919050565b6000600e600083815260200190815260200160002060009054906101000a900460ff169050919050565b61452d615b7b565b6002828154811061453a57fe5b90600052602060002090600502016040518060c00160405290816000820154815260200160018201548152602001600282015481526020016003820160009054906101000a900467ffffffffffffffff1667ffffffffffffffff1667ffffffffffffffff1681526020016003820160089054906101000a900467ffffffffffffffff1667ffffffffffffffff1667ffffffffffffffff1681526020016004820154815250509050806060015167ffffffffffffffff166145fd82604001516121d3565b67ffffffffffffffff161461465d576040517f08c379a0000000000000000000000000000000000000000000000000000000008152600401808060200182810382526037815260200180615f136037913960400191505060405180910390fd5b6001151561466e6000801b33613faf565b151514806146a95750600115156146a57fb7f8beecafe1ad662cec1153812612581a86b9460f21b876f3ee163141203dcb33613faf565b1515145b6146fe576040517f08c379a000000000000000000000000000000000000000000000000000000000815260040180806020018281038252603d8152602001806161a9603d913960400191505060405180910390fd5b614707826155a9565b7f737019d53070b31742678ee65b3baa855c9cb034d73d970a17e2b352a3d773e582826020015183606001514233604051808681526020018581526020018467ffffffffffffffff1681526020018367ffffffffffffffff1681526020018273ffffffffffffffffffffffffffffffffffffffff1681526020019550505050505060405180910390a15050565b600c6020528060005260406000206000915054906101000a900460ff1681565b6147da600080848152602001908152602001600020600201546147d56152bd565b613faf565b61482f576040517f08c379a00000000000000000000000000000000000000000000000000000000081526004018080602001828103825260308152602001806160176030913960400191505060405180910390fd5b61483982826154b7565b5050565b6000600115156148506000801b33613faf565b1515148061488b5750600115156148877fb7f8beecafe1ad662cec1153812612581a86b9460f21b876f3ee163141203dcb33613faf565b1515145b6148e0576040517f08c379a0000000000000000000000000000000000000000000000000000000008152600401808060200182810382526035815260200180615d8e6035913960400191505060405180910390fd5b6148e8615bc5565b6040518060a001604052808681526020018581526020018460070b81526020014267ffffffffffffffff16815260200160038054905081525090506003819080600181540180825580915050600190039060005260206000209060040201600090919091909150600082015181600001908051906020019061496b929190615c4d565b506020820151816001015560408201518160020160006101000a81548167ffffffffffffffff021916908360070b67ffffffffffffffff16021790555060608201518160020160086101000a81548167ffffffffffffffff021916908367ffffffffffffffff160217905550608082015181600301555050600060016003805490500390506001600c600083815260200190815260200160002060006101000a81548160ff0219169083151502179055507fb88277fa8c66993083f7ebdd5f92a7991cf4ed8d4957b20268880dca91a50bdb8686836040518080602001848152602001838152602001828103825285818151815260200191508051906020019080838360005b83811015614a8c578082015181840152602081019050614a71565b50505050905090810190601f168015614ab95780820380516001836020036101000a031916815260200191505b5094505050505060405180910390a180925050509392505050565b614add816155a9565b50565b7fb7f8beecafe1ad662cec1153812612581a86b9460f21b876f3ee163141203dcb81565b60076020528060005260406000206000915090505481565b60008015156009600084815260200190815260200160002060009054906101000a900460ff16151514614b9a576040517f08c379a000000000000000000000000000000000000000000000000000000000815260040180806020018281038252602981526020018061620e6029913960400191505060405180910390fd5b60001515600a60003373ffffffffffffffffffffffffffffffffffffffff1673ffffffffffffffffffffffffffffffffffffffff16815260200190815260200160002060009054906101000a900460ff16151514614c43576040517f08c379a0000000000000000000000000000000000000000000000000000000008152600401808060200182810382526028815260200180615e7a6028913960400191505060405180910390fd5b614c4b615c01565b6040518060e001604052808481526020018781526020018660070b81526020018581526020014267ffffffffffffffff16815260200160011515815260200160018054905081525090506001819080600181540180825580915050600190039060005260206000209060060201600090919091909150600082015181600001556020820151816001019080519060200190614ce7929190615c4d565b5060408201518160020160006101000a81548167ffffffffffffffff021916908360070b67ffffffffffffffff1602179055506060820151816003015560808201518160040160006101000a81548167ffffffffffffffff021916908367ffffffffffffffff16021790555060a08201518160040160086101000a81548160ff02191690831515021790555060c08201518160050155505060006001808054905003905060016009600086815260200190815260200160002060006101000a81548160ff0219169083151502179055506001600a60003373ffffffffffffffffffffffffffffffffffffffff1673ffffffffffffffffffffffffffffffffffffffff16815260200190815260200160002060006101000a81548160ff0219169083151502179055508160086000838152602001908152602001600020600082015181600001556020820151816001019080519060200190614e49929190615c4d565b5060408201518160020160006101000a81548167ffffffffffffffff021916908360070b67ffffffffffffffff1602179055506060820151816003015560808201518160040160006101000a81548167ffffffffffffffff021916908367ffffffffffffffff16021790555060a08201518160040160086101000a81548160ff02191690831515021790555060c082015181600501559050507fa12daf0dc9e98c44420339df34fbae8835074be1a972516ca7363d867ca01d9c33828688604051808573ffffffffffffffffffffffffffffffffffffffff16815260200184815260200183815260200182815260200194505050505060405180910390a1614f53600033836157eb565b8092505050949350505050565b6000614f88836000018373ffffffffffffffffffffffffffffffffffffffff1660001b6158f9565b905092915050565b60011515614fa16000801b33613faf565b151514614ff9576040517f08c379a0000000000000000000000000000000000000000000000000000000008152600401808060200182810382526035815260200180615e1e6035913960400191505060405180910390fd5b8173ffffffffffffffffffffffffffffffffffffffff166006600085815260200190815260200160002060009054906101000a900473ffffffffffffffffffffffffffffffffffffffff1673ffffffffffffffffffffffffffffffffffffffff16146150b0576040517f08c379a00000000000000000000000000000000000000000000000000000000081526004018080602001828103825260288152602001806161e66028913960400191505060405180910390fd5b8173ffffffffffffffffffffffffffffffffffffffff163373ffffffffffffffffffffffffffffffffffffffff161415615135576040517f08c379a0000000000000000000000000000000000000000000000000000000008152600401808060200182810382526026815260200180615ea26026913960400191505060405180910390fd5b60006009600085815260200190815260200160002060006101000a81548160ff0219169083151502179055506000600a60008473ffffffffffffffffffffffffffffffffffffffff1673ffffffffffffffffffffffffffffffffffffffff16815260200190815260200160002060006101000a81548160ff0219169083151502179055506000600184815481106151c857fe5b9060005260206000209060060201905060008160040160086101000a81548160ff0219169083151502179055507f5dbf89e749b723e87d5232ef46f9acbeb85bcfccd0c9d7c18c1993d9de5c0670848484604051808481526020018373ffffffffffffffffffffffffffffffffffffffff16815260200180602001828103825283818151815260200191508051906020019080838360005b8381101561527b578082015181840152602081019050615260565b50505050905090810190601f1680156152a85780820380516001836020036101000a031916815260200191505b5094505050505060405180910390a150505050565b600033905090565b6152ec81600080858152602001908152602001600020600001614f6090919063ffffffff16565b15615354576152f96152bd565b73ffffffffffffffffffffffffffffffffffffffff168173ffffffffffffffffffffffffffffffffffffffff16837f2f8788117e7eff1d82e926ec794901d17c78024a50270940304540a733656f0d60405160405180910390a45b5050565b60011515600d600084815260200190815260200160002060010160009054906101000a900460ff161515146154755760056001816001815401808255809150500390600052602060002090505060006005600160058054905003815481106153bc57fe5b906000526020600020906002020190508060000182908060018154018082558091505060019003906000526020600020016000909190919091505560018160010160006101000a81548160ff02191690831515021790555080600d6000858152602001908152602001600020600082018160000190805461543e929190615ccd565b506001820160009054906101000a900460ff168160010160006101000a81548160ff021916908315150217905550905050506154b3565b600d60008381526020019081526020016000206000018190806001815401808255809150506001900390600052602060002001600090919091909150555b5050565b6154de8160008085815260200190815260200160002060000161596990919063ffffffff16565b15615546576154eb6152bd565b73ffffffffffffffffffffffffffffffffffffffff168173ffffffffffffffffffffffffffffffffffffffff16837ff6391f5c32d9c69d2a47ea670b442974b53935d1edc7fd64eb21e047a839171b60405160405180910390a45b5050565b60006155598360000183615999565b60001c905092915050565b600061558c836000018373ffffffffffffffffffffffffffffffffffffffff1660001b615a1c565b905092915050565b60006155a282600001615a3f565b9050919050565b600115156155ba6000801b33613faf565b151514806155f55750600115156155f17fb7f8beecafe1ad662cec1153812612581a86b9460f21b876f3ee163141203dcb33613faf565b1515145b61564a576040517f08c379a0000000000000000000000000000000000000000000000000000000008152600401808060200182810382526034815260200180615fac6034913960400191505060405180910390fd5b615652615b7b565b6002828154811061565f57fe5b90600052602060002090600502016040518060c00160405290816000820154815260200160018201548152602001600282015481526020016003820160009054906101000a900467ffffffffffffffff1667ffffffffffffffff1667ffffffffffffffff1681526020016003820160089054906101000a900467ffffffffffffffff1667ffffffffffffffff1667ffffffffffffffff168152602001600482015481525050905060011515600c60008360200151815260200190815260200160002060009054906101000a900460ff16151514615787576040517f08c379a0000000000000000000000000000000000000000000000000000000008152600401808060200182810382526025815260200180615f876025913960400191505060405180910390fd5b6000600e60008360400151815260200190815260200160002060006101000a81548160ff0219169083151502179055506000600c60008360200151815260200190815260200160002060006101000a81548160ff0219169083151502179055505050565b816006600083815260200190815260200160002060006101000a81548173ffffffffffffffffffffffffffffffffffffffff021916908373ffffffffffffffffffffffffffffffffffffffff16021790555080600760008473ffffffffffffffffffffffffffffffffffffffff1673ffffffffffffffffffffffffffffffffffffffff168152602001908152602001600020819055507f0c0ee92e381a7696445c71651e0d09689a61bd67a3b7c08ebe8fec6339c1e011838383604051808473ffffffffffffffffffffffffffffffffffffffff1681526020018373ffffffffffffffffffffffffffffffffffffffff168152602001828152602001935050505060405180910390a1505050565b60006159058383615a1c565b61595e578260000182908060018154018082558091505060019003906000526020600020016000909190919091505582600001805490508360010160008481526020019081526020016000208190555060019050615963565b600090505b92915050565b6000615991836000018373ffffffffffffffffffffffffffffffffffffffff1660001b615a50565b905092915050565b6000818360000180549050116159fa576040517f08c379a0000000000000000000000000000000000000000000000000000000008152600401808060200182810382526022815260200180615d3d6022913960400191505060405180910390fd5b826000018281548110615a0957fe5b9060005260206000200154905092915050565b600080836001016000848152602001908152602001600020541415905092915050565b600081600001805490509050919050565b60008083600101600084815260200190815260200160002054905060008114615b2c5760006001820390506000600186600001805490500390506000866000018281548110615a9b57fe5b9060005260206000200154905080876000018481548110615ab857fe5b9060005260206000200181905550600183018760010160008381526020019081526020016000208190555086600001805480615af057fe5b60019003818190600052602060002001600090559055866001016000878152602001908152602001600020600090556001945050505050615b32565b60009150505b92915050565b6040518060a0016040528060008152602001600067ffffffffffffffff168152602001600067ffffffffffffffff16815260200160008152602001606081525090565b6040518060c00160405280600081526020016000815260200160008152602001600067ffffffffffffffff168152602001600067ffffffffffffffff168152602001600081525090565b6040518060a001604052806060815260200160008152602001600060070b8152602001600067ffffffffffffffff168152602001600081525090565b6040518060e001604052806000815260200160608152602001600060070b815260200160008152602001600067ffffffffffffffff168152602001600015158152602001600081525090565b828054600181600116156101000203166002900490600052602060002090601f016020900481019282601f10615c8e57805160ff1916838001178555615cbc565b82800160010185558215615cbc579182015b82811115615cbb578251825591602001919060010190615ca0565b5b509050615cc99190615d1f565b5090565b828054828255906000526020600020908101928215615d0e5760005260206000209182015b82811115615d0d578254825591600101919060010190615cf2565b5b509050615d1b9190615d1f565b5090565b5b80821115615d38576000816000905550600101615d20565b509056fe456e756d657261626c655365743a20696e646578206f7574206f6620626f756e6473416363657373436f6e74726f6c3a2073656e646572206d75737420626520616e2061646d696e20746f206772616e74596f7520646f204e4f5420686176652061636365737320746f206372656174696e6720616e206f666669636520706f736974696f6e4164647265737320646f6573206e6f7420686176652061636365737320746f207468697320696e666f726d6174696f6e436974697a656e206973204e4f54206f6c6420656e6f75676820746f2072756e20666f72204f6666696365596f7520646f204e4f5420686176652061636365737320746f206368616e67696e6720636974697a656e7368697020737461747573596f75206861766520616c726561647920766f74656420696e207468697320656c656374696f6e4164647265737320697320616c72656164792061737369676e656420746f206120636974697a656e596f752063616e6e6f74206368616e676520796f7572206f776e20636974697a656e73686970456c656374696f6e20726573756c747320617265206e6f7420617661696c61626c6520756e74696c20656c656374696f6e20697320636c6f736564206f66662066726f6d20766f74696e67546869732063616e64696461746520646f6573206e6f74206861766520746865206869676865737420616d6f756e74206f6620766f7465596f7520617265206e6f74207065726d697474656420746f20766f746520666f722074686973206f666669636520696e2074686973207a6970436f64655468697320706f736974696f6e20776173206e6f7420757020666f7220656c656374696f6e596f7520646f204e4f5420686176652061636365737320746f20636c6f73696e6720616e206f666669636520706f736974696f6e55736572206973206e6f74206f776e6572206f6620636974697a656e20747279696e6720746f206265636f6d652063616e646964617465416363657373436f6e74726f6c3a2073656e646572206d75737420626520616e2061646d696e20746f207265766f6b65456c656374696f6e20726573756c747320617265206e6f7420617661696c61626c6520756e74696c20656c656374696f6e20697320636c6f7365206f66662066726f6d20766f74696e675374617465204964206973206e6f742061737369676e656420746f206120636974697a656e2079657441646472657373206973206e6f742061737369676e656420746f20746f206120636974697a656e2079657455736572206973206e6f74206f776e6572206f6620636974697a656e20747279696e6720746f20766f7465546869732063616e646964617465206973206e6f7420656c696769626c6520666f72207468697320766f746555736572206973206e6f74206f776e6572206f66207265717569726564205374617465204944546869732061646472657373206973206e6f7420656c696769626c6520746f20766f7465596f7520646f204e4f5420686176652061636365737320746f20746869732064617461596f7520646f204e4f5420686176652061636365737320746f206465636c6172696e6720612077696e6e6572206f66207468697320656c656374696f6e54686973206973206e6f742074686520636974697a656e7320636f72726563742061646472657373537461746520494420697320616c72656164792061737369676e656420746f206120636974697a656e416363657373436f6e74726f6c3a2063616e206f6e6c792072656e6f756e636520726f6c657320666f722073656c66596f7520646f204e4f5420686176652061636365737320746f206372656174696e6720616e20656c656374696f6ea2646970667358221220acf26dc6d50492bca0e3e3c3d45b2d5e3c4eccbeba7a4e1ac8ae4f53b0eaf7f064736f6c63430007000033",
  "immutableReferences": {},
  "source": "pragma solidity ^0.7\n.0;\n\nimport \"./OneVote.sol\";\n\n\ncontract Test is OneVote{\n\n  /* function createCitizen(\n    string memory _name,\n    int64 _dateOfBirth,\n    uint256 _zipCode,\n    uint256 _stateId\n    ) public returns (uint256){\n      return _createCitizen(_name, _dateOfBirth, _zipCode, _stateId);\n    } */\n\n\n  function getCitizen(uint256 _citizenId) public view returns(string memory name, int64 dateOfBirth, uint256 zipCode, bool citizenship){\n    return _getCitizen(_citizenId);\n  }\n\n\n  function addressAssignedToId(uint256 _tokenId) public view returns(address){\n    return citizenIndexToOwner[_tokenId];\n  }\n\n\n  function loseOfCitizenship(\n          uint256 _citizenId,\n          address _citizenAddress,\n          string memory _reasonForLoseOfCitizenship\n    ) public{\n      _loseOfCitizenship(_citizenId, _citizenAddress, _reasonForLoseOfCitizenship);\n  }\n\n\n  function filledOfficePosition(uint256 _candidateId) public {\n    _filledOfficePosition(_candidateId);\n  }\n\n\n  function timestamp() public view returns(uint64){\n    return uint64(block.timestamp);\n  }\n\n\n  function getTestResultsOfCandidate(uint256 _candidateId) public view returns(\n        string memory _officeTitle,\n        uint256 _zipCode,\n        string memory _candidateName,\n        uint256 _voteCount\n      )\n  {\n    Candidate storage candidate = candidates[_candidateId];\n\n    Citizen storage citizen = citizens[candidate.citizenId];\n\n    Election storage election = elections[candidate.electionId];\n    /* require(election.electionEnd <= uint64(block.timestamp), \"Election results are not available until election is close off from voting\"); */\n\n    Office storage office = offices[election.officeId];\n\n    _officeTitle = office.officeTitle;\n    _zipCode = office.zipCode;\n    _candidateName = citizen.name;\n    _voteCount = candidate.voteCount;\n  }\n\n\n  function getTestHighestVoteTotal(uint256 _electionId) public view returns(uint64){\n    Election memory election = elections[_electionId];\n\n    require(hasRole(DEFAULT_ADMIN_ROLE, msg.sender) == true, \"You do NOT have access to this data\");\n\n    uint64 highestVoteCount = 0;\n    uint256 i = 0;\n\n    for(i = 0; i < election.candidateIds.length; i++){\n      Candidate memory candidate = candidates[i];\n      if(candidate.voteCount >= highestVoteCount){\n        highestVoteCount = candidate.voteCount;\n      }\n    }\n    return highestVoteCount;\n  }\n\n\n  function declareWinnerOfTestElection(uint256 _candidateId) public {\n    Candidate memory candidate = candidates[_candidateId];\n    require(getTestHighestVoteTotal(candidate.electionId) == candidate.voteCount, \"This candidate does not have the highest amount of vote\");\n\n    filledOfficePosition(_candidateId);\n\n    emit Winner(_candidateId, candidate.officeId, candidate.voteCount, uint64(block.timestamp), msg.sender);\n  }\n\n\n  /* function getTestIdOfWinningCandidates(uint256 _electionId) public view returns(uint256[] memory){\n    Election memory election = elections[_electionId];\n\n    uint64 highestVoteCount = getTestHighestVoteTotal(_electionId);\n    uint256[] memory result = new uint256[](election.candidateIds.length);\n\n    for(uint256 i = 0; i < election.candidateIds.length; i++){\n      Candidate memory candidate = candidates[i];\n      if(candidate.voteCount == highestVoteCount){\n        result[i] = candidate.candidateId;\n      }\n    }\n    return result;\n  } */\n\n\n}\n",
  "sourcePath": "/Users/CalvinCutlass/Desktop/Coding/coding_2020/ivan_bootcamp/week_11/One_Vote/contracts/Test_OneVote.sol",
  "compiler": {
    "name": "solc",
    "version": "0.7.0+commit.9e61f92b.Emscripten.clang"
  },
  "schemaVersion": "3.2.0",
  "updatedAt": "2021-03-08T01:10:00.350Z",
  "devdoc": {
    "kind": "dev",
    "methods": {
      "getRoleAdmin(bytes32)": {
        "details": "Returns the admin role that controls `role`. See {grantRole} and {revokeRole}. To change a role's admin, use {_setRoleAdmin}."
      },
      "getRoleMember(bytes32,uint256)": {
        "details": "Returns one of the accounts that have `role`. `index` must be a value between 0 and {getRoleMemberCount}, non-inclusive. Role bearers are not sorted in any particular way, and their ordering may change at any point. WARNING: When using {getRoleMember} and {getRoleMemberCount}, make sure you perform all queries on the same block. See the following https://forum.openzeppelin.com/t/iterating-over-elements-on-enumerableset-in-openzeppelin-contracts/2296[forum post] for more information."
      },
      "getRoleMemberCount(bytes32)": {
        "details": "Returns the number of accounts that have `role`. Can be used together with {getRoleMember} to enumerate all bearers of a role."
      },
      "grantRole(bytes32,address)": {
        "details": "Grants `role` to `account`. If `account` had not been already granted `role`, emits a {RoleGranted} event. Requirements: - the caller must have ``role``'s admin role."
      },
      "hasRole(bytes32,address)": {
        "details": "Returns `true` if `account` has been granted `role`."
      },
      "renounceRole(bytes32,address)": {
        "details": "Revokes `role` from the calling account. Roles are often managed via {grantRole} and {revokeRole}: this function's purpose is to provide a mechanism for accounts to lose their privileges if they are compromised (such as when a trusted device is misplaced). If the calling account had been granted `role`, emits a {RoleRevoked} event. Requirements: - the caller must be `account`."
      },
      "revokeRole(bytes32,address)": {
        "details": "Revokes `role` from `account`. If `account` had been granted `role`, emits a {RoleRevoked} event. Requirements: - the caller must have ``role``'s admin role."
      }
    },
    "version": 1
  },
  "userdoc": {
    "kind": "user",
    "methods": {},
    "version": 1
  }
}