{
  "contractName": "Test",
  "abi": [
    {
      "anonymous": false,
      "inputs": [
        {
          "indexed": false,
          "internalType": "address",
          "name": "from",
          "type": "address"
        },
        {
          "indexed": false,
          "internalType": "address",
          "name": "to",
          "type": "address"
        },
        {
          "indexed": false,
          "internalType": "uint256",
          "name": "tokenId",
          "type": "uint256"
        }
      ],
      "name": "Assigned",
      "type": "event"
    },
    {
      "anonymous": false,
      "inputs": [
        {
          "indexed": false,
          "internalType": "string",
          "name": "_name",
          "type": "string"
        },
        {
          "indexed": false,
          "internalType": "string",
          "name": "_officeTitle",
          "type": "string"
        },
        {
          "indexed": false,
          "internalType": "uint64",
          "name": "_electionStart",
          "type": "uint64"
        }
      ],
      "name": "CandidateAdded",
      "type": "event"
    },
    {
      "anonymous": false,
      "inputs": [
        {
          "indexed": false,
          "internalType": "address",
          "name": "owner",
          "type": "address"
        },
        {
          "indexed": false,
          "internalType": "uint256",
          "name": "citizenId",
          "type": "uint256"
        },
        {
          "indexed": false,
          "internalType": "uint256",
          "name": "stateId",
          "type": "uint256"
        },
        {
          "indexed": false,
          "internalType": "uint256",
          "name": "zipCode",
          "type": "uint256"
        }
      ],
      "name": "CitizenAdded",
      "type": "event"
    },
    {
      "anonymous": false,
      "inputs": [
        {
          "indexed": false,
          "internalType": "string",
          "name": "_officeTitle",
          "type": "string"
        },
        {
          "indexed": false,
          "internalType": "uint256",
          "name": "_zipCode",
          "type": "uint256"
        },
        {
          "indexed": false,
          "internalType": "uint64",
          "name": "_electionStart",
          "type": "uint64"
        },
        {
          "indexed": false,
          "internalType": "uint64",
          "name": "_electionEnd",
          "type": "uint64"
        },
        {
          "indexed": false,
          "internalType": "uint256",
          "name": "_electionId",
          "type": "uint256"
        }
      ],
      "name": "ElectionAdded",
      "type": "event"
    },
    {
      "anonymous": false,
      "inputs": [
        {
          "indexed": false,
          "internalType": "uint256",
          "name": "citizenId",
          "type": "uint256"
        },
        {
          "indexed": false,
          "internalType": "address",
          "name": "citzenAddress",
          "type": "address"
        },
        {
          "indexed": false,
          "internalType": "string",
          "name": "reasonForLoseOfCitizenship",
          "type": "string"
        }
      ],
      "name": "NoLongerACitizen",
      "type": "event"
    },
    {
      "anonymous": false,
      "inputs": [
        {
          "indexed": false,
          "internalType": "string",
          "name": "_officeTitle",
          "type": "string"
        },
        {
          "indexed": false,
          "internalType": "uint256",
          "name": "_zipCode",
          "type": "uint256"
        },
        {
          "indexed": false,
          "internalType": "uint256",
          "name": "_officeId",
          "type": "uint256"
        }
      ],
      "name": "OfficeAdded",
      "type": "event"
    },
    {
      "anonymous": false,
      "inputs": [
        {
          "indexed": true,
          "internalType": "bytes32",
          "name": "role",
          "type": "bytes32"
        },
        {
          "indexed": true,
          "internalType": "bytes32",
          "name": "previousAdminRole",
          "type": "bytes32"
        },
        {
          "indexed": true,
          "internalType": "bytes32",
          "name": "newAdminRole",
          "type": "bytes32"
        }
      ],
      "name": "RoleAdminChanged",
      "type": "event"
    },
    {
      "anonymous": false,
      "inputs": [
        {
          "indexed": true,
          "internalType": "bytes32",
          "name": "role",
          "type": "bytes32"
        },
        {
          "indexed": true,
          "internalType": "address",
          "name": "account",
          "type": "address"
        },
        {
          "indexed": true,
          "internalType": "address",
          "name": "sender",
          "type": "address"
        }
      ],
      "name": "RoleGranted",
      "type": "event"
    },
    {
      "anonymous": false,
      "inputs": [
        {
          "indexed": true,
          "internalType": "bytes32",
          "name": "role",
          "type": "bytes32"
        },
        {
          "indexed": true,
          "internalType": "address",
          "name": "account",
          "type": "address"
        },
        {
          "indexed": true,
          "internalType": "address",
          "name": "sender",
          "type": "address"
        }
      ],
      "name": "RoleRevoked",
      "type": "event"
    },
    {
      "anonymous": false,
      "inputs": [
        {
          "indexed": false,
          "internalType": "uint256",
          "name": "_candidateId",
          "type": "uint256"
        },
        {
          "indexed": false,
          "internalType": "uint256",
          "name": "_electionId",
          "type": "uint256"
        },
        {
          "indexed": false,
          "internalType": "uint64",
          "name": "timeVoteCast",
          "type": "uint64"
        }
      ],
      "name": "VoteCast",
      "type": "event"
    },
    {
      "anonymous": false,
      "inputs": [
        {
          "indexed": false,
          "internalType": "uint256",
          "name": "_candidateId",
          "type": "uint256"
        },
        {
          "indexed": false,
          "internalType": "uint256",
          "name": "_officeId",
          "type": "uint256"
        },
        {
          "indexed": false,
          "internalType": "uint64",
          "name": "_voteCount",
          "type": "uint64"
        },
        {
          "indexed": false,
          "internalType": "uint64",
          "name": "timestamp",
          "type": "uint64"
        },
        {
          "indexed": false,
          "internalType": "address",
          "name": "confirmedBy",
          "type": "address"
        }
      ],
      "name": "Winner",
      "type": "event"
    },
    {
      "inputs": [],
      "name": "DEFAULT_ADMIN_ROLE",
      "outputs": [
        {
          "internalType": "bytes32",
          "name": "",
          "type": "bytes32"
        }
      ],
      "stateMutability": "view",
      "type": "function"
    },
    {
      "inputs": [],
      "name": "LOCAL_ADMIN_ROLE",
      "outputs": [
        {
          "internalType": "bytes32",
          "name": "",
          "type": "bytes32"
        }
      ],
      "stateMutability": "view",
      "type": "function"
    },
    {
      "inputs": [
        {
          "internalType": "uint256",
          "name": "_citizenId",
          "type": "uint256"
        }
      ],
      "name": "_getCitizen",
      "outputs": [
        {
          "internalType": "string",
          "name": "_name",
          "type": "string"
        },
        {
          "internalType": "int64",
          "name": "_dateOfBirth",
          "type": "int64"
        },
        {
          "internalType": "uint256",
          "name": "_zipCode",
          "type": "uint256"
        },
        {
          "internalType": "bool",
          "name": "_citizenship",
          "type": "bool"
        }
      ],
      "stateMutability": "view",
      "type": "function"
    },
    {
      "inputs": [
        {
          "internalType": "uint256",
          "name": "",
          "type": "uint256"
        }
      ],
      "name": "allElectionIdsInZip",
      "outputs": [
        {
          "internalType": "bool",
          "name": "electionIsPending",
          "type": "bool"
        }
      ],
      "stateMutability": "view",
      "type": "function"
    },
    {
      "inputs": [
        {
          "internalType": "uint256",
          "name": "",
          "type": "uint256"
        }
      ],
      "name": "candidateIsApprovedToRun",
      "outputs": [
        {
          "internalType": "bool",
          "name": "",
          "type": "bool"
        }
      ],
      "stateMutability": "view",
      "type": "function"
    },
    {
      "inputs": [
        {
          "internalType": "address",
          "name": "",
          "type": "address"
        }
      ],
      "name": "citizenIdOfAddress",
      "outputs": [
        {
          "internalType": "uint256",
          "name": "",
          "type": "uint256"
        }
      ],
      "stateMutability": "view",
      "type": "function"
    },
    {
      "inputs": [
        {
          "internalType": "uint256",
          "name": "",
          "type": "uint256"
        }
      ],
      "name": "citizenIdToCitizen",
      "outputs": [
        {
          "internalType": "uint256",
          "name": "stateId",
          "type": "uint256"
        },
        {
          "internalType": "string",
          "name": "name",
          "type": "string"
        },
        {
          "internalType": "int64",
          "name": "dateOfBirth",
          "type": "int64"
        },
        {
          "internalType": "uint256",
          "name": "zipCode",
          "type": "uint256"
        },
        {
          "internalType": "uint64",
          "name": "dateApproved",
          "type": "uint64"
        },
        {
          "internalType": "bool",
          "name": "citizenship",
          "type": "bool"
        },
        {
          "internalType": "uint256",
          "name": "citizenId",
          "type": "uint256"
        }
      ],
      "stateMutability": "view",
      "type": "function"
    },
    {
      "inputs": [
        {
          "internalType": "uint256",
          "name": "",
          "type": "uint256"
        }
      ],
      "name": "citizenIndexToOwner",
      "outputs": [
        {
          "internalType": "address",
          "name": "",
          "type": "address"
        }
      ],
      "stateMutability": "view",
      "type": "function"
    },
    {
      "inputs": [
        {
          "internalType": "uint256",
          "name": "_officeId",
          "type": "uint256"
        },
        {
          "internalType": "uint64",
          "name": "_start",
          "type": "uint64"
        },
        {
          "internalType": "uint64",
          "name": "_end",
          "type": "uint64"
        }
      ],
      "name": "createAnElection",
      "outputs": [
        {
          "internalType": "uint256",
          "name": "",
          "type": "uint256"
        }
      ],
      "stateMutability": "nonpayable",
      "type": "function"
    },
    {
      "inputs": [
        {
          "internalType": "uint256",
          "name": "_citizenId",
          "type": "uint256"
        },
        {
          "internalType": "uint256",
          "name": "_stateId",
          "type": "uint256"
        },
        {
          "internalType": "uint256",
          "name": "_officeId",
          "type": "uint256"
        },
        {
          "internalType": "uint256",
          "name": "_electionId",
          "type": "uint256"
        }
      ],
      "name": "createCandidate",
      "outputs": [
        {
          "internalType": "uint256",
          "name": "",
          "type": "uint256"
        }
      ],
      "stateMutability": "nonpayable",
      "type": "function"
    },
    {
      "inputs": [
        {
          "internalType": "string",
          "name": "_name",
          "type": "string"
        },
        {
          "internalType": "int64",
          "name": "_dateOfBirth",
          "type": "int64"
        },
        {
          "internalType": "uint256",
          "name": "_zipCode",
          "type": "uint256"
        },
        {
          "internalType": "uint256",
          "name": "_stateId",
          "type": "uint256"
        }
      ],
      "name": "createCitizen",
      "outputs": [
        {
          "internalType": "uint256",
          "name": "",
          "type": "uint256"
        }
      ],
      "stateMutability": "nonpayable",
      "type": "function"
    },
    {
      "inputs": [
        {
          "internalType": "string",
          "name": "_officeTitle",
          "type": "string"
        },
        {
          "internalType": "uint256",
          "name": "_zipCode",
          "type": "uint256"
        },
        {
          "internalType": "int64",
          "name": "_requiredAge",
          "type": "int64"
        }
      ],
      "name": "createOffice",
      "outputs": [
        {
          "internalType": "uint256",
          "name": "",
          "type": "uint256"
        }
      ],
      "stateMutability": "nonpayable",
      "type": "function"
    },
    {
      "inputs": [
        {
          "internalType": "uint256",
          "name": "_candidateId",
          "type": "uint256"
        }
      ],
      "name": "declareWinnerOfElection",
      "outputs": [],
      "stateMutability": "nonpayable",
      "type": "function"
    },
    {
      "inputs": [
        {
          "internalType": "uint256",
          "name": "",
          "type": "uint256"
        }
      ],
      "name": "electionIsPending",
      "outputs": [
        {
          "internalType": "bool",
          "name": "",
          "type": "bool"
        }
      ],
      "stateMutability": "view",
      "type": "function"
    },
    {
      "inputs": [
        {
          "internalType": "uint256",
          "name": "_zipCode",
          "type": "uint256"
        }
      ],
      "name": "getAllElectionsInZip",
      "outputs": [
        {
          "internalType": "uint256[]",
          "name": "electionIds",
          "type": "uint256[]"
        }
      ],
      "stateMutability": "view",
      "type": "function"
    },
    {
      "inputs": [
        {
          "internalType": "uint256",
          "name": "_candidateId",
          "type": "uint256"
        }
      ],
      "name": "getCandidate",
      "outputs": [
        {
          "internalType": "string",
          "name": "name",
          "type": "string"
        },
        {
          "internalType": "string",
          "name": "officeTitle",
          "type": "string"
        },
        {
          "internalType": "uint256",
          "name": "zipCode",
          "type": "uint256"
        }
      ],
      "stateMutability": "view",
      "type": "function"
    },
    {
      "inputs": [
        {
          "internalType": "address",
          "name": "owner",
          "type": "address"
        }
      ],
      "name": "getCitizenId",
      "outputs": [
        {
          "internalType": "uint256",
          "name": "",
          "type": "uint256"
        }
      ],
      "stateMutability": "view",
      "type": "function"
    },
    {
      "inputs": [
        {
          "internalType": "uint256",
          "name": "_electionId",
          "type": "uint256"
        }
      ],
      "name": "getElection",
      "outputs": [
        {
          "internalType": "string",
          "name": "officeTitle",
          "type": "string"
        },
        {
          "internalType": "uint256",
          "name": "zipCode",
          "type": "uint256"
        },
        {
          "internalType": "uint64",
          "name": "electionStart",
          "type": "uint64"
        },
        {
          "internalType": "uint64",
          "name": "electionEnd",
          "type": "uint64"
        },
        {
          "internalType": "uint256[]",
          "name": "candidateIds",
          "type": "uint256[]"
        }
      ],
      "stateMutability": "view",
      "type": "function"
    },
    {
      "inputs": [
        {
          "internalType": "uint256",
          "name": "_electionId",
          "type": "uint256"
        }
      ],
      "name": "getHighestVoteTotal",
      "outputs": [
        {
          "internalType": "uint64",
          "name": "",
          "type": "uint64"
        }
      ],
      "stateMutability": "view",
      "type": "function"
    },
    {
      "inputs": [
        {
          "internalType": "uint256",
          "name": "_officeId",
          "type": "uint256"
        }
      ],
      "name": "getOffice",
      "outputs": [
        {
          "internalType": "string",
          "name": "officeTitle",
          "type": "string"
        },
        {
          "internalType": "uint256",
          "name": "zipCode",
          "type": "uint256"
        },
        {
          "internalType": "int64",
          "name": "requiredAge",
          "type": "int64"
        },
        {
          "internalType": "bool",
          "name": "isOpenForElection",
          "type": "bool"
        }
      ],
      "stateMutability": "view",
      "type": "function"
    },
    {
      "inputs": [
        {
          "internalType": "uint256",
          "name": "_candidateId",
          "type": "uint256"
        }
      ],
      "name": "getResultsOfCandidate",
      "outputs": [
        {
          "internalType": "string",
          "name": "_officeTitle",
          "type": "string"
        },
        {
          "internalType": "uint256",
          "name": "_zipCode",
          "type": "uint256"
        },
        {
          "internalType": "string",
          "name": "_candidateName",
          "type": "string"
        },
        {
          "internalType": "uint64",
          "name": "_voteCount",
          "type": "uint64"
        }
      ],
      "stateMutability": "view",
      "type": "function"
    },
    {
      "inputs": [
        {
          "internalType": "bytes32",
          "name": "role",
          "type": "bytes32"
        }
      ],
      "name": "getRoleAdmin",
      "outputs": [
        {
          "internalType": "bytes32",
          "name": "",
          "type": "bytes32"
        }
      ],
      "stateMutability": "view",
      "type": "function"
    },
    {
      "inputs": [
        {
          "internalType": "bytes32",
          "name": "role",
          "type": "bytes32"
        },
        {
          "internalType": "uint256",
          "name": "index",
          "type": "uint256"
        }
      ],
      "name": "getRoleMember",
      "outputs": [
        {
          "internalType": "address",
          "name": "",
          "type": "address"
        }
      ],
      "stateMutability": "view",
      "type": "function"
    },
    {
      "inputs": [
        {
          "internalType": "bytes32",
          "name": "role",
          "type": "bytes32"
        }
      ],
      "name": "getRoleMemberCount",
      "outputs": [
        {
          "internalType": "uint256",
          "name": "",
          "type": "uint256"
        }
      ],
      "stateMutability": "view",
      "type": "function"
    },
    {
      "inputs": [
        {
          "internalType": "bytes32",
          "name": "role",
          "type": "bytes32"
        },
        {
          "internalType": "address",
          "name": "account",
          "type": "address"
        }
      ],
      "name": "grantRole",
      "outputs": [],
      "stateMutability": "nonpayable",
      "type": "function"
    },
    {
      "inputs": [
        {
          "internalType": "bytes32",
          "name": "role",
          "type": "bytes32"
        },
        {
          "internalType": "address",
          "name": "account",
          "type": "address"
        }
      ],
      "name": "hasRole",
      "outputs": [
        {
          "internalType": "bool",
          "name": "",
          "type": "bool"
        }
      ],
      "stateMutability": "view",
      "type": "function"
    },
    {
      "inputs": [
        {
          "internalType": "uint256",
          "name": "_electionId",
          "type": "uint256"
        }
      ],
      "name": "isPending",
      "outputs": [
        {
          "internalType": "bool",
          "name": "",
          "type": "bool"
        }
      ],
      "stateMutability": "view",
      "type": "function"
    },
    {
      "inputs": [
        {
          "internalType": "uint256",
          "name": "",
          "type": "uint256"
        }
      ],
      "name": "officeIsUpForElection",
      "outputs": [
        {
          "internalType": "bool",
          "name": "",
          "type": "bool"
        }
      ],
      "stateMutability": "view",
      "type": "function"
    },
    {
      "inputs": [
        {
          "internalType": "bytes32",
          "name": "role",
          "type": "bytes32"
        },
        {
          "internalType": "address",
          "name": "account",
          "type": "address"
        }
      ],
      "name": "renounceRole",
      "outputs": [],
      "stateMutability": "nonpayable",
      "type": "function"
    },
    {
      "inputs": [
        {
          "internalType": "bytes32",
          "name": "role",
          "type": "bytes32"
        },
        {
          "internalType": "address",
          "name": "account",
          "type": "address"
        }
      ],
      "name": "revokeRole",
      "outputs": [],
      "stateMutability": "nonpayable",
      "type": "function"
    },
    {
      "inputs": [
        {
          "internalType": "uint256",
          "name": "_citizenId",
          "type": "uint256"
        },
        {
          "internalType": "uint256",
          "name": "voteForCandidateId",
          "type": "uint256"
        },
        {
          "internalType": "uint256",
          "name": "_electionId",
          "type": "uint256"
        }
      ],
      "name": "vote",
      "outputs": [],
      "stateMutability": "nonpayable",
      "type": "function"
    },
    {
      "inputs": [
        {
          "internalType": "uint256",
          "name": "_citizenId",
          "type": "uint256"
        }
      ],
      "name": "getCitizen",
      "outputs": [
        {
          "internalType": "string",
          "name": "name",
          "type": "string"
        },
        {
          "internalType": "int64",
          "name": "dateOfBirth",
          "type": "int64"
        },
        {
          "internalType": "uint256",
          "name": "zipCode",
          "type": "uint256"
        },
        {
          "internalType": "bool",
          "name": "citizenship",
          "type": "bool"
        }
      ],
      "stateMutability": "view",
      "type": "function"
    },
    {
      "inputs": [
        {
          "internalType": "uint256",
          "name": "_tokenId",
          "type": "uint256"
        }
      ],
      "name": "addressAssignedToId",
      "outputs": [
        {
          "internalType": "address",
          "name": "",
          "type": "address"
        }
      ],
      "stateMutability": "view",
      "type": "function"
    },
    {
      "inputs": [
        {
          "internalType": "uint256",
          "name": "_citizenId",
          "type": "uint256"
        },
        {
          "internalType": "address",
          "name": "_citizenAddress",
          "type": "address"
        },
        {
          "internalType": "string",
          "name": "_reasonForLoseOfCitizenship",
          "type": "string"
        }
      ],
      "name": "loseOfCitizenship",
      "outputs": [],
      "stateMutability": "nonpayable",
      "type": "function"
    },
    {
      "inputs": [
        {
          "internalType": "uint256",
          "name": "_candidateId",
          "type": "uint256"
        }
      ],
      "name": "filledOfficePosition",
      "outputs": [],
      "stateMutability": "nonpayable",
      "type": "function"
    },
    {
      "inputs": [],
      "name": "timestamp",
      "outputs": [
        {
          "internalType": "uint64",
          "name": "",
          "type": "uint64"
        }
      ],
      "stateMutability": "view",
      "type": "function"
    },
    {
      "inputs": [
        {
          "internalType": "uint256",
          "name": "_candidateId",
          "type": "uint256"
        }
      ],
      "name": "getTestResultsOfCandidate",
      "outputs": [
        {
          "internalType": "string",
          "name": "_officeTitle",
          "type": "string"
        },
        {
          "internalType": "uint256",
          "name": "_zipCode",
          "type": "uint256"
        },
        {
          "internalType": "string",
          "name": "_candidateName",
          "type": "string"
        },
        {
          "internalType": "uint256",
          "name": "_voteCount",
          "type": "uint256"
        }
      ],
      "stateMutability": "view",
      "type": "function"
    },
    {
      "inputs": [
        {
          "internalType": "uint256",
          "name": "_electionId",
          "type": "uint256"
        }
      ],
      "name": "getTestHighestVoteTotal",
      "outputs": [
        {
          "internalType": "uint64",
          "name": "",
          "type": "uint64"
        }
      ],
      "stateMutability": "view",
      "type": "function"
    },
    {
      "inputs": [
        {
          "internalType": "uint256",
          "name": "_candidateId",
          "type": "uint256"
        }
      ],
      "name": "declareWinnerOfTestElection",
      "outputs": [],
      "stateMutability": "nonpayable",
      "type": "function"
    }
  ],
  "bytecode": "0x60806040523480156200001157600080fd5b50620000276000801b33620000c260201b60201c565b600460018160018154018082558091505003906000526020600020905050600180816001815401808255809150500390600052602060002090505060036001816001815401808255809150500390600052602060002090505060026001816001815401808255809150500390600052602060002090505060056001816001815401808255809150500390600052602060002090505062000258565b620000d48282620000d860201b60201c565b5050565b62000106816000808581526020019081526020016000206000016200017b60201b62004d9e1790919060201c565b1562000177576200011c620001b360201b60201c565b73ffffffffffffffffffffffffffffffffffffffff168173ffffffffffffffffffffffffffffffffffffffff16837f2f8788117e7eff1d82e926ec794901d17c78024a50270940304540a733656f0d60405160405180910390a45b5050565b6000620001ab836000018373ffffffffffffffffffffffffffffffffffffffff1660001b620001bb60201b60201c565b905092915050565b600033905090565b6000620001cf83836200023560201b60201c565b6200022a5782600001829080600181540180825580915050600190039060005260206000200160009091909190915055826000018054905083600101600084815260200190815260200160002081905550600190506200022f565b600090505b92915050565b600080836001016000848152602001908152602001600020541415905092915050565b6160e080620002686000396000f3fe608060405234801561001057600080fd5b506004361061023d5760003560e01c80638914a8a01161013b578063ca15c873116100b8578063da12095b1161007c578063da12095b14611221578063dc5c705f14611307578063e2481dbd14611335578063eee6f9bd14611353578063fe937959146113ab5761023d565b8063ca15c873146110db578063ca8836d21461111d578063ce1b6c2914611161578063d0fb300a1461118f578063d547741f146111d35761023d565b8063a217fddf116100ff578063a217fddf14610fcb578063a41ca37314610fe9578063b06b2df11461102d578063b80777ea14611085578063c4cb00d5146110ad5761023d565b80638914a8a014610cea5780638a6655d614610dab5780639010d07c14610ded57806391d1485414610e4f5780639d71077714610eb35761023d565b806336568abe116101c957806360a21d4b1161018d57806360a21d4b14610a0257806367bb975314610a625780637ce74d1314610aba5780637d5dbab314610be55780637f5880a114610c295761023d565b806336568abe1461072e5780633e80c3711461077c57806351477075146107d4578063580cb0b51461082057806358ac5af8146109415761023d565b8063248a9ca311610210578063248a9ca31461043a5780632c051df51461047c5780632f2ff15d1461055c578063320db376146105aa57806335b8e820146106145761023d565b8063047720fa1461024257806307cbd1401461028e57806321f0736414610311578063231816ab14610355575b600080fd5b61026e6004803603602081101561025857600080fd5b810190808035906020019092919050505061149b565b604051808267ffffffffffffffff16815260200191505060405180910390f35b6102ba600480360360208110156102a457600080fd5b8101908080359060200190929190505050611717565b6040518080602001828103825283818151815260200191508051906020019060200280838360005b838110156102fd5780820151818401526020810190506102e2565b505050509050019250505060405180910390f35b61033d6004803603602081101561032757600080fd5b8101908080359060200190929190505050611785565b60405180821515815260200191505060405180910390f35b6104386004803603606081101561036b57600080fd5b8101908080359060200190929190803573ffffffffffffffffffffffffffffffffffffffff169060200190929190803590602001906401000000008111156103b257600080fd5b8201836020820111156103c457600080fd5b803590602001918460018302840111640100000000831117156103e657600080fd5b91908080601f016020809104026020016040519081016040528093929190818152602001838380828437600081840152601f19601f8201169050808301925050505050505091929192905050506117a5565b005b6104666004803603602081101561045057600080fd5b81019080803590602001909291905050506117b5565b6040518082815260200191505060405180910390f35b6104a86004803603602081101561049257600080fd5b81019080803590602001909291905050506117d4565b60405180888152602001806020018760070b81526020018681526020018567ffffffffffffffff1681526020018415158152602001838152602001828103825288818151815260200191508051906020019080838360005b8381101561051b578082015181840152602081019050610500565b50505050905090810190601f1680156105485780820380516001836020036101000a031916815260200191505b509850505050505050505060405180910390f35b6105a86004803603604081101561057257600080fd5b8101908080359060200190929190803573ffffffffffffffffffffffffffffffffffffffff1690602001909291905050506118dc565b005b6105fe600480360360608110156105c057600080fd5b8101908080359060200190929190803567ffffffffffffffff169060200190929190803567ffffffffffffffff169060200190929190505050611965565b6040518082815260200191505060405180910390f35b6106406004803603602081101561062a57600080fd5b8101908080359060200190929190505050611db5565b604051808060200180602001848152602001838103835286818151815260200191508051906020019080838360005b8381101561068a57808201518184015260208101905061066f565b50505050905090810190601f1680156106b75780820380516001836020036101000a031916815260200191505b50838103825285818151815260200191508051906020019080838360005b838110156106f05780820151818401526020810190506106d5565b50505050905090810190601f16801561071d5780820380516001836020036101000a031916815260200191505b509550505050505060405180910390f35b61077a6004803603604081101561074457600080fd5b8101908080359060200190929190803573ffffffffffffffffffffffffffffffffffffffff16906020019092919050505061208e565b005b6107a86004803603602081101561079257600080fd5b8101908080359060200190929190505050612127565b604051808273ffffffffffffffffffffffffffffffffffffffff16815260200191505060405180910390f35b610800600480360360208110156107ea57600080fd5b8101908080359060200190929190505050612164565b604051808267ffffffffffffffff16815260200191505060405180910390f35b61084c6004803603602081101561083657600080fd5b81019080803590602001909291905050506123e3565b604051808060200185815260200180602001848152602001838103835287818151815260200191508051906020019080838360005b8381101561089c578082015181840152602081019050610881565b50505050905090810190601f1680156108c95780820380516001836020036101000a031916815260200191505b50838103825285818151815260200191508051906020019080838360005b838110156109025780820151818401526020810190506108e7565b50505050905090810190601f16801561092f5780820380516001836020036101000a031916815260200191505b50965050505050505060405180910390f35b61096d6004803603602081101561095757600080fd5b81019080803590602001909291905050506125e7565b60405180806020018560070b81526020018481526020018315158152602001828103825286818151815260200191508051906020019080838360005b838110156109c45780820151818401526020810190506109a9565b50505050905090810190601f1680156109f15780820380516001836020036101000a031916815260200191505b509550505050505060405180910390f35b610a4c60048036036080811015610a1857600080fd5b81019080803590602001909291908035906020019092919080359060200190929190803590602001909291905050506127b5565b6040518082815260200191505060405180910390f35b610a8e60048036036020811015610a7857600080fd5b81019080803590602001909291905050506131b0565b604051808273ffffffffffffffffffffffffffffffffffffffff16815260200191505060405180910390f35b610ae660048036036020811015610ad057600080fd5b81019080803590602001909291905050506131e3565b6040518080602001858152602001806020018467ffffffffffffffff168152602001838103835287818151815260200191508051906020019080838360005b83811015610b40578082015181840152602081019050610b25565b50505050905090810190601f168015610b6d5780820380516001836020036101000a031916815260200191505b50838103825285818151815260200191508051906020019080838360005b83811015610ba6578082015181840152602081019050610b8b565b50505050905090810190601f168015610bd35780820380516001836020036101000a031916815260200191505b50965050505050505060405180910390f35b610c1160048036036020811015610bfb57600080fd5b8101908080359060200190929190505050613462565b60405180821515815260200191505060405180910390f35b610c5560048036036020811015610c3f57600080fd5b8101908080359060200190929190505050613482565b60405180806020018581526020018460070b81526020018315158152602001828103825286818151815260200191508051906020019080838360005b83811015610cac578082015181840152602081019050610c91565b50505050905090810190601f168015610cd95780820380516001836020036101000a031916815260200191505b509550505050505060405180910390f35b610d1660048036036020811015610d0057600080fd5b810190808035906020019092919050505061358c565b60405180806020018560070b81526020018481526020018315158152602001828103825286818151815260200191508051906020019080838360005b83811015610d6d578082015181840152602081019050610d52565b50505050905090810190601f168015610d9a5780820380516001836020036101000a031916815260200191505b509550505050505060405180910390f35b610deb60048036036060811015610dc157600080fd5b810190808035906020019092919080359060200190929190803590602001909291905050506135ab565b005b610e2360048036036040811015610e0357600080fd5b810190808035906020019092919080359060200190929190505050613dbc565b604051808273ffffffffffffffffffffffffffffffffffffffff16815260200191505060405180910390f35b610e9b60048036036040811015610e6557600080fd5b8101908080359060200190929190803573ffffffffffffffffffffffffffffffffffffffff169060200190929190505050613ded565b60405180821515815260200191505060405180910390f35b610edf60048036036020811015610ec957600080fd5b8101908080359060200190929190505050613e1e565b60405180806020018681526020018567ffffffffffffffff1681526020018467ffffffffffffffff16815260200180602001838103835288818151815260200191508051906020019080838360005b83811015610f49578082015181840152602081019050610f2e565b50505050905090810190601f168015610f765780820380516001836020036101000a031916815260200191505b50838103825284818151815260200191508051906020019060200280838360005b83811015610fb2578082015181840152602081019050610f97565b5050505090500197505050505050505060405180910390f35b610fd3614023565b6040518082815260200191505060405180910390f35b61101560048036036020811015610fff57600080fd5b810190808035906020019092919050505061402a565b60405180821515815260200191505060405180910390f35b61106f6004803603602081101561104357600080fd5b81019080803573ffffffffffffffffffffffffffffffffffffffff169060200190929190505050614055565b6040518082815260200191505060405180910390f35b61108d61413d565b604051808267ffffffffffffffff16815260200191505060405180910390f35b6110d9600480360360208110156110c357600080fd5b8101908080359060200190929190505050614145565b005b611107600480360360208110156110f157600080fd5b8101908080359060200190929190505050614313565b6040518082815260200191505060405180910390f35b6111496004803603602081101561113357600080fd5b8101908080359060200190929190505050614339565b60405180821515815260200191505060405180910390f35b61118d6004803603602081101561117757600080fd5b8101908080359060200190929190505050614363565b005b6111bb600480360360208110156111a557600080fd5b81019080803590602001909291905050506145d2565b60405180821515815260200191505060405180910390f35b61121f600480360360408110156111e957600080fd5b8101908080359060200190929190803573ffffffffffffffffffffffffffffffffffffffff1690602001909291905050506145f2565b005b6112f16004803603606081101561123757600080fd5b810190808035906020019064010000000081111561125457600080fd5b82018360208201111561126657600080fd5b8035906020019184600183028401116401000000008311171561128857600080fd5b91908080601f016020809104026020016040519081016040528093929190818152602001838380828437600081840152601f19601f82011690508083019250505050505050919291929080359060200190929190803560070b906020019092919050505061467b565b6040518082815260200191505060405180910390f35b6113336004803603602081101561131d57600080fd5b8101908080359060200190929190505050614912565b005b61133d61491e565b6040518082815260200191505060405180910390f35b6113956004803603602081101561136957600080fd5b81019080803573ffffffffffffffffffffffffffffffffffffffff169060200190929190505050614942565b6040518082815260200191505060405180910390f35b611485600480360360808110156113c157600080fd5b81019080803590602001906401000000008111156113de57600080fd5b8201836020820111156113f057600080fd5b8035906020019184600183028401116401000000008311171561141257600080fd5b91908080601f016020809104026020016040519081016040528093929190818152602001838380828437600081840152601f19601f820116905080830192505050505050509192919290803560070b9060200190929190803590602001909291908035906020019092919050505061495a565b6040518082815260200191505060405180910390f35b60006114a5615976565b600483815481106114b257fe5b90600052602060002090600402016040518060a0016040529081600082015481526020016001820160009054906101000a900467ffffffffffffffff1667ffffffffffffffff1667ffffffffffffffff1681526020016001820160089054906101000a900467ffffffffffffffff1667ffffffffffffffff1667ffffffffffffffff168152602001600282015481526020016003820180548060200260200160405190810160405280929190818152602001828054801561159257602002820191906000526020600020905b81548152602001906001019080831161157e575b5050505050815250509050600115156115ae6000801b33613ded565b151514611606576040517f08c379a0000000000000000000000000000000000000000000000000000000008152600401808060200182810382526023815260200180615f9d6023913960400191505060405180910390fd5b600080600090505b82608001515181101561170c576116236159b9565b6002828154811061163057fe5b90600052602060002090600502016040518060c00160405290816000820154815260200160018201548152602001600282015481526020016003820160009054906101000a900467ffffffffffffffff1667ffffffffffffffff1667ffffffffffffffff1681526020016003820160089054906101000a900467ffffffffffffffff1667ffffffffffffffff1667ffffffffffffffff16815260200160048201548152505090508267ffffffffffffffff16816060015167ffffffffffffffff16106116fe57806060015192505b50808060010191505061160e565b819350505050919050565b6060600d600083815260200190815260200160002060000180548060200260200160405190810160405280929190818152602001828054801561177957602002820191906000526020600020905b815481526020019060010190808311611765575b50505050509050919050565b600b6020528060005260406000206000915054906101000a900460ff1681565b6117b0838383614dce565b505050565b6000806000838152602001908152602001600020600201549050919050565b6008602052806000526040600020600091509050806000015490806001018054600181600116156101000203166002900480601f0160208091040260200160405190810160405280929190818152602001828054600181600116156101000203166002900480156118865780601f1061185b57610100808354040283529160200191611886565b820191906000526020600020905b81548152906001019060200180831161186957829003601f168201915b5050505050908060020160009054906101000a900460070b908060030154908060040160009054906101000a900467ffffffffffffffff16908060040160089054906101000a900460ff16908060050154905087565b611902600080848152602001908152602001600020600201546118fd6150fb565b613ded565b611957576040517f08c379a000000000000000000000000000000000000000000000000000000000815260040180806020018281038252602f815260200180615b9d602f913960400191505060405180910390fd5b6119618282615103565b5050565b600060011515600c600086815260200190815260200160002060009054906101000a900460ff16151514611a01576040517f08c379a000000000000000000000000000000000000000000000000000000000815260040180806020018281038252601d8152602001807f4f6666696365206973204e4f5420757020666f7220656c656374696f6e00000081525060200191505060405180910390fd5b60011515611a126000801b33613ded565b15151480611a4d575060011515611a497fb7f8beecafe1ad662cec1153812612581a86b9460f21b876f3ee163141203dcb33613ded565b1515145b611aa2576040517f08c379a000000000000000000000000000000000000000000000000000000000815260040180806020018281038252602e81526020018061607d602e913960400191505060405180910390fd5b600460018160018154018082558091505003906000526020600020905050611ac8615a03565b60038581548110611ad557fe5b90600052602060002090600402016040518060a0016040529081600082018054600181600116156101000203166002900480601f016020809104026020016040519081016040528092919081815260200182805460018160011615610100020316600290048015611b875780601f10611b5c57610100808354040283529160200191611b87565b820191906000526020600020905b815481529060010190602001808311611b6a57829003601f168201915b50505050508152602001600182015481526020016002820160009054906101000a900460070b60070b60070b81526020016002820160089054906101000a900467ffffffffffffffff1667ffffffffffffffff1667ffffffffffffffff16815260200160038201548152505090506000600460016004805490500381548110611c0c57fe5b90600052602060002090600402019050858160000181905550848160010160006101000a81548167ffffffffffffffff021916908367ffffffffffffffff160217905550838160010160086101000a81548167ffffffffffffffff021916908367ffffffffffffffff160217905550600480549050816002018190555060006001600480549050039050611ca4836020015182615196565b6001600e600083815260200190815260200160002060006101000a81548160ff0219169083151502179055507fa951106ad0f6639e96325687aa3ef355f8b1d0e0a7bce6446da8c7971a2c04698360000151846020015188888560405180806020018681526020018567ffffffffffffffff1681526020018467ffffffffffffffff168152602001838152602001828103825287818151815260200191508051906020019080838360005b83811015611d6a578082015181840152602081019050611d4f565b50505050905090810190601f168015611d975780820380516001836020036101000a031916815260200191505b50965050505050505060405180910390a18093505050509392505050565b60608060008060028581548110611dc857fe5b90600052602060002090600502019050611de0615a03565b6003826001015481548110611df157fe5b90600052602060002090600402016040518060a0016040529081600082018054600181600116156101000203166002900480601f016020809104026020016040519081016040528092919081815260200182805460018160011615610100020316600290048015611ea35780601f10611e7857610100808354040283529160200191611ea3565b820191906000526020600020905b815481529060010190602001808311611e8657829003601f168201915b50505050508152602001600182015481526020016002820160009054906101000a900460070b60070b60070b81526020016002820160089054906101000a900467ffffffffffffffff1667ffffffffffffffff1667ffffffffffffffff1681526020016003820154815250509050611f19615a3f565b6001836000015481548110611f2a57fe5b90600052602060002090600602016040518060e001604052908160008201548152602001600182018054600181600116156101000203166002900480601f016020809104026020016040519081016040528092919081815260200182805460018160011615610100020316600290048015611fe65780601f10611fbb57610100808354040283529160200191611fe6565b820191906000526020600020905b815481529060010190602001808311611fc957829003601f168201915b505050505081526020016002820160009054906101000a900460070b60070b60070b8152602001600382015481526020016004820160009054906101000a900467ffffffffffffffff1667ffffffffffffffff1667ffffffffffffffff1681526020016004820160089054906101000a900460ff1615151515815260200160058201548152505090508060200151955081600001519450816020015193505050509193909250565b6120966150fb565b73ffffffffffffffffffffffffffffffffffffffff168173ffffffffffffffffffffffffffffffffffffffff1614612119576040517f08c379a000000000000000000000000000000000000000000000000000000000815260040180806020018281038252602f81526020018061604e602f913960400191505060405180910390fd5b61212382826152f5565b5050565b60006006600083815260200190815260200160002060009054906101000a900473ffffffffffffffffffffffffffffffffffffffff169050919050565b600061216e615976565b6004838154811061217b57fe5b90600052602060002090600402016040518060a0016040529081600082015481526020016001820160009054906101000a900467ffffffffffffffff1667ffffffffffffffff1667ffffffffffffffff1681526020016001820160089054906101000a900467ffffffffffffffff1667ffffffffffffffff1667ffffffffffffffff168152602001600282015481526020016003820180548060200260200160405190810160405280929190818152602001828054801561225b57602002820191906000526020600020905b815481526020019060010190808311612247575b50505050508152505090504267ffffffffffffffff16816040015167ffffffffffffffff1611156122d7576040517f08c379a000000000000000000000000000000000000000000000000000000000815260040180806020018281038252604b815260200180615cdf604b913960600191505060405180910390fd5b6000805b82608001515181116123d8576122ef6159b9565b600282815481106122fc57fe5b90600052602060002090600502016040518060c00160405290816000820154815260200160018201548152602001600282015481526020016003820160009054906101000a900467ffffffffffffffff1667ffffffffffffffff1667ffffffffffffffff1681526020016003820160089054906101000a900467ffffffffffffffff1667ffffffffffffffff1667ffffffffffffffff16815260200160048201548152505090508267ffffffffffffffff16816060015167ffffffffffffffff16106123ca57806060015192505b5080806001019150506122db565b508092505050919050565b606060006060600080600286815481106123f957fe5b906000526020600020906005020190506000600182600001548154811061241c57fe5b906000526020600020906006020190506000600483600201548154811061243f57fe5b906000526020600020906004020190506000600382600001548154811061246257fe5b90600052602060002090600402019050806000018054600181600116156101000203166002900480601f01602080910402602001604051908101604052809291908181526020018280546001816001161561010002031660029004801561250a5780601f106124df5761010080835404028352916020019161250a565b820191906000526020600020905b8154815290600101906020018083116124ed57829003601f168201915b5050505050975080600101549650826001018054600181600116156101000203166002900480601f0160208091040260200160405190810160405280929190818152602001828054600181600116156101000203166002900480156125b05780601f10612585576101008083540402835291602001916125b0565b820191906000526020600020905b81548152906001019060200180831161259357829003601f168201915b505050505095508360030160009054906101000a900467ffffffffffffffff1667ffffffffffffffff169450505050509193509193565b606060008060003373ffffffffffffffffffffffffffffffffffffffff166006600087815260200190815260200160002060009054906101000a900473ffffffffffffffffffffffffffffffffffffffff1673ffffffffffffffffffffffffffffffffffffffff16148061266b5750600115156126676000801b33613ded565b1515145b6126c0576040517f08c379a0000000000000000000000000000000000000000000000000000000008152600401808060200182810382526030815260200180615c016030913960400191505060405180910390fd5b6000600186815481106126cf57fe5b90600052602060002090600602019050806001018054600181600116156101000203166002900480601f0160208091040260200160405190810160405280929190818152602001828054600181600116156101000203166002900480156127775780601f1061274c57610100808354040283529160200191612777565b820191906000526020600020905b81548152906001019060200180831161275a57829003601f168201915b505050505094508060020160009054906101000a900460070b9350806003015492508060040160089054906101000a900460ff169150509193509193565b6000600115156009600086815260200190815260200160002060009054906101000a900460ff16151514612834576040517f08c379a0000000000000000000000000000000000000000000000000000000008152600401808060200182810382526029815260200180615ea86029913960400191505060405180910390fd5b60011515600a60003373ffffffffffffffffffffffffffffffffffffffff1673ffffffffffffffffffffffffffffffffffffffff16815260200190815260200160002060009054906101000a900460ff161515146128dd576040517f08c379a000000000000000000000000000000000000000000000000000000000815260040180806020018281038252602b815260200180615ed1602b913960400191505060405180910390fd5b3373ffffffffffffffffffffffffffffffffffffffff166006600087815260200190815260200160002060009054906101000a900473ffffffffffffffffffffffffffffffffffffffff1673ffffffffffffffffffffffffffffffffffffffff1614612994576040517f08c379a0000000000000000000000000000000000000000000000000000000008152600401808060200182810382526037815260200180615df76037913960400191505060405180910390fd5b61299c615a3f565b600860008781526020019081526020016000206040518060e001604052908160008201548152602001600182018054600181600116156101000203166002900480601f016020809104026020016040519081016040528092919081815260200182805460018160011615610100020316600290048015612a5d5780601f10612a3257610100808354040283529160200191612a5d565b820191906000526020600020905b815481529060010190602001808311612a4057829003601f168201915b505050505081526020016002820160009054906101000a900460070b60070b60070b8152602001600382015481526020016004820160009054906101000a900467ffffffffffffffff1667ffffffffffffffff1667ffffffffffffffff1681526020016004820160089054906101000a900460ff161515151581526020016005820154815250509050612aee615a03565b60038581548110612afb57fe5b90600052602060002090600402016040518060a0016040529081600082018054600181600116156101000203166002900480601f016020809104026020016040519081016040528092919081815260200182805460018160011615610100020316600290048015612bad5780601f10612b8257610100808354040283529160200191612bad565b820191906000526020600020905b815481529060010190602001808311612b9057829003601f168201915b50505050508152602001600182015481526020016002820160009054906101000a900460070b60070b60070b81526020016002820160089054906101000a900467ffffffffffffffff1667ffffffffffffffff1667ffffffffffffffff1681526020016003820154815250509050612c23615976565b60048581548110612c3057fe5b90600052602060002090600402016040518060a0016040529081600082015481526020016001820160009054906101000a900467ffffffffffffffff1667ffffffffffffffff1667ffffffffffffffff1681526020016001820160089054906101000a900467ffffffffffffffff1667ffffffffffffffff1667ffffffffffffffff1681526020016002820154815260200160038201805480602002602001604051908101604052809291908181526020018280548015612d1057602002820191906000526020600020905b815481526020019060010190808311612cfc575b5050505050815250509050600115158360a00151151514612d99576040517f08c379a000000000000000000000000000000000000000000000000000000000815260040180806020018281038252601b8152602001807f596f7520617265206e6f206c6f6e676572206120636974697a656e000000000081525060200191505060405180910390fd5b86836000015114612df5576040517f08c379a0000000000000000000000000000000000000000000000000000000008152600401808060200182810382526026815260200180615f536026913960400191505060405180910390fd5b60011515600c600088815260200190815260200160002060009054906101000a900460ff16151514612e8f576040517f08c379a000000000000000000000000000000000000000000000000000000000815260040180806020018281038252601d8152602001807f4f6666696365206973204e4f5420757020666f7220656c656374696f6e00000081525060200191505060405180910390fd5b826040015160070b826040015160070b1215612ef6576040517f08c379a000000000000000000000000000000000000000000000000000000000815260040180806020018281038252602b815260200180615c31602b913960400191505060405180910390fd5b612efe6159b9565b6040518060c001604052808a8152602001888152602001878152602001600067ffffffffffffffff1681526020014267ffffffffffffffff1681526020016002805490508152509050600281908060018154018082558091505060019003906000526020600020906005020160009091909190915060008201518160000155602082015181600101556040820151816002015560608201518160030160006101000a81548167ffffffffffffffff021916908367ffffffffffffffff16021790555060808201518160030160086101000a81548167ffffffffffffffff021916908367ffffffffffffffff16021790555060a082015181600401555050600060016002805490500390506004878154811061301557fe5b90600052602060002090600402016003018190806001815401808255809150506001900390600052602060002001600090919091909150556001600b600083815260200190815260200160002060006101000a81548160ff0219169083151502179055507f891e756eff7201520283922fc3ede4d874d465693e19f7cbb4fd2555b3b63e0a8560200151856000015185602001516040518080602001806020018467ffffffffffffffff168152602001838103835286818151815260200191508051906020019080838360005b838110156130fd5780820151818401526020810190506130e2565b50505050905090810190601f16801561312a5780820380516001836020036101000a031916815260200191505b50838103825285818151815260200191508051906020019080838360005b83811015613163578082015181840152602081019050613148565b50505050905090810190601f1680156131905780820380516001836020036101000a031916815260200191505b509550505050505060405180910390a18095505050505050949350505050565b60066020528060005260406000206000915054906101000a900473ffffffffffffffffffffffffffffffffffffffff1681565b606060006060600080600286815481106131f957fe5b906000526020600020906005020190506000600182600001548154811061321c57fe5b906000526020600020906006020190506000600483600201548154811061323f57fe5b906000526020600020906004020190504267ffffffffffffffff168160010160089054906101000a900467ffffffffffffffff1667ffffffffffffffff1611156132d4576040517f08c379a000000000000000000000000000000000000000000000000000000000815260040180806020018281038252604a815260200180615e5e604a913960600191505060405180910390fd5b600060038260000154815481106132e757fe5b90600052602060002090600402019050806000018054600181600116156101000203166002900480601f01602080910402602001604051908101604052809291908181526020018280546001816001161561010002031660029004801561338f5780601f106133645761010080835404028352916020019161338f565b820191906000526020600020905b81548152906001019060200180831161337257829003601f168201915b5050505050975080600101549650826001018054600181600116156101000203166002900480601f0160208091040260200160405190810160405280929190818152602001828054600181600116156101000203166002900480156134355780601f1061340a57610100808354040283529160200191613435565b820191906000526020600020905b81548152906001019060200180831161341857829003601f168201915b505050505095508360030160009054906101000a900467ffffffffffffffff169450505050509193509193565b600e6020528060005260406000206000915054906101000a900460ff1681565b60606000806000806003868154811061349757fe5b90600052602060002090600402019050806000018054600181600116156101000203166002900480601f01602080910402602001604051908101604052809291908181526020018280546001816001161561010002031660029004801561353f5780601f106135145761010080835404028352916020019161353f565b820191906000526020600020905b81548152906001019060200180831161352257829003601f168201915b50505050509450806001015493508060020160009054906101000a900460070b9250600c600087815260200190815260200160002060009054906101000a900460ff169150509193509193565b6060600080600061359c856125e7565b93509350935093509193509193565b3373ffffffffffffffffffffffffffffffffffffffff166006600085815260200190815260200160002060009054906101000a900473ffffffffffffffffffffffffffffffffffffffff1673ffffffffffffffffffffffffffffffffffffffff1614613662576040517f08c379a000000000000000000000000000000000000000000000000000000000815260040180806020018281038252602b815260200180615efc602b913960400191505060405180910390fd5b60011515600a60003373ffffffffffffffffffffffffffffffffffffffff1673ffffffffffffffffffffffffffffffffffffffff16815260200190815260200160002060009054906101000a900460ff1615151461370b576040517f08c379a0000000000000000000000000000000000000000000000000000000008152600401808060200182810382526024815260200180615f796024913960400191505060405180910390fd5b613713615a3f565b600860008581526020019081526020016000206040518060e001604052908160008201548152602001600182018054600181600116156101000203166002900480601f0160208091040260200160405190810160405280929190818152602001828054600181600116156101000203166002900480156137d45780601f106137a9576101008083540402835291602001916137d4565b820191906000526020600020905b8154815290600101906020018083116137b757829003601f168201915b505050505081526020016002820160009054906101000a900460070b60070b60070b8152602001600382015481526020016004820160009054906101000a900467ffffffffffffffff1667ffffffffffffffff1667ffffffffffffffff1681526020016004820160089054906101000a900460ff161515151581526020016005820154815250509050600115158160a001511515146138db576040517f08c379a000000000000000000000000000000000000000000000000000000000815260040180806020018281038252601b8152602001807f596f7520617265206e6f206c6f6e676572206120636974697a656e000000000081525060200191505060405180910390fd5b6138e3615976565b600483815481106138f057fe5b90600052602060002090600402016040518060a0016040529081600082015481526020016001820160009054906101000a900467ffffffffffffffff1667ffffffffffffffff1667ffffffffffffffff1681526020016001820160089054906101000a900467ffffffffffffffff1667ffffffffffffffff1667ffffffffffffffff16815260200160028201548152602001600382018054806020026020016040519081016040528092919081815260200182805480156139d057602002820191906000526020600020905b8154815260200190600101908083116139bc575b50505050508152505090504267ffffffffffffffff16816020015167ffffffffffffffff161115613a69576040517f08c379a000000000000000000000000000000000000000000000000000000000815260040180806020018281038252601f8152602001807f54686520656c656374696f6e20686173206e6f74206f70656e6564207965740081525060200191505060405180910390fd5b4267ffffffffffffffff16816040015167ffffffffffffffff161015613af7576040517f08c379a000000000000000000000000000000000000000000000000000000000815260040180806020018281038252601e8152602001807f54686520656c656374696f6e206973206e6f206c6f6e676572206f70656e000081525060200191505060405180910390fd5b613aff615a03565b6003826000015181548110613b1057fe5b90600052602060002090600402016040518060a0016040529081600082018054600181600116156101000203166002900480601f016020809104026020016040519081016040528092919081815260200182805460018160011615610100020316600290048015613bc25780601f10613b9757610100808354040283529160200191613bc2565b820191906000526020600020905b815481529060010190602001808311613ba557829003601f168201915b50505050508152602001600182015481526020016002820160009054906101000a900460070b60070b60070b81526020016002820160089054906101000a900467ffffffffffffffff1667ffffffffffffffff1667ffffffffffffffff16815260200160038201548152505090508060200151836060015114613c90576040517f08c379a000000000000000000000000000000000000000000000000000000000815260040180806020018281038252603d815260200180615d61603d913960400191505060405180910390fd5b600060028681548110613c9f57fe5b9060005260206000209060050201905082600001518160010154148015613cc95750848160020154145b613d1e576040517f08c379a000000000000000000000000000000000000000000000000000000000815260040180806020018281038252602c815260200180615f27602c913960400191505060405180910390fd5b60018160030160008282829054906101000a900467ffffffffffffffff160192506101000a81548167ffffffffffffffff021916908367ffffffffffffffff1602179055507e49e9a81233825e4f5949eb5b06cce97b4f086f6981805188b1e12c5cf638e4868642604051808481526020018381526020018267ffffffffffffffff168152602001935050505060405180910390a150505050505050565b6000613de58260008086815260200190815260200160002060000161538890919063ffffffff16565b905092915050565b6000613e16826000808681526020019081526020016000206000016153a290919063ffffffff16565b905092915050565b606060008060006060600060048781548110613e3657fe5b90600052602060002090600402019050613e4e615a03565b6003826000015481548110613e5f57fe5b90600052602060002090600402016040518060a0016040529081600082018054600181600116156101000203166002900480601f016020809104026020016040519081016040528092919081815260200182805460018160011615610100020316600290048015613f115780601f10613ee657610100808354040283529160200191613f11565b820191906000526020600020905b815481529060010190602001808311613ef457829003601f168201915b50505050508152602001600182015481526020016002820160009054906101000a900460070b60070b60070b81526020016002820160089054906101000a900467ffffffffffffffff1667ffffffffffffffff1667ffffffffffffffff168152602001600382015481525050905080600001519650806020015195508160010160009054906101000a900467ffffffffffffffff1694508160010160089054906101000a900467ffffffffffffffff1693508160030180548060200260200160405190810160405280929190818152602001828054801561401157602002820191906000526020600020905b815481526020019060010190808311613ffd575b50505050509250505091939590929450565b6000801b81565b600d6020528060005260406000206000915090508060010160009054906101000a900460ff16905081565b60008173ffffffffffffffffffffffffffffffffffffffff163373ffffffffffffffffffffffffffffffffffffffff1614806140a157506001151561409d6000801b33613ded565b1515145b6140f6576040517f08c379a0000000000000000000000000000000000000000000000000000000008152600401808060200182810382526030815260200180615c016030913960400191505060405180910390fd5b600760008373ffffffffffffffffffffffffffffffffffffffff1673ffffffffffffffffffffffffffffffffffffffff168152602001908152602001600020549050919050565b600042905090565b61414d6159b9565b6002828154811061415a57fe5b90600052602060002090600502016040518060c00160405290816000820154815260200160018201548152602001600282015481526020016003820160009054906101000a900467ffffffffffffffff1667ffffffffffffffff1667ffffffffffffffff1681526020016003820160089054906101000a900467ffffffffffffffff1667ffffffffffffffff1667ffffffffffffffff1681526020016004820154815250509050806060015167ffffffffffffffff1661421d826040015161149b565b67ffffffffffffffff161461427d576040517f08c379a0000000000000000000000000000000000000000000000000000000008152600401808060200182810382526037815260200180615d2a6037913960400191505060405180910390fd5b61428682614912565b7f737019d53070b31742678ee65b3baa855c9cb034d73d970a17e2b352a3d773e582826020015183606001514233604051808681526020018581526020018467ffffffffffffffff1681526020018367ffffffffffffffff1681526020018273ffffffffffffffffffffffffffffffffffffffff1681526020019550505050505060405180910390a15050565b60006143326000808481526020019081526020016000206000016153d2565b9050919050565b6000600e600083815260200190815260200160002060009054906101000a900460ff169050919050565b61436b6159b9565b6002828154811061437857fe5b90600052602060002090600502016040518060c00160405290816000820154815260200160018201548152602001600282015481526020016003820160009054906101000a900467ffffffffffffffff1667ffffffffffffffff1667ffffffffffffffff1681526020016003820160089054906101000a900467ffffffffffffffff1667ffffffffffffffff1667ffffffffffffffff1681526020016004820154815250509050806060015167ffffffffffffffff1661443b8260400151612164565b67ffffffffffffffff161461449b576040517f08c379a0000000000000000000000000000000000000000000000000000000008152600401808060200182810382526037815260200180615d2a6037913960400191505060405180910390fd5b600115156144ac6000801b33613ded565b151514806144e75750600115156144e37fb7f8beecafe1ad662cec1153812612581a86b9460f21b876f3ee163141203dcb33613ded565b1515145b61453c576040517f08c379a000000000000000000000000000000000000000000000000000000000815260040180806020018281038252603d815260200180615fc0603d913960400191505060405180910390fd5b614545826153e7565b7f737019d53070b31742678ee65b3baa855c9cb034d73d970a17e2b352a3d773e582826020015183606001514233604051808681526020018581526020018467ffffffffffffffff1681526020018367ffffffffffffffff1681526020018273ffffffffffffffffffffffffffffffffffffffff1681526020019550505050505060405180910390a15050565b600c6020528060005260406000206000915054906101000a900460ff1681565b614618600080848152602001908152602001600020600201546146136150fb565b613ded565b61466d576040517f08c379a0000000000000000000000000000000000000000000000000000000008152600401808060200182810382526030815260200180615e2e6030913960400191505060405180910390fd5b61467782826152f5565b5050565b60006001151561468e6000801b33613ded565b151514806146c95750600115156146c57fb7f8beecafe1ad662cec1153812612581a86b9460f21b876f3ee163141203dcb33613ded565b1515145b61471e576040517f08c379a0000000000000000000000000000000000000000000000000000000008152600401808060200182810382526035815260200180615bcc6035913960400191505060405180910390fd5b614726615a03565b6040518060a001604052808681526020018581526020018460070b81526020014267ffffffffffffffff1681526020016003805490508152509050600381908060018154018082558091505060019003906000526020600020906004020160009091909190915060008201518160000190805190602001906147a9929190615a8b565b506020820151816001015560408201518160020160006101000a81548167ffffffffffffffff021916908360070b67ffffffffffffffff16021790555060608201518160020160086101000a81548167ffffffffffffffff021916908367ffffffffffffffff160217905550608082015181600301555050600060016003805490500390506001600c600083815260200190815260200160002060006101000a81548160ff0219169083151502179055507fb88277fa8c66993083f7ebdd5f92a7991cf4ed8d4957b20268880dca91a50bdb8686836040518080602001848152602001838152602001828103825285818151815260200191508051906020019080838360005b838110156148ca5780820151818401526020810190506148af565b50505050905090810190601f1680156148f75780820380516001836020036101000a031916815260200191505b5094505050505060405180910390a180925050509392505050565b61491b816153e7565b50565b7fb7f8beecafe1ad662cec1153812612581a86b9460f21b876f3ee163141203dcb81565b60076020528060005260406000206000915090505481565b60008015156009600084815260200190815260200160002060009054906101000a900460ff161515146149d8576040517f08c379a00000000000000000000000000000000000000000000000000000000081526004018080602001828103825260298152602001806160256029913960400191505060405180910390fd5b60001515600a60003373ffffffffffffffffffffffffffffffffffffffff1673ffffffffffffffffffffffffffffffffffffffff16815260200190815260200160002060009054906101000a900460ff16151514614a81576040517f08c379a0000000000000000000000000000000000000000000000000000000008152600401808060200182810382526028815260200180615c916028913960400191505060405180910390fd5b614a89615a3f565b6040518060e001604052808481526020018781526020018660070b81526020018581526020014267ffffffffffffffff16815260200160011515815260200160018054905081525090506001819080600181540180825580915050600190039060005260206000209060060201600090919091909150600082015181600001556020820151816001019080519060200190614b25929190615a8b565b5060408201518160020160006101000a81548167ffffffffffffffff021916908360070b67ffffffffffffffff1602179055506060820151816003015560808201518160040160006101000a81548167ffffffffffffffff021916908367ffffffffffffffff16021790555060a08201518160040160086101000a81548160ff02191690831515021790555060c08201518160050155505060006001808054905003905060016009600086815260200190815260200160002060006101000a81548160ff0219169083151502179055506001600a60003373ffffffffffffffffffffffffffffffffffffffff1673ffffffffffffffffffffffffffffffffffffffff16815260200190815260200160002060006101000a81548160ff0219169083151502179055508160086000838152602001908152602001600020600082015181600001556020820151816001019080519060200190614c87929190615a8b565b5060408201518160020160006101000a81548167ffffffffffffffff021916908360070b67ffffffffffffffff1602179055506060820151816003015560808201518160040160006101000a81548167ffffffffffffffff021916908367ffffffffffffffff16021790555060a08201518160040160086101000a81548160ff02191690831515021790555060c082015181600501559050507fa12daf0dc9e98c44420339df34fbae8835074be1a972516ca7363d867ca01d9c33828688604051808573ffffffffffffffffffffffffffffffffffffffff16815260200184815260200183815260200182815260200194505050505060405180910390a1614d9160003383615629565b8092505050949350505050565b6000614dc6836000018373ffffffffffffffffffffffffffffffffffffffff1660001b615737565b905092915050565b60011515614ddf6000801b33613ded565b151514614e37576040517f08c379a0000000000000000000000000000000000000000000000000000000008152600401808060200182810382526035815260200180615c5c6035913960400191505060405180910390fd5b8173ffffffffffffffffffffffffffffffffffffffff166006600085815260200190815260200160002060009054906101000a900473ffffffffffffffffffffffffffffffffffffffff1673ffffffffffffffffffffffffffffffffffffffff1614614eee576040517f08c379a0000000000000000000000000000000000000000000000000000000008152600401808060200182810382526028815260200180615ffd6028913960400191505060405180910390fd5b8173ffffffffffffffffffffffffffffffffffffffff163373ffffffffffffffffffffffffffffffffffffffff161415614f73576040517f08c379a0000000000000000000000000000000000000000000000000000000008152600401808060200182810382526026815260200180615cb96026913960400191505060405180910390fd5b60006009600085815260200190815260200160002060006101000a81548160ff0219169083151502179055506000600a60008473ffffffffffffffffffffffffffffffffffffffff1673ffffffffffffffffffffffffffffffffffffffff16815260200190815260200160002060006101000a81548160ff02191690831515021790555060006001848154811061500657fe5b9060005260206000209060060201905060008160040160086101000a81548160ff0219169083151502179055507f5dbf89e749b723e87d5232ef46f9acbeb85bcfccd0c9d7c18c1993d9de5c0670848484604051808481526020018373ffffffffffffffffffffffffffffffffffffffff16815260200180602001828103825283818151815260200191508051906020019080838360005b838110156150b957808201518184015260208101905061509e565b50505050905090810190601f1680156150e65780820380516001836020036101000a031916815260200191505b5094505050505060405180910390a150505050565b600033905090565b61512a81600080858152602001908152602001600020600001614d9e90919063ffffffff16565b15615192576151376150fb565b73ffffffffffffffffffffffffffffffffffffffff168173ffffffffffffffffffffffffffffffffffffffff16837f2f8788117e7eff1d82e926ec794901d17c78024a50270940304540a733656f0d60405160405180910390a45b5050565b60011515600d600084815260200190815260200160002060010160009054906101000a900460ff161515146152b35760056001816001815401808255809150500390600052602060002090505060006005600160058054905003815481106151fa57fe5b906000526020600020906002020190508060000182908060018154018082558091505060019003906000526020600020016000909190919091505560018160010160006101000a81548160ff02191690831515021790555080600d6000858152602001908152602001600020600082018160000190805461527c929190615b0b565b506001820160009054906101000a900460ff168160010160006101000a81548160ff021916908315150217905550905050506152f1565b600d60008381526020019081526020016000206000018190806001815401808255809150506001900390600052602060002001600090919091909150555b5050565b61531c816000808581526020019081526020016000206000016157a790919063ffffffff16565b15615384576153296150fb565b73ffffffffffffffffffffffffffffffffffffffff168173ffffffffffffffffffffffffffffffffffffffff16837ff6391f5c32d9c69d2a47ea670b442974b53935d1edc7fd64eb21e047a839171b60405160405180910390a45b5050565b600061539783600001836157d7565b60001c905092915050565b60006153ca836000018373ffffffffffffffffffffffffffffffffffffffff1660001b61585a565b905092915050565b60006153e08260000161587d565b9050919050565b600115156153f86000801b33613ded565b1515148061543357506001151561542f7fb7f8beecafe1ad662cec1153812612581a86b9460f21b876f3ee163141203dcb33613ded565b1515145b615488576040517f08c379a0000000000000000000000000000000000000000000000000000000008152600401808060200182810382526034815260200180615dc36034913960400191505060405180910390fd5b6154906159b9565b6002828154811061549d57fe5b90600052602060002090600502016040518060c00160405290816000820154815260200160018201548152602001600282015481526020016003820160009054906101000a900467ffffffffffffffff1667ffffffffffffffff1667ffffffffffffffff1681526020016003820160089054906101000a900467ffffffffffffffff1667ffffffffffffffff1667ffffffffffffffff168152602001600482015481525050905060011515600c60008360200151815260200190815260200160002060009054906101000a900460ff161515146155c5576040517f08c379a0000000000000000000000000000000000000000000000000000000008152600401808060200182810382526025815260200180615d9e6025913960400191505060405180910390fd5b6000600e60008360400151815260200190815260200160002060006101000a81548160ff0219169083151502179055506000600c60008360200151815260200190815260200160002060006101000a81548160ff0219169083151502179055505050565b816006600083815260200190815260200160002060006101000a81548173ffffffffffffffffffffffffffffffffffffffff021916908373ffffffffffffffffffffffffffffffffffffffff16021790555080600760008473ffffffffffffffffffffffffffffffffffffffff1673ffffffffffffffffffffffffffffffffffffffff168152602001908152602001600020819055507f0c0ee92e381a7696445c71651e0d09689a61bd67a3b7c08ebe8fec6339c1e011838383604051808473ffffffffffffffffffffffffffffffffffffffff1681526020018373ffffffffffffffffffffffffffffffffffffffff168152602001828152602001935050505060405180910390a1505050565b6000615743838361585a565b61579c5782600001829080600181540180825580915050600190039060005260206000200160009091909190915055826000018054905083600101600084815260200190815260200160002081905550600190506157a1565b600090505b92915050565b60006157cf836000018373ffffffffffffffffffffffffffffffffffffffff1660001b61588e565b905092915050565b600081836000018054905011615838576040517f08c379a0000000000000000000000000000000000000000000000000000000008152600401808060200182810382526022815260200180615b7b6022913960400191505060405180910390fd5b82600001828154811061584757fe5b9060005260206000200154905092915050565b600080836001016000848152602001908152602001600020541415905092915050565b600081600001805490509050919050565b6000808360010160008481526020019081526020016000205490506000811461596a57600060018203905060006001866000018054905003905060008660000182815481106158d957fe5b90600052602060002001549050808760000184815481106158f657fe5b906000526020600020018190555060018301876001016000838152602001908152602001600020819055508660000180548061592e57fe5b60019003818190600052602060002001600090559055866001016000878152602001908152602001600020600090556001945050505050615970565b60009150505b92915050565b6040518060a0016040528060008152602001600067ffffffffffffffff168152602001600067ffffffffffffffff16815260200160008152602001606081525090565b6040518060c00160405280600081526020016000815260200160008152602001600067ffffffffffffffff168152602001600067ffffffffffffffff168152602001600081525090565b6040518060a001604052806060815260200160008152602001600060070b8152602001600067ffffffffffffffff168152602001600081525090565b6040518060e001604052806000815260200160608152602001600060070b815260200160008152602001600067ffffffffffffffff168152602001600015158152602001600081525090565b828054600181600116156101000203166002900490600052602060002090601f016020900481019282601f10615acc57805160ff1916838001178555615afa565b82800160010185558215615afa579182015b82811115615af9578251825591602001919060010190615ade565b5b509050615b079190615b5d565b5090565b828054828255906000526020600020908101928215615b4c5760005260206000209182015b82811115615b4b578254825591600101919060010190615b30565b5b509050615b599190615b5d565b5090565b5b80821115615b76576000816000905550600101615b5e565b509056fe456e756d657261626c655365743a20696e646578206f7574206f6620626f756e6473416363657373436f6e74726f6c3a2073656e646572206d75737420626520616e2061646d696e20746f206772616e74596f7520646f204e4f5420686176652061636365737320746f206372656174696e6720616e206f666669636520706f736974696f6e4164647265737320646f6573206e6f7420686176652061636365737320746f207468697320696e666f726d6174696f6e436974697a656e206973204e4f54206f6c6420656e6f75676820746f2072756e20666f72204f6666696365596f7520646f204e4f5420686176652061636365737320746f206368616e67696e6720636974697a656e73686970207374617475734164647265737320697320616c72656164792061737369676e656420746f206120636974697a656e596f752063616e6e6f74206368616e676520796f7572206f776e20636974697a656e73686970456c656374696f6e20726573756c747320617265206e6f7420617661696c61626c6520756e74696c20656c656374696f6e20697320636c6f736564206f66662066726f6d20766f74696e67546869732063616e64696461746520646f6573206e6f74206861766520746865206869676865737420616d6f756e74206f6620766f7465596f7520617265206e6f74207065726d697474656420746f20766f746520666f722074686973206f666669636520696e2074686973207a6970436f64655468697320706f736974696f6e20776173206e6f7420757020666f7220656c656374696f6e596f7520646f204e4f5420686176652061636365737320746f20636c6f73696e6720616e206f666669636520706f736974696f6e55736572206973206e6f74206f776e6572206f6620636974697a656e20747279696e6720746f206265636f6d652063616e646964617465416363657373436f6e74726f6c3a2073656e646572206d75737420626520616e2061646d696e20746f207265766f6b65456c656374696f6e20726573756c747320617265206e6f7420617661696c61626c6520756e74696c20656c656374696f6e20697320636c6f7365206f66662066726f6d20766f74696e675374617465204964206973206e6f742061737369676e656420746f206120636974697a656e2079657441646472657373206973206e6f742061737369676e656420746f20746f206120636974697a656e2079657455736572206973206e6f74206f776e6572206f6620636974697a656e20747279696e6720746f20766f7465546869732063616e646964617465206973206e6f7420656c696769626c6520666f72207468697320766f746555736572206973206e6f74206f776e6572206f66207265717569726564205374617465204944546869732061646472657373206973206e6f7420656c696769626c6520746f20766f7465596f7520646f204e4f5420686176652061636365737320746f20746869732064617461596f7520646f204e4f5420686176652061636365737320746f206465636c6172696e6720612077696e6e6572206f66207468697320656c656374696f6e54686973206973206e6f742074686520636974697a656e7320636f72726563742061646472657373537461746520494420697320616c72656164792061737369676e656420746f206120636974697a656e416363657373436f6e74726f6c3a2063616e206f6e6c792072656e6f756e636520726f6c657320666f722073656c66596f7520646f204e4f5420686176652061636365737320746f206372656174696e6720616e20656c656374696f6ea2646970667358221220088dbc02e0d9989bc38400b9513876ff72e57e67fc2fba18d0ff00e7cbb7b28664736f6c63430007000033",
  "immutableReferences": {},
  "source": "pragma solidity ^0.7\n.0;\n\nimport \"./OneVote.sol\";\n\n\ncontract Test is OneVote{\n\n  /* function createCitizen(\n    string memory _name,\n    int64 _dateOfBirth,\n    uint256 _zipCode,\n    uint256 _stateId\n    ) public returns (uint256){\n      return _createCitizen(_name, _dateOfBirth, _zipCode, _stateId);\n    } */\n\n\n  function getCitizen(uint256 _citizenId) public view returns(string memory name, int64 dateOfBirth, uint256 zipCode, bool citizenship){\n    return _getCitizen(_citizenId);\n  }\n\n\n  function addressAssignedToId(uint256 _tokenId) public view returns(address){\n    return citizenIndexToOwner[_tokenId];\n  }\n\n\n  function loseOfCitizenship(\n          uint256 _citizenId,\n          address _citizenAddress,\n          string memory _reasonForLoseOfCitizenship\n    ) public{\n      _loseOfCitizenship(_citizenId, _citizenAddress, _reasonForLoseOfCitizenship);\n  }\n\n\n  function filledOfficePosition(uint256 _candidateId) public {\n    _filledOfficePosition(_candidateId);\n  }\n\n\n  function timestamp() public view returns(uint64){\n    return uint64(block.timestamp);\n  }\n\n\n  function getTestResultsOfCandidate(uint256 _candidateId) public view returns(\n        string memory _officeTitle,\n        uint256 _zipCode,\n        string memory _candidateName,\n        uint256 _voteCount\n      )\n  {\n    Candidate storage candidate = candidates[_candidateId];\n\n    Citizen storage citizen = citizens[candidate.citizenId];\n\n    Election storage election = elections[candidate.electionId];\n    /* require(election.electionEnd <= uint64(block.timestamp), \"Election results are not available until election is close off from voting\"); */\n\n    Office storage office = offices[election.officeId];\n\n    _officeTitle = office.officeTitle;\n    _zipCode = office.zipCode;\n    _candidateName = citizen.name;\n    _voteCount = candidate.voteCount;\n  }\n\n\n  function getTestHighestVoteTotal(uint256 _electionId) public view returns(uint64){\n    Election memory election = elections[_electionId];\n\n    require(hasRole(DEFAULT_ADMIN_ROLE, msg.sender) == true, \"You do NOT have access to this data\");\n\n    uint64 highestVoteCount = 0;\n    uint256 i = 0;\n\n    for(i = 0; i < election.candidateIds.length; i++){\n      Candidate memory candidate = candidates[i];\n      if(candidate.voteCount >= highestVoteCount){\n        highestVoteCount = candidate.voteCount;\n      }\n    }\n    return highestVoteCount;\n  }\n\n\n  function declareWinnerOfTestElection(uint256 _candidateId) public {\n    Candidate memory candidate = candidates[_candidateId];\n    require(getTestHighestVoteTotal(candidate.electionId) == candidate.voteCount, \"This candidate does not have the highest amount of vote\");\n\n    filledOfficePosition(_candidateId);\n\n    emit Winner(_candidateId, candidate.officeId, candidate.voteCount, uint64(block.timestamp), msg.sender);\n  }\n\n\n  /* function getTestIdOfWinningCandidates(uint256 _electionId) public view returns(uint256[] memory){\n    Election memory election = elections[_electionId];\n\n    uint64 highestVoteCount = getTestHighestVoteTotal(_electionId);\n    uint256[] memory result = new uint256[](election.candidateIds.length);\n\n    for(uint256 i = 0; i < election.candidateIds.length; i++){\n      Candidate memory candidate = candidates[i];\n      if(candidate.voteCount == highestVoteCount){\n        result[i] = candidate.candidateId;\n      }\n    }\n    return result;\n  } */\n\n\n}\n",
  "sourcePath": "/Users/CalvinCutlass/Desktop/Coding/coding_2020/ivan_bootcamp/week_11/One_Vote/contracts/Test_OneVote.sol",
  "compiler": {
    "name": "solc",
    "version": "0.7.0+commit.9e61f92b.Emscripten.clang"
  },
  "schemaVersion": "3.2.0",
  "updatedAt": "2021-03-06T01:00:15.281Z",
  "devdoc": {
    "kind": "dev",
    "methods": {
      "getRoleAdmin(bytes32)": {
        "details": "Returns the admin role that controls `role`. See {grantRole} and {revokeRole}. To change a role's admin, use {_setRoleAdmin}."
      },
      "getRoleMember(bytes32,uint256)": {
        "details": "Returns one of the accounts that have `role`. `index` must be a value between 0 and {getRoleMemberCount}, non-inclusive. Role bearers are not sorted in any particular way, and their ordering may change at any point. WARNING: When using {getRoleMember} and {getRoleMemberCount}, make sure you perform all queries on the same block. See the following https://forum.openzeppelin.com/t/iterating-over-elements-on-enumerableset-in-openzeppelin-contracts/2296[forum post] for more information."
      },
      "getRoleMemberCount(bytes32)": {
        "details": "Returns the number of accounts that have `role`. Can be used together with {getRoleMember} to enumerate all bearers of a role."
      },
      "grantRole(bytes32,address)": {
        "details": "Grants `role` to `account`. If `account` had not been already granted `role`, emits a {RoleGranted} event. Requirements: - the caller must have ``role``'s admin role."
      },
      "hasRole(bytes32,address)": {
        "details": "Returns `true` if `account` has been granted `role`."
      },
      "renounceRole(bytes32,address)": {
        "details": "Revokes `role` from the calling account. Roles are often managed via {grantRole} and {revokeRole}: this function's purpose is to provide a mechanism for accounts to lose their privileges if they are compromised (such as when a trusted device is misplaced). If the calling account had been granted `role`, emits a {RoleRevoked} event. Requirements: - the caller must be `account`."
      },
      "revokeRole(bytes32,address)": {
        "details": "Revokes `role` from `account`. If `account` had been granted `role`, emits a {RoleRevoked} event. Requirements: - the caller must have ``role``'s admin role."
      }
    },
    "version": 1
  },
  "userdoc": {
    "kind": "user",
    "methods": {},
    "version": 1
  }
}