{
  "contractName": "Test",
  "abi": [
    {
      "anonymous": false,
      "inputs": [
        {
          "indexed": false,
          "internalType": "address",
          "name": "from",
          "type": "address"
        },
        {
          "indexed": false,
          "internalType": "address",
          "name": "to",
          "type": "address"
        },
        {
          "indexed": false,
          "internalType": "uint256",
          "name": "tokenId",
          "type": "uint256"
        }
      ],
      "name": "Assigned",
      "type": "event"
    },
    {
      "anonymous": false,
      "inputs": [
        {
          "indexed": false,
          "internalType": "string",
          "name": "_name",
          "type": "string"
        },
        {
          "indexed": false,
          "internalType": "string",
          "name": "_officeTitle",
          "type": "string"
        },
        {
          "indexed": false,
          "internalType": "uint64",
          "name": "_electionStart",
          "type": "uint64"
        }
      ],
      "name": "CandidateAdded",
      "type": "event"
    },
    {
      "anonymous": false,
      "inputs": [
        {
          "indexed": false,
          "internalType": "address",
          "name": "owner",
          "type": "address"
        },
        {
          "indexed": false,
          "internalType": "uint256",
          "name": "citizenId",
          "type": "uint256"
        },
        {
          "indexed": false,
          "internalType": "uint256",
          "name": "stateId",
          "type": "uint256"
        },
        {
          "indexed": false,
          "internalType": "uint256",
          "name": "zipCode",
          "type": "uint256"
        }
      ],
      "name": "CitizenAdded",
      "type": "event"
    },
    {
      "anonymous": false,
      "inputs": [
        {
          "indexed": false,
          "internalType": "string",
          "name": "_officeTitle",
          "type": "string"
        },
        {
          "indexed": false,
          "internalType": "uint256",
          "name": "_zipCode",
          "type": "uint256"
        },
        {
          "indexed": false,
          "internalType": "uint64",
          "name": "_electionStart",
          "type": "uint64"
        },
        {
          "indexed": false,
          "internalType": "uint64",
          "name": "_electionEnd",
          "type": "uint64"
        },
        {
          "indexed": false,
          "internalType": "uint256",
          "name": "_electionId",
          "type": "uint256"
        }
      ],
      "name": "ElectionAdded",
      "type": "event"
    },
    {
      "anonymous": false,
      "inputs": [
        {
          "indexed": false,
          "internalType": "uint256",
          "name": "citizenId",
          "type": "uint256"
        },
        {
          "indexed": false,
          "internalType": "address",
          "name": "citzenAddress",
          "type": "address"
        },
        {
          "indexed": false,
          "internalType": "string",
          "name": "reasonForLoseOfCitizenship",
          "type": "string"
        }
      ],
      "name": "NoLongerACitizen",
      "type": "event"
    },
    {
      "anonymous": false,
      "inputs": [
        {
          "indexed": false,
          "internalType": "string",
          "name": "_officeTitle",
          "type": "string"
        },
        {
          "indexed": false,
          "internalType": "uint256",
          "name": "_zipCode",
          "type": "uint256"
        },
        {
          "indexed": false,
          "internalType": "uint256",
          "name": "_officeId",
          "type": "uint256"
        }
      ],
      "name": "OfficeAdded",
      "type": "event"
    },
    {
      "anonymous": false,
      "inputs": [
        {
          "indexed": true,
          "internalType": "bytes32",
          "name": "role",
          "type": "bytes32"
        },
        {
          "indexed": true,
          "internalType": "bytes32",
          "name": "previousAdminRole",
          "type": "bytes32"
        },
        {
          "indexed": true,
          "internalType": "bytes32",
          "name": "newAdminRole",
          "type": "bytes32"
        }
      ],
      "name": "RoleAdminChanged",
      "type": "event"
    },
    {
      "anonymous": false,
      "inputs": [
        {
          "indexed": true,
          "internalType": "bytes32",
          "name": "role",
          "type": "bytes32"
        },
        {
          "indexed": true,
          "internalType": "address",
          "name": "account",
          "type": "address"
        },
        {
          "indexed": true,
          "internalType": "address",
          "name": "sender",
          "type": "address"
        }
      ],
      "name": "RoleGranted",
      "type": "event"
    },
    {
      "anonymous": false,
      "inputs": [
        {
          "indexed": true,
          "internalType": "bytes32",
          "name": "role",
          "type": "bytes32"
        },
        {
          "indexed": true,
          "internalType": "address",
          "name": "account",
          "type": "address"
        },
        {
          "indexed": true,
          "internalType": "address",
          "name": "sender",
          "type": "address"
        }
      ],
      "name": "RoleRevoked",
      "type": "event"
    },
    {
      "anonymous": false,
      "inputs": [
        {
          "indexed": false,
          "internalType": "uint256",
          "name": "_candidateId",
          "type": "uint256"
        },
        {
          "indexed": false,
          "internalType": "uint256",
          "name": "_electionId",
          "type": "uint256"
        },
        {
          "indexed": false,
          "internalType": "uint64",
          "name": "timeVoteCast",
          "type": "uint64"
        }
      ],
      "name": "VoteCast",
      "type": "event"
    },
    {
      "anonymous": false,
      "inputs": [
        {
          "indexed": false,
          "internalType": "uint256",
          "name": "_candidateId",
          "type": "uint256"
        },
        {
          "indexed": false,
          "internalType": "uint256",
          "name": "_officeId",
          "type": "uint256"
        },
        {
          "indexed": false,
          "internalType": "uint64",
          "name": "_voteCount",
          "type": "uint64"
        },
        {
          "indexed": false,
          "internalType": "uint64",
          "name": "timestamp",
          "type": "uint64"
        },
        {
          "indexed": false,
          "internalType": "address",
          "name": "confirmedBy",
          "type": "address"
        }
      ],
      "name": "Winner",
      "type": "event"
    },
    {
      "inputs": [],
      "name": "DEFAULT_ADMIN_ROLE",
      "outputs": [
        {
          "internalType": "bytes32",
          "name": "",
          "type": "bytes32"
        }
      ],
      "stateMutability": "view",
      "type": "function"
    },
    {
      "inputs": [],
      "name": "LOCAL_ADMIN_ROLE",
      "outputs": [
        {
          "internalType": "bytes32",
          "name": "",
          "type": "bytes32"
        }
      ],
      "stateMutability": "view",
      "type": "function"
    },
    {
      "inputs": [
        {
          "internalType": "uint256",
          "name": "",
          "type": "uint256"
        }
      ],
      "name": "candidateIsApprovedToRun",
      "outputs": [
        {
          "internalType": "bool",
          "name": "",
          "type": "bool"
        }
      ],
      "stateMutability": "view",
      "type": "function"
    },
    {
      "inputs": [
        {
          "internalType": "address",
          "name": "",
          "type": "address"
        }
      ],
      "name": "citizenIdOfAddress",
      "outputs": [
        {
          "internalType": "uint256",
          "name": "",
          "type": "uint256"
        }
      ],
      "stateMutability": "view",
      "type": "function"
    },
    {
      "inputs": [
        {
          "internalType": "uint256",
          "name": "",
          "type": "uint256"
        }
      ],
      "name": "citizenIdToCitizen",
      "outputs": [
        {
          "internalType": "uint256",
          "name": "stateId",
          "type": "uint256"
        },
        {
          "internalType": "string",
          "name": "name",
          "type": "string"
        },
        {
          "internalType": "int64",
          "name": "dateOfBirth",
          "type": "int64"
        },
        {
          "internalType": "uint256",
          "name": "zipCode",
          "type": "uint256"
        },
        {
          "internalType": "uint64",
          "name": "dateApproved",
          "type": "uint64"
        },
        {
          "internalType": "bool",
          "name": "citizenship",
          "type": "bool"
        },
        {
          "internalType": "uint256",
          "name": "citizenId",
          "type": "uint256"
        }
      ],
      "stateMutability": "view",
      "type": "function"
    },
    {
      "inputs": [
        {
          "internalType": "uint256",
          "name": "",
          "type": "uint256"
        }
      ],
      "name": "citizenIndexToOwner",
      "outputs": [
        {
          "internalType": "address",
          "name": "",
          "type": "address"
        }
      ],
      "stateMutability": "view",
      "type": "function"
    },
    {
      "inputs": [
        {
          "internalType": "uint256",
          "name": "_officeId",
          "type": "uint256"
        },
        {
          "internalType": "uint64",
          "name": "_start",
          "type": "uint64"
        },
        {
          "internalType": "uint64",
          "name": "_end",
          "type": "uint64"
        }
      ],
      "name": "createAnElection",
      "outputs": [
        {
          "internalType": "uint256",
          "name": "",
          "type": "uint256"
        }
      ],
      "stateMutability": "nonpayable",
      "type": "function"
    },
    {
      "inputs": [
        {
          "internalType": "uint256",
          "name": "_citizenId",
          "type": "uint256"
        },
        {
          "internalType": "uint256",
          "name": "_stateId",
          "type": "uint256"
        },
        {
          "internalType": "uint256",
          "name": "_officeId",
          "type": "uint256"
        },
        {
          "internalType": "uint256",
          "name": "_electionId",
          "type": "uint256"
        }
      ],
      "name": "createCandidate",
      "outputs": [
        {
          "internalType": "uint256",
          "name": "",
          "type": "uint256"
        }
      ],
      "stateMutability": "nonpayable",
      "type": "function"
    },
    {
      "inputs": [
        {
          "internalType": "string",
          "name": "_officeTitle",
          "type": "string"
        },
        {
          "internalType": "uint256",
          "name": "_zipCode",
          "type": "uint256"
        },
        {
          "internalType": "int64",
          "name": "_requiredAge",
          "type": "int64"
        }
      ],
      "name": "createOffice",
      "outputs": [
        {
          "internalType": "uint256",
          "name": "",
          "type": "uint256"
        }
      ],
      "stateMutability": "nonpayable",
      "type": "function"
    },
    {
      "inputs": [
        {
          "internalType": "uint256",
          "name": "_candidateId",
          "type": "uint256"
        }
      ],
      "name": "declareWinnerOfElection",
      "outputs": [],
      "stateMutability": "nonpayable",
      "type": "function"
    },
    {
      "inputs": [
        {
          "internalType": "uint256",
          "name": "_candidateId",
          "type": "uint256"
        }
      ],
      "name": "getCandidate",
      "outputs": [
        {
          "internalType": "string",
          "name": "name",
          "type": "string"
        },
        {
          "internalType": "string",
          "name": "officeTitle",
          "type": "string"
        },
        {
          "internalType": "uint256",
          "name": "zipCode",
          "type": "uint256"
        }
      ],
      "stateMutability": "view",
      "type": "function"
    },
    {
      "inputs": [
        {
          "internalType": "address",
          "name": "owner",
          "type": "address"
        }
      ],
      "name": "getCitizenId",
      "outputs": [
        {
          "internalType": "uint256",
          "name": "",
          "type": "uint256"
        }
      ],
      "stateMutability": "view",
      "type": "function"
    },
    {
      "inputs": [
        {
          "internalType": "uint256",
          "name": "_electionId",
          "type": "uint256"
        }
      ],
      "name": "getElection",
      "outputs": [
        {
          "internalType": "string",
          "name": "officeTitle",
          "type": "string"
        },
        {
          "internalType": "uint256",
          "name": "zipCode",
          "type": "uint256"
        },
        {
          "internalType": "uint64",
          "name": "electionStart",
          "type": "uint64"
        },
        {
          "internalType": "uint64",
          "name": "electionEnd",
          "type": "uint64"
        },
        {
          "internalType": "uint256[]",
          "name": "candidateIds",
          "type": "uint256[]"
        }
      ],
      "stateMutability": "view",
      "type": "function"
    },
    {
      "inputs": [
        {
          "internalType": "uint256",
          "name": "_electionId",
          "type": "uint256"
        }
      ],
      "name": "getHighestVoteTotal",
      "outputs": [
        {
          "internalType": "uint64",
          "name": "",
          "type": "uint64"
        }
      ],
      "stateMutability": "view",
      "type": "function"
    },
    {
      "inputs": [
        {
          "internalType": "uint256",
          "name": "_officeId",
          "type": "uint256"
        }
      ],
      "name": "getOffice",
      "outputs": [
        {
          "internalType": "string",
          "name": "officeTitle",
          "type": "string"
        },
        {
          "internalType": "uint256",
          "name": "zipCode",
          "type": "uint256"
        },
        {
          "internalType": "int64",
          "name": "requiredAge",
          "type": "int64"
        },
        {
          "internalType": "bool",
          "name": "isOpenForElection",
          "type": "bool"
        }
      ],
      "stateMutability": "view",
      "type": "function"
    },
    {
      "inputs": [
        {
          "internalType": "uint256",
          "name": "_candidateId",
          "type": "uint256"
        }
      ],
      "name": "getResultsOfCandidate",
      "outputs": [
        {
          "internalType": "string",
          "name": "_officeTitle",
          "type": "string"
        },
        {
          "internalType": "uint256",
          "name": "_zipCode",
          "type": "uint256"
        },
        {
          "internalType": "string",
          "name": "_candidateName",
          "type": "string"
        },
        {
          "internalType": "uint64",
          "name": "_voteCount",
          "type": "uint64"
        }
      ],
      "stateMutability": "view",
      "type": "function"
    },
    {
      "inputs": [
        {
          "internalType": "bytes32",
          "name": "role",
          "type": "bytes32"
        }
      ],
      "name": "getRoleAdmin",
      "outputs": [
        {
          "internalType": "bytes32",
          "name": "",
          "type": "bytes32"
        }
      ],
      "stateMutability": "view",
      "type": "function"
    },
    {
      "inputs": [
        {
          "internalType": "bytes32",
          "name": "role",
          "type": "bytes32"
        },
        {
          "internalType": "uint256",
          "name": "index",
          "type": "uint256"
        }
      ],
      "name": "getRoleMember",
      "outputs": [
        {
          "internalType": "address",
          "name": "",
          "type": "address"
        }
      ],
      "stateMutability": "view",
      "type": "function"
    },
    {
      "inputs": [
        {
          "internalType": "bytes32",
          "name": "role",
          "type": "bytes32"
        }
      ],
      "name": "getRoleMemberCount",
      "outputs": [
        {
          "internalType": "uint256",
          "name": "",
          "type": "uint256"
        }
      ],
      "stateMutability": "view",
      "type": "function"
    },
    {
      "inputs": [
        {
          "internalType": "bytes32",
          "name": "role",
          "type": "bytes32"
        },
        {
          "internalType": "address",
          "name": "account",
          "type": "address"
        }
      ],
      "name": "grantRole",
      "outputs": [],
      "stateMutability": "nonpayable",
      "type": "function"
    },
    {
      "inputs": [
        {
          "internalType": "bytes32",
          "name": "role",
          "type": "bytes32"
        },
        {
          "internalType": "address",
          "name": "account",
          "type": "address"
        }
      ],
      "name": "hasRole",
      "outputs": [
        {
          "internalType": "bool",
          "name": "",
          "type": "bool"
        }
      ],
      "stateMutability": "view",
      "type": "function"
    },
    {
      "inputs": [
        {
          "internalType": "uint256",
          "name": "",
          "type": "uint256"
        }
      ],
      "name": "officeIsUpForElection",
      "outputs": [
        {
          "internalType": "bool",
          "name": "",
          "type": "bool"
        }
      ],
      "stateMutability": "view",
      "type": "function"
    },
    {
      "inputs": [
        {
          "internalType": "bytes32",
          "name": "role",
          "type": "bytes32"
        },
        {
          "internalType": "address",
          "name": "account",
          "type": "address"
        }
      ],
      "name": "renounceRole",
      "outputs": [],
      "stateMutability": "nonpayable",
      "type": "function"
    },
    {
      "inputs": [
        {
          "internalType": "bytes32",
          "name": "role",
          "type": "bytes32"
        },
        {
          "internalType": "address",
          "name": "account",
          "type": "address"
        }
      ],
      "name": "revokeRole",
      "outputs": [],
      "stateMutability": "nonpayable",
      "type": "function"
    },
    {
      "inputs": [
        {
          "internalType": "uint256",
          "name": "_citizenId",
          "type": "uint256"
        },
        {
          "internalType": "uint256",
          "name": "voteForCandidateId",
          "type": "uint256"
        },
        {
          "internalType": "uint256",
          "name": "_electionId",
          "type": "uint256"
        }
      ],
      "name": "vote",
      "outputs": [],
      "stateMutability": "nonpayable",
      "type": "function"
    },
    {
      "inputs": [
        {
          "internalType": "string",
          "name": "_name",
          "type": "string"
        },
        {
          "internalType": "int64",
          "name": "_dateOfBirth",
          "type": "int64"
        },
        {
          "internalType": "uint256",
          "name": "_zipCode",
          "type": "uint256"
        },
        {
          "internalType": "uint256",
          "name": "_stateId",
          "type": "uint256"
        }
      ],
      "name": "createCitizen",
      "outputs": [
        {
          "internalType": "uint256",
          "name": "",
          "type": "uint256"
        }
      ],
      "stateMutability": "nonpayable",
      "type": "function"
    },
    {
      "inputs": [
        {
          "internalType": "uint256",
          "name": "_citizenId",
          "type": "uint256"
        }
      ],
      "name": "getCitizen",
      "outputs": [
        {
          "internalType": "string",
          "name": "name",
          "type": "string"
        },
        {
          "internalType": "int64",
          "name": "dateOfBirth",
          "type": "int64"
        },
        {
          "internalType": "uint256",
          "name": "zipCode",
          "type": "uint256"
        },
        {
          "internalType": "bool",
          "name": "citizenship",
          "type": "bool"
        }
      ],
      "stateMutability": "view",
      "type": "function"
    },
    {
      "inputs": [
        {
          "internalType": "uint256",
          "name": "_tokenId",
          "type": "uint256"
        }
      ],
      "name": "addressAssignedToId",
      "outputs": [
        {
          "internalType": "address",
          "name": "",
          "type": "address"
        }
      ],
      "stateMutability": "view",
      "type": "function"
    },
    {
      "inputs": [
        {
          "internalType": "uint256",
          "name": "_citizenId",
          "type": "uint256"
        },
        {
          "internalType": "address",
          "name": "_citizenAddress",
          "type": "address"
        },
        {
          "internalType": "string",
          "name": "_reasonForLoseOfCitizenship",
          "type": "string"
        }
      ],
      "name": "loseOfCitizenship",
      "outputs": [],
      "stateMutability": "nonpayable",
      "type": "function"
    },
    {
      "inputs": [
        {
          "internalType": "uint256",
          "name": "_candidateId",
          "type": "uint256"
        }
      ],
      "name": "filledOfficePosition",
      "outputs": [],
      "stateMutability": "nonpayable",
      "type": "function"
    },
    {
      "inputs": [],
      "name": "timestamp",
      "outputs": [
        {
          "internalType": "uint64",
          "name": "",
          "type": "uint64"
        }
      ],
      "stateMutability": "view",
      "type": "function"
    },
    {
      "inputs": [
        {
          "internalType": "uint256",
          "name": "_candidateId",
          "type": "uint256"
        }
      ],
      "name": "getTestResultsOfCandidate",
      "outputs": [
        {
          "internalType": "string",
          "name": "_officeTitle",
          "type": "string"
        },
        {
          "internalType": "uint256",
          "name": "_zipCode",
          "type": "uint256"
        },
        {
          "internalType": "string",
          "name": "_candidateName",
          "type": "string"
        },
        {
          "internalType": "uint256",
          "name": "_voteCount",
          "type": "uint256"
        }
      ],
      "stateMutability": "view",
      "type": "function"
    },
    {
      "inputs": [
        {
          "internalType": "uint256",
          "name": "_electionId",
          "type": "uint256"
        }
      ],
      "name": "getTestHighestVoteTotal",
      "outputs": [
        {
          "internalType": "uint64",
          "name": "",
          "type": "uint64"
        }
      ],
      "stateMutability": "view",
      "type": "function"
    },
    {
      "inputs": [
        {
          "internalType": "uint256",
          "name": "_candidateId",
          "type": "uint256"
        }
      ],
      "name": "declareWinnerOfTestElection",
      "outputs": [],
      "stateMutability": "nonpayable",
      "type": "function"
    }
  ],
  "bytecode": "0x60806040523480156200001157600080fd5b50620000276000801b33620000a460201b60201c565b60046001816001815401808255809150500390600052602060002090505060018081600181540180825580915050039060005260206000209050506003600181600181540180825580915050039060005260206000209050506002600181600181540180825580915050039060005260206000209050506200023a565b620000b68282620000ba60201b60201c565b5050565b620000e8816000808581526020019081526020016000206000016200015d60201b620044401790919060201c565b156200015957620000fe6200019560201b60201c565b73ffffffffffffffffffffffffffffffffffffffff168173ffffffffffffffffffffffffffffffffffffffff16837f2f8788117e7eff1d82e926ec794901d17c78024a50270940304540a733656f0d60405160405180910390a45b5050565b60006200018d836000018373ffffffffffffffffffffffffffffffffffffffff1660001b6200019d60201b60201c565b905092915050565b600033905090565b6000620001b183836200021760201b60201c565b6200020c57826000018290806001815401808255809150506001900390600052602060002001600090919091909150558260000180549050836001016000848152602001908152602001600020819055506001905062000211565b600090505b92915050565b600080836001016000848152602001908152602001600020541415905092915050565b615bb3806200024a6000396000f3fe608060405234801561001057600080fd5b50600436106102065760003560e01c80638a6655d61161011a578063ca15c873116100ad578063da12095b1161007c578063da12095b14610fda578063dc5c705f146110c0578063e2481dbd146110ee578063eee6f9bd1461110c578063fe9379591461116457610206565b8063ca15c87314610ed8578063ce1b6c2914610f1a578063d0fb300a14610f48578063d547741f14610f8c57610206565b8063a217fddf116100e9578063a217fddf14610e0c578063b06b2df114610e2a578063b80777ea14610e82578063c4cb00d514610eaa57610206565b80638a6655d614610bec5780639010d07c14610c2e57806391d1485414610c905780639d71077714610cf457610206565b806336568abe1161019d57806360a21d4b1161016c57806360a21d4b1461088757806367bb9753146108e75780637ce74d131461093f5780637f5880a114610a6a5780638914a8a014610b2b57610206565b806336568abe146106745780633e80c371146106c2578063514770751461071a578063580cb0b51461076657610206565b80632c051df5116101d95780632c051df5146103c25780632f2ff15d146104a2578063320db376146104f057806335b8e8201461055a57610206565b8063047720fa1461020b57806321f0736414610257578063231816ab1461029b578063248a9ca314610380575b600080fd5b6102376004803603602081101561022157600080fd5b8101908080359060200190929190505050611254565b604051808267ffffffffffffffff16815260200191505060405180910390f35b6102836004803603602081101561026d57600080fd5b81019080803590602001909291905050506114d0565b60405180821515815260200191505060405180910390f35b61037e600480360360608110156102b157600080fd5b8101908080359060200190929190803573ffffffffffffffffffffffffffffffffffffffff169060200190929190803590602001906401000000008111156102f857600080fd5b82018360208201111561030a57600080fd5b8035906020019184600183028401116401000000008311171561032c57600080fd5b91908080601f016020809104026020016040519081016040528093929190818152602001838380828437600081840152601f19601f8201169050808301925050505050505091929192905050506114f0565b005b6103ac6004803603602081101561039657600080fd5b8101908080359060200190929190505050611500565b6040518082815260200191505060405180910390f35b6103ee600480360360208110156103d857600080fd5b810190808035906020019092919050505061151f565b60405180888152602001806020018760070b81526020018681526020018567ffffffffffffffff1681526020018415158152602001838152602001828103825288818151815260200191508051906020019080838360005b83811015610461578082015181840152602081019050610446565b50505050905090810190601f16801561048e5780820380516001836020036101000a031916815260200191505b509850505050505050505060405180910390f35b6104ee600480360360408110156104b857600080fd5b8101908080359060200190929190803573ffffffffffffffffffffffffffffffffffffffff169060200190929190505050611627565b005b6105446004803603606081101561050657600080fd5b8101908080359060200190929190803567ffffffffffffffff169060200190929190803567ffffffffffffffff1690602001909291905050506116b0565b6040518082815260200191505060405180910390f35b6105866004803603602081101561057057600080fd5b8101908080359060200190929190505050611ac6565b604051808060200180602001848152602001838103835286818151815260200191508051906020019080838360005b838110156105d05780820151818401526020810190506105b5565b50505050905090810190601f1680156105fd5780820380516001836020036101000a031916815260200191505b50838103825285818151815260200191508051906020019080838360005b8381101561063657808201518184015260208101905061061b565b50505050905090810190601f1680156106635780820380516001836020036101000a031916815260200191505b509550505050505060405180910390f35b6106c06004803603604081101561068a57600080fd5b8101908080359060200190929190803573ffffffffffffffffffffffffffffffffffffffff169060200190929190505050611d9f565b005b6106ee600480360360208110156106d857600080fd5b8101908080359060200190929190505050611e38565b604051808273ffffffffffffffffffffffffffffffffffffffff16815260200191505060405180910390f35b6107466004803603602081101561073057600080fd5b8101908080359060200190929190505050611e75565b604051808267ffffffffffffffff16815260200191505060405180910390f35b6107926004803603602081101561077c57600080fd5b81019080803590602001909291905050506120f4565b604051808060200185815260200180602001848152602001838103835287818151815260200191508051906020019080838360005b838110156107e25780820151818401526020810190506107c7565b50505050905090810190601f16801561080f5780820380516001836020036101000a031916815260200191505b50838103825285818151815260200191508051906020019080838360005b8381101561084857808201518184015260208101905061082d565b50505050905090810190601f1680156108755780820380516001836020036101000a031916815260200191505b50965050505050505060405180910390f35b6108d16004803603608081101561089d57600080fd5b81019080803590602001909291908035906020019092919080359060200190929190803590602001909291905050506122f8565b6040518082815260200191505060405180910390f35b610913600480360360208110156108fd57600080fd5b8101908080359060200190929190505050612cf3565b604051808273ffffffffffffffffffffffffffffffffffffffff16815260200191505060405180910390f35b61096b6004803603602081101561095557600080fd5b8101908080359060200190929190505050612d26565b6040518080602001858152602001806020018467ffffffffffffffff168152602001838103835287818151815260200191508051906020019080838360005b838110156109c55780820151818401526020810190506109aa565b50505050905090810190601f1680156109f25780820380516001836020036101000a031916815260200191505b50838103825285818151815260200191508051906020019080838360005b83811015610a2b578082015181840152602081019050610a10565b50505050905090810190601f168015610a585780820380516001836020036101000a031916815260200191505b50965050505050505060405180910390f35b610a9660048036036020811015610a8057600080fd5b8101908080359060200190929190505050612fa5565b60405180806020018581526020018460070b81526020018315158152602001828103825286818151815260200191508051906020019080838360005b83811015610aed578082015181840152602081019050610ad2565b50505050905090810190601f168015610b1a5780820380516001836020036101000a031916815260200191505b509550505050505060405180910390f35b610b5760048036036020811015610b4157600080fd5b81019080803590602001909291905050506130af565b60405180806020018560070b81526020018481526020018315158152602001828103825286818151815260200191508051906020019080838360005b83811015610bae578082015181840152602081019050610b93565b50505050905090810190601f168015610bdb5780820380516001836020036101000a031916815260200191505b509550505050505060405180910390f35b610c2c60048036036060811015610c0257600080fd5b810190808035906020019092919080359060200190929190803590602001909291905050506130ce565b005b610c6460048036036040811015610c4457600080fd5b8101908080359060200190929190803590602001909291905050506138df565b604051808273ffffffffffffffffffffffffffffffffffffffff16815260200191505060405180910390f35b610cdc60048036036040811015610ca657600080fd5b8101908080359060200190929190803573ffffffffffffffffffffffffffffffffffffffff169060200190929190505050613910565b60405180821515815260200191505060405180910390f35b610d2060048036036020811015610d0a57600080fd5b8101908080359060200190929190505050613941565b60405180806020018681526020018567ffffffffffffffff1681526020018467ffffffffffffffff16815260200180602001838103835288818151815260200191508051906020019080838360005b83811015610d8a578082015181840152602081019050610d6f565b50505050905090810190601f168015610db75780820380516001836020036101000a031916815260200191505b50838103825284818151815260200191508051906020019060200280838360005b83811015610df3578082015181840152602081019050610dd8565b5050505090500197505050505050505060405180910390f35b610e14613b46565b6040518082815260200191505060405180910390f35b610e6c60048036036020811015610e4057600080fd5b81019080803573ffffffffffffffffffffffffffffffffffffffff169060200190929190505050613b4d565b6040518082815260200191505060405180910390f35b610e8a613c35565b604051808267ffffffffffffffff16815260200191505060405180910390f35b610ed660048036036020811015610ec057600080fd5b8101908080359060200190929190505050613c3d565b005b610f0460048036036020811015610eee57600080fd5b8101908080359060200190929190505050613e0b565b6040518082815260200191505060405180910390f35b610f4660048036036020811015610f3057600080fd5b8101908080359060200190929190505050613e31565b005b610f7460048036036020811015610f5e57600080fd5b81019080803590602001909291905050506140a0565b60405180821515815260200191505060405180910390f35b610fd860048036036040811015610fa257600080fd5b8101908080359060200190929190803573ffffffffffffffffffffffffffffffffffffffff1690602001909291905050506140c0565b005b6110aa60048036036060811015610ff057600080fd5b810190808035906020019064010000000081111561100d57600080fd5b82018360208201111561101f57600080fd5b8035906020019184600183028401116401000000008311171561104157600080fd5b91908080601f016020809104026020016040519081016040528093929190818152602001838380828437600081840152601f19601f82011690508083019250505050505050919291929080359060200190929190803560070b9060200190929190505050614149565b6040518082815260200191505060405180910390f35b6110ec600480360360208110156110d657600080fd5b81019080803590602001909291905050506143e0565b005b6110f66143ec565b6040518082815260200191505060405180910390f35b61114e6004803603602081101561112257600080fd5b81019080803573ffffffffffffffffffffffffffffffffffffffff169060200190929190505050614410565b6040518082815260200191505060405180910390f35b61123e6004803603608081101561117a57600080fd5b810190808035906020019064010000000081111561119757600080fd5b8201836020820111156111a957600080fd5b803590602001918460018302840111640100000000831117156111cb57600080fd5b91908080601f016020809104026020016040519081016040528093929190818152602001838380828437600081840152601f19601f820116905080830192505050505050509192919290803560070b90602001909291908035906020019092919080359060200190929190505050614428565b6040518082815260200191505060405180910390f35b600061125e61549b565b6004838154811061126b57fe5b90600052602060002090600402016040518060a0016040529081600082015481526020016001820160009054906101000a900467ffffffffffffffff1667ffffffffffffffff1667ffffffffffffffff1681526020016001820160089054906101000a900467ffffffffffffffff1667ffffffffffffffff1667ffffffffffffffff168152602001600282015481526020016003820180548060200260200160405190810160405280929190818152602001828054801561134b57602002820191906000526020600020905b815481526020019060010190808311611337575b5050505050815250509050600115156113676000801b33613910565b1515146113bf576040517f08c379a0000000000000000000000000000000000000000000000000000000008152600401808060200182810382526023815260200180615a706023913960400191505060405180910390fd5b600080600090505b8260800151518110156114c5576113dc6154de565b600282815481106113e957fe5b90600052602060002090600502016040518060c00160405290816000820154815260200160018201548152602001600282015481526020016003820160009054906101000a900467ffffffffffffffff1667ffffffffffffffff1667ffffffffffffffff1681526020016003820160089054906101000a900467ffffffffffffffff1667ffffffffffffffff1667ffffffffffffffff16815260200160048201548152505090508267ffffffffffffffff16816060015167ffffffffffffffff16106114b757806060015192505b5080806001019150506113c7565b819350505050919050565b600a6020528060005260406000206000915054906101000a900460ff1681565b6114fb838383614470565b505050565b6000806000838152602001908152602001600020600201549050919050565b6007602052806000526040600020600091509050806000015490806001018054600181600116156101000203166002900480601f0160208091040260200160405190810160405280929190818152602001828054600181600116156101000203166002900480156115d15780601f106115a6576101008083540402835291602001916115d1565b820191906000526020600020905b8154815290600101906020018083116115b457829003601f168201915b5050505050908060020160009054906101000a900460070b908060030154908060040160009054906101000a900467ffffffffffffffff16908060040160089054906101000a900460ff16908060050154905087565b61164d6000808481526020019081526020016000206002015461164861479d565b613910565b6116a2576040517f08c379a000000000000000000000000000000000000000000000000000000000815260040180806020018281038252602f815260200180615670602f913960400191505060405180910390fd5b6116ac82826147a5565b5050565b600060011515600b600086815260200190815260200160002060009054906101000a900460ff1615151461174c576040517f08c379a000000000000000000000000000000000000000000000000000000000815260040180806020018281038252601d8152602001807f4f6666696365206973204e4f5420757020666f7220656c656374696f6e00000081525060200191505060405180910390fd5b6001151561175d6000801b33613910565b151514806117985750600115156117947fb7f8beecafe1ad662cec1153812612581a86b9460f21b876f3ee163141203dcb33613910565b1515145b6117ed576040517f08c379a000000000000000000000000000000000000000000000000000000000815260040180806020018281038252602e815260200180615b50602e913960400191505060405180910390fd5b600460018160018154018082558091505003906000526020600020905050611813615528565b6003858154811061182057fe5b90600052602060002090600402016040518060a0016040529081600082018054600181600116156101000203166002900480601f0160208091040260200160405190810160405280929190818152602001828054600181600116156101000203166002900480156118d25780601f106118a7576101008083540402835291602001916118d2565b820191906000526020600020905b8154815290600101906020018083116118b557829003601f168201915b50505050508152602001600182015481526020016002820160009054906101000a900460070b60070b60070b81526020016002820160089054906101000a900467ffffffffffffffff1667ffffffffffffffff1667ffffffffffffffff1681526020016003820154815250509050600060046001600480549050038154811061195757fe5b90600052602060002090600402019050858160000181905550848160010160006101000a81548167ffffffffffffffff021916908367ffffffffffffffff160217905550838160010160086101000a81548167ffffffffffffffff021916908367ffffffffffffffff1602179055506004805490508160020181905550600060016004805490500390507fa951106ad0f6639e96325687aa3ef355f8b1d0e0a7bce6446da8c7971a2c04698360000151846020015188888560405180806020018681526020018567ffffffffffffffff1681526020018467ffffffffffffffff168152602001838152602001828103825287818151815260200191508051906020019080838360005b83811015611a7b578082015181840152602081019050611a60565b50505050905090810190601f168015611aa85780820380516001836020036101000a031916815260200191505b50965050505050505060405180910390a18093505050509392505050565b60608060008060028581548110611ad957fe5b90600052602060002090600502019050611af1615528565b6003826001015481548110611b0257fe5b90600052602060002090600402016040518060a0016040529081600082018054600181600116156101000203166002900480601f016020809104026020016040519081016040528092919081815260200182805460018160011615610100020316600290048015611bb45780601f10611b8957610100808354040283529160200191611bb4565b820191906000526020600020905b815481529060010190602001808311611b9757829003601f168201915b50505050508152602001600182015481526020016002820160009054906101000a900460070b60070b60070b81526020016002820160089054906101000a900467ffffffffffffffff1667ffffffffffffffff1667ffffffffffffffff1681526020016003820154815250509050611c2a615564565b6001836000015481548110611c3b57fe5b90600052602060002090600602016040518060e001604052908160008201548152602001600182018054600181600116156101000203166002900480601f016020809104026020016040519081016040528092919081815260200182805460018160011615610100020316600290048015611cf75780601f10611ccc57610100808354040283529160200191611cf7565b820191906000526020600020905b815481529060010190602001808311611cda57829003601f168201915b505050505081526020016002820160009054906101000a900460070b60070b60070b8152602001600382015481526020016004820160009054906101000a900467ffffffffffffffff1667ffffffffffffffff1667ffffffffffffffff1681526020016004820160089054906101000a900460ff1615151515815260200160058201548152505090508060200151955081600001519450816020015193505050509193909250565b611da761479d565b73ffffffffffffffffffffffffffffffffffffffff168173ffffffffffffffffffffffffffffffffffffffff1614611e2a576040517f08c379a000000000000000000000000000000000000000000000000000000000815260040180806020018281038252602f815260200180615b21602f913960400191505060405180910390fd5b611e348282614838565b5050565b60006005600083815260200190815260200160002060009054906101000a900473ffffffffffffffffffffffffffffffffffffffff169050919050565b6000611e7f61549b565b60048381548110611e8c57fe5b90600052602060002090600402016040518060a0016040529081600082015481526020016001820160009054906101000a900467ffffffffffffffff1667ffffffffffffffff1667ffffffffffffffff1681526020016001820160089054906101000a900467ffffffffffffffff1667ffffffffffffffff1667ffffffffffffffff1681526020016002820154815260200160038201805480602002602001604051908101604052809291908181526020018280548015611f6c57602002820191906000526020600020905b815481526020019060010190808311611f58575b50505050508152505090504267ffffffffffffffff16816040015167ffffffffffffffff161115611fe8576040517f08c379a000000000000000000000000000000000000000000000000000000000815260040180806020018281038252604b8152602001806157b2604b913960600191505060405180910390fd5b6000805b82608001515181116120e9576120006154de565b6002828154811061200d57fe5b90600052602060002090600502016040518060c00160405290816000820154815260200160018201548152602001600282015481526020016003820160009054906101000a900467ffffffffffffffff1667ffffffffffffffff1667ffffffffffffffff1681526020016003820160089054906101000a900467ffffffffffffffff1667ffffffffffffffff1667ffffffffffffffff16815260200160048201548152505090508267ffffffffffffffff16816060015167ffffffffffffffff16106120db57806060015192505b508080600101915050611fec565b508092505050919050565b6060600060606000806002868154811061210a57fe5b906000526020600020906005020190506000600182600001548154811061212d57fe5b906000526020600020906006020190506000600483600201548154811061215057fe5b906000526020600020906004020190506000600382600001548154811061217357fe5b90600052602060002090600402019050806000018054600181600116156101000203166002900480601f01602080910402602001604051908101604052809291908181526020018280546001816001161561010002031660029004801561221b5780601f106121f05761010080835404028352916020019161221b565b820191906000526020600020905b8154815290600101906020018083116121fe57829003601f168201915b5050505050975080600101549650826001018054600181600116156101000203166002900480601f0160208091040260200160405190810160405280929190818152602001828054600181600116156101000203166002900480156122c15780601f10612296576101008083540402835291602001916122c1565b820191906000526020600020905b8154815290600101906020018083116122a457829003601f168201915b505050505095508360030160009054906101000a900467ffffffffffffffff1667ffffffffffffffff169450505050509193509193565b6000600115156008600086815260200190815260200160002060009054906101000a900460ff16151514612377576040517f08c379a000000000000000000000000000000000000000000000000000000000815260040180806020018281038252602981526020018061597b6029913960400191505060405180910390fd5b60011515600960003373ffffffffffffffffffffffffffffffffffffffff1673ffffffffffffffffffffffffffffffffffffffff16815260200190815260200160002060009054906101000a900460ff16151514612420576040517f08c379a000000000000000000000000000000000000000000000000000000000815260040180806020018281038252602b8152602001806159a4602b913960400191505060405180910390fd5b3373ffffffffffffffffffffffffffffffffffffffff166005600087815260200190815260200160002060009054906101000a900473ffffffffffffffffffffffffffffffffffffffff1673ffffffffffffffffffffffffffffffffffffffff16146124d7576040517f08c379a00000000000000000000000000000000000000000000000000000000081526004018080602001828103825260378152602001806158ca6037913960400191505060405180910390fd5b6124df615564565b600760008781526020019081526020016000206040518060e001604052908160008201548152602001600182018054600181600116156101000203166002900480601f0160208091040260200160405190810160405280929190818152602001828054600181600116156101000203166002900480156125a05780601f10612575576101008083540402835291602001916125a0565b820191906000526020600020905b81548152906001019060200180831161258357829003601f168201915b505050505081526020016002820160009054906101000a900460070b60070b60070b8152602001600382015481526020016004820160009054906101000a900467ffffffffffffffff1667ffffffffffffffff1667ffffffffffffffff1681526020016004820160089054906101000a900460ff161515151581526020016005820154815250509050612631615528565b6003858154811061263e57fe5b90600052602060002090600402016040518060a0016040529081600082018054600181600116156101000203166002900480601f0160208091040260200160405190810160405280929190818152602001828054600181600116156101000203166002900480156126f05780601f106126c5576101008083540402835291602001916126f0565b820191906000526020600020905b8154815290600101906020018083116126d357829003601f168201915b50505050508152602001600182015481526020016002820160009054906101000a900460070b60070b60070b81526020016002820160089054906101000a900467ffffffffffffffff1667ffffffffffffffff1667ffffffffffffffff168152602001600382015481525050905061276661549b565b6004858154811061277357fe5b90600052602060002090600402016040518060a0016040529081600082015481526020016001820160009054906101000a900467ffffffffffffffff1667ffffffffffffffff1667ffffffffffffffff1681526020016001820160089054906101000a900467ffffffffffffffff1667ffffffffffffffff1667ffffffffffffffff168152602001600282015481526020016003820180548060200260200160405190810160405280929190818152602001828054801561285357602002820191906000526020600020905b81548152602001906001019080831161283f575b5050505050815250509050600115158360a001511515146128dc576040517f08c379a000000000000000000000000000000000000000000000000000000000815260040180806020018281038252601b8152602001807f596f7520617265206e6f206c6f6e676572206120636974697a656e000000000081525060200191505060405180910390fd5b86836000015114612938576040517f08c379a0000000000000000000000000000000000000000000000000000000008152600401808060200182810382526026815260200180615a266026913960400191505060405180910390fd5b60011515600b600088815260200190815260200160002060009054906101000a900460ff161515146129d2576040517f08c379a000000000000000000000000000000000000000000000000000000000815260040180806020018281038252601d8152602001807f4f6666696365206973204e4f5420757020666f7220656c656374696f6e00000081525060200191505060405180910390fd5b826040015160070b826040015160070b1215612a39576040517f08c379a000000000000000000000000000000000000000000000000000000000815260040180806020018281038252602b815260200180615704602b913960400191505060405180910390fd5b612a416154de565b6040518060c001604052808a8152602001888152602001878152602001600067ffffffffffffffff1681526020014267ffffffffffffffff1681526020016002805490508152509050600281908060018154018082558091505060019003906000526020600020906005020160009091909190915060008201518160000155602082015181600101556040820151816002015560608201518160030160006101000a81548167ffffffffffffffff021916908367ffffffffffffffff16021790555060808201518160030160086101000a81548167ffffffffffffffff021916908367ffffffffffffffff16021790555060a0820151816004015550506000600160028054905003905060048781548110612b5857fe5b90600052602060002090600402016003018190806001815401808255809150506001900390600052602060002001600090919091909150556001600a600083815260200190815260200160002060006101000a81548160ff0219169083151502179055507f891e756eff7201520283922fc3ede4d874d465693e19f7cbb4fd2555b3b63e0a8560200151856000015185602001516040518080602001806020018467ffffffffffffffff168152602001838103835286818151815260200191508051906020019080838360005b83811015612c40578082015181840152602081019050612c25565b50505050905090810190601f168015612c6d5780820380516001836020036101000a031916815260200191505b50838103825285818151815260200191508051906020019080838360005b83811015612ca6578082015181840152602081019050612c8b565b50505050905090810190601f168015612cd35780820380516001836020036101000a031916815260200191505b509550505050505060405180910390a18095505050505050949350505050565b60056020528060005260406000206000915054906101000a900473ffffffffffffffffffffffffffffffffffffffff1681565b60606000606060008060028681548110612d3c57fe5b9060005260206000209060050201905060006001826000015481548110612d5f57fe5b9060005260206000209060060201905060006004836002015481548110612d8257fe5b906000526020600020906004020190504267ffffffffffffffff168160010160089054906101000a900467ffffffffffffffff1667ffffffffffffffff161115612e17576040517f08c379a000000000000000000000000000000000000000000000000000000000815260040180806020018281038252604a815260200180615931604a913960600191505060405180910390fd5b60006003826000015481548110612e2a57fe5b90600052602060002090600402019050806000018054600181600116156101000203166002900480601f016020809104026020016040519081016040528092919081815260200182805460018160011615610100020316600290048015612ed25780601f10612ea757610100808354040283529160200191612ed2565b820191906000526020600020905b815481529060010190602001808311612eb557829003601f168201915b5050505050975080600101549650826001018054600181600116156101000203166002900480601f016020809104026020016040519081016040528092919081815260200182805460018160011615610100020316600290048015612f785780601f10612f4d57610100808354040283529160200191612f78565b820191906000526020600020905b815481529060010190602001808311612f5b57829003601f168201915b505050505095508360030160009054906101000a900467ffffffffffffffff169450505050509193509193565b606060008060008060038681548110612fba57fe5b90600052602060002090600402019050806000018054600181600116156101000203166002900480601f0160208091040260200160405190810160405280929190818152602001828054600181600116156101000203166002900480156130625780601f1061303757610100808354040283529160200191613062565b820191906000526020600020905b81548152906001019060200180831161304557829003601f168201915b50505050509450806001015493508060020160009054906101000a900460070b9250600b600087815260200190815260200160002060009054906101000a900460ff169150509193509193565b606060008060006130bf856148cb565b93509350935093509193509193565b3373ffffffffffffffffffffffffffffffffffffffff166005600085815260200190815260200160002060009054906101000a900473ffffffffffffffffffffffffffffffffffffffff1673ffffffffffffffffffffffffffffffffffffffff1614613185576040517f08c379a000000000000000000000000000000000000000000000000000000000815260040180806020018281038252602b8152602001806159cf602b913960400191505060405180910390fd5b60011515600960003373ffffffffffffffffffffffffffffffffffffffff1673ffffffffffffffffffffffffffffffffffffffff16815260200190815260200160002060009054906101000a900460ff1615151461322e576040517f08c379a0000000000000000000000000000000000000000000000000000000008152600401808060200182810382526024815260200180615a4c6024913960400191505060405180910390fd5b613236615564565b600760008581526020019081526020016000206040518060e001604052908160008201548152602001600182018054600181600116156101000203166002900480601f0160208091040260200160405190810160405280929190818152602001828054600181600116156101000203166002900480156132f75780601f106132cc576101008083540402835291602001916132f7565b820191906000526020600020905b8154815290600101906020018083116132da57829003601f168201915b505050505081526020016002820160009054906101000a900460070b60070b60070b8152602001600382015481526020016004820160009054906101000a900467ffffffffffffffff1667ffffffffffffffff1667ffffffffffffffff1681526020016004820160089054906101000a900460ff161515151581526020016005820154815250509050600115158160a001511515146133fe576040517f08c379a000000000000000000000000000000000000000000000000000000000815260040180806020018281038252601b8152602001807f596f7520617265206e6f206c6f6e676572206120636974697a656e000000000081525060200191505060405180910390fd5b61340661549b565b6004838154811061341357fe5b90600052602060002090600402016040518060a0016040529081600082015481526020016001820160009054906101000a900467ffffffffffffffff1667ffffffffffffffff1667ffffffffffffffff1681526020016001820160089054906101000a900467ffffffffffffffff1667ffffffffffffffff1667ffffffffffffffff16815260200160028201548152602001600382018054806020026020016040519081016040528092919081815260200182805480156134f357602002820191906000526020600020905b8154815260200190600101908083116134df575b50505050508152505090504267ffffffffffffffff16816020015167ffffffffffffffff16111561358c576040517f08c379a000000000000000000000000000000000000000000000000000000000815260040180806020018281038252601f8152602001807f54686520656c656374696f6e20686173206e6f74206f70656e6564207965740081525060200191505060405180910390fd5b4267ffffffffffffffff16816040015167ffffffffffffffff16101561361a576040517f08c379a000000000000000000000000000000000000000000000000000000000815260040180806020018281038252601e8152602001807f54686520656c656374696f6e206973206e6f206c6f6e676572206f70656e000081525060200191505060405180910390fd5b613622615528565b600382600001518154811061363357fe5b90600052602060002090600402016040518060a0016040529081600082018054600181600116156101000203166002900480601f0160208091040260200160405190810160405280929190818152602001828054600181600116156101000203166002900480156136e55780601f106136ba576101008083540402835291602001916136e5565b820191906000526020600020905b8154815290600101906020018083116136c857829003601f168201915b50505050508152602001600182015481526020016002820160009054906101000a900460070b60070b60070b81526020016002820160089054906101000a900467ffffffffffffffff1667ffffffffffffffff1667ffffffffffffffff168152602001600382015481525050905080602001518360600151146137b3576040517f08c379a000000000000000000000000000000000000000000000000000000000815260040180806020018281038252603d815260200180615834603d913960400191505060405180910390fd5b6000600286815481106137c257fe5b90600052602060002090600502019050826000015181600101541480156137ec5750848160020154145b613841576040517f08c379a000000000000000000000000000000000000000000000000000000000815260040180806020018281038252602c8152602001806159fa602c913960400191505060405180910390fd5b60018160030160008282829054906101000a900467ffffffffffffffff160192506101000a81548167ffffffffffffffff021916908367ffffffffffffffff1602179055507e49e9a81233825e4f5949eb5b06cce97b4f086f6981805188b1e12c5cf638e4868642604051808481526020018381526020018267ffffffffffffffff168152602001935050505060405180910390a150505050505050565b600061390882600080868152602001908152602001600020600001614a9990919063ffffffff16565b905092915050565b600061393982600080868152602001908152602001600020600001614ab390919063ffffffff16565b905092915050565b60606000806000606060006004878154811061395957fe5b90600052602060002090600402019050613971615528565b600382600001548154811061398257fe5b90600052602060002090600402016040518060a0016040529081600082018054600181600116156101000203166002900480601f016020809104026020016040519081016040528092919081815260200182805460018160011615610100020316600290048015613a345780601f10613a0957610100808354040283529160200191613a34565b820191906000526020600020905b815481529060010190602001808311613a1757829003601f168201915b50505050508152602001600182015481526020016002820160009054906101000a900460070b60070b60070b81526020016002820160089054906101000a900467ffffffffffffffff1667ffffffffffffffff1667ffffffffffffffff168152602001600382015481525050905080600001519650806020015195508160010160009054906101000a900467ffffffffffffffff1694508160010160089054906101000a900467ffffffffffffffff16935081600301805480602002602001604051908101604052809291908181526020018280548015613b3457602002820191906000526020600020905b815481526020019060010190808311613b20575b50505050509250505091939590929450565b6000801b81565b60008173ffffffffffffffffffffffffffffffffffffffff163373ffffffffffffffffffffffffffffffffffffffff161480613b99575060011515613b956000801b33613910565b1515145b613bee576040517f08c379a00000000000000000000000000000000000000000000000000000000081526004018080602001828103825260308152602001806156d46030913960400191505060405180910390fd5b600660008373ffffffffffffffffffffffffffffffffffffffff1673ffffffffffffffffffffffffffffffffffffffff168152602001908152602001600020549050919050565b600042905090565b613c456154de565b60028281548110613c5257fe5b90600052602060002090600502016040518060c00160405290816000820154815260200160018201548152602001600282015481526020016003820160009054906101000a900467ffffffffffffffff1667ffffffffffffffff1667ffffffffffffffff1681526020016003820160089054906101000a900467ffffffffffffffff1667ffffffffffffffff1667ffffffffffffffff1681526020016004820154815250509050806060015167ffffffffffffffff16613d158260400151611254565b67ffffffffffffffff1614613d75576040517f08c379a00000000000000000000000000000000000000000000000000000000081526004018080602001828103825260378152602001806157fd6037913960400191505060405180910390fd5b613d7e826143e0565b7f737019d53070b31742678ee65b3baa855c9cb034d73d970a17e2b352a3d773e582826020015183606001514233604051808681526020018581526020018467ffffffffffffffff1681526020018367ffffffffffffffff1681526020018273ffffffffffffffffffffffffffffffffffffffff1681526020019550505050505060405180910390a15050565b6000613e2a600080848152602001908152602001600020600001614ae3565b9050919050565b613e396154de565b60028281548110613e4657fe5b90600052602060002090600502016040518060c00160405290816000820154815260200160018201548152602001600282015481526020016003820160009054906101000a900467ffffffffffffffff1667ffffffffffffffff1667ffffffffffffffff1681526020016003820160089054906101000a900467ffffffffffffffff1667ffffffffffffffff1667ffffffffffffffff1681526020016004820154815250509050806060015167ffffffffffffffff16613f098260400151611e75565b67ffffffffffffffff1614613f69576040517f08c379a00000000000000000000000000000000000000000000000000000000081526004018080602001828103825260378152602001806157fd6037913960400191505060405180910390fd5b60011515613f7a6000801b33613910565b15151480613fb5575060011515613fb17fb7f8beecafe1ad662cec1153812612581a86b9460f21b876f3ee163141203dcb33613910565b1515145b61400a576040517f08c379a000000000000000000000000000000000000000000000000000000000815260040180806020018281038252603d815260200180615a93603d913960400191505060405180910390fd5b61401382614af8565b7f737019d53070b31742678ee65b3baa855c9cb034d73d970a17e2b352a3d773e582826020015183606001514233604051808681526020018581526020018467ffffffffffffffff1681526020018367ffffffffffffffff1681526020018273ffffffffffffffffffffffffffffffffffffffff1681526020019550505050505060405180910390a15050565b600b6020528060005260406000206000915054906101000a900460ff1681565b6140e6600080848152602001908152602001600020600201546140e161479d565b613910565b61413b576040517f08c379a00000000000000000000000000000000000000000000000000000000081526004018080602001828103825260308152602001806159016030913960400191505060405180910390fd5b6141458282614838565b5050565b60006001151561415c6000801b33613910565b151514806141975750600115156141937fb7f8beecafe1ad662cec1153812612581a86b9460f21b876f3ee163141203dcb33613910565b1515145b6141ec576040517f08c379a000000000000000000000000000000000000000000000000000000000815260040180806020018281038252603581526020018061569f6035913960400191505060405180910390fd5b6141f4615528565b6040518060a001604052808681526020018581526020018460070b81526020014267ffffffffffffffff1681526020016003805490508152509050600381908060018154018082558091505060019003906000526020600020906004020160009091909190915060008201518160000190805190602001906142779291906155b0565b506020820151816001015560408201518160020160006101000a81548167ffffffffffffffff021916908360070b67ffffffffffffffff16021790555060608201518160020160086101000a81548167ffffffffffffffff021916908367ffffffffffffffff160217905550608082015181600301555050600060016003805490500390506001600b600083815260200190815260200160002060006101000a81548160ff0219169083151502179055507fb88277fa8c66993083f7ebdd5f92a7991cf4ed8d4957b20268880dca91a50bdb8686836040518080602001848152602001838152602001828103825285818151815260200191508051906020019080838360005b8381101561439857808201518184015260208101905061437d565b50505050905090810190601f1680156143c55780820380516001836020036101000a031916815260200191505b5094505050505060405180910390a180925050509392505050565b6143e981614af8565b50565b7fb7f8beecafe1ad662cec1153812612581a86b9460f21b876f3ee163141203dcb81565b60066020528060005260406000206000915090505481565b600061443685858585614d0a565b9050949350505050565b6000614468836000018373ffffffffffffffffffffffffffffffffffffffff1660001b61514e565b905092915050565b600115156144816000801b33613910565b1515146144d9576040517f08c379a000000000000000000000000000000000000000000000000000000000815260040180806020018281038252603581526020018061572f6035913960400191505060405180910390fd5b8173ffffffffffffffffffffffffffffffffffffffff166005600085815260200190815260200160002060009054906101000a900473ffffffffffffffffffffffffffffffffffffffff1673ffffffffffffffffffffffffffffffffffffffff1614614590576040517f08c379a0000000000000000000000000000000000000000000000000000000008152600401808060200182810382526028815260200180615ad06028913960400191505060405180910390fd5b8173ffffffffffffffffffffffffffffffffffffffff163373ffffffffffffffffffffffffffffffffffffffff161415614615576040517f08c379a000000000000000000000000000000000000000000000000000000000815260040180806020018281038252602681526020018061578c6026913960400191505060405180910390fd5b60006008600085815260200190815260200160002060006101000a81548160ff0219169083151502179055506000600960008473ffffffffffffffffffffffffffffffffffffffff1673ffffffffffffffffffffffffffffffffffffffff16815260200190815260200160002060006101000a81548160ff0219169083151502179055506000600184815481106146a857fe5b9060005260206000209060060201905060008160040160086101000a81548160ff0219169083151502179055507f5dbf89e749b723e87d5232ef46f9acbeb85bcfccd0c9d7c18c1993d9de5c0670848484604051808481526020018373ffffffffffffffffffffffffffffffffffffffff16815260200180602001828103825283818151815260200191508051906020019080838360005b8381101561475b578082015181840152602081019050614740565b50505050905090810190601f1680156147885780820380516001836020036101000a031916815260200191505b5094505050505060405180910390a150505050565b600033905090565b6147cc8160008085815260200190815260200160002060000161444090919063ffffffff16565b15614834576147d961479d565b73ffffffffffffffffffffffffffffffffffffffff168173ffffffffffffffffffffffffffffffffffffffff16837f2f8788117e7eff1d82e926ec794901d17c78024a50270940304540a733656f0d60405160405180910390a45b5050565b61485f816000808581526020019081526020016000206000016151be90919063ffffffff16565b156148c75761486c61479d565b73ffffffffffffffffffffffffffffffffffffffff168173ffffffffffffffffffffffffffffffffffffffff16837ff6391f5c32d9c69d2a47ea670b442974b53935d1edc7fd64eb21e047a839171b60405160405180910390a45b5050565b606060008060003373ffffffffffffffffffffffffffffffffffffffff166005600087815260200190815260200160002060009054906101000a900473ffffffffffffffffffffffffffffffffffffffff1673ffffffffffffffffffffffffffffffffffffffff16148061494f57506001151561494b6000801b33613910565b1515145b6149a4576040517f08c379a00000000000000000000000000000000000000000000000000000000081526004018080602001828103825260308152602001806156d46030913960400191505060405180910390fd5b6000600186815481106149b357fe5b90600052602060002090600602019050806001018054600181600116156101000203166002900480601f016020809104026020016040519081016040528092919081815260200182805460018160011615610100020316600290048015614a5b5780601f10614a3057610100808354040283529160200191614a5b565b820191906000526020600020905b815481529060010190602001808311614a3e57829003601f168201915b505050505094508060020160009054906101000a900460070b9350806003015492508060040160089054906101000a900460ff169150509193509193565b6000614aa883600001836151ee565b60001c905092915050565b6000614adb836000018373ffffffffffffffffffffffffffffffffffffffff1660001b615271565b905092915050565b6000614af182600001615294565b9050919050565b60011515614b096000801b33613910565b15151480614b44575060011515614b407fb7f8beecafe1ad662cec1153812612581a86b9460f21b876f3ee163141203dcb33613910565b1515145b614b99576040517f08c379a00000000000000000000000000000000000000000000000000000000081526004018080602001828103825260348152602001806158966034913960400191505060405180910390fd5b614ba16154de565b60028281548110614bae57fe5b90600052602060002090600502016040518060c00160405290816000820154815260200160018201548152602001600282015481526020016003820160009054906101000a900467ffffffffffffffff1667ffffffffffffffff1667ffffffffffffffff1681526020016003820160089054906101000a900467ffffffffffffffff1667ffffffffffffffff1667ffffffffffffffff168152602001600482015481525050905060011515600b60008360200151815260200190815260200160002060009054906101000a900460ff16151514614cd6576040517f08c379a00000000000000000000000000000000000000000000000000000000081526004018080602001828103825260258152602001806158716025913960400191505060405180910390fd5b6000600b60008360200151815260200190815260200160002060006101000a81548160ff0219169083151502179055505050565b60008015156008600084815260200190815260200160002060009054906101000a900460ff16151514614d88576040517f08c379a0000000000000000000000000000000000000000000000000000000008152600401808060200182810382526029815260200180615af86029913960400191505060405180910390fd5b60001515600960003373ffffffffffffffffffffffffffffffffffffffff1673ffffffffffffffffffffffffffffffffffffffff16815260200190815260200160002060009054906101000a900460ff16151514614e31576040517f08c379a00000000000000000000000000000000000000000000000000000000081526004018080602001828103825260288152602001806157646028913960400191505060405180910390fd5b614e39615564565b6040518060e001604052808481526020018781526020018660070b81526020018581526020014267ffffffffffffffff16815260200160011515815260200160018054905081525090506001819080600181540180825580915050600190039060005260206000209060060201600090919091909150600082015181600001556020820151816001019080519060200190614ed59291906155b0565b5060408201518160020160006101000a81548167ffffffffffffffff021916908360070b67ffffffffffffffff1602179055506060820151816003015560808201518160040160006101000a81548167ffffffffffffffff021916908367ffffffffffffffff16021790555060a08201518160040160086101000a81548160ff02191690831515021790555060c08201518160050155505060006001808054905003905060016008600086815260200190815260200160002060006101000a81548160ff0219169083151502179055506001600960003373ffffffffffffffffffffffffffffffffffffffff1673ffffffffffffffffffffffffffffffffffffffff16815260200190815260200160002060006101000a81548160ff02191690831515021790555081600760008381526020019081526020016000206000820151816000015560208201518160010190805190602001906150379291906155b0565b5060408201518160020160006101000a81548167ffffffffffffffff021916908360070b67ffffffffffffffff1602179055506060820151816003015560808201518160040160006101000a81548167ffffffffffffffff021916908367ffffffffffffffff16021790555060a08201518160040160086101000a81548160ff02191690831515021790555060c082015181600501559050507fa12daf0dc9e98c44420339df34fbae8835074be1a972516ca7363d867ca01d9c33828688604051808573ffffffffffffffffffffffffffffffffffffffff16815260200184815260200183815260200182815260200194505050505060405180910390a1615141600033836152a5565b8092505050949350505050565b600061515a8383615271565b6151b35782600001829080600181540180825580915050600190039060005260206000200160009091909190915055826000018054905083600101600084815260200190815260200160002081905550600190506151b8565b600090505b92915050565b60006151e6836000018373ffffffffffffffffffffffffffffffffffffffff1660001b6153b3565b905092915050565b60008183600001805490501161524f576040517f08c379a000000000000000000000000000000000000000000000000000000000815260040180806020018281038252602281526020018061564e6022913960400191505060405180910390fd5b82600001828154811061525e57fe5b9060005260206000200154905092915050565b600080836001016000848152602001908152602001600020541415905092915050565b600081600001805490509050919050565b816005600083815260200190815260200160002060006101000a81548173ffffffffffffffffffffffffffffffffffffffff021916908373ffffffffffffffffffffffffffffffffffffffff16021790555080600660008473ffffffffffffffffffffffffffffffffffffffff1673ffffffffffffffffffffffffffffffffffffffff168152602001908152602001600020819055507f0c0ee92e381a7696445c71651e0d09689a61bd67a3b7c08ebe8fec6339c1e011838383604051808473ffffffffffffffffffffffffffffffffffffffff1681526020018373ffffffffffffffffffffffffffffffffffffffff168152602001828152602001935050505060405180910390a1505050565b6000808360010160008481526020019081526020016000205490506000811461548f57600060018203905060006001866000018054905003905060008660000182815481106153fe57fe5b906000526020600020015490508087600001848154811061541b57fe5b906000526020600020018190555060018301876001016000838152602001908152602001600020819055508660000180548061545357fe5b60019003818190600052602060002001600090559055866001016000878152602001908152602001600020600090556001945050505050615495565b60009150505b92915050565b6040518060a0016040528060008152602001600067ffffffffffffffff168152602001600067ffffffffffffffff16815260200160008152602001606081525090565b6040518060c00160405280600081526020016000815260200160008152602001600067ffffffffffffffff168152602001600067ffffffffffffffff168152602001600081525090565b6040518060a001604052806060815260200160008152602001600060070b8152602001600067ffffffffffffffff168152602001600081525090565b6040518060e001604052806000815260200160608152602001600060070b815260200160008152602001600067ffffffffffffffff168152602001600015158152602001600081525090565b828054600181600116156101000203166002900490600052602060002090601f016020900481019282601f106155f157805160ff191683800117855561561f565b8280016001018555821561561f579182015b8281111561561e578251825591602001919060010190615603565b5b50905061562c9190615630565b5090565b5b80821115615649576000816000905550600101615631565b509056fe456e756d657261626c655365743a20696e646578206f7574206f6620626f756e6473416363657373436f6e74726f6c3a2073656e646572206d75737420626520616e2061646d696e20746f206772616e74596f7520646f204e4f5420686176652061636365737320746f206372656174696e6720616e206f666669636520706f736974696f6e4164647265737320646f6573206e6f7420686176652061636365737320746f207468697320696e666f726d6174696f6e436974697a656e206973204e4f54206f6c6420656e6f75676820746f2072756e20666f72204f6666696365596f7520646f204e4f5420686176652061636365737320746f206368616e67696e6720636974697a656e73686970207374617475734164647265737320697320616c72656164792061737369676e656420746f206120636974697a656e596f752063616e6e6f74206368616e676520796f7572206f776e20636974697a656e73686970456c656374696f6e20726573756c747320617265206e6f7420617661696c61626c6520756e74696c20656c656374696f6e20697320636c6f736564206f66662066726f6d20766f74696e67546869732063616e64696461746520646f6573206e6f74206861766520746865206869676865737420616d6f756e74206f6620766f7465596f7520617265206e6f74207065726d697474656420746f20766f746520666f722074686973206f666669636520696e2074686973207a6970436f64655468697320706f736974696f6e20776173206e6f7420757020666f7220656c656374696f6e596f7520646f204e4f5420686176652061636365737320746f20636c6f73696e6720616e206f666669636520706f736974696f6e55736572206973206e6f74206f776e6572206f6620636974697a656e20747279696e6720746f206265636f6d652063616e646964617465416363657373436f6e74726f6c3a2073656e646572206d75737420626520616e2061646d696e20746f207265766f6b65456c656374696f6e20726573756c747320617265206e6f7420617661696c61626c6520756e74696c20656c656374696f6e20697320636c6f7365206f66662066726f6d20766f74696e675374617465204964206973206e6f742061737369676e656420746f206120636974697a656e2079657441646472657373206973206e6f742061737369676e656420746f20746f206120636974697a656e2079657455736572206973206e6f74206f776e6572206f6620636974697a656e20747279696e6720746f20766f7465546869732063616e646964617465206973206e6f7420656c696769626c6520666f72207468697320766f746555736572206973206e6f74206f776e6572206f66207265717569726564205374617465204944546869732061646472657373206973206e6f7420656c696769626c6520746f20766f7465596f7520646f204e4f5420686176652061636365737320746f20746869732064617461596f7520646f204e4f5420686176652061636365737320746f206465636c6172696e6720612077696e6e6572206f66207468697320656c656374696f6e54686973206973206e6f742074686520636974697a656e7320636f72726563742061646472657373537461746520494420697320616c72656164792061737369676e656420746f206120636974697a656e416363657373436f6e74726f6c3a2063616e206f6e6c792072656e6f756e636520726f6c657320666f722073656c66596f7520646f204e4f5420686176652061636365737320746f206372656174696e6720616e20656c656374696f6ea26469706673582212201ac66c6400236ccd46f5d5b4e0107a0bf8551559e2b9e4e14a18a4416805e4b564736f6c63430007000033",
  "immutableReferences": {},
  "source": "pragma solidity ^0.7\n.0;\n\nimport \"./OneVote.sol\";\n\n\ncontract Test is OneVote{\n\n  function createCitizen(\n    string memory _name,\n    int64 _dateOfBirth,\n    uint256 _zipCode,\n    uint256 _stateId\n    ) public returns (uint256){\n      return _createCitizen(_name, _dateOfBirth, _zipCode, _stateId);\n    }\n\n\n  function getCitizen(uint256 _citizenId) public view returns(string memory name, int64 dateOfBirth, uint256 zipCode, bool citizenship){\n    return _getCitizen(_citizenId);\n  }\n\n\n  function addressAssignedToId(uint256 _tokenId) public view returns(address){\n    return citizenIndexToOwner[_tokenId];\n  }\n\n\n  function loseOfCitizenship(\n          uint256 _citizenId,\n          address _citizenAddress,\n          string memory _reasonForLoseOfCitizenship\n    ) public{\n      _loseOfCitizenship(_citizenId, _citizenAddress, _reasonForLoseOfCitizenship);\n  }\n\n\n  function filledOfficePosition(uint256 _candidateId) public {\n    _filledOfficePosition(_candidateId);\n  }\n\n\n  function timestamp() public view returns(uint64){\n    return uint64(block.timestamp);\n  }\n\n\n  function getTestResultsOfCandidate(uint256 _candidateId) public view returns(\n        string memory _officeTitle,\n        uint256 _zipCode,\n        string memory _candidateName,\n        uint256 _voteCount\n      )\n  {\n    Candidate storage candidate = candidates[_candidateId];\n\n    Citizen storage citizen = citizens[candidate.citizenId];\n\n    Election storage election = elections[candidate.electionId];\n    /* require(election.electionEnd <= uint64(block.timestamp), \"Election results are not available until election is close off from voting\"); */\n\n    Office storage office = offices[election.officeId];\n\n    _officeTitle = office.officeTitle;\n    _zipCode = office.zipCode;\n    _candidateName = citizen.name;\n    _voteCount = candidate.voteCount;\n  }\n\n\n  function getTestHighestVoteTotal(uint256 _electionId) public view returns(uint64){\n    Election memory election = elections[_electionId];\n\n    require(hasRole(DEFAULT_ADMIN_ROLE, msg.sender) == true, \"You do NOT have access to this data\");\n\n    uint64 highestVoteCount = 0;\n    uint256 i = 0;\n\n    for(i = 0; i < election.candidateIds.length; i++){\n      Candidate memory candidate = candidates[i];\n      if(candidate.voteCount >= highestVoteCount){\n        highestVoteCount = candidate.voteCount;\n      }\n    }\n    return highestVoteCount;\n  }\n\n\n  function declareWinnerOfTestElection(uint256 _candidateId) public {\n    Candidate memory candidate = candidates[_candidateId];\n    require(getTestHighestVoteTotal(candidate.electionId) == candidate.voteCount, \"This candidate does not have the highest amount of vote\");\n\n    filledOfficePosition(_candidateId);\n\n    emit Winner(_candidateId, candidate.officeId, candidate.voteCount, uint64(block.timestamp), msg.sender);\n  }\n\n\n  /* function getTestIdOfWinningCandidates(uint256 _electionId) public view returns(uint256[] memory){\n    Election memory election = elections[_electionId];\n\n    uint64 highestVoteCount = getTestHighestVoteTotal(_electionId);\n    uint256[] memory result = new uint256[](election.candidateIds.length);\n\n    for(uint256 i = 0; i < election.candidateIds.length; i++){\n      Candidate memory candidate = candidates[i];\n      if(candidate.voteCount == highestVoteCount){\n        result[i] = candidate.candidateId;\n      }\n    }\n    return result;\n  } */\n\n\n}\n",
  "sourcePath": "/Users/CalvinCutlass/Desktop/Coding/coding_2020/ivan_bootcamp/week_11/One_Vote/contracts/Test_OneVote.sol",
  "compiler": {
    "name": "solc",
    "version": "0.7.0+commit.9e61f92b.Emscripten.clang"
  },
  "schemaVersion": "3.2.0",
  "updatedAt": "2021-02-18T01:12:26.335Z",
  "devdoc": {
    "kind": "dev",
    "methods": {
      "getRoleAdmin(bytes32)": {
        "details": "Returns the admin role that controls `role`. See {grantRole} and {revokeRole}. To change a role's admin, use {_setRoleAdmin}."
      },
      "getRoleMember(bytes32,uint256)": {
        "details": "Returns one of the accounts that have `role`. `index` must be a value between 0 and {getRoleMemberCount}, non-inclusive. Role bearers are not sorted in any particular way, and their ordering may change at any point. WARNING: When using {getRoleMember} and {getRoleMemberCount}, make sure you perform all queries on the same block. See the following https://forum.openzeppelin.com/t/iterating-over-elements-on-enumerableset-in-openzeppelin-contracts/2296[forum post] for more information."
      },
      "getRoleMemberCount(bytes32)": {
        "details": "Returns the number of accounts that have `role`. Can be used together with {getRoleMember} to enumerate all bearers of a role."
      },
      "grantRole(bytes32,address)": {
        "details": "Grants `role` to `account`. If `account` had not been already granted `role`, emits a {RoleGranted} event. Requirements: - the caller must have ``role``'s admin role."
      },
      "hasRole(bytes32,address)": {
        "details": "Returns `true` if `account` has been granted `role`."
      },
      "renounceRole(bytes32,address)": {
        "details": "Revokes `role` from the calling account. Roles are often managed via {grantRole} and {revokeRole}: this function's purpose is to provide a mechanism for accounts to lose their privileges if they are compromised (such as when a trusted device is misplaced). If the calling account had been granted `role`, emits a {RoleRevoked} event. Requirements: - the caller must be `account`."
      },
      "revokeRole(bytes32,address)": {
        "details": "Revokes `role` from `account`. If `account` had been granted `role`, emits a {RoleRevoked} event. Requirements: - the caller must have ``role``'s admin role."
      }
    },
    "version": 1
  },
  "userdoc": {
    "kind": "user",
    "methods": {},
    "version": 1
  }
}