{
  "contractName": "OneVote",
  "abi": [
    {
      "anonymous": false,
      "inputs": [
        {
          "indexed": false,
          "internalType": "address",
          "name": "from",
          "type": "address"
        },
        {
          "indexed": false,
          "internalType": "address",
          "name": "to",
          "type": "address"
        },
        {
          "indexed": false,
          "internalType": "uint256",
          "name": "tokenId",
          "type": "uint256"
        }
      ],
      "name": "Assigned",
      "type": "event"
    },
    {
      "anonymous": false,
      "inputs": [
        {
          "indexed": false,
          "internalType": "address",
          "name": "owner",
          "type": "address"
        },
        {
          "indexed": false,
          "internalType": "uint256",
          "name": "citizenId",
          "type": "uint256"
        },
        {
          "indexed": false,
          "internalType": "uint256",
          "name": "stateId",
          "type": "uint256"
        },
        {
          "indexed": false,
          "internalType": "uint256",
          "name": "zipCode",
          "type": "uint256"
        }
      ],
      "name": "CitizenAdded",
      "type": "event"
    },
    {
      "inputs": [
        {
          "internalType": "uint256",
          "name": "",
          "type": "uint256"
        }
      ],
      "name": "citizenIndexToOwner",
      "outputs": [
        {
          "internalType": "address",
          "name": "",
          "type": "address"
        }
      ],
      "stateMutability": "view",
      "type": "function",
      "constant": true
    }
  ],
  "bytecode": "0x608060405234801561001057600080fd5b50610101806100206000396000f3fe6080604052348015600f57600080fd5b506004361060285760003560e01c806367bb975314602d575b600080fd5b605660048036036020811015604157600080fd5b81019080803590602001909291905050506098565b604051808273ffffffffffffffffffffffffffffffffffffffff1673ffffffffffffffffffffffffffffffffffffffff16815260200191505060405180910390f35b60016020528060005260406000206000915054906101000a900473ffffffffffffffffffffffffffffffffffffffff168156fea26469706673582212203749baf4828f39355b0043f674df4d138cf20359bfde88d62ff091efa7ab63bc64736f6c63430006060033",
  "immutableReferences": {},
  "source": "pragma solidity ^0.6.6;\n\nimport \"./Safemath.sol\";\n\ncontract OneVote {\n\n    using SafeMath for uint256;\n\n\n//events\n    //emitted when citizen is created showing new citizen's name, indexed citizen's address zip code, date approved\n    event CitizenAdded(address owner, uint256 citizenId, uint256 stateId, uint256 zipCode);\n\n    //emitted when citizen is assigned to a corresponding address\n    event Assigned(address from, address to, uint256 tokenId);\n\n    struct Citizen {\n        uint256 stateId;\n        string name;\n        uint256 dateOfBirth;\n        uint256 zipCode;\n        uint256 dateApproved;\n        bool citizenship;\n    }\n\n    Citizen[] citizens;\n\n\n    mapping(uint256 => address) public citizenIndexToOwner;\n    mapping(uint256 => bool) private stateIdInUse;\n\n\n//function\n    //creates citizens that will be able to vote if citizens are included in a particular election\n    //emits event once citizen is created\n    //a citizen cannot have the same stateId as another citizen\n    function _createCitizen(\n            string memory _name,\n            uint256 _dateOfBirth,\n            uint256 _zipCode,\n            uint256 _stateId\n        ) internal returns (uint256){\n          require(stateIdInUse[_stateId] == false, \"State ID is already assigned to a citizen\");\n\n            Citizen memory _citizen = Citizen({\n                stateId: _stateId,\n                name: _name,\n                dateOfBirth: _dateOfBirth,\n                zipCode: _zipCode,\n                dateApproved: uint64(now),\n                citizenship: true\n            });\n\n            citizens.push(_citizen);\n            uint256 newCitizenId = citizens.length - 1;\n\n            stateIdInUse[_stateId] = true;\n\n            emit CitizenAdded(msg.sender, newCitizenId, _stateId, _zipCode);\n\n            _assignCitizenIdToAddress(address(0), msg.sender, newCitizenId);\n\n            return newCitizenId;\n            }\n\n\n      //gets citizen data\n      //must be internal to prevent data being seen by unwanted users\n      function _getCitizen(uint256 _citizenId)internal view returns(\n            string memory name,\n            uint256 dateOfBirth,\n            uint256 zipCode\n          )\n      {\n                Citizen storage citizen = citizens[_citizenId];\n\n                name = citizen.name;\n                dateOfBirth = citizen.dateOfBirth;\n                zipCode = citizen.zipCode;\n      }\n\n      //transfer citizen data to address the citizen was created to represent\n      function _assignCitizenIdToAddress(address _from, address _to, uint256 _tokenId) internal {\n        citizenIndexToOwner[_tokenId] = _to;\n\n        emit Assigned(_from, _to, _tokenId);\n      }\n}\n",
  "sourcePath": "/Users/CalvinCutlass/Desktop/Coding/coding_2020/ivan_bootcamp/week_11/One_Vote/contracts/OneVote.sol",
  "compiler": {
    "name": "solc",
    "version": "0.6.6+commit.6c089d02.Emscripten.clang"
  },
  "schemaVersion": "3.2.0",
  "updatedAt": "2020-12-23T07:08:42.495Z",
  "networkType": "ethereum",
  "devdoc": {
    "methods": {}
  },
  "userdoc": {
    "methods": {}
  }
}