{
  "contractName": "Test",
  "abi": [
    {
      "anonymous": false,
      "inputs": [
        {
          "indexed": false,
          "internalType": "address",
          "name": "from",
          "type": "address"
        },
        {
          "indexed": false,
          "internalType": "address",
          "name": "to",
          "type": "address"
        },
        {
          "indexed": false,
          "internalType": "uint256",
          "name": "tokenId",
          "type": "uint256"
        }
      ],
      "name": "Assigned",
      "type": "event"
    },
    {
      "anonymous": false,
      "inputs": [
        {
          "indexed": false,
          "internalType": "address",
          "name": "owner",
          "type": "address"
        },
        {
          "indexed": false,
          "internalType": "uint256",
          "name": "citizenId",
          "type": "uint256"
        },
        {
          "indexed": false,
          "internalType": "uint256",
          "name": "stateId",
          "type": "uint256"
        },
        {
          "indexed": false,
          "internalType": "uint256",
          "name": "zipCode",
          "type": "uint256"
        }
      ],
      "name": "CitizenAdded",
      "type": "event"
    },
    {
      "inputs": [
        {
          "internalType": "uint256",
          "name": "",
          "type": "uint256"
        }
      ],
      "name": "citizenIndexToOwner",
      "outputs": [
        {
          "internalType": "address",
          "name": "",
          "type": "address"
        }
      ],
      "stateMutability": "view",
      "type": "function"
    },
    {
      "inputs": [
        {
          "internalType": "string",
          "name": "_name",
          "type": "string"
        },
        {
          "internalType": "uint256",
          "name": "_dateOfBirth",
          "type": "uint256"
        },
        {
          "internalType": "uint256",
          "name": "_zipCode",
          "type": "uint256"
        },
        {
          "internalType": "uint256",
          "name": "_stateId",
          "type": "uint256"
        }
      ],
      "name": "createCitizen",
      "outputs": [
        {
          "internalType": "uint256",
          "name": "",
          "type": "uint256"
        }
      ],
      "stateMutability": "nonpayable",
      "type": "function"
    },
    {
      "inputs": [
        {
          "internalType": "address",
          "name": "_from",
          "type": "address"
        },
        {
          "internalType": "address",
          "name": "_to",
          "type": "address"
        },
        {
          "internalType": "uint256",
          "name": "_tokenId",
          "type": "uint256"
        }
      ],
      "name": "assignCitizenIdToAddress",
      "outputs": [],
      "stateMutability": "nonpayable",
      "type": "function"
    }
  ],
  "bytecode": "0x608060405234801561001057600080fd5b506106be806100206000396000f3fe608060405234801561001057600080fd5b50600436106100415760003560e01c806367bb9753146100465780638d5f7eb5146100b4578063b5953b2014610122575b600080fd5b6100726004803603602081101561005c57600080fd5b810190808035906020019092919050505061020f565b604051808273ffffffffffffffffffffffffffffffffffffffff1673ffffffffffffffffffffffffffffffffffffffff16815260200191505060405180910390f35b610120600480360360608110156100ca57600080fd5b81019080803573ffffffffffffffffffffffffffffffffffffffff169060200190929190803573ffffffffffffffffffffffffffffffffffffffff16906020019092919080359060200190929190505050610242565b005b6101f96004803603608081101561013857600080fd5b810190808035906020019064010000000081111561015557600080fd5b82018360208201111561016757600080fd5b8035906020019184600183028401116401000000008311171561018957600080fd5b91908080601f016020809104026020016040519081016040528093929190818152602001838380828437600081840152601f19601f820116905080830192505050505050509192919290803590602001909291908035906020019092919080359060200190929190505050610252565b6040518082815260200191505060405180910390f35b60016020528060005260406000206000915054906101000a900473ffffffffffffffffffffffffffffffffffffffff1681565b61024d83838361026a565b505050565b600061026085858585610360565b9050949350505050565b816001600083815260200190815260200160002060006101000a81548173ffffffffffffffffffffffffffffffffffffffff021916908373ffffffffffffffffffffffffffffffffffffffff1602179055507f0c0ee92e381a7696445c71651e0d09689a61bd67a3b7c08ebe8fec6339c1e011838383604051808473ffffffffffffffffffffffffffffffffffffffff1673ffffffffffffffffffffffffffffffffffffffff1681526020018373ffffffffffffffffffffffffffffffffffffffff1673ffffffffffffffffffffffffffffffffffffffff168152602001828152602001935050505060405180910390a1505050565b60008015156002600084815260200190815260200160002060009054906101000a900460ff161515146103de576040517f08c379a00000000000000000000000000000000000000000000000000000000081526004018080602001828103825260298152602001806106606029913960400191505060405180910390fd5b6103e6610582565b6040518060c001604052808481526020018781526020018681526020018581526020014267ffffffffffffffff16815260200160011515815250905060008190806001815401808255809150506001900390600052602060002090600602016000909190919091506000820151816000015560208201518160010190805190602001906104749291906105ba565b5060408201518160020155606082015181600301556080820151816004015560a08201518160050160006101000a81548160ff02191690831515021790555050506000600160008054905003905060016002600086815260200190815260200160002060006101000a81548160ff0219169083151502179055507fa12daf0dc9e98c44420339df34fbae8835074be1a972516ca7363d867ca01d9c33828688604051808573ffffffffffffffffffffffffffffffffffffffff1673ffffffffffffffffffffffffffffffffffffffff16815260200184815260200183815260200182815260200194505050505060405180910390a16105756000338361026a565b8092505050949350505050565b6040518060c0016040528060008152602001606081526020016000815260200160008152602001600081526020016000151581525090565b828054600181600116156101000203166002900490600052602060002090601f016020900481019282601f106105fb57805160ff1916838001178555610629565b82800160010185558215610629579182015b8281111561062857825182559160200191906001019061060d565b5b509050610636919061063a565b5090565b61065c91905b80821115610658576000816000905550600101610640565b5090565b9056fe537461746520494420697320616c72656164792061737369676e656420746f206120636974697a656ea2646970667358221220b79fc92ed10a6fbb5f70c0194ea001866b49f780ff7505d75617088a1cb6152864736f6c63430006060033",
  "immutableReferences": {},
  "source": "pragma solidity ^0.6.6;\n\nimport \"./OneVote.sol\";\n\n\ncontract Test is OneVote {\n\n  function createCitizen(\n    string memory _name,\n    uint256 _dateOfBirth,\n    uint256 _zipCode,\n    uint256 _stateId\n    ) public returns (uint256){\n      return _createCitizen(_name, _dateOfBirth, _zipCode, _stateId);\n    }\n\n\n  /* function getCitizen(uint256 _citizenId) public view retruns(string memory name, uint256 dateOfBirth, uint256 zipCode){\n    retrun _getCitizen(_citizenId);\n  } */\n\n\n  function assignCitizenIdToAddress(address _from, address _to, uint256 _tokenId) public {\n    _assignCitizenIdToAddress(_from, _to, _tokenId);\n  }\n}\n",
  "sourcePath": "/Users/CalvinCutlass/Desktop/Coding/coding_2020/ivan_bootcamp/week_11/One_Vote/contracts/Test_OneVote.sol",
  "compiler": {
    "name": "solc",
    "version": "0.6.6+commit.6c089d02.Emscripten.clang"
  },
  "schemaVersion": "3.2.0",
  "updatedAt": "2020-12-23T07:01:56.689Z",
  "devdoc": {
    "methods": {}
  },
  "userdoc": {
    "methods": {}
  }
}